{
  "contractName": "Bond",
  "abi": [
    {
      "constant": true,
      "inputs": [],
      "name": "name",
      "outputs": [
        {
          "name": "",
          "type": "string"
        }
      ],
      "payable": false,
      "stateMutability": "view",
      "type": "function"
    },
    {
      "constant": false,
      "inputs": [
        {
          "name": "spender",
          "type": "address"
        },
        {
          "name": "amount",
          "type": "uint256"
        }
      ],
      "name": "approve",
      "outputs": [
        {
          "name": "",
          "type": "bool"
        }
      ],
      "payable": false,
      "stateMutability": "nonpayable",
      "type": "function"
    },
    {
      "constant": true,
      "inputs": [],
      "name": "totalSupply",
      "outputs": [
        {
          "name": "",
          "type": "uint256"
        }
      ],
      "payable": false,
      "stateMutability": "view",
      "type": "function"
    },
    {
      "constant": false,
      "inputs": [
        {
          "name": "sender",
          "type": "address"
        },
        {
          "name": "recipient",
          "type": "address"
        },
        {
          "name": "amount",
          "type": "uint256"
        }
      ],
      "name": "transferFrom",
      "outputs": [
        {
          "name": "",
          "type": "bool"
        }
      ],
      "payable": false,
      "stateMutability": "nonpayable",
      "type": "function"
    },
    {
      "constant": true,
      "inputs": [],
      "name": "decimals",
      "outputs": [
        {
          "name": "",
          "type": "uint8"
        }
      ],
      "payable": false,
      "stateMutability": "view",
      "type": "function"
    },
    {
      "constant": false,
      "inputs": [
        {
          "name": "spender",
          "type": "address"
        },
        {
          "name": "addedValue",
          "type": "uint256"
        }
      ],
      "name": "increaseAllowance",
      "outputs": [
        {
          "name": "",
          "type": "bool"
        }
      ],
      "payable": false,
      "stateMutability": "nonpayable",
      "type": "function"
    },
    {
      "constant": true,
      "inputs": [
        {
          "name": "",
          "type": "address"
        },
        {
          "name": "",
          "type": "address"
        }
      ],
      "name": "issues",
      "outputs": [
        {
          "name": "parValue",
          "type": "uint256"
        },
        {
          "name": "paidInAmount",
          "type": "uint256"
        },
        {
          "name": "paidInCurrency",
          "type": "bytes32"
        },
        {
          "name": "timeIssuedOrSubscribed",
          "type": "uint256"
        },
        {
          "name": "purchasedIssueAmount",
          "type": "uint256"
        }
      ],
      "payable": false,
      "stateMutability": "view",
      "type": "function"
    },
    {
      "constant": true,
      "inputs": [
        {
          "name": "",
          "type": "address"
        },
        {
          "name": "",
          "type": "address"
        }
      ],
      "name": "purchases",
      "outputs": [
        {
          "name": "parValue",
          "type": "uint256"
        },
        {
          "name": "paidInAmount",
          "type": "uint256"
        },
        {
          "name": "paidInCurrency",
          "type": "bytes32"
        },
        {
          "name": "timeIssuedOrSubscribed",
          "type": "uint256"
        },
        {
          "name": "purchasedIssueAmount",
          "type": "uint256"
        }
      ],
      "payable": false,
      "stateMutability": "view",
      "type": "function"
    },
    {
      "constant": true,
      "inputs": [
        {
          "name": "account",
          "type": "address"
        }
      ],
      "name": "balanceOf",
      "outputs": [
        {
          "name": "",
          "type": "uint256"
        }
      ],
      "payable": false,
      "stateMutability": "view",
      "type": "function"
    },
    {
      "constant": false,
      "inputs": [],
      "name": "renounceOwnership",
      "outputs": [],
      "payable": false,
      "stateMutability": "nonpayable",
      "type": "function"
    },
    {
      "constant": true,
      "inputs": [],
      "name": "bondName",
      "outputs": [
        {
          "name": "",
          "type": "bytes32"
        }
      ],
      "payable": false,
      "stateMutability": "view",
      "type": "function"
    },
    {
      "constant": true,
      "inputs": [],
      "name": "owner",
      "outputs": [
        {
          "name": "",
          "type": "address"
        }
      ],
      "payable": false,
      "stateMutability": "view",
      "type": "function"
    },
    {
      "constant": true,
      "inputs": [],
      "name": "isOwner",
      "outputs": [
        {
          "name": "",
          "type": "bool"
        }
      ],
      "payable": false,
      "stateMutability": "view",
      "type": "function"
    },
    {
      "constant": true,
      "inputs": [],
      "name": "symbol",
      "outputs": [
        {
          "name": "",
          "type": "string"
        }
      ],
      "payable": false,
      "stateMutability": "view",
      "type": "function"
    },
    {
      "constant": false,
      "inputs": [
        {
          "name": "spender",
          "type": "address"
        },
        {
          "name": "subtractedValue",
          "type": "uint256"
        }
      ],
      "name": "decreaseAllowance",
      "outputs": [
        {
          "name": "",
          "type": "bool"
        }
      ],
      "payable": false,
      "stateMutability": "nonpayable",
      "type": "function"
    },
    {
      "constant": false,
      "inputs": [
        {
          "name": "recipient",
          "type": "address"
        },
        {
          "name": "amount",
          "type": "uint256"
        }
      ],
      "name": "transfer",
      "outputs": [
        {
          "name": "",
          "type": "bool"
        }
      ],
      "payable": false,
      "stateMutability": "nonpayable",
      "type": "function"
    },
    {
      "constant": true,
      "inputs": [],
      "name": "isPaused",
      "outputs": [
        {
          "name": "",
          "type": "bool"
        }
      ],
      "payable": false,
      "stateMutability": "view",
      "type": "function"
    },
    {
      "constant": true,
      "inputs": [
        {
          "name": "",
          "type": "uint256"
        }
      ],
      "name": "bondsIssued",
      "outputs": [
        {
          "name": "",
          "type": "address"
        }
      ],
      "payable": false,
      "stateMutability": "view",
      "type": "function"
    },
    {
      "constant": true,
      "inputs": [
        {
          "name": "owner",
          "type": "address"
        },
        {
          "name": "spender",
          "type": "address"
        }
      ],
      "name": "allowance",
      "outputs": [
        {
          "name": "",
          "type": "uint256"
        }
      ],
      "payable": false,
      "stateMutability": "view",
      "type": "function"
    },
    {
      "constant": false,
      "inputs": [
        {
          "name": "newOwner",
          "type": "address"
        }
      ],
      "name": "transferOwnership",
      "outputs": [],
      "payable": false,
      "stateMutability": "nonpayable",
      "type": "function"
    },
    {
      "payable": true,
      "stateMutability": "payable",
      "type": "fallback"
    },
    {
      "anonymous": false,
      "inputs": [
        {
          "indexed": true,
          "name": "party",
          "type": "address"
        },
        {
          "indexed": false,
          "name": "token",
          "type": "address"
        },
        {
          "indexed": false,
          "name": "bondName",
          "type": "bytes32"
        },
        {
          "indexed": false,
          "name": "amount",
          "type": "uint256"
        },
        {
          "indexed": false,
          "name": "currency",
          "type": "bytes32"
        },
        {
          "indexed": false,
          "name": "collateralAmount",
          "type": "uint256"
        },
        {
          "indexed": false,
          "name": "issueTime",
          "type": "uint256"
        }
      ],
      "name": "BondIssued",
      "type": "event"
    },
    {
      "anonymous": false,
      "inputs": [
        {
          "indexed": true,
          "name": "party",
          "type": "address"
        },
        {
          "indexed": false,
          "name": "token",
          "type": "address"
        },
        {
          "indexed": false,
          "name": "tokenAmount",
          "type": "uint256"
        },
        {
          "indexed": false,
          "name": "tokenName",
          "type": "bytes32"
        },
        {
          "indexed": false,
          "name": "amount",
          "type": "uint256"
        },
        {
          "indexed": false,
          "name": "currency",
          "type": "bytes32"
        }
      ],
      "name": "BondRedeemed",
      "type": "event"
    },
    {
      "anonymous": false,
      "inputs": [
        {
          "indexed": true,
          "name": "party",
          "type": "address"
        },
        {
          "indexed": false,
          "name": "token",
          "type": "address"
        },
        {
          "indexed": false,
          "name": "bondName",
          "type": "bytes32"
        },
        {
          "indexed": false,
          "name": "amount",
          "type": "uint256"
        },
        {
          "indexed": false,
          "name": "currency",
          "type": "bytes32"
        },
        {
          "indexed": false,
          "name": "paidInAmount",
          "type": "uint256"
        },
        {
          "indexed": false,
          "name": "purchaseTime",
          "type": "uint256"
        }
      ],
      "name": "BondPurchased",
      "type": "event"
    },
    {
      "anonymous": false,
      "inputs": [
        {
          "indexed": true,
          "name": "party",
          "type": "address"
        },
        {
          "indexed": false,
          "name": "token",
          "type": "address"
        },
        {
          "indexed": false,
          "name": "tokenAmount",
          "type": "uint256"
        },
        {
          "indexed": false,
          "name": "tokenName",
          "type": "bytes32"
        },
        {
          "indexed": false,
          "name": "amount",
          "type": "uint256"
        },
        {
          "indexed": false,
          "name": "currency",
          "type": "bytes32"
        }
      ],
      "name": "BondLiquidated",
      "type": "event"
    },
    {
      "anonymous": false,
      "inputs": [],
      "name": "Paused",
      "type": "event"
    },
    {
      "anonymous": false,
      "inputs": [],
      "name": "Unpaused",
      "type": "event"
    },
    {
      "anonymous": false,
      "inputs": [
        {
          "indexed": true,
          "name": "previousOwner",
          "type": "address"
        },
        {
          "indexed": true,
          "name": "newOwner",
          "type": "address"
        }
      ],
      "name": "OwnershipTransferred",
      "type": "event"
    },
    {
      "anonymous": false,
      "inputs": [
        {
          "indexed": true,
          "name": "from",
          "type": "address"
        },
        {
          "indexed": true,
          "name": "to",
          "type": "address"
        },
        {
          "indexed": false,
          "name": "value",
          "type": "uint256"
        }
      ],
      "name": "Transfer",
      "type": "event"
    },
    {
      "anonymous": false,
      "inputs": [
        {
          "indexed": true,
          "name": "owner",
          "type": "address"
        },
        {
          "indexed": true,
          "name": "spender",
          "type": "address"
        },
        {
          "indexed": false,
          "name": "value",
          "type": "uint256"
        }
      ],
      "name": "Approval",
      "type": "event"
    },
    {
      "constant": false,
      "inputs": [
        {
          "name": "_name",
          "type": "bytes32"
        },
        {
          "name": "_currency",
          "type": "bytes32"
        },
        {
          "name": "_owner",
          "type": "address"
        },
        {
          "name": "_oracle",
          "type": "address"
        },
        {
          "name": "_token",
          "type": "address"
        },
        {
          "name": "_fee",
          "type": "address"
        }
      ],
      "name": "initialize",
      "outputs": [],
      "payable": false,
      "stateMutability": "nonpayable",
      "type": "function"
    },
    {
      "constant": false,
      "inputs": [
        {
          "name": "sender",
          "type": "address"
        }
      ],
      "name": "initialize",
      "outputs": [],
      "payable": false,
      "stateMutability": "nonpayable",
      "type": "function"
    },
    {
      "constant": false,
      "inputs": [
        {
          "name": "amount",
          "type": "uint256"
        },
        {
          "name": "payer",
          "type": "address"
        },
        {
          "name": "currency",
          "type": "bytes32"
        },
        {
          "name": "cashContract",
          "type": "address"
        }
      ],
      "name": "requestIssue",
      "outputs": [
        {
          "name": "",
          "type": "bool"
        }
      ],
      "payable": false,
      "stateMutability": "nonpayable",
      "type": "function"
    },
    {
      "constant": false,
      "inputs": [
        {
          "name": "amount",
          "type": "uint256"
        },
        {
          "name": "payer",
          "type": "address"
        },
        {
          "name": "currency",
          "type": "bytes32"
        },
        {
          "name": "cashContract",
          "type": "address"
        }
      ],
      "name": "requestPurchase",
      "outputs": [
        {
          "name": "",
          "type": "bool"
        }
      ],
      "payable": false,
      "stateMutability": "nonpayable",
      "type": "function"
    },
    {
      "constant": false,
      "inputs": [
        {
          "name": "amount",
          "type": "uint256"
        },
        {
          "name": "payer",
          "type": "address"
        },
        {
          "name": "currency",
          "type": "bytes32"
        },
        {
          "name": "tokenContract",
          "type": "address"
        }
      ],
      "name": "requestRedemption",
      "outputs": [
        {
          "name": "",
          "type": "bool"
        }
      ],
      "payable": false,
      "stateMutability": "nonpayable",
      "type": "function"
    },
    {
      "constant": false,
      "inputs": [
        {
          "name": "sender",
          "type": "address"
        },
        {
          "name": "receiver",
          "type": "address"
        },
        {
          "name": "tokens",
          "type": "uint256"
        },
        {
          "name": "forwarder",
          "type": "address"
        }
      ],
      "name": "transferForward",
      "outputs": [
        {
          "name": "",
          "type": "bool"
        }
      ],
      "payable": false,
      "stateMutability": "nonpayable",
      "type": "function"
    },
    {
      "constant": true,
      "inputs": [],
      "name": "getBonds",
      "outputs": [
        {
          "name": "",
          "type": "address[]"
        }
      ],
      "payable": false,
      "stateMutability": "view",
      "type": "function"
    },
    {
      "constant": true,
      "inputs": [
        {
          "name": "issuer",
          "type": "address"
        },
        {
          "name": "bondToken",
          "type": "address"
        }
      ],
      "name": "getBondIssues",
      "outputs": [
        {
          "name": "",
          "type": "uint256"
        },
        {
          "name": "",
          "type": "uint256"
        },
        {
          "name": "",
          "type": "uint256"
        },
        {
          "name": "",
          "type": "bytes32"
        },
        {
          "name": "",
          "type": "uint256"
        }
      ],
      "payable": false,
      "stateMutability": "view",
      "type": "function"
    },
    {
      "constant": true,
      "inputs": [
        {
          "name": "purchaser",
          "type": "address"
        },
        {
          "name": "bondToken",
          "type": "address"
        }
      ],
      "name": "getBondPurchases",
      "outputs": [
        {
          "name": "",
          "type": "uint256"
        },
        {
          "name": "",
          "type": "uint256"
        },
        {
          "name": "",
          "type": "bytes32"
        },
        {
          "name": "",
          "type": "uint256"
        }
      ],
      "payable": false,
      "stateMutability": "view",
      "type": "function"
    },
    {
      "constant": false,
      "inputs": [],
      "name": "pause",
      "outputs": [],
      "payable": false,
      "stateMutability": "nonpayable",
      "type": "function"
    },
    {
      "constant": false,
      "inputs": [],
      "name": "unpause",
      "outputs": [],
      "payable": false,
      "stateMutability": "nonpayable",
      "type": "function"
    }
  ],
  "bytecode": "0x6080604052614b08806100136000396000f3fe6080604052600436106101d85760003560e01c806381ca86fe1161010257806395d89b4111610095578063c4d66de811610064578063c4d66de814610584578063d478b274146105a4578063dd62ed3e146105c4578063f2fde38b146105e4576101d8565b806395d89b411461051a578063a457c2d71461052f578063a9059cbb1461054f578063b187bd261461056f576101d8565b80638b140f6b116100d15780638b140f6b146104a15780638da5cb5b146104c35780638f32d59b146104e55780638fba9c7c146104fa576101d8565b806381ca86fe146104375780638456cb5914610457578063887b6abc1461046c57806389d29c4c14610481576101d8565b8063313ce5671161017a578063410a6c7d11610149578063410a6c7d146103b25780636b98f835146103e257806370a0823114610402578063715018a614610422576101d8565b8063313ce56714610328578063395093511461034a57806339baf4801461036a5780633f4ba83a1461039b576101d8565b80631f6fbfae116101b65780631f6fbfae146102a857806320f46de1146102c857806323b872dd146102e85780633138088814610308576101d8565b806306fdde031461022e578063095ea7b31461025957806318160ddd14610286575b346101e257600080fd5b36156101ed57600080fd5b609d5460ff16156101fd57600080fd5b61020633610604565b151560011461021457600080fd5b61022b3433600160d91b6432ba3432b90230610740565b50005b34801561023a57600080fd5b50610243610b0a565b60405161025091906147c0565b60405180910390f35b34801561026557600080fd5b50610279610274366004613ecf565b610ba1565b60405161025091906146ed565b34801561029257600080fd5b5061029b610bbf565b60405161025091906146fb565b3480156102b457600080fd5b506102796102c3366004614015565b610bc5565b3480156102d457600080fd5b506102796102e3366004614015565b610d48565b3480156102f457600080fd5b50610279610303366004613e21565b610e42565b34801561031457600080fd5b50610279610323366004614015565b610ed0565b34801561033457600080fd5b5061033d610fb4565b6040516102509190614939565b34801561035657600080fd5b50610279610365366004613ecf565b610fb9565b34801561037657600080fd5b5061038a610385366004613de7565b61100d565b60405161025095949392919061492b565b3480156103a757600080fd5b506103b0611047565b005b3480156103be57600080fd5b506103d26103cd366004613de7565b6110a7565b6040516102509493929190614910565b3480156103ee57600080fd5b5061038a6103fd366004613de7565b6110eb565b34801561040e57600080fd5b5061029b61041d366004613dab565b611125565b34801561042e57600080fd5b506103b0611140565b34801561044357600080fd5b50610279610452366004613e6e565b6111ba565b34801561046357600080fd5b506103b0611288565b34801561047857600080fd5b5061029b6112e4565b34801561048d57600080fd5b506103b061049c366004613f3b565b6112ea565b3480156104ad57600080fd5b506104b66114ac565b60405161025091906146dc565b3480156104cf57600080fd5b506104d861150d565b60405161025091906145a2565b3480156104f157600080fd5b5061027961151c565b34801561050657600080fd5b5061038a610515366004613de7565b611542565b34801561052657600080fd5b5061024361158a565b34801561053b57600080fd5b5061027961054a366004613ecf565b6115eb565b34801561055b57600080fd5b5061027961056a366004613ecf565b611659565b34801561057b57600080fd5b5061027961166d565b34801561059057600080fd5b506103b061059f366004613dab565b611676565b3480156105b057600080fd5b506104d86105bf366004613ff7565b61174b565b3480156105d057600080fd5b5061029b6105df366004613de7565b611772565b3480156105f057600080fd5b506103b06105ff366004613dab565b61179d565b600080609d60019054906101000a90046001600160a01b03166001600160a01b03166359dc735c6040518163ffffffff1660e01b815260040160206040518083038186803b15801561065557600080fd5b505afa158015610669573d6000803e3d6000fd5b505050506040513d601f19601f8201168201806040525061068d9190810190613dc9565b90506001600160a01b0381166106a757600191505061073b565b604051600160e01b633a2910330281526001600160a01b03821690633a291033906106d69086906004016145a2565b60206040518083038186803b1580156106ee57600080fd5b505afa158015610702573d6000803e3d6000fd5b505050506040513d601f19601f820116820180604052506107269190810190613eff565b1561073557600191505061073b565b60009150505b919050565b60008461074c57600080fd5b82600160d91b6432ba3432b9021461089557609d54604051600160e01b63f429f19b0281526101009091046001600160a01b03169063f429f19b906107959085906004016145a2565b60206040518083038186803b1580156107ad57600080fd5b505afa1580156107c1573d6000803e3d6000fd5b505050506040513d601f19601f820116820180604052506107e59190810190613f1d565b600160cb1b660acd2c286c2e6d02141561088d57604051600160e11b637c06e5cd0281526001600160a01b0383169063f80dcb9a9061082a90889088906004016148f5565b602060405180830381600087803b15801561084457600080fd5b505af1158015610858573d6000803e3d6000fd5b505050506040513d601f19601f8201168201806040525061087c9190810190613eff565b61088857506000610b02565b610895565b506000610b02565b6108ad8584600160c81b6669737375696e67026117d0565b609d54604051600160e21b633cd163c5028152919650600091829161010090046001600160a01b03169063f3458f14906108eb9088906004016147a6565b60206040518083038186803b15801561090357600080fd5b505afa158015610917573d6000803e3d6000fd5b505050506040513d601f19601f8201168201806040525061093b9190810190613dc9565b6001600160a01b0316146109d957609f5460a054604051600160e11b634d3038fd0281526001600160a01b0390921691639a6071fa9161098091889190600401614709565b602060405180830381600087803b15801561099a57600080fd5b505af11580156109ae573d6000803e3d6000fd5b505050506040513d601f19601f820116820180604052506109d29190810190613f1d565b9050610af4565b609f5460a054604051600160e11b633ce109830281526001600160a01b0390921691639a6071fa91879173__stringutils___________________________916379c2130691610a32919060039060059060040161477e565b60206040518083038186803b158015610a4a57600080fd5b505af4158015610a5e573d6000803e3d6000fd5b505050506040513d601f19601f82011682018060405250610a829190810190613f1d565b6040518363ffffffff1660e01b8152600401610a9f929190614757565b602060405180830381600087803b158015610ab957600080fd5b505af1158015610acd573d6000803e3d6000fd5b505050506040513d601f19601f82011682018060405250610af19190810190613f1d565b90505b610b0085828887611b41565b505b949350505050565b60368054604080516020601f6002600019610100600188161502019095169490940493840181900481028201810190925282815260609390929091830182828015610b965780601f10610b6b57610100808354040283529160200191610b96565b820191906000526020600020905b815481529060010190602001808311610b7957829003601f168201915b505050505090505b90565b6000610bb5610bae611d89565b8484611d8d565b5060015b92915050565b60355490565b609d5460009060ff1615610bd857600080fd5b610be184610604565b1515600114610bef57600080fd5b609d54604051600160e01b63f429f19b0281526101009091046001600160a01b03169063f429f19b90610c269033906004016145b0565b60206040518083038186803b158015610c3e57600080fd5b505afa158015610c52573d6000803e3d6000fd5b505050506040513d601f19601f82011682018060405250610c769190810190613f1d565b600160a11b6b2b34b0a137b7322a37b5b2b70214610c9357600080fd5b609d54604051600160e01b63f429f19b0281526101009091046001600160a01b03169063f429f19b90610cca9085906004016145a2565b60206040518083038186803b158015610ce257600080fd5b505afa158015610cf6573d6000803e3d6000fd5b505050506040513d601f19601f82011682018060405250610d1a9190810190613f1d565b600160cb1b660acd2c286c2e6d0214610d3257600080fd5b610d3f8585858533611e47565b95945050505050565b609d5460009060ff1615610d5b57600080fd5b610d6484610604565b1515600114610d7257600080fd5b609d54604051600160e01b63f429f19b0281526101009091046001600160a01b03169063f429f19b90610da99033906004016145b0565b60206040518083038186803b158015610dc157600080fd5b505afa158015610dd5573d6000803e3d6000fd5b505050506040513d601f19601f82011682018060405250610df99190810190613f1d565b600160a11b6b2b34b0a137b7322a37b5b2b70214610e1657600080fd5b610e35858585600160a11b6b21b0b9b42a3930b739b332b902866120ed565b1561088d57506001610b02565b6000610e4f848484613076565b610ec584610e5b611d89565b610ec085604051806060016040528060288152602001614a82602891396001600160a01b038a16600090815260346020526040812090610e99611d89565b6001600160a01b03168152602081019190915260400160002054919063ffffffff61319216565b611d8d565b5060015b9392505050565b609d5460009060ff1615610ee357600080fd5b8260a0541415610ef257600080fd5b610efb84610604565b1515600114610f0957600080fd5b609d54604051600160e01b63f429f19b0281526101009091046001600160a01b03169063f429f19b90610f409033906004016145b0565b60206040518083038186803b158015610f5857600080fd5b505afa158015610f6c573d6000803e3d6000fd5b505050506040513d601f19601f82011682018060405250610f909190810190613f1d565b600160cb1b660acd2c286c2e6d0214610fa857600080fd5b610d3f85858585610740565b601290565b6000610bb5610fc6611d89565b84610ec08560346000610fd7611d89565b6001600160a01b03908116825260208083019390935260409182016000908120918c16815292529020549063ffffffff6131c116565b60a2602090815260009283526040808420909152908252902080546001820154600283015460038401546004909401549293919290919085565b609d54339061010090046001600160a01b031661106261150d565b6001600160a01b0316826001600160a01b031614806110925750806001600160a01b0316826001600160a01b0316145b61109b57600080fd5b6110a36131e9565b5050565b6001600160a01b03918216600090815260a2602090815260408083209390941682529190915220600481015460018201546002830154600390930154919390929190565b60a3602090815260009283526040808420909152908252902080546001820154600283015460038401546004909401549293919290919085565b6001600160a01b031660009081526033602052604090205490565b61114861151c565b61117057604051600160e51b62461bcd02815260040161116790614848565b60405180910390fd5b606a546040516000916001600160a01b0316907f8be0079c531659141344cd1fd0a4f28419497f9722a3daafe3b4186f6b6457e0908390a3606a80546001600160a01b0319169055565b609d5460009060ff16156111cd57600080fd5b6111d685610604565b15156001146111e457600080fd5b6111ed84610604565b15156001146111fb57600080fd5b6001600160a01b03841630148015906112255750816001600160a01b0316846001600160a01b0316145b1561124c57610e35838660a054600160991b6c2a37b5b2b72a3930b739b332b902866120ed565b6001600160a01b03808616600090815260a3602090815260408083209386168352929052206004015483141561088d57610e358286868661321e565b609d54339061010090046001600160a01b03166112a361150d565b6001600160a01b0316826001600160a01b031614806112d35750806001600160a01b0316826001600160a01b0316145b6112dc57600080fd5b6110a361339d565b60a05481565b600054610100900460ff168061130357506113036133d5565b80611311575060005460ff16155b61133057604051600160e51b62461bcd02815260040161116790614858565b600054610100900460ff1615801561135b576000805460ff1961ff0019909116610100171660011790555b61136485611676565b609d8054610100600160a81b0319163361010002179055609f80546001600160a01b0319166001600160a01b0386161790556040516113bf906113ab90899060200161458d565b6040516020818303038152906040526133db565b604051600160e01b63f921e64702815261145c9073__stringutils___________________________9063f921e64790611403908b9060009060059060040161477e565b60006040518083038186803b15801561141b57600080fd5b505af415801561142f573d6000803e3d6000fd5b505050506040513d6000823e601f3d908101601f191682016040526114579190810190613fc2565b6133ee565b60a086905560a180546001600160a01b038086166001600160a01b031992831617909255609e80549285169290911691909117905580156114a3576000805461ff00191690555b50505050505050565b606060a4805480602002602001604051908101604052809291908181526020018280548015610b9657602002820191906000526020600020905b81546001600160a01b031681526001909101906020018083116114e6575050505050905090565b606a546001600160a01b031690565b606a546000906001600160a01b0316611533611d89565b6001600160a01b031614905090565b6001600160a01b03918216600090815260a260209081526040808320939094168252919091522080546004820154600183015460028401546003909401549294919390929091565b60378054604080516020601f6002600019610100600188161502019095169490940493840181900481028201810190925282815260609390929091830182828015610b965780601f10610b6b57610100808354040283529160200191610b96565b6000610bb56115f8611d89565b84610ec085604051806060016040528060258152602001614aaa6025913960346000611622611d89565b6001600160a01b03908116825260208083019390935260409182016000908120918d1681529252902054919063ffffffff61319216565b6000610bb5611666611d89565b8484613076565b609d5460ff1690565b600054610100900460ff168061168f575061168f6133d5565b8061169d575060005460ff16155b6116bc57604051600160e51b62461bcd02815260040161116790614858565b600054610100900460ff161580156116e7576000805460ff1961ff0019909116610100171660011790555b606a80546001600160a01b0319166001600160a01b0384811691909117918290556040519116906000907f8be0079c531659141344cd1fd0a4f28419497f9722a3daafe3b4186f6b6457e0908290a380156110a3576000805461ff00191690555050565b60a4818154811061175857fe5b6000918252602090912001546001600160a01b0316905081565b6001600160a01b03918216600090815260346020908152604080832093909416825291909152205490565b6117a561151c565b6117c457604051600160e51b62461bcd02815260040161116790614848565b6117cd81613401565b50565b600080600083600160c81b6669737375696e6702141561187257609e54604051600160e01b63e5f3d3a50281526001600160a01b039091169063e5f3d3a59061181b906004016148e8565b60206040518083038186803b15801561183357600080fd5b505afa158015611847573d6000803e3d6000fd5b505050506040513d601f19601f8201168201806040525061186b9190810190613f1d565b915061190e565b83600160b11b693932b232b6b83a34b7b702141561190e57609e54604051600160e01b63e5f3d3a50281526001600160a01b039091169063e5f3d3a5906118bb9060040161483b565b60206040518083038186803b1580156118d357600080fd5b505afa1580156118e7573d6000803e3d6000fd5b505050506040513d601f19601f8201168201806040525061190b9190810190613f1d565b91505b8115611b3757609e5460408051600160e01b63c561d4b702815290516000926001600160a01b03169163c561d4b7916004808301926020929190829003018186803b15801561195c57600080fd5b505afa158015611970573d6000803e3d6000fd5b505050506040513d601f19601f820116820180604052506119949190810190613dc9565b609d54604051600160e21b633cd163c50281529192506000916101009091046001600160a01b03169063f3458f14906119d1908a906004016147a6565b60206040518083038186803b1580156119e957600080fd5b505afa1580156119fd573d6000803e3d6000fd5b505050506040513d601f19601f82011682018060405250611a219190810190613dc9565b90506001600160a01b03821615611b345786600160d91b6432ba3432b9021415611a8a57816001600160a01b03166108fc611a5c868b613486565b6040518115909202916000818181858888f19350505050158015611a84573d6000803e3d6000fd5b50611b15565b806001600160a01b031663a9059cbb83611aa4878c613486565b6040518363ffffffff1660e01b8152600401611ac1929190614675565b602060405180830381600087803b158015611adb57600080fd5b505af1158015611aef573d6000803e3d6000fd5b505050506040513d601f19601f82011682018060405250611b139190810190613eff565b505b611b2888611b23868b613486565b6134d1565b9450610ec99350505050565b50505b5093949350505050565b609d5460a15460a05460405142936000936001600160a01b03610100909204821693638d5040cc9391909216918a91611b809083908990602001614567565b604051602081830303815290604052805190602001206040518563ffffffff1660e01b8152600401611bb594939291906145be565b602060405180830381600087803b158015611bcf57600080fd5b505af1158015611be3573d6000803e3d6000fd5b505050506040513d601f19601f82011682018060405250611c079190810190613dc9565b604051600160e11b6310f29c1d02815290915081906001600160a01b038216906321e5383a90611c3d908a908a90600401614675565b600060405180830381600087803b158015611c5757600080fd5b505af1158015611c6b573d6000803e3d6000fd5b5050604051600160e11b63723434470281526001600160a01b038416925063e468688e9150611c9e9089906004016146fb565b600060405180830381600087803b158015611cb857600080fd5b505af1158015611ccc573d6000803e3d6000fd5b50505050611cda87876134fc565b60a480546001810182556000919091527fe434dc35da084cf8d7e8186688ea2dacb53db7003d427af3abf351bd9d0a4e8d0180546001600160a01b0319166001600160a01b038416179055611d338787878787876135bf565b866001600160a01b03167ff9e043edf72c472f6956335dea3cb1ca7150f556bca6cb2381be218f47a779f18360a05489888a89604051611d789695949392919061461b565b60405180910390a250505050505050565b3390565b6001600160a01b038316611db657604051600160e51b62461bcd028152600401611167906148b8565b6001600160a01b038216611ddf57604051600160e51b62461bcd028152600401611167906147f1565b6001600160a01b0380841660008181526034602090815260408083209487168084529490915290819020849055517f8c5be1e5ebec7d5bd14f71427d1e84f3dd0314c0f7b2291e5b200ac8c7c3b92590611e3a9085906146fb565b60405180910390a3505050565b600085611e5357600080fd5b604051600160e11b637c06e5cd0281526001600160a01b0384169063f80dcb9a90611e8490899089906004016148f5565b602060405180830381600087803b158015611e9e57600080fd5b505af1158015611eb2573d6000803e3d6000fd5b505050506040513d601f19601f82011682018060405250611ed69190810190613eff565b611ee257506000610d3f565b600080600060a054871461203257609f5460a054604051600160e11b634d3038fd0281526001600160a01b0390921691639a6071fa91611f27918b9190600401614757565b602060405180830381600087803b158015611f4157600080fd5b505af1158015611f55573d6000803e3d6000fd5b505050506040513d601f19601f82011682018060405250611f799190810190613f1d565b609f5460a054604051600160e11b634d3038fd0281529295506001600160a01b0390911691639a6071fa91611fb3918b9190600401614730565b602060405180830381600087803b158015611fcd57600080fd5b505af1158015611fe1573d6000803e3d6000fd5b505050506040513d601f19601f820116820180604052506120059190810190613f1d565b915061202b6120148a85613486565b612026670de0b6b3a764000085613624565b61364c565b90506120d4565b609f54604051600160e11b634d3038fd0281526001600160a01b0390911690639a6071fa90612067908a908190600401614730565b602060405180830381600087803b15801561208157600080fd5b505af1158015612095573d6000803e3d6000fd5b505050506040513d601f19601f820116820180604052506120b99190810190613f1d565b91506120d189612026670de0b6b3a764000085613624565b90505b6120e188828b8a896136c4565b50505095945050505050565b600082600160991b6c2a37b5b2b72a3930b739b332b9021415612a5c576001600160a01b03808616600090815260a3602090815260408083209386168352929052908120600401548714156126ed576001600160a01b03808716600090815260a360209081526040808320878516845282529182902060030154609d548351600160e21b6313985b2f02815293516121e895929461010090920490921692634e616cbc92600480840193829003018186803b1580156121ab57600080fd5b505afa1580156121bf573d6000803e3d6000fd5b505050506040513d601f19601f820116820180604052506121e39190810190613f1d565b613999565b42106126e8576001600160a01b03808716600090815260a360209081526040808320938716835292905290812060050180546122e29161226c918b9160a291869190829061223257fe5b60009182526020808320909101546001600160a01b0390811684528382019490945260409283018220938b1682529290925290205461364c565b6001600160a01b03808a16600090815260a360209081526040808320938a168352929052908120600501805460a292919082906122a557fe5b60009182526020808320909101546001600160a01b0390811684528382019490945260409283018220938a16825292909252902060010154613486565b60a55490915060ff16156122f557600080fd5b60a5805460ff191660011790556001600160a01b03808816600090815260a3602090815260408083209388168352929052908120600501805460a2918391829061233b57fe5b60009182526020808320909101546001600160a01b03908116845283820194909452604092830182208985168352905281812060020154609d549251600160e01b632ea77917028152909450909261010090920490911690632ea77917906123a7908590600401614811565b60206040518083038186803b1580156123bf57600080fd5b505afa1580156123d3573d6000803e3d6000fd5b505050506040513d601f19601f820116820180604052506123f79190810190613dc9565b90506124148383600160b11b693932b232b6b83a34b7b7026117d0565b925081600160d91b6432ba3432b90214156124385761243389846139a9565b612443565b61244381848b6139e4565b604051600160e21b6320188d110281526001600160a01b03871690638062344490612472908d906004016146fb565b600060405180830381600087803b15801561248c57600080fd5b505af11580156124a0573d6000803e3d6000fd5b5050604051600160e11b635a393c830281526001600160a01b038916925063b472790691506124d5908c908e90600401614675565b600060405180830381600087803b1580156124ef57600080fd5b505af1158015612503573d6000803e3d6000fd5b50505050612511898b613a6d565b886001600160a01b03167f7684b39e31475e1a38b6e3a751004b3ecccbd7d0e1d54d9f43e8e7f1e4e7cb0d878c8b8787604051612552959493929190614690565b60405180910390a26001600160a01b03808a16600090815260a360209081526040808320938a1683529290529081206005018054829061258e57fe5b60009182526020822001546001600160a01b031691505b6001600160a01b03808316600090815260a260209081526040808320938c168352929052206005015481101561267f576001600160a01b03828116600090815260a2602090815260408083208c8516845290915290206005018054918d16918390811061260e57fe5b6000918252602090912001546001600160a01b03161415612677576001600160a01b03808316600090815260a260209081526040808320938c1683529290522060050180548290811061265d57fe5b600091825260209091200180546001600160a01b03191690555b6001016125a5565b506001600160a01b03808b16600090815260a360209081526040808320938b16835292905290812081815560018101829055600281018290556003810182905560048101829055906126d46005830182613bf9565b5050505050505060a5805460ff1916905560015b612a55565b6001600160a01b03868116600090815260a26020908152604080832093871683529290522080546004909101548891612725916134d1565b10612a555760a55460ff161561273a57600080fd5b60a5805460ff191660011790556001600160a01b03808716600090815260a260209081526040808320878516845290915280822060020154609d549151600160e01b632ea77917028152909361010090920490911690632ea77917906127a4908590600401614811565b60206040518083038186803b1580156127bc57600080fd5b505afa1580156127d0573d6000803e3d6000fd5b505050506040513d601f19601f820116820180604052506127f49190810190613dc9565b6001600160a01b03808a16600090815260a260209081526040808320938a168352929052908120549192509061285d9061282f908c9061364c565b6001600160a01b03808c16600090815260a260209081526040808320938c1683529290522060010154613486565b905061287a8184600160b11b693932b232b6b83a34b7b7026117d0565b905082600160d91b6432ba3432b902141561289e5761289989826139a9565b6128a9565b6128a982828b6139e4565b604051600160e21b6320188d110281526001600160a01b038716906380623444906128d8908d906004016146fb565b600060405180830381600087803b1580156128f257600080fd5b505af1158015612906573d6000803e3d6000fd5b5050604051600160e11b635a393c830281526001600160a01b038916925063b4727906915061293b908c908e90600401614675565b600060405180830381600087803b15801561295557600080fd5b505af1158015612969573d6000803e3d6000fd5b50505050612977898b613a6d565b886001600160a01b03167f2d19a99480f5a3ef68b4447c6cca94ffc19c61d91a3baa80d015f30cfb2b46ac878c8b85886040516129b8959493929190614690565b60405180910390a26001600160a01b03808a16600090815260a260209081526040808320938a16835292905220548a11612a43576001600160a01b03808a16600090815260a260209081526040808320938a1683529290529081208181556001810182905560028101829055600381018290556004810182905590612a406005830182613bf9565b50505b505060a5805460ff1916905550600190505b9050610d3f565b82600160a11b6b21b0b9b42a3930b739b332b9021415610d3f576001600160a01b03808616600090815260a2602090815260408083208685168452825280832060030154609d548251600160e21b6313985b2f0281529251949586958695612aea9561010090940490921692634e616cbc926004808301939192829003018186803b1580156121ab57600080fd5b421061306c57609d54604051600160e01b632ea779170281526101009091046001600160a01b031690632ea7791790612b27908a90600401614811565b60206040518083038186803b158015612b3f57600080fd5b505afa158015612b53573d6000803e3d6000fd5b505050506040513d601f19601f82011682018060405250612b779190810190613dc9565b6001600160a01b03808a16600090815260a260209081526040808320938a168352929052205490935089141561306c5760005b6001600160a01b03808a16600090815260a260209081526040808320938a1683529290522060050154811015612ebe576001600160a01b03808a16600090815260a260209081526040808320938a168352929052908120600501805483908110612c1057fe5b9060005260206000200160009054906101000a90046001600160a01b031690506000612cd260a36000846001600160a01b03166001600160a01b0316815260200190815260200160002060008a6001600160a01b03166001600160a01b031681526020019081526020016000206004015460a260008e6001600160a01b03166001600160a01b0316815260200190815260200160002060008b6001600160a01b03166001600160a01b031681526020019081526020016000206000015461364c565b6001600160a01b03808d16600090815260a260209081526040808320938d1683529290529081205491925090612d09908390613486565b60a55490915060ff1615612d1c57600080fd5b60a5805460ff191660011790556001600160a01b03871615801590612d3f575060015b15612e4c57612d5f818c600160b11b693932b232b6b83a34b7b7026117d0565b9050612d6c8782856139e4565b612d768582613624565b604051600160e21b6320188d110281529095506001600160a01b038a1690638062344490612da89084906004016146fb565b600060405180830381600087803b158015612dc257600080fd5b505af1158015612dd6573d6000803e3d6000fd5b5050604051600160e11b635a393c830281526001600160a01b038c16925063b47279069150612e0b9086908590600401614675565b600060405180830381600087803b158015612e2557600080fd5b505af1158015612e39573d6000803e3d6000fd5b50505050612e478382613a6d565b600195505b60a5805460ff191690558515612eb3576001600160a01b03808416600090815260a360209081526040808320938d1683529290529081208181556001810182905560028101829055600381018290556004810182905590612eb06005830182613bf9565b50505b505050600101612baa565b821561306a576001600160a01b03808a16600090815260a260209081526040808320938a16835292905290812060040154612efa90849061364c565b6001600160a01b03808c16600090815260a260209081526040808320938c1683529290529081206001015491925090612f339083613486565b6001600160a01b03808d16600090815260a260209081526040808320938d1683529290522060020154909150600160d91b6432ba3432b902811415612f8157612f7c8c836139a9565b612f8c565b612f8c87838e6139e4565b6001600160a01b03808d16600090815260a260209081526040808320938d168352929052206005015460001901841415613017576001600160a01b03808d16600090815260a260209081526040808320938d16835292905290812081815560018101829055600281018290556003810182905560048101829055906130146005830182613bf9565b50505b60008d90508c6001600160a01b03167f2d19a99480f5a3ef68b4447c6cca94ffc19c61d91a3baa80d015f30cfb2b46ac8b838f878760405161305d959493929190614690565b60405180910390a2505050505b505b509150610d3f9050565b6001600160a01b03831661309f57604051600160e51b62461bcd028152600401611167906148a8565b6001600160a01b0382166130c857604051600160e51b62461bcd028152600401611167906147d1565b61310b81604051806060016040528060268152602001614a5c602691396001600160a01b038616600090815260336020526040902054919063ffffffff61319216565b6001600160a01b038085166000908152603360205260408082209390935590841681522054613140908263ffffffff6131c116565b6001600160a01b0380841660008181526033602052604090819020939093559151908516907fddf252ad1be2c89b69c2b068fc378daa952ba7f163c4a11628f55a4df523b3ef90611e3a9085906146fb565b600081848411156131b957604051600160e51b62461bcd02815260040161116791906147c0565b505050900390565b600082820183811015610ec957604051600160e51b62461bcd02815260040161116790614801565b609d805460ff191690556040517fa45f47fdea8a1efdd9029a5691c7f759c32b7c698632b563573e155625d1693390600090a1565b600061322b848484613076565b604051600160e11b637aa9bf6f0281526001600160a01b0386169063f5537ede9061325e908790879087906004016145f3565b602060405180830381600087803b15801561327857600080fd5b505af115801561328c573d6000803e3d6000fd5b505050506040513d601f19601f820116820180604052506132b09190810190613eff565b15613392576001600160a01b03808516600090815260a3602081815260408084208a8616808652908352818520958916855292825280842092845291905290208154815560018083015490820155600280830154908201556003808301549082015560048083015490820155600580830180546133309284019190613c17565b5050506001600160a01b03808516600090815260a360209081526040808320938916835292905290812081815560018101829055600281018290556003810182905560048101829055906133876005830182613bf9565b505060019050610b02565b61088d838584613076565b609d805460ff191660011790556040517f9e87fac88ff661f02d44f95383c817fece4bce600a3dab7a54406878b965e75290600090a1565b303b1590565b80516110a3906036906020840190613c67565b80516110a3906037906020840190613c67565b6001600160a01b03811661342a57604051600160e51b62461bcd028152600401611167906147e1565b606a546040516001600160a01b038084169216907f8be0079c531659141344cd1fd0a4f28419497f9722a3daafe3b4186f6b6457e090600090a3606a80546001600160a01b0319166001600160a01b0392909216919091179055565b60008282028315806134a057508284828161349d57fe5b04145b6134bf57604051600160e51b62461bcd028152600401611167906148d8565b670de0b6b3a764000090049392505050565b6000828211156134f657604051600160e51b62461bcd0281526004016111679061482b565b50900390565b6001600160a01b03821661352557604051600160e51b62461bcd028152600401611167906148c8565b603554613538908263ffffffff6131c116565b6035556001600160a01b038216600090815260336020526040902054613564908263ffffffff6131c116565b6001600160a01b0383166000818152603360205260408082209390935591519091907fddf252ad1be2c89b69c2b068fc378daa952ba7f163c4a11628f55a4df523b3ef906135b39085906146fb565b60405180910390a35050565b6001600160a01b03958616600081815260a26020908152604080832094909916825292835296872060058101805460018181018355918a529390982090920180546001600160a01b031916909117905593845593830191909155600282015560030155565b600082820183811015610ec957604051600160e51b62461bcd02815260040161116790614868565b60008161366e57604051600160e51b62461bcd02815260040161116790614898565b8261367b57506000610bb9565b670de0b6b3a76400008381029084828161369157fe5b04146136b257604051600160e51b62461bcd02815260040161116790614878565b8281816136bb57fe5b04915050610bb9565b60008190506000816001600160a01b031663525564216040518163ffffffff1660e01b815260040160206040518083038186803b15801561370457600080fd5b505afa158015613718573d6000803e3d6000fd5b505050506040513d601f19601f8201168201806040525061373c9190810190613dc9565b60a55490915060ff161561374f57600080fd5b60a5805460ff19166001179055609d54604051600160e01b632ea779170281526000916001600160a01b036101009091041690632ea7791790613796908890600401614811565b60206040518083038186803b1580156137ae57600080fd5b505afa1580156137c2573d6000803e3d6000fd5b505050506040513d601f19601f820116820180604052506137e69190810190613dc9565b90506001600160a01b0381161561398557604051600160e11b637aa9bf6f0281526001600160a01b0385169063f5537ede9061382a9085908c908c906004016145f3565b602060405180830381600087803b15801561384457600080fd5b505af1158015613858573d6000803e3d6000fd5b505050506040513d601f19601f8201168201806040525061387c9190810190613eff565b156139855761388c828989613076565b6138978187846139e4565b6001600160a01b03808316600090815260a260209081526040808320888516808552818452918420600581018054600181018255908652848620018054968f166001600160a01b03199097169690961790955592525260048101546138fc9089613624565b6001600160a01b03808516600090815260a260209081526040808320938a1683529290522060040155426139358a858b8b8b868c613b46565b896001600160a01b03167f4a4fcb3c9b6849f5cb3825d707d3fce0c615b52367c65422a3ad74816ab327538760a0548c8b8d8760405161397a9695949392919061461b565b60405180910390a250505b505060a5805460ff19169055505050505050565b81810182811015610bb957600080fd5b6040516001600160a01b0383169082156108fc029083906000818181858888f193505050501580156139df573d6000803e3d6000fd5b505050565b604051600160e01b63da49588b0281526001600160a01b0384169063da49588b90613a1590859085906004016148f5565b602060405180830381600087803b158015613a2f57600080fd5b505af1158015613a43573d6000803e3d6000fd5b505050506040513d601f19601f82011682018060405250613a679190810190613f1d565b50505050565b6001600160a01b038216613a9657604051600160e51b62461bcd02815260040161116790614888565b613ad981604051806060016040528060228152602001614a3a602291396001600160a01b038516600090815260336020526040902054919063ffffffff61319216565b6001600160a01b038316600090815260336020526040902055603554613b05908263ffffffff613bb716565b6035556040516000906001600160a01b038416907fddf252ad1be2c89b69c2b068fc378daa952ba7f163c4a11628f55a4df523b3ef906135b39085906146fb565b6001600160a01b03968716600090815260a360209081526040808320938a168352928152918120600581018054600180820183559184529390922090920180546001600160a01b03191697909816969096179096556004860193909355928401556002830191909155600390910155565b6000610ec983836040518060400160405280601e81526020017f536166654d6174683a207375627472616374696f6e206f766572666c6f770000815250613192565b50805460008255906000526020600020908101906117cd9190613cdd565b828054828255906000526020600020908101928215613c575760005260206000209182015b82811115613c57578254825591600101919060010190613c3c565b50613c63929150613cf7565b5090565b828054600181600116156101000203166002900490600052602060002090601f016020900481019282601f10613ca857805160ff1916838001178555613cd5565b82800160010185558215613cd5579182015b82811115613cd5578251825591602001919060010190613cba565b50613c639291505b610b9e91905b80821115613c635760008155600101613ce3565b610b9e91905b80821115613c635780546001600160a01b0319168155600101613cfd565b6000610ec982356149a9565b6000610ec982516149a9565b6000610ec982516149b4565b6000610ec98235610b9e565b6000610ec98251610b9e565b600082601f830112613d6857600080fd5b8151613d7b613d768261496e565b614947565b91508082526020830160208301858383011115613d9757600080fd5b613da28382846149ec565b50505092915050565b600060208284031215613dbd57600080fd5b6000610b028484613d1b565b600060208284031215613ddb57600080fd5b6000610b028484613d27565b60008060408385031215613dfa57600080fd5b6000613e068585613d1b565b9250506020613e1785828601613d1b565b9150509250929050565b600080600060608486031215613e3657600080fd5b6000613e428686613d1b565b9350506020613e5386828701613d1b565b9250506040613e6486828701613d3f565b9150509250925092565b60008060008060808587031215613e8457600080fd5b6000613e908787613d1b565b9450506020613ea187828801613d1b565b9350506040613eb287828801613d3f565b9250506060613ec387828801613d1b565b91505092959194509250565b60008060408385031215613ee257600080fd5b6000613eee8585613d1b565b9250506020613e1785828601613d3f565b600060208284031215613f1157600080fd5b6000610b028484613d33565b600060208284031215613f2f57600080fd5b6000610b028484613d4b565b60008060008060008060c08789031215613f5457600080fd5b6000613f608989613d3f565b9650506020613f7189828a01613d3f565b9550506040613f8289828a01613d1b565b9450506060613f9389828a01613d1b565b9350506080613fa489828a01613d1b565b92505060a0613fb589828a01613d1b565b9150509295509295509295565b600060208284031215613fd457600080fd5b815167ffffffffffffffff811115613feb57600080fd5b610b0284828501613d57565b60006020828403121561400957600080fd5b6000610b028484613d3f565b6000806000806080858703121561402b57600080fd5b6000613e908787613d3f565b6000614043838361405a565b505060200190565b614054816149cb565b82525050565b614054816149a9565b61405461406f826149a9565b614a18565b600061407f8261499c565b61408981856149a0565b935061409483614996565b60005b82811015611b37576140aa868351614037565b95506140b582614996565b9150600101614097565b614054816149b4565b61405481610b9e565b6140546140dd82610b9e565b610b9e565b614054816149d6565b60006140f68261499c565b61410081856149a0565b93506141108185602086016149ec565b61411981614a29565b9093019392505050565b60006141306023836149a0565b7f45524332303a207472616e7366657220746f20746865207a65726f20616464728152600160e81b6265737302602082015260400192915050565b60006141786026836149a0565b7f4f776e61626c653a206e6577206f776e657220697320746865207a65726f20618152600160d01b6564647265737302602082015260400192915050565b60006141c36022836149a0565b7f45524332303a20617070726f766520746f20746865207a65726f2061646472658152600160f01b61737302602082015260400192915050565b600160e91b623b32b9029052565b6000614218601b836149a0565b7f536166654d6174683a206164646974696f6e206f766572666c6f770000000000815260200192915050565b600160cb1b660acd2c286c2e6d029052565b6000614263600c836149a0565b7f5355425f4f564552464c4f570000000000000000000000000000000000000000815260200192915050565b600160b11b693932b232b6b83a34b7b7029052565b600160f11b6134b9029052565b600160f11b6132b9029052565b60006142cb6020836149a0565b7f4f776e61626c653a2063616c6c6572206973206e6f7420746865206f776e6572815260200192915050565b6000614304602e836149a0565b7f436f6e747261637420696e7374616e63652068617320616c726561647920626581527f656e20696e697469616c697a6564000000000000000000000000000000000000602082015260400192915050565b6000614363600c836149a0565b7f4144445f4f564552464c4f570000000000000000000000000000000000000000815260200192915050565b600061439c600c836149a0565b7f4449565f494e5445524e414c0000000000000000000000000000000000000000815260200192915050565b60006143d56021836149a0565b7f45524332303a206275726e2066726f6d20746865207a65726f206164647265738152600160f81b607302602082015260400192915050565b600061441b600d836149a0565b7f5a45524f5f4449564953494f4e00000000000000000000000000000000000000815260200192915050565b60006144546025836149a0565b7f45524332303a207472616e736665722066726f6d20746865207a65726f2061648152600160d81b64647265737302602082015260400192915050565b600061449e6024836149a0565b7f45524332303a20617070726f76652066726f6d20746865207a65726f206164648152600160e01b637265737302602082015260400192915050565b60006144e7601f836149a0565b7f45524332303a206d696e7420746f20746865207a65726f206164647265737300815260200192915050565b6000614520600c836149a0565b7f4d554c5f4f564552464c4f570000000000000000000000000000000000000000815260200192915050565b600160c81b6669737375696e67029052565b614054816149c5565b60006145738285614063565b60148201915061458382846140d1565b5060200192915050565b600061459982846140d1565b50602001919050565b60208101610bb9828461405a565b60208101610bb9828461404b565b608081016145cc828761405a565b6145d9602083018661405a565b6145e660408301856140c8565b610d3f60608301846140c8565b60608101614601828661405a565b61460e602083018561405a565b610b0260408301846140c8565b60c08101614629828961405a565b61463660208301886140c8565b61464360408301876140c8565b61465060608301866140c8565b61465d60808301856140c8565b61466a60a08301846140c8565b979650505050505050565b60408101614683828561405a565b610ec960208301846140c8565b60a0810161469e828861405a565b6146ab60208301876140c8565b6146b860408301866140c8565b6146c560608301856140c8565b6146d260808301846140c8565b9695505050505050565b60208082528101610ec98184614074565b60208101610bb982846140bf565b60208101610bb982846140c8565b6060810161471782856140c8565b61472460208301846140c8565b610ec9604083016141fd565b6060810161473e82856140c8565b61474b60208301846140c8565b610ec9604083016142a4565b6060810161476582856140c8565b61477260208301846140c8565b610ec9604083016142b1565b6060810161478c82866140c8565b61479960208301856140e2565b610b0260408301846140e2565b604081016147b482846140c8565b610bb960208301614244565b60208082528101610ec981846140eb565b60208082528101610bb981614123565b60208082528101610bb98161416b565b60208082528101610bb9816141b6565b60208082528101610bb98161420b565b6040810161481e82614244565b610bb960208301846140c8565b60208082528101610bb981614256565b6020810161073b8261428f565b60208082528101610bb9816142be565b60208082528101610bb9816142f7565b60208082528101610bb981614356565b60208082528101610bb98161438f565b60208082528101610bb9816143c8565b60208082528101610bb98161440e565b60208082528101610bb981614447565b60208082528101610bb981614491565b60208082528101610bb9816144da565b60208082528101610bb981614513565b6020810161073b8261454c565b6040810161490382856140c8565b610ec9602083018461405a565b6080810161491e82876140c8565b6145d960208301866140c8565b60a0810161469e82886140c8565b60208101610bb9828461455e565b60405181810167ffffffffffffffff8111828210171561496657600080fd5b604052919050565b600067ffffffffffffffff82111561498557600080fd5b506020601f91909101601f19160190565b60200190565b5190565b90815260200190565b6000610bb9826149b9565b151590565b6001600160a01b031690565b60ff1690565b6000610bb9826149e1565b6000610bb982610b9e565b6000610bb9826149a9565b60005b83811015614a075781810151838201526020016149ef565b83811115613a675750506000910152565b6000610bb9826000610bb982614a33565b601f01601f191690565b60601b9056fe45524332303a206275726e20616d6f756e7420657863656564732062616c616e636545524332303a207472616e7366657220616d6f756e7420657863656564732062616c616e636545524332303a207472616e7366657220616d6f756e74206578636565647320616c6c6f77616e636545524332303a2064656372656173656420616c6c6f77616e63652062656c6f77207a65726fa265627a7a72305820a52ed9c817538914ca2be85584156109431c0b6a30bed0353a41e547444fe2446c6578706572696d656e74616cf50037",
  "source": "// (c) Kallol Borah, 2020\r\n// Implementation of the Verified zero coupon bond.\r\n// SPDX-License-Identifier: BUSL\r\n\r\npragma solidity 0.5.7;\r\npragma experimental ABIEncoderV2;\r\n\r\nimport \"./interfaces/ViaCash.sol\";\r\nimport \"./interfaces/ViaBond.sol\";\r\nimport \"./interfaces/ViaToken.sol\";\r\nimport \"./interfaces/ViaOracle.sol\";\r\nimport \"./interfaces/ViaFactory.sol\";\r\nimport \"./interfaces/VerifiedClient.sol\";\r\nimport \"./interfaces/VerifiedRates.sol\";\r\n\r\nimport \"./math/Math.sol\";\r\nimport \"./math/FixedPoint.sol\";\r\n\r\nimport \"./utilities/ERC20.sol\";\r\nimport \"./utilities/Pausable.sol\";\r\nimport \"./utilities/StringUtils.sol\";\r\nimport \"./utilities/BokkyPooBahsDateTimeLibrary.sol\";\r\n\r\nimport \"@openzeppelin/upgrades/contracts/Initializable.sol\";\r\nimport \"@openzeppelin/contracts-ethereum-package/contracts/ownership/Ownable.sol\";\r\n\r\ncontract Bond is ViaBond, Initializable, ERC20, Ownable, Pausable {\r\n\r\n    using stringutils for *;\r\n    using BokkyPooBahsDateTimeLibrary for uint;\r\n    using Math for uint256;\r\n    using FixedPoint for uint256;\r\n\r\n    //token factory address\r\n    ViaFactory private factory;\r\n\r\n    VerifiedRates private rates;\r\n\r\n    //oracle\r\n    ViaOracle private oracle;\r\n\r\n    //name of Via token (eg, Via-USD)\r\n    bytes32 public bondName;\r\n    \r\n    //token address\r\n    address private token;\r\n\r\n    //mapping issuer (address) to address of bond token (address) which acts as identifier for bonds on offer\r\n    mapping(address => mapping (address => ViaBond.bond)) public issues;\r\n\r\n    //mapping purchaser (address) to address of bond token (address) which acts as identifier for bonds subscribed\r\n    mapping(address => mapping (address => ViaBond.bond)) public purchases;\r\n\r\n    //array of issues of this bond, where bond IDs are their addresses of their token issues\r\n    address[] public bondsIssued;\r\n\r\n    //events to capture and report to Via oracle\r\n    event BondIssued(address indexed party, address token, bytes32 bondName, uint256 amount, bytes32 currency, uint256 collateralAmount, uint256 issueTime);\r\n    event BondRedeemed(address indexed party, address token, uint256 tokenAmount, bytes32 tokenName, uint256 amount, bytes32 currency);\r\n    event BondPurchased(address indexed party, address token, bytes32 bondName, uint256 amount, bytes32 currency, uint256 paidInAmount, uint256 purchaseTime);\r\n    event BondLiquidated(address indexed party, address token, uint256 tokenAmount, bytes32 tokenName, uint256 amount, bytes32 currency);\r\n\r\n    //mutex\r\n    //mapping(bytes32 => bool) private lock;\r\n    bool private lock;\r\n\r\n    //initiliaze proxies\r\n    function initialize(bytes32 _name, bytes32 _currency, address _owner, address _oracle, address _token, address _fee) public initializer {\r\n        Ownable.initialize(_owner);\r\n        factory = ViaFactory(msg.sender);\r\n        oracle = ViaOracle(_oracle);\r\n        setName(string(abi.encodePacked(_name)));\r\n        setSymbol(_name.substring(0,5));\r\n        bondName = _currency;\r\n        token = _token;\r\n        rates = VerifiedRates(_fee);\r\n    }\r\n\r\n    //handling pay in of ether for issue of bond tokens\r\n    function() external payable{\r\n        //ether paid in\r\n        require(msg.value !=0);\r\n        //only to pay in ether\r\n        require(msg.data.length==0);\r\n        // contract must not be paused\r\n        require(paused == false);\r\n        //check aml status\r\n        require(amlCheck(msg.sender)==true); \r\n        //issue bond tokens\r\n        issue(msg.value, msg.sender, \"ether\", address(this));\r\n    }\r\n\r\n    function requestIssue(uint256 amount, address payer, bytes32 currency, address cashContract) external returns(bool){\r\n        // contract must not be paused\r\n        require(paused == false);\r\n        //bonds denominated in a currency can not be collateralized with that currency itself\r\n        require(bondName!=currency);\r\n        //check aml status\r\n        require(amlCheck(payer)==true);\r\n        require(factory.getType(msg.sender) == \"ViaCash\");\r\n        return(issue(amount, payer, currency, cashContract));\r\n    }\r\n\r\n    //requesting issue of bond tokens to payer (issuer) that can pay in ether, or in cash tokens\r\n    function issue(uint256 amount, address payer, bytes32 currency, address cashContract) private returns(bool){\r\n        //ensure that brought amount is not zero\r\n        require(amount != 0);        \r\n        //adds paid in amount to the paid in currency's cash balance\r\n        if(currency!=\"ether\"){\r\n            //non ether currency (or cash tokens) can be paid in to issue bonds\r\n            if(factory.getType(cashContract)==\"ViaCash\"){\r\n                if(!ViaCash(cashContract).requestAddToBalance(amount, payer)){\r\n                    return false;\r\n                }\r\n            }\r\n            else{\r\n                return false;\r\n            }\r\n        }\r\n        //pay issuing fee\r\n        amount = payFee(amount, currency, \"issuing\");\r\n        //call oracle to calculate par value\r\n        uint256 parValue;\r\n        if(factory.getTokenByNameType(currency, \"ViaCash\")!=address(0x0))\r\n            //if the cash token paid in to a bond token is different from the denomination of this bond, \r\n            //tokens of this bond need to be issued from the issuers' account after pricing the bond with applicable coupon rates\r\n            parValue = oracle.request(currency, bondName, \"ver\");\r\n        else\r\n            //if ether or any other supported token is paid into a bond contract, \r\n            //the bond contract will issue bond tokens of an equivalent face value.\r\n            parValue = oracle.request(currency, bondName.substringinbytes(3,5), \"er\");\r\n        //request issue of bond at par value\r\n        finallyIssue(payer, parValue, amount, currency);\r\n    }\r\n\r\n    //issue bond tokens using factory and set total supply of issued bond token\r\n    function finallyIssue(address payer, uint256 parValue, uint256 paidInAmount, bytes32 paidCurrency) private {\r\n        uint256 issueTime = now;\r\n        //issue bond which initializes a token with the attributes of the bond\r\n        address issuedBond = factory.createToken(token, payer, bondName, keccak256(abi.encodePacked(payer,issueTime)));\r\n        //initialize bond token\r\n        ViaToken vt = ViaToken(issuedBond);\r\n        vt.addBalance(payer, parValue);\r\n        vt.addTotalSupply(parValue);        \r\n        //add issued bond balance\r\n        _mint(payer, parValue);\r\n        //keep track of issues\r\n        bondsIssued.push(issuedBond);\r\n        storeIssuedBond(payer, parValue, paidInAmount, paidCurrency, issueTime, issuedBond);\r\n        //generate event\r\n        emit BondIssued(payer, issuedBond, bondName, parValue, paidCurrency, paidInAmount, issueTime);\r\n    }\r\n\r\n    //stores issued bond details\r\n    function storeIssuedBond(address _party, uint256 _parValue, uint256 _paidInAmount, bytes32 _paidInCurrency, uint256 _timeIssued, address _issuedBond) private {\r\n        bond storage b = issues[_party][_issuedBond];\r\n        b.counterParties.push(_party);\r\n        b.parValue = _parValue;\r\n        b.paidInAmount = _paidInAmount;\r\n        b.paidInCurrency = _paidInCurrency;\r\n        b.timeIssuedOrSubscribed = _timeIssued;\r\n    }\r\n\r\n    function requestPurchase(uint256 amount, address payer, bytes32 currency, address cashContract) external returns(bool){\r\n        // contract must not be paused\r\n        require(paused == false);\r\n        //check aml status\r\n        require(amlCheck(payer)==true);\r\n        require(factory.getType(msg.sender) == \"ViaBondToken\");\r\n        require(factory.getType(cashContract)==\"ViaCash\");\r\n        return(purchase(amount, payer, currency, cashContract, msg.sender));\r\n    }\r\n\r\n    //requesting purchase of bond tokens to payer (buyer) that can pay in cash tokens\r\n    function purchase(uint256 amount, address payer, bytes32 currency, address cashContract, address tokenContract) private returns(bool){\r\n        //ensure that brought amount is not zero\r\n        require(amount != 0);\r\n        //adds paid in amount to the paid in currency's cash balance\r\n        if(!ViaCash(cashContract).requestAddToBalance(amount, payer)){\r\n            return false;\r\n        }\r\n        uint256 er;\r\n        uint256 ir;\r\n        uint256 priced;\r\n        if(currency!=bondName){\r\n            //if the cash token paid in to a bond token is different from the denomination of this bond, \r\n            //tokens of this bond need to be transferred from an issuers' account after pricing the bond with applicable coupon rates\r\n            er = oracle.request(currency, bondName, \"er\");\r\n            ir = oracle.request(currency, bondName, \"ir\");\r\n            priced = FixedPoint.divDown(FixedPoint.mulDown(amount, er), FixedPoint.add(1e18, ir));\r\n        }\r\n        else{\r\n            //if the cash token paid in is the same denomination of this bond, then\r\n            //tokens of this bond need to be transferred from an issuer's account after pricing the bond with the domestic (paid in currency) coupon rates\r\n            ir = oracle.request(currency, currency, \"ir\");\r\n            priced = FixedPoint.divDown(amount, FixedPoint.add(1e18, ir));\r\n        }\r\n        //request purchase of bond\r\n        finallyPurchase(payer, priced, amount, currency, tokenContract);\r\n    }\r\n\r\n    function finallyPurchase(address payer, uint256 purchaseValue, uint256 paidInAmount, bytes32 paidInCashToken, address tokenContract) private {\r\n        //paid in amount is Via cash with which bond tokens are purchased\r\n        ViaToken vt = ViaToken(tokenContract);\r\n        address issuer = vt.getIssuer();\r\n        require(!lock);\r\n        lock = true;\r\n        //transfer cash paid in by purchaser to issuer from whom bond is transferred to purchaser\r\n        address viaAddress = factory.getIssuer(\"ViaCash\", paidInCashToken);\r\n        if(viaAddress!=address(0x0)){\r\n            //if there is enough issued bonds, transfer bond from issuer to payer\r\n            if(ViaToken(tokenContract).transferToken(issuer, payer, purchaseValue)){                \r\n                _transfer(issuer, payer, purchaseValue);\r\n                //deduct paid out cash token from purchaser cash balance which was added to cash contract's balance and transfer to issuer\r\n                sendCash(viaAddress, paidInAmount, issuer);\r\n                //add purchaser as counter party in issuer's record\r\n                bond storage b = issues[issuer][tokenContract];\r\n                b.counterParties.push(payer);\r\n                //add to issued value of bond for amount transferred by purchaser\r\n                issues[issuer][tokenContract].purchasedIssueAmount = Math.add(issues[issuer][tokenContract].purchasedIssueAmount, purchaseValue); \r\n                //add bond to purchaser's record\r\n                uint256 purchaseTime = now;\r\n                storePurchasedBond(payer, issuer, purchaseValue, paidInAmount, paidInCashToken, purchaseTime, tokenContract);\r\n                //bond purchased event\r\n                emit BondPurchased(payer, tokenContract, bondName, purchaseValue, paidInCashToken, paidInAmount, purchaseTime);\r\n            }\r\n        }\r\n        lock = false;        \r\n    }\r\n\r\n    //stores purchased bond details\r\n    function storePurchasedBond(address _payer, address _party, uint256 _purchasedIssueAmount, uint256 _paidInAmount, bytes32 _paidInCashToken, uint256 _timeSubscribed, address _issuedBond) private {\r\n        bond storage b = purchases[_payer][_issuedBond];\r\n        b.counterParties.push(_party);\r\n        b.purchasedIssueAmount = _purchasedIssueAmount;\r\n        b.paidInAmount = _paidInAmount;\r\n        b.paidInCurrency = _paidInCashToken;\r\n        b.timeIssuedOrSubscribed = _timeSubscribed;\r\n    }\r\n\r\n    function requestRedemption(uint256 amount, address payer, bytes32 currency, address tokenContract) external returns(bool){\r\n        // contract must not be paused\r\n        require(paused == false);\r\n        //check aml status\r\n        require(amlCheck(payer)==true);\r\n        require(factory.getType(msg.sender) == \"ViaBondToken\");\r\n        //if the paying in is for repayment of a bond already issued, then\r\n        //transfer the paid in amount to the bond holders, release the collateral back to the issuer and extinguish the bond\r\n        if(redeem(amount, payer, currency, \"CashTransfer\", tokenContract))\r\n            return true;\r\n        else\r\n            return false;\r\n    }\r\n    \r\n    //requesting redemption of Verified bonds and transfer of ether or cash collateral to issuer \r\n    function redeem(uint256 amount, address payer, bytes32 tokenName, bytes32 action, address tokenContract) private returns(bool){\r\n        //if Via bond holder redeems bond on day of expiry, issuer collateral is transferred to bond holder\r\n        if(action==\"TokenTransfer\"){\r\n            bool status = false;\r\n            //find if the bond was issued to payer (purchaser) earlier\r\n            if(purchases[payer][tokenContract].purchasedIssueAmount==amount){\r\n                //check if redemption term is over\r\n                if(now >= BokkyPooBahsDateTimeLibrary.addSeconds(purchases[payer][tokenContract].timeIssuedOrSubscribed, factory.getBondTerm())){\r\n                    uint256 redemptionAmount = FixedPoint.mulDown(FixedPoint.divDown(amount, issues[purchases[payer][tokenContract].counterParties[0]][tokenContract].parValue), \r\n                                                issues[purchases[payer][tokenContract].counterParties[0]][tokenContract].paidInAmount);\r\n                    require(!lock);\r\n                    lock = true;                    \r\n                    if(redemptionAmount >= 0){\r\n                        bytes32 paidInCurrency = issues[purchases[payer][tokenContract].counterParties[0]][tokenContract].paidInCurrency;\r\n                        address viaAddress = factory.getIssuer(\"ViaCash\", paidInCurrency);\r\n                        //pay fee on bond redemption\r\n                        redemptionAmount = payFee(redemptionAmount, paidInCurrency, \"redemption\");\r\n                        //transfer ether collateral from issuer to purchaser (redeemer) of bond\r\n                        if(paidInCurrency==\"ether\")\r\n                            sendEther(payer, redemptionAmount);\r\n                        else\r\n                            sendCash(viaAddress, redemptionAmount, payer);\r\n                        //adjust total supply of this bond\r\n                        ViaToken(tokenContract).reduceSupply(amount);                        \r\n                        //reduce payer's balance of bond held\r\n                        ViaToken(tokenContract).reduceBalance(payer, amount);\r\n                        _burn(payer, amount);\r\n                        //generate event\r\n                        emit BondLiquidated(payer, tokenContract, amount, tokenName, redemptionAmount, paidInCurrency);\r\n                        //remove payer (purchaser) from counter party list of issuer \r\n                        address issuer = purchases[payer][tokenContract].counterParties[0]; \r\n                        for(uint p=0; p<issues[issuer][tokenContract].counterParties.length; p++){\r\n                            if(issues[issuer][tokenContract].counterParties[p]==payer){\r\n                                delete(issues[issuer][tokenContract].counterParties[p]);\r\n                                //reduce issuer's par value by amount redeemed\r\n                                //issues[issuer][tokenContract].parValue = Math.sub(issues[issuer][tokenContract].parValue, FixedPoint.mulDown(FixedPoint.divDown(\r\n                                //    issues[issuer][tokenContract].parValue, issues[issuer][tokenContract].purchasedIssueAmount), amount));\r\n                            }                    \r\n                        }\r\n                        //remove payer (purchaser) record from list of purchasers\r\n                        delete(purchases[payer][tokenContract]);\r\n                    }\r\n                    lock = false;\r\n                    status = true;\r\n                }\r\n            }\r\n            //find if the bond was issued to payer (issuer) earlier and the issuer is returning unsold bond tokens\r\n            else if(Math.sub(issues[payer][tokenContract].parValue,  issues[payer][tokenContract].purchasedIssueAmount) >= amount){\r\n                require(!lock);\r\n                lock = true;\r\n                bytes32 paidInCurrency = issues[payer][tokenContract].paidInCurrency;\r\n                address viaAddress = factory.getIssuer(\"ViaCash\", paidInCurrency);\r\n                //calculate redemption amount based on how much collateral is not encumbered\r\n                uint256 uncumberedAmount = FixedPoint.mulDown(FixedPoint.divDown(amount, issues[payer][tokenContract].parValue), issues[payer][tokenContract].paidInAmount);\r\n                //pay fee on bond redemption\r\n                uncumberedAmount = payFee(uncumberedAmount, paidInCurrency, \"redemption\");\r\n                //transfer uncumbered ether from issuer to issuer (redeemer) of bond\r\n                if(paidInCurrency==\"ether\")\r\n                    sendEther(payer, uncumberedAmount);\r\n                else{\r\n                    sendCash(viaAddress, uncumberedAmount, payer);\r\n                }\r\n                //reduce issuer's par value by amount redeemed\r\n                //issues[payer][tokenContract].parValue = Math.sub(issues[payer][tokenContract].parValue, FixedPoint.mulDown(FixedPoint.divDown(\r\n                //    issues[payer][tokenContract].parValue, issues[payer][tokenContract].purchasedIssueAmount), amount));\r\n                //adjust total supply of this bond\r\n                ViaToken(tokenContract).reduceSupply(amount);                \r\n                //reduce payer's balance of bond held\r\n                ViaToken(tokenContract).reduceBalance(payer, amount);\r\n                _burn(payer, amount);\r\n                //generate event\r\n                emit BondRedeemed(payer, tokenContract, amount, tokenName, uncumberedAmount, paidInCurrency);\r\n                if(issues[payer][tokenContract].parValue >= amount){\r\n                    //if bond is redeemed in full by issuer, then remove issue from list of issues\r\n                    delete(issues[payer][tokenContract]);\r\n                }\r\n                lock = false; \r\n                status = true;\r\n            }\r\n            return status;\r\n        }\r\n        //if Via bond issuer pays in cash for redemption, it is paid back to Via bond holders and collateral paid back to issuers\r\n        else if(action==\"CashTransfer\"){\r\n            address viaAddress;\r\n            bool status = false;\r\n            uint256 totalToRedeem;\r\n            if(now >= BokkyPooBahsDateTimeLibrary.addSeconds(issues[payer][tokenContract].timeIssuedOrSubscribed, factory.getBondTerm())){\r\n                viaAddress = factory.getIssuer(\"ViaCash\", tokenName);\r\n                //find the bond that was issued by payer (issuer) earlier\r\n                if(amount == issues[payer][tokenContract].parValue){\r\n                    uint p = 0;\r\n                    for(p=0; p<issues[payer][tokenContract].counterParties.length; p++){\r\n                        address purchaser = issues[payer][tokenContract].counterParties[p];\r\n                        //release collateral and transfer ether to issuer of bond\r\n                        //and send paid in amount to purchaser of bond\r\n                        //calculate redemption amount\r\n                        uint256 proportionPurchased = FixedPoint.divDown(purchases[purchaser][tokenContract].purchasedIssueAmount, issues[payer][tokenContract].parValue);\r\n                        uint256 redemptionAmount = FixedPoint.mulDown(proportionPurchased, issues[payer][tokenContract].parValue);\r\n                        require(!lock);\r\n                        lock = true;\r\n                        //send paid in amount to bond purchaser\r\n                        if(viaAddress!=address(0x0) && (redemptionAmount >= 0)){\r\n                            //pay fee on bond redemption\r\n                            redemptionAmount = payFee(redemptionAmount, tokenName, \"redemption\");\r\n                            sendCash(viaAddress, redemptionAmount, purchaser);\r\n                            //add redeemed amount to total\r\n                            totalToRedeem = Math.add(totalToRedeem, redemptionAmount);\r\n                            //adjust total supply of this bond\r\n                            ViaToken(tokenContract).reduceSupply(redemptionAmount);                            \r\n                            //reduce counter party's balance of bond held\r\n                            ViaToken(tokenContract).reduceBalance(purchaser, redemptionAmount);\r\n                            _burn(purchaser, redemptionAmount);\r\n                            status = true;\r\n                        }\r\n                        lock = false;\r\n                        if(status)\r\n                            //if a purchaser is redeemed, then delete its record from list of purchases\r\n                            delete(purchases[purchaser][tokenContract]);                    \r\n                    }\r\n                    if(status){\r\n                        //find proportion to redeem\r\n                        uint256 proportionToRedeem = FixedPoint.divDown(totalToRedeem, issues[payer][tokenContract].purchasedIssueAmount);\r\n                        //returned redeemed proportion of collateral to payer (issuer)\r\n                        uint256 amountToRedeem = FixedPoint.mulDown(issues[payer][tokenContract].paidInAmount, proportionToRedeem);\r\n                        bytes32 paidInCurrency = issues[payer][tokenContract].paidInCurrency;\r\n                        if(paidInCurrency==\"ether\")\r\n                            //send redeemed ether to payer\r\n                            sendEther(payer, amountToRedeem);\r\n                        else\r\n                            sendCash(viaAddress, amountToRedeem, payer);\r\n                        if(p==issues[payer][tokenContract].counterParties.length-1)\r\n                            //if all bond purchasers are redeemed, then delete the issuer record\r\n                            delete(issues[payer][tokenContract]);\r\n                        uint256 _amount = amount;\r\n                        emit BondRedeemed(payer, tokenContract, _amount, tokenName, amountToRedeem, paidInCurrency);\r\n                    }\r\n                }\r\n            }\r\n            return status;\r\n        }\r\n    }\r\n    \r\n    //redirected from transferFrom function in bond token contract\r\n    function transferForward(address sender, address receiver, uint256 tokens, address forwarder) external returns (bool){\r\n        // contract must not be paused\r\n        require(paused == false);\r\n        //check aml status\r\n        require(amlCheck(sender)==true);\r\n        require(amlCheck(receiver)==true);     \r\n        //check if tokens are being transferred to this bond contract\r\n        if(receiver != address(this) && receiver == forwarder){         \r\n            //if token name is the same, this transfer has to be redeemed\r\n            if(redeem(tokens, sender, bondName, \"TokenTransfer\", forwarder))\r\n                return true;\r\n            else\r\n                return false;\r\n        }\r\n        else {\r\n            //bond tokens are being sent to a user account\r\n            //sender is transferring its full purchase amount of bonds\r\n            //transfer of bond token to another user has to be of the exact amount purchased earlier by sender\r\n            if(purchases[sender][forwarder].purchasedIssueAmount==tokens){\r\n                if(transferBondToken(forwarder, sender, receiver, tokens))\r\n                    return true;\r\n                else\r\n                    return false;                \r\n            }\r\n            return false;\r\n        }\r\n    }\r\n\r\n    function transferBondToken(address issuedBond, address sender, address receiver, uint tokens) private returns (bool){\r\n        _transfer(sender, receiver, tokens);\r\n        if(ViaToken(issuedBond).transferToken(sender, receiver, tokens)){\r\n            purchases[receiver][issuedBond] = purchases[sender][issuedBond];\r\n            delete purchases[sender][issuedBond];\r\n            return true;\r\n        }\r\n        else{\r\n            //reversing transfer if bond tokens fail to transfer\r\n            _transfer(receiver, sender, tokens);\r\n            return false;\r\n        }\r\n    }\r\n\r\n    function getBonds() external view returns(address[] memory){\r\n        return bondsIssued;\r\n    }\r\n\r\n    function getBondIssues(address issuer, address bondToken) external view returns(uint256, uint256, uint256, bytes32, uint256){\r\n        return (issues[issuer][bondToken].parValue,\r\n                issues[issuer][bondToken].purchasedIssueAmount,\r\n                issues[issuer][bondToken].paidInAmount,\r\n                issues[issuer][bondToken].paidInCurrency,\r\n                issues[issuer][bondToken].timeIssuedOrSubscribed);\r\n    }\r\n\r\n    function getBondPurchases(address purchaser, address bondToken) external view returns(uint256, uint256, bytes32, uint256){\r\n        return (issues[purchaser][bondToken].purchasedIssueAmount,\r\n                issues[purchaser][bondToken].paidInAmount,\r\n                issues[purchaser][bondToken].paidInCurrency,\r\n                issues[purchaser][bondToken].timeIssuedOrSubscribed);\r\n    }\r\n\r\n    function sendCash(address cash, uint256 amount, address payee) private {\r\n        ViaCash(cash).requestDeductFromBalance(amount, payee);\r\n    }\r\n\r\n    function sendEther(address payee, uint256 amount) private {\r\n        address(uint160(payee)).transfer(amount); \r\n    }\r\n\r\n    function payFee(uint256 value, bytes32 currency, bytes32 action) private returns (uint256){\r\n        uint256 fees;\r\n        uint256 returnValue;\r\n        if(action==\"issuing\")\r\n            fees = rates.getFee(\"issuing\");\r\n        else if(action==\"redemption\")\r\n            fees = rates.getFee(\"redemption\");\r\n        if(fees > 0){\r\n            address feeTo = rates.getCustodian();\r\n            address cashContract = factory.getTokenByNameType(currency, \"ViaCash\");\r\n            if(feeTo!=address(0x0)){\r\n                if(currency==\"ether\")\r\n                    address(uint160(feeTo)).transfer(FixedPoint.mulDown(fees, value));\r\n                else\r\n                    ERC20(cashContract).transfer(feeTo, FixedPoint.mulDown(fees, value));\r\n                returnValue = Math.sub(value, FixedPoint.mulDown(fees, value));\r\n                return returnValue;\r\n            }\r\n        }\r\n        return value;\r\n    }\r\n\r\n    //check AML status for account address\r\n    function amlCheck(address account) private view returns(bool){\r\n        address client = factory.getClient();\r\n        if(client==address(0x0))\r\n            return true;\r\n        if(VerifiedClient(client).getAMLStatus(account))\r\n            return true;\r\n        else\r\n            return false;\r\n    }\r\n    \r\n    function pause() onlyFactoryOwner(msg.sender, address(factory)) public {\r\n        _pause();\r\n    }\r\n    function unpause() onlyFactoryOwner(msg.sender, address(factory)) public {\r\n        _unpause();\r\n    }\r\n\r\n    modifier onlyFactoryOwner (address _sender, address _factory){\r\n        require(_sender == owner() || _sender == _factory);\r\n        _;\r\n    }\r\n    \r\n}",
  "sourcePath": "D:\\Code\\verified-payments\\contracts\\Bond.sol",
  "compiler": {
    "name": "solc",
    "version": "0.5.7+commit.6da8b019.Emscripten.clang"
  },
  "schemaVersion": "3.4.3",
  "updatedAt": "2023-04-19T05:06:43.529Z",
  "networkType": "ethereum",
  "devdoc": {
    "methods": {
      "allowance(address,address)": {
        "details": "See {IERC20-allowance}.\r"
      },
      "approve(address,uint256)": {
        "details": "See {IERC20-approve}.\r      * Requirements:\r      * - `spender` cannot be the zero address.\r"
      },
      "balanceOf(address)": {
        "details": "See {IERC20-balanceOf}.\r"
      },
      "decimals()": {
        "details": "Returns the number of decimals used to get its user representation.\r For example, if `decimals` equals `2`, a balance of `505` tokens should\r be displayed to a user as `5.05` (`505 / 10 ** 2`).\r      * Tokens usually opt for a value of 18, imitating the relationship between\r Ether and Wei. This is the default value returned by this function, unless\r it's overridden.\r      * NOTE: This information is only used for _display_ purposes: it in\r no way affects any of the arithmetic of the contract, including\r {IERC20-balanceOf} and {IERC20-transfer}.\r"
      },
      "decreaseAllowance(address,uint256)": {
        "details": "Atomically decreases the allowance granted to `spender` by the caller.\r      * This is an alternative to {approve} that can be used as a mitigation for\r problems described in {IERC20-approve}.\r      * Emits an {Approval} event indicating the updated allowance.\r      * Requirements:\r      * - `spender` cannot be the zero address.\r - `spender` must have allowance for the caller of at least\r `subtractedValue`.\r"
      },
      "increaseAllowance(address,uint256)": {
        "details": "Atomically increases the allowance granted to `spender` by the caller.\r      * This is an alternative to {approve} that can be used as a mitigation for\r problems described in {IERC20-approve}.\r      * Emits an {Approval} event indicating the updated allowance.\r      * Requirements:\r      * - `spender` cannot be the zero address.\r"
      },
      "initialize(address)": {
        "details": "Initializes the contract setting the deployer as the initial owner."
      },
      "isOwner()": {
        "details": "Returns true if the caller is the current owner."
      },
      "isPaused()": {
        "return": "True: contract is paused\rFalse: contract is not paused\r"
      },
      "name()": {
        "details": "Returns the name of the token.\r"
      },
      "owner()": {
        "details": "Returns the address of the current owner."
      },
      "renounceOwnership()": {
        "details": "Leaves the contract without owner. It will not be possible to call `onlyOwner` functions anymore. Can only be called by the current owner.     * > Note: Renouncing ownership will leave the contract without an owner, thereby removing any functionality that is only available to the owner."
      },
      "symbol()": {
        "details": "Returns the symbol of the token, usually a shorter version of the\r name.\r"
      },
      "totalSupply()": {
        "details": "See {IERC20-totalSupply}.\r"
      },
      "transfer(address,uint256)": {
        "details": "See {IERC20-transfer}.\r      * Requirements:\r      * - `recipient` cannot be the zero address.\r - the caller must have a balance of at least `amount`.\r"
      },
      "transferFrom(address,address,uint256)": {
        "details": "See {IERC20-transferFrom}.\r      * Emits an {Approval} event indicating the updated allowance. This is not\r required by the EIP. See the note at the beginning of {ERC20};\r      * Requirements:\r - `sender` and `recipient` cannot be the zero address.\r - `sender` must have a balance of at least `amount`.\r - the caller must have allowance for `sender`'s tokens of at least\r `amount`.\r"
      },
      "transferOwnership(address)": {
        "details": "Transfers ownership of the contract to a new account (`newOwner`). Can only be called by the current owner."
      }
    }
  },
  "userdoc": {
    "methods": {
      "isPaused()": {
        "notice": "returns whether or not the contract is paused\r"
      }
    }
  }
}