{
  "contractName": "Cash",
  "abi": [
    {
      "constant": true,
      "inputs": [],
      "name": "name",
      "outputs": [
        {
          "name": "",
          "type": "string"
        }
      ],
      "payable": false,
      "stateMutability": "view",
      "type": "function"
    },
    {
      "constant": true,
      "inputs": [
        {
          "name": "",
          "type": "address"
        },
        {
          "name": "",
          "type": "bytes32"
        }
      ],
      "name": "_deposits",
      "outputs": [
        {
          "name": "depositAmount",
          "type": "uint256"
        },
        {
          "name": "issuedAmount",
          "type": "uint256"
        },
        {
          "name": "depositor",
          "type": "address"
        }
      ],
      "payable": false,
      "stateMutability": "view",
      "type": "function"
    },
    {
      "constant": false,
      "inputs": [
        {
          "name": "spender",
          "type": "address"
        },
        {
          "name": "amount",
          "type": "uint256"
        }
      ],
      "name": "approve",
      "outputs": [
        {
          "name": "",
          "type": "bool"
        }
      ],
      "payable": false,
      "stateMutability": "nonpayable",
      "type": "function"
    },
    {
      "constant": true,
      "inputs": [],
      "name": "totalSupply",
      "outputs": [
        {
          "name": "",
          "type": "uint256"
        }
      ],
      "payable": false,
      "stateMutability": "view",
      "type": "function"
    },
    {
      "constant": true,
      "inputs": [],
      "name": "decimals",
      "outputs": [
        {
          "name": "",
          "type": "uint8"
        }
      ],
      "payable": false,
      "stateMutability": "view",
      "type": "function"
    },
    {
      "constant": false,
      "inputs": [
        {
          "name": "spender",
          "type": "address"
        },
        {
          "name": "addedValue",
          "type": "uint256"
        }
      ],
      "name": "increaseAllowance",
      "outputs": [
        {
          "name": "",
          "type": "bool"
        }
      ],
      "payable": false,
      "stateMutability": "nonpayable",
      "type": "function"
    },
    {
      "constant": true,
      "inputs": [
        {
          "name": "account",
          "type": "address"
        }
      ],
      "name": "balanceOf",
      "outputs": [
        {
          "name": "",
          "type": "uint256"
        }
      ],
      "payable": false,
      "stateMutability": "view",
      "type": "function"
    },
    {
      "constant": false,
      "inputs": [],
      "name": "renounceOwnership",
      "outputs": [],
      "payable": false,
      "stateMutability": "nonpayable",
      "type": "function"
    },
    {
      "constant": true,
      "inputs": [],
      "name": "owner",
      "outputs": [
        {
          "name": "",
          "type": "address"
        }
      ],
      "payable": false,
      "stateMutability": "view",
      "type": "function"
    },
    {
      "constant": true,
      "inputs": [],
      "name": "isOwner",
      "outputs": [
        {
          "name": "",
          "type": "bool"
        }
      ],
      "payable": false,
      "stateMutability": "view",
      "type": "function"
    },
    {
      "constant": true,
      "inputs": [],
      "name": "symbol",
      "outputs": [
        {
          "name": "",
          "type": "string"
        }
      ],
      "payable": false,
      "stateMutability": "view",
      "type": "function"
    },
    {
      "constant": false,
      "inputs": [
        {
          "name": "spender",
          "type": "address"
        },
        {
          "name": "subtractedValue",
          "type": "uint256"
        }
      ],
      "name": "decreaseAllowance",
      "outputs": [
        {
          "name": "",
          "type": "bool"
        }
      ],
      "payable": false,
      "stateMutability": "nonpayable",
      "type": "function"
    },
    {
      "constant": false,
      "inputs": [
        {
          "name": "recipient",
          "type": "address"
        },
        {
          "name": "amount",
          "type": "uint256"
        }
      ],
      "name": "transfer",
      "outputs": [
        {
          "name": "",
          "type": "bool"
        }
      ],
      "payable": false,
      "stateMutability": "nonpayable",
      "type": "function"
    },
    {
      "constant": true,
      "inputs": [],
      "name": "isPaused",
      "outputs": [
        {
          "name": "",
          "type": "bool"
        }
      ],
      "payable": false,
      "stateMutability": "view",
      "type": "function"
    },
    {
      "constant": true,
      "inputs": [
        {
          "name": "owner",
          "type": "address"
        },
        {
          "name": "spender",
          "type": "address"
        }
      ],
      "name": "allowance",
      "outputs": [
        {
          "name": "",
          "type": "uint256"
        }
      ],
      "payable": false,
      "stateMutability": "view",
      "type": "function"
    },
    {
      "constant": true,
      "inputs": [],
      "name": "_cashtokenName",
      "outputs": [
        {
          "name": "",
          "type": "bytes32"
        }
      ],
      "payable": false,
      "stateMutability": "view",
      "type": "function"
    },
    {
      "constant": false,
      "inputs": [
        {
          "name": "newOwner",
          "type": "address"
        }
      ],
      "name": "transferOwnership",
      "outputs": [],
      "payable": false,
      "stateMutability": "nonpayable",
      "type": "function"
    },
    {
      "payable": true,
      "stateMutability": "payable",
      "type": "fallback"
    },
    {
      "anonymous": false,
      "inputs": [
        {
          "indexed": true,
          "name": "party",
          "type": "address"
        },
        {
          "indexed": false,
          "name": "currency",
          "type": "bytes32"
        },
        {
          "indexed": false,
          "name": "amount",
          "type": "uint256"
        },
        {
          "indexed": false,
          "name": "balance",
          "type": "uint256"
        }
      ],
      "name": "CashIssued",
      "type": "event"
    },
    {
      "anonymous": false,
      "inputs": [
        {
          "indexed": true,
          "name": "party",
          "type": "address"
        },
        {
          "indexed": false,
          "name": "currency",
          "type": "bytes32"
        },
        {
          "indexed": false,
          "name": "amount",
          "type": "uint256"
        },
        {
          "indexed": false,
          "name": "redeemedFor",
          "type": "uint256"
        },
        {
          "indexed": false,
          "name": "balance",
          "type": "uint256"
        }
      ],
      "name": "CashRedeemed",
      "type": "event"
    },
    {
      "anonymous": false,
      "inputs": [
        {
          "indexed": true,
          "name": "party",
          "type": "address"
        },
        {
          "indexed": false,
          "name": "currency",
          "type": "bytes32"
        },
        {
          "indexed": false,
          "name": "amount",
          "type": "uint256"
        }
      ],
      "name": "CashDeposits",
      "type": "event"
    },
    {
      "anonymous": false,
      "inputs": [
        {
          "indexed": true,
          "name": "party",
          "type": "address"
        },
        {
          "indexed": true,
          "name": "counterparty",
          "type": "address"
        },
        {
          "indexed": false,
          "name": "currency",
          "type": "bytes32"
        },
        {
          "indexed": false,
          "name": "amount",
          "type": "uint256"
        },
        {
          "indexed": false,
          "name": "deposit",
          "type": "uint256"
        }
      ],
      "name": "CashTransfer",
      "type": "event"
    },
    {
      "anonymous": false,
      "inputs": [],
      "name": "Paused",
      "type": "event"
    },
    {
      "anonymous": false,
      "inputs": [],
      "name": "Unpaused",
      "type": "event"
    },
    {
      "anonymous": false,
      "inputs": [
        {
          "indexed": true,
          "name": "previousOwner",
          "type": "address"
        },
        {
          "indexed": true,
          "name": "newOwner",
          "type": "address"
        }
      ],
      "name": "OwnershipTransferred",
      "type": "event"
    },
    {
      "anonymous": false,
      "inputs": [
        {
          "indexed": true,
          "name": "from",
          "type": "address"
        },
        {
          "indexed": true,
          "name": "to",
          "type": "address"
        },
        {
          "indexed": false,
          "name": "value",
          "type": "uint256"
        }
      ],
      "name": "Transfer",
      "type": "event"
    },
    {
      "anonymous": false,
      "inputs": [
        {
          "indexed": true,
          "name": "owner",
          "type": "address"
        },
        {
          "indexed": true,
          "name": "spender",
          "type": "address"
        },
        {
          "indexed": false,
          "name": "value",
          "type": "uint256"
        }
      ],
      "name": "Approval",
      "type": "event"
    },
    {
      "constant": false,
      "inputs": [
        {
          "name": "name",
          "type": "bytes32"
        },
        {
          "name": "currency",
          "type": "bytes32"
        },
        {
          "name": "owner",
          "type": "address"
        },
        {
          "name": "oracle",
          "type": "address"
        },
        {
          "name": "token",
          "type": "address"
        },
        {
          "name": "fee",
          "type": "address"
        }
      ],
      "name": "initialize",
      "outputs": [],
      "payable": false,
      "stateMutability": "nonpayable",
      "type": "function"
    },
    {
      "constant": false,
      "inputs": [
        {
          "name": "sender",
          "type": "address"
        }
      ],
      "name": "initialize",
      "outputs": [],
      "payable": false,
      "stateMutability": "nonpayable",
      "type": "function"
    },
    {
      "constant": false,
      "inputs": [
        {
          "name": "amount",
          "type": "uint256"
        },
        {
          "name": "buyer",
          "type": "address"
        },
        {
          "name": "currency",
          "type": "bytes32"
        }
      ],
      "name": "requestIssue",
      "outputs": [],
      "payable": false,
      "stateMutability": "nonpayable",
      "type": "function"
    },
    {
      "constant": false,
      "inputs": [
        {
          "name": "amount",
          "type": "uint256"
        },
        {
          "name": "payer",
          "type": "address"
        },
        {
          "name": "currency",
          "type": "bytes32"
        }
      ],
      "name": "payIn",
      "outputs": [
        {
          "name": "",
          "type": "bool"
        }
      ],
      "payable": false,
      "stateMutability": "nonpayable",
      "type": "function"
    },
    {
      "constant": false,
      "inputs": [
        {
          "name": "tokens",
          "type": "uint256"
        },
        {
          "name": "sender",
          "type": "address"
        }
      ],
      "name": "requestAddToBalance",
      "outputs": [
        {
          "name": "",
          "type": "bool"
        }
      ],
      "payable": false,
      "stateMutability": "nonpayable",
      "type": "function"
    },
    {
      "constant": false,
      "inputs": [
        {
          "name": "amount",
          "type": "uint256"
        },
        {
          "name": "party",
          "type": "address"
        },
        {
          "name": "currency",
          "type": "bytes32"
        }
      ],
      "name": "burnCashTokens",
      "outputs": [
        {
          "name": "",
          "type": "bool"
        }
      ],
      "payable": false,
      "stateMutability": "nonpayable",
      "type": "function"
    },
    {
      "constant": false,
      "inputs": [
        {
          "name": "tokens",
          "type": "uint256"
        },
        {
          "name": "receiver",
          "type": "address"
        }
      ],
      "name": "requestDeductFromBalance",
      "outputs": [
        {
          "name": "",
          "type": "uint256"
        }
      ],
      "payable": false,
      "stateMutability": "nonpayable",
      "type": "function"
    },
    {
      "constant": false,
      "inputs": [
        {
          "name": "sender",
          "type": "address"
        },
        {
          "name": "receiver",
          "type": "address"
        },
        {
          "name": "tokens",
          "type": "uint256"
        }
      ],
      "name": "transferFrom",
      "outputs": [
        {
          "name": "",
          "type": "bool"
        }
      ],
      "payable": false,
      "stateMutability": "nonpayable",
      "type": "function"
    },
    {
      "constant": false,
      "inputs": [],
      "name": "pause",
      "outputs": [],
      "payable": false,
      "stateMutability": "nonpayable",
      "type": "function"
    },
    {
      "constant": false,
      "inputs": [],
      "name": "unpause",
      "outputs": [],
      "payable": false,
      "stateMutability": "nonpayable",
      "type": "function"
    }
  ],
  "bytecode": "0x6080604052614b82806100136000396000f3fe60806040526004361061019c5760003560e01c80638da5cb5b116100ec578063c4d66de81161008a578063df0534b211610064578063df0534b21461076c578063e5d8fb7514610781578063f2fde38b146107c0578063f80dcb9a146107f35761019c565b8063c4d66de8146106c5578063da49588b146106f8578063dd62ed3e146107315761019c565b8063a457c2d7116100c6578063a457c2d7146105ff578063a9059cbb14610638578063abb58e5914610671578063b187bd26146106b05761019c565b80638da5cb5b146105a45780638f32d59b146105d557806395d89b41146105ea5761019c565b80633950935111610159578063715018a611610133578063715018a6146104e457806378ec9983146104f95780638456cb591461053857806389d29c4c1461054d5761019c565b806339509351146104635780633f4ba83a1461049c57806370a08231146104b15761019c565b806306fdde03146102975780630891568a14610321578063095ea7b31461038157806318160ddd146103ce57806323b872dd146103f5578063313ce56714610438575b346101a657600080fd5b36156101b157600080fd5b609d5460ff16156101c157600080fd5b6101ca3361082c565b15156001146101d857600080fd5b600160d91b6432ba3432b90260005260a26020527fcf0dd33e6d1cf3fd8b7718fa1541ae32bb18d6e1eb90656820d7af12fe7e94715461027f5760a18054600181018255600160d91b6432ba3432b9027faadc37b8ba5645e62f4546802db221593a94729ccbfc5a97d01365a88f649878909101819055905460009190915260a26020527fcf0dd33e6d1cf3fd8b7718fa1541ae32bb18d6e1eb90656820d7af12fe7e9471555b6102953433600160d91b6432ba3432b90261095f565b005b3480156102a357600080fd5b506102ac610d7f565b6040805160208082528351818301528351919283929083019185019080838360005b838110156102e65781810151838201526020016102ce565b50505050905090810190601f1680156103135780820380516001836020036101000a031916815260200191505b509250505060405180910390f35b34801561032d57600080fd5b5061035a6004803603604081101561034457600080fd5b506001600160a01b038135169060200135610e16565b6040805193845260208401929092526001600160a01b031682820152519081900360600190f35b34801561038d57600080fd5b506103ba600480360360408110156103a457600080fd5b506001600160a01b038135169060200135610e4b565b604080519115158252519081900360200190f35b3480156103da57600080fd5b506103e3610e69565b60408051918252519081900360200190f35b34801561040157600080fd5b506103ba6004803603606081101561041857600080fd5b506001600160a01b03813581169160208101359091169060400135610e6f565b34801561044457600080fd5b5061044d6113c5565b6040805160ff9092168252519081900360200190f35b34801561046f57600080fd5b506103ba6004803603604081101561048657600080fd5b506001600160a01b0381351690602001356113ca565b3480156104a857600080fd5b50610295611423565b3480156104bd57600080fd5b506103e3600480360360208110156104d457600080fd5b50356001600160a01b0316611471565b3480156104f057600080fd5b5061029561148c565b34801561050557600080fd5b506103ba6004803603606081101561051c57600080fd5b508035906001600160a01b036020820135169060400135611532565b34801561054457600080fd5b50610295611659565b34801561055957600080fd5b50610295600480360360c081101561057057600080fd5b508035906020810135906001600160a01b0360408201358116916060810135821691608082013581169160a00135166116a4565b3480156105b057600080fd5b506105b96118c3565b604080516001600160a01b039092168252519081900360200190f35b3480156105e157600080fd5b506103ba6118d2565b3480156105f657600080fd5b506102ac6118f8565b34801561060b57600080fd5b506103ba6004803603604081101561062257600080fd5b506001600160a01b038135169060200135611959565b34801561064457600080fd5b506103ba6004803603604081101561065b57600080fd5b506001600160a01b0381351690602001356119c7565b34801561067d57600080fd5b506103ba6004803603606081101561069457600080fd5b508035906001600160a01b0360208201351690604001356119db565b3480156106bc57600080fd5b506103ba611acd565b3480156106d157600080fd5b50610295600480360360208110156106e857600080fd5b50356001600160a01b0316611ad6565b34801561070457600080fd5b506103e36004803603604081101561071b57600080fd5b50803590602001356001600160a01b0316611bcb565b34801561073d57600080fd5b506103e36004803603604081101561075457600080fd5b506001600160a01b0381358116916020013516611d00565b34801561077857600080fd5b506103e3611d2b565b34801561078d57600080fd5b50610295600480360360608110156107a457600080fd5b508035906001600160a01b036020820135169060400135611d31565b3480156107cc57600080fd5b50610295600480360360208110156107e357600080fd5b50356001600160a01b0316612247565b3480156107ff57600080fd5b506103ba6004803603604081101561081657600080fd5b50803590602001356001600160a01b03166122ac565b600080609d60019054906101000a90046001600160a01b03166001600160a01b03166359dc735c6040518163ffffffff1660e01b815260040160206040518083038186803b15801561087d57600080fd5b505afa158015610891573d6000803e3d6000fd5b505050506040513d60208110156108a757600080fd5b505190506001600160a01b0381166108c357600191505061095a565b806001600160a01b0316633a291033846040518263ffffffff1660e01b815260040180826001600160a01b03166001600160a01b0316815260200191505060206040518083038186803b15801561091957600080fd5b505afa15801561092d573d6000803e3d6000fd5b505050506040513d602081101561094357600080fd5b50511561095457600191505061095a565b60009150505b919050565b8261096957600080fd5b600160ca1b661c9958d95a5c1d0260005260a46020527f0467ea4a12823e8ff9242f5579e6cecc18baf2a9374240f1f32ab911c60cf5df5460ff16156109f95760408051600160e51b62461bcd02815260206004820152601060248201527f4c6f636b206f6e206465706f7369747300000000000000000000000000000000604482015290519081900360640190fd5b7f0467ea4a12823e8ff9242f5579e6cecc18baf2a9374240f1f32ab911c60cf5df805460ff191660011790556001600160a01b038216600090815260a360209081526040808320848452909152902054610a5390846123e1565b6001600160a01b03838116600081815260a3602090815260408083208784528252808320958655600290950180546001600160a01b031916909317909255609d548451600160e21b633cd163c502815260048101879052600160cb1b660acd2c286c2e6d0260248201529451919485946101009092049091169263f3458f1492604480840193829003018186803b158015610aed57600080fd5b505afa158015610b01573d6000803e3d6000fd5b505050506040513d6020811015610b1757600080fd5b50516001600160a01b031614610bc457609f5460a05460408051600160e11b634d3038fd028152600481018690526024810192909252600160e91b623b32b9026044830152516001600160a01b0390921691639a6071fa916064808201926020929091908290030181600087803b158015610b9157600080fd5b505af1158015610ba5573d6000803e3d6000fd5b505050506040513d6020811015610bbb57600080fd5b50519050610cec565b609f5460a05460408051600160e11b633ce1098302815260048101929092526002602483015260056044830152516001600160a01b0390921691639a6071fa91859173__stringutils___________________________916379c21306916064808301926020929190829003018186803b158015610c4157600080fd5b505af4158015610c55573d6000803e3d6000fd5b505050506040513d6020811015610c6b57600080fd5b50516040805163ffffffff851660e01b815260048101939093526024830191909152600160f11b6132b90260448301525160648083019260209291908290030181600087803b158015610cbd57600080fd5b505af1158015610cd1573d6000803e3d6000fd5b505050506040513d6020811015610ce757600080fd5b505190505b604080518381526020810186905281516001600160a01b038616927f4360f0decf98093daff370b9cd94b67d703802d9d2a864467a376c2847e125c6928290030190a2610d3a83838361243e565b5050600160ca1b661c9958d95a5c1d02600052505060a46020527f0467ea4a12823e8ff9242f5579e6cecc18baf2a9374240f1f32ab911c60cf5df805460ff19169055565b60368054604080516020601f6002600019610100600188161502019095169490940493840181900481028201810190925282815260609390929091830182828015610e0b5780601f10610de057610100808354040283529160200191610e0b565b820191906000526020600020905b815481529060010190602001808311610dee57829003601f168201915b505050505090505b90565b60a36020908152600092835260408084209091529082529020805460018201546002909201549091906001600160a01b031683565b6000610e5f610e586124fa565b84846124fe565b5060015b92915050565b60355490565b609d5460009060ff1615610e8257600080fd5b610e8b8461082c565b1515600114610e9957600080fd5b610ea28361082c565b1515600114610eb057600080fd5b81610eba85611471565b1015610efa57604051600160e51b62461bcd028152600401808060200182810382526021815260200180614a596021913960400191505060405180910390fd5b6001600160a01b038316301415610f3857610f238285600160d01b6572656465656d02306125f0565b15610f30575060016113be565b5060006113be565b609d5460408051600160e01b63f429f19b0281526001600160a01b03868116600483015291516101009093049091169163f429f19b91602480820192602092909190829003018186803b158015610f8e57600080fd5b505afa158015610fa2573d6000803e3d6000fd5b505050506040513d6020811015610fb857600080fd5b5051600160cb1b660acd2c286c2e6d02141561115e57600160c11b673a3930b739b332b90260005260a46020527f1ac85a9df93a32abf6591c4c13ec3449eff3d765e853a5bcded52f9d6e893dbd5460ff161561105f5760408051600160e51b62461bcd02815260206004820152601060248201527f4c6f636b206f6e207472616e7366657200000000000000000000000000000000604482015290519081900360640190fd5b600160c11b673a3930b739b332b902600090815260a46020527f1ac85a9df93a32abf6591c4c13ec3449eff3d765e853a5bcded52f9d6e893dbd805460ff1916600117905560a05460408051600160e01b63e5d8fb75028152600481018690526001600160a01b038881166024830152604482019390935290519186169263e5d8fb759260648084019382900301818387803b1580156110fe57600080fd5b505af1158015611112573d6000803e3d6000fd5b5050600160c11b673a3930b739b332b902600052505060a4602052507f1ac85a9df93a32abf6591c4c13ec3449eff3d765e853a5bcded52f9d6e893dbd805460ff1916905560016113be565b609d5460408051600160e01b63f429f19b0281526001600160a01b03868116600483015291516101009093049091169163f429f19b91602480820192602092909190829003018186803b1580156111b457600080fd5b505afa1580156111c8573d6000803e3d6000fd5b505050506040513d60208110156111de57600080fd5b5051600160ca1b66159a58509bdb990214156112945760a05460408051600160e31b6306270111028152600481018590526001600160a01b03878116602483015260448201939093523060648201529051918516916331380888916084808201926020929091908290030181600087803b15801561125b57600080fd5b505af115801561126f573d6000803e3d6000fd5b505050506040513d602081101561128557600080fd5b505115610f30575060016113be565b609d5460408051600160e01b63f429f19b0281526001600160a01b03868116600483015291516101009093049091169163f429f19b91602480820192602092909190829003018186803b1580156112ea57600080fd5b505afa1580156112fe573d6000803e3d6000fd5b505050506040513d602081101561131457600080fd5b50517f566961426f6e64546f6b656e000000000000000000000000000000000000000014156113a45760a05460408051600160e41b6305a341b9028152600481018590526001600160a01b0387811660248301526044820193909352306064820152905191851691635a341b90916084808201926020929091908290030181600087803b15801561125b57600080fd5b610f238285600160c11b673a3930b739b332b902866125f0565b9392505050565b601290565b6000610e5f6113d76124fa565b8461141e85603460006113e86124fa565b6001600160a01b03908116825260208083019390935260409182016000908120918c16815292529020549063ffffffff613db816565b6124fe565b3361142c6118c3565b6001600160a01b0316816001600160a01b0316148061145d5750609d546001600160a01b0382811661010090920416145b61146657600080fd5b61146e613e15565b50565b6001600160a01b031660009081526033602052604090205490565b6114946118d2565b6114e85760408051600160e51b62461bcd02815260206004820181905260248201527f4f776e61626c653a2063616c6c6572206973206e6f7420746865206f776e6572604482015290519081900360640190fd5b606a546040516000916001600160a01b0316907f8be0079c531659141344cd1fd0a4f28419497f9722a3daafe3b4186f6b6457e0908390a3606a80546001600160a01b0319169055565b6001600160a01b038216600090815260a360209081526040808320848452909152812060010154339082906115959061156c908890613e4a565b6001600160a01b038716600090815260a360209081526040808320898452909152902054613f2c565b6001600160a01b038616600090815260a3602090815260408083208884529091529020549091506115c69082613fac565b6001600160a01b038616600090815260a3602090815260408083208884529091529020556115f4858761400c565b6001600160a01b038516600090815260a3602090815260408083208784529091529020600101546116259087613fac565b6001600160a01b03909516600090815260a36020908152604080832096835295905293909320600101939093559392505050565b336116626118c3565b6001600160a01b0316816001600160a01b031614806116935750609d546001600160a01b0382811661010090920416145b61169c57600080fd5b61146e61410b565b600054610100900460ff16806116bd57506116bd614143565b806116cb575060005460ff16155b61170957604051600160e51b62461bcd02815260040180806020018281038252602e815260200180614a7a602e913960400191505060405180910390fd5b600054610100900460ff16158015611734576000805460ff1961ff0019909116610100171660011790555b61173d85611ad6565b609d8054610100600160a81b0319163361010002179055609f80546001600160a01b0319166001600160a01b0386161790556040805160208082018a90528251808303909101815290820190915261179490614149565b60408051600160e01b63f921e647028152600481018990526000602482018190526005604483015291516118889273__stringutils___________________________9263f921e6479260648083019392829003018186803b1580156117f957600080fd5b505af415801561180d573d6000803e3d6000fd5b505050506040513d6000823e601f3d908101601f19168201604052602081101561183657600080fd5b81019080805164010000000081111561184e57600080fd5b8201602081018481111561186157600080fd5b815164010000000081118282018710171561187b57600080fd5b505092919050505061415c565b60a0869055609e80546001600160a01b0319166001600160a01b03841617905580156118ba576000805461ff00191690555b50505050505050565b606a546001600160a01b031690565b606a546000906001600160a01b03166118e96124fa565b6001600160a01b031614905090565b60378054604080516020601f6002600019610100600188161502019095169490940493840181900481028201810190925282815260609390929091830182828015610e0b5780601f10610de057610100808354040283529160200191610e0b565b6000610e5f6119666124fa565b8461141e85604051806060016040528060258152602001614b3260259139603460006119906124fa565b6001600160a01b03908116825260208083019390935260409182016000908120918d1681529252902054919063ffffffff61416f16565b6000610e5f6119d46124fa565b8484614209565b609d54600090339060ff16156119f057600080fd5b600083815260a26020526040902054611a435760a180546001810182557faadc37b8ba5645e62f4546802db221593a94729ccbfc5a97d01365a88f6498780184905554600084815260a260205260409020555b6001600160a01b038416600090815260a36020908152604080832086845290915290206002810180546001600160a01b0319163317905554611a8590866123e1565b6001600160a01b038516600090815260a360209081526040808320878452909152902055611ac58484611ac088670de0b6b3a7640000613f2c565b61243e565b509392505050565b609d5460ff1690565b600054610100900460ff1680611aef5750611aef614143565b80611afd575060005460ff16155b611b3b57604051600160e51b62461bcd02815260040180806020018281038252602e815260200180614a7a602e913960400191505060405180910390fd5b600054610100900460ff16158015611b66576000805460ff1961ff0019909116610100171660011790555b606a80546001600160a01b0319166001600160a01b0384811691909117918290556040519116906000907f8be0079c531659141344cd1fd0a4f28419497f9722a3daafe3b4186f6b6457e0908290a38015611bc7576000805461ff00191690555b5050565b609d5460408051600160e01b63f429f19b028152336004820152905160009261010090046001600160a01b03169163f429f19b916024808301926020929190829003018186803b158015611c1e57600080fd5b505afa158015611c32573d6000803e3d6000fd5b505050506040513d6020811015611c4857600080fd5b5051600160cb1b660acd2c286c2e6d021480611ced5750609d5460408051600160e01b63f429f19b02815233600482015290516101009092046001600160a01b03169163f429f19b91602480820192602092909190829003018186803b158015611cb157600080fd5b505afa158015611cc5573d6000803e3d6000fd5b505050506040513d6020811015611cdb57600080fd5b5051600160ca1b66159a58509bdb9902145b611cf657600080fd5b6113be838361436d565b6001600160a01b03918216600090815260346020908152604080832093909416825291909152205490565b60a05481565b609d5460408051600160e01b63f429f19b02815233600482015290516101009092046001600160a01b03169163f429f19b91602480820192602092909190829003018186803b158015611d8357600080fd5b505afa158015611d97573d6000803e3d6000fd5b505050506040513d6020811015611dad57600080fd5b5051600160cb1b660acd2c286c2e6d021480611e4f5750609d60019054906101000a90046001600160a01b03166001600160a01b031663d11322d4826040518263ffffffff1660e01b81526004018082815260200191505060206040518083038186803b158015611e1d57600080fd5b505afa158015611e31573d6000803e3d6000fd5b505050506040513d6020811015611e4757600080fd5b505115156001145b611e5857600080fd5b609d5460408051600160e21b633444c8b502815260048101849052905160019261010090046001600160a01b03169163d11322d4916024808301926020929190829003018186803b158015611eac57600080fd5b505afa158015611ec0573d6000803e3d6000fd5b505050506040513d6020811015611ed657600080fd5b5051151560011415612096576000611f71609d60019054906101000a90046001600160a01b03166001600160a01b031663b9467629856040518263ffffffff1660e01b81526004018082815260200191505060206040518083038186803b158015611f4057600080fd5b505afa158015611f54573d6000803e3d6000fd5b505050506040513d6020811015611f6a57600080fd5b50516143c1565b9050611f7d8582614450565b94506000609d60019054906101000a90046001600160a01b03166001600160a01b031663b9467629856040518263ffffffff1660e01b81526004018082815260200191505060206040518083038186803b158015611fda57600080fd5b505afa158015611fee573d6000803e3d6000fd5b505050506040513d602081101561200457600080fd5b505160408051600160e01b6323b872dd0281523360048201523060248201526044810189905290519192506001600160a01b038316916323b872dd916064808201926020929091908290030181600087803b15801561206257600080fd5b505af1158015612076573d6000803e3d6000fd5b505050506040513d602081101561208c57600080fd5b506121dd92505050565b609d5460408051600160e21b633cd163c502815260048101859052600160cb1b660acd2c286c2e6d026024820152905160009261010090046001600160a01b03169163f3458f14916044808301926020929190829003018186803b1580156120fd57600080fd5b505afa158015612111573d6000803e3d6000fd5b505050506040513d602081101561212757600080fd5b505190506001600160a01b03811630146121ce57806001600160a01b031663f80dcb9a86866040518363ffffffff1660e01b815260040180838152602001826001600160a01b03166001600160a01b0316815260200192505050602060405180830381600087803b15801561219b57600080fd5b505af11580156121af573d6000803e3d6000fd5b505050506040513d60208110156121c557600080fd5b505191506121db565b6121d8858561445c565b91505b505b801561224157600082815260a260205260409020546122365760a180546001810182557faadc37b8ba5645e62f4546802db221593a94729ccbfc5a97d01365a88f6498780183905554600083815260a260205260409020555b61224184848461095f565b50505050565b61224f6118d2565b6122a35760408051600160e51b62461bcd02815260206004820181905260248201527f4f776e61626c653a2063616c6c6572206973206e6f7420746865206f776e6572604482015290519081900360640190fd5b61146e81614480565b609d5460408051600160e01b63f429f19b028152336004820152905160009261010090046001600160a01b03169163f429f19b916024808301926020929190829003018186803b1580156122ff57600080fd5b505afa158015612313573d6000803e3d6000fd5b505050506040513d602081101561232957600080fd5b5051600160cb1b660acd2c286c2e6d0214806123ce5750609d5460408051600160e01b63f429f19b02815233600482015290516101009092046001600160a01b03169163f429f19b91602480820192602092909190829003018186803b15801561239257600080fd5b505afa1580156123a6573d6000803e3d6000fd5b505050506040513d60208110156123bc57600080fd5b5051600160ca1b66159a58509bdb9902145b6123d757600080fd5b6113be838361445c565b6000828201838110156113be5760408051600160e51b62461bcd02815260206004820152600c60248201527f4144445f4f564552464c4f570000000000000000000000000000000000000000604482015290519081900360640190fd5b6001600160a01b038316600090815260a36020908152604080832085845290915290206001015461246f90826123e1565b6001600160a01b038416600090815260a3602090815260408083208684529091529020600101556124a08382614524565b826001600160a01b03167fc7d7368f26c07362606b436c035ac173533556512791d04904e9ed5ee30b36d360a054836124d887611471565b60408051938452602084019290925282820152519081900360600190a2505050565b3390565b6001600160a01b03831661254657604051600160e51b62461bcd028152600401808060200182810382526024815260200180614b0e6024913960400191505060405180910390fd5b6001600160a01b03821661258e57604051600160e51b62461bcd028152600401808060200182810382526022815260200180614a116022913960400191505060405180910390fd5b6001600160a01b03808416600081815260346020908152604080832094871680845294825291829020859055815185815291517f8c5be1e5ebec7d5bd14f71427d1e84f3dd0314c0f7b2291e5b200ac8c7c3b9259281900390910190a3505050565b600080805b60a154811080156126065750600087115b15613dae576001600160a01b038616600090815260a36020526040812060a180548a9391908590811061263557fe5b9060005260206000200154815260200190815260200160002060010154106131e657600160d01b6572656465656d0260005260a4602052600080516020614aa88339815191525460ff16156126cc5760408051600160e51b62461bcd0281526020600482015260126024820152600160711b712637b1b59037b7103932b232b6b83a34b7b702604482015290519081900360640190fd5b600080516020614aa8833981519152805460ff191660011790556001600160a01b038616600090815260a36020526040812060a180546127869261273b928c928691908890811061271957fe5b9060005260206000200154815260200190815260200160002060010154613e4a565b6001600160a01b038916600090815260a36020526040812060a180549192918790811061276457fe5b9060005260206000200154815260200190815260200160002060000154613f2c565b90506127e260a36000896001600160a01b03166001600160a01b03168152602001908152602001600020600060a185815481106127bf57fe5b906000526020600020015481526020019081526020016000206000015482613fac565b6001600160a01b038816600090815260a36020526040812060a180549192918690811061280b57fe5b906000526020600020015481526020019081526020016000206000018190555061288560a36000896001600160a01b03166001600160a01b03168152602001908152602001600020600060a1858154811061286257fe5b906000526020600020015481526020019081526020016000206001015489613fac565b6001600160a01b038816600090815260a36020526040812060a18054919291869081106128ae57fe5b906000526020600020015481526020019081526020016000206001018190555085600160d01b6572656465656d021415612eca5761291587898360a186815481106128f557fe5b9060005260206000200154600160ba1b681dda5d1a191c985ddb02614619565b9098509050612924878961400c565b60a1828154811061293157fe5b9060005260206000200154600160d91b6432ba3432b902141561298a576040516001600160a01b0388169082156108fc029083906000818181858888f19350505050158015612984573d6000803e3d6000fd5b50612e52565b609d60019054906101000a90046001600160a01b03166001600160a01b031663d11322d460a184815481106129bb57fe5b90600052602060002001546040518263ffffffff1660e01b81526004018082815260200191505060206040518083038186803b1580156129fa57600080fd5b505afa158015612a0e573d6000803e3d6000fd5b505050506040513d6020811015612a2457600080fd5b5051151560011415612b5057609d5460a1805460009261010090046001600160a01b03169163b94676299186908110612a5957fe5b90600052602060002001546040518263ffffffff1660e01b81526004018082815260200191505060206040518083038186803b158015612a9857600080fd5b505afa158015612aac573d6000803e3d6000fd5b505050506040513d6020811015612ac257600080fd5b505160408051600160e01b63a9059cbb0281526001600160a01b038b811660048301526024820186905291519293509083169163a9059cbb916044808201926020929091908290030181600087803b158015612b1d57600080fd5b505af1158015612b31573d6000803e3d6000fd5b505050506040513d6020811015612b4757600080fd5b50612e52915050565b609d5460a1805460009261010090046001600160a01b03169163f3458f149186908110612b7957fe5b90600052602060002001546040518263ffffffff1660e01b81526004018082815260200180600160cb1b660acd2c286c2e6d0281525060200191505060206040518083038186803b158015612bcd57600080fd5b505afa158015612be1573d6000803e3d6000fd5b505050506040513d6020811015612bf757600080fd5b50516001600160a01b031614612d3357609d5460a1805460009261010090046001600160a01b03169163f3458f149186908110612c3057fe5b90600052602060002001546040518263ffffffff1660e01b81526004018082815260200180600160cb1b660acd2c286c2e6d0281525060200191505060206040518083038186803b158015612c8457600080fd5b505afa158015612c98573d6000803e3d6000fd5b505050506040513d6020811015612cae57600080fd5b505190506001600160a01b038116301415612cd357612ccd828961436d565b50612984565b806001600160a01b031663da49588b838a6040518363ffffffff1660e01b815260040180838152602001826001600160a01b03166001600160a01b0316815260200192505050602060405180830381600087803b158015612b1d57600080fd5b60a2600060a18481548110612d4457fe5b9060005260206000200154815260200190815260200160002054600014612e5257609f546001600160a01b03888116600090815260a36020526040812060a18054939094169363b1fa13509391929187908110612d9d57fe5b9060005260206000200154815260200190815260200160002060020160009054906101000a90046001600160a01b03168960a18681548110612ddb57fe5b60009182526020822001546040805163ffffffff871660e01b81526001600160a01b03958616600482015293909416602484015260448301526064820186905291516084808301939282900301818387803b158015612e3957600080fd5b505af1158015612e4d573d6000803e3d6000fd5b505050505b866001600160a01b03167ff87471333b4bf64674cd46ef8018795ebfc5778cb718960a80d805ae2c6c023260a18481548110612e8a57fe5b9060005260206000200154838b612ea08c611471565b604080519485526020850193909352838301919091526060830152519081900360800190a26131ac565b85600160c11b673a3930b739b332b90214156131ac57612f1287898360a18681548110612ef357fe5b9060005260206000200154600160c11b673a3930b739b332b902614619565b9098509050612f21878961400c565b612f2b8589614524565b6001600160a01b038516600090815260a36020526040812060a18054612f7a93919086908110612f5757fe5b9060005260206000200154815260200190815260200160002060000154826123e1565b6001600160a01b038616600090815260a36020526040812060a1805491929186908110612fa357fe5b906000526020600020015481526020019081526020016000206000018190555061301d60a36000876001600160a01b03166001600160a01b03168152602001908152602001600020600060a18581548110612ffa57fe5b9060005260206000200154815260200190815260200160002060010154896123e1565b6001600160a01b038616600090815260a36020526040812060a180549192918690811061304657fe5b906000526020600020015481526020019081526020016000206001018190555060a36000886001600160a01b03166001600160a01b03168152602001908152602001600020600060a1848154811061309a57fe5b9060005260206000200154815260200190815260200160002060020160009054906101000a90046001600160a01b031660a36000876001600160a01b03166001600160a01b03168152602001908152602001600020600060a185815481106130fe57fe5b9060005260206000200154815260200190815260200160002060020160006101000a8154816001600160a01b0302191690836001600160a01b03160217905550846001600160a01b0316876001600160a01b03167fd172b07a50f3a175b2e227bc1ac96b00c8cd4547c3471f8190122b7f7494cfed60a1858154811061318057fe5b60009182526020918290200154604080519182529181018d905280820186905290519081900360600190a35b50600160d01b6572656465656d02600090815260a4602052600080516020614aa8833981519152805460ff19169055965060019150613da6565b6001600160a01b038616600090815260a36020526040812060a180548391908590811061320f57fe5b90600052602060002001548152602001908152602001600020600101541115613da657600160d01b6572656465656d0260005260a4602052600080516020614aa88339815191525460ff16156132a75760408051600160e51b62461bcd0281526020600482015260126024820152600160711b712637b1b59037b7103932b232b6b83a34b7b702604482015290519081900360640190fd5b600160d01b6572656465656d02600081815260a4602052600080516020614aa8833981519152805460ff1916600117905590861415613998576133938760a360008a6001600160a01b03166001600160a01b03168152602001908152602001600020600060a1868154811061331857fe5b906000526020600020015481526020019081526020016000206001015460a360008b6001600160a01b03166001600160a01b03168152602001908152602001600020600060a1878154811061336957fe5b906000526020600020015481526020019081526020016000206000015460a186815481106128f557fe5b90985090506133a2878961400c565b60a182815481106133af57fe5b9060005260206000200154600160d91b6432ba3432b9021415613408576040516001600160a01b0388169082156108fc029083906000818181858888f19350505050158015613402573d6000803e3d6000fd5b506138d0565b609d60019054906101000a90046001600160a01b03166001600160a01b031663d11322d460a1848154811061343957fe5b90600052602060002001546040518263ffffffff1660e01b81526004018082815260200191505060206040518083038186803b15801561347857600080fd5b505afa15801561348c573d6000803e3d6000fd5b505050506040513d60208110156134a257600080fd5b50511515600114156135ce57609d5460a1805460009261010090046001600160a01b03169163b946762991869081106134d757fe5b90600052602060002001546040518263ffffffff1660e01b81526004018082815260200191505060206040518083038186803b15801561351657600080fd5b505afa15801561352a573d6000803e3d6000fd5b505050506040513d602081101561354057600080fd5b505160408051600160e01b63a9059cbb0281526001600160a01b038b811660048301526024820186905291519293509083169163a9059cbb916044808201926020929091908290030181600087803b15801561359b57600080fd5b505af11580156135af573d6000803e3d6000fd5b505050506040513d60208110156135c557600080fd5b506138d0915050565b609d5460a1805460009261010090046001600160a01b03169163f3458f1491869081106135f757fe5b90600052602060002001546040518263ffffffff1660e01b81526004018082815260200180600160cb1b660acd2c286c2e6d0281525060200191505060206040518083038186803b15801561364b57600080fd5b505afa15801561365f573d6000803e3d6000fd5b505050506040513d602081101561367557600080fd5b50516001600160a01b0316146137b157609d5460a1805460009261010090046001600160a01b03169163f3458f1491869081106136ae57fe5b90600052602060002001546040518263ffffffff1660e01b81526004018082815260200180600160cb1b660acd2c286c2e6d0281525060200191505060206040518083038186803b15801561370257600080fd5b505afa158015613716573d6000803e3d6000fd5b505050506040513d602081101561372c57600080fd5b505190506001600160a01b0381163014156137515761374b828961436d565b50613402565b806001600160a01b031663da49588b838a6040518363ffffffff1660e01b815260040180838152602001826001600160a01b03166001600160a01b0316815260200192505050602060405180830381600087803b15801561359b57600080fd5b60a2600060a184815481106137c257fe5b90600052602060002001548152602001908152602001600020546000146138d057609f546001600160a01b03888116600090815260a36020526040812060a18054939094169363b1fa1350939192918790811061381b57fe5b9060005260206000200154815260200190815260200160002060020160009054906101000a90046001600160a01b03168960a1868154811061385957fe5b60009182526020822001546040805163ffffffff871660e01b81526001600160a01b03958616600482015293909416602484015260448301526064820186905291516084808301939282900301818387803b1580156138b757600080fd5b505af11580156138cb573d6000803e3d6000fd5b505050505b866001600160a01b03167ff87471333b4bf64674cd46ef8018795ebfc5778cb718960a80d805ae2c6c023260a1848154811061390857fe5b90600052602060002001548360a360008c6001600160a01b03166001600160a01b03168152602001908152602001600020600060a1888154811061394857fe5b906000526020600020015481526020019081526020016000206001015461396e8c611471565b604080519485526020850193909352838301919091526060830152519081900360800190a2613cb5565b85600160c11b673a3930b739b332b9021415613cb557613a618760a360008a6001600160a01b03166001600160a01b03168152602001908152602001600020600060a186815481106139e657fe5b906000526020600020015481526020019081526020016000206001015460a360008b6001600160a01b03166001600160a01b03168152602001908152602001600020600060a18781548110613a3757fe5b906000526020600020015481526020019081526020016000206000015460a18681548110612ef357fe5b9098509050613a70878961400c565b613a7a8589614524565b6001600160a01b038516600090815260a36020526040812060a18054613aa693919086908110612f5757fe5b6001600160a01b038616600090815260a36020526040812060a1805491929186908110613acf57fe5b9060005260206000200154815260200190815260200160002060000181905550613b2660a36000876001600160a01b03166001600160a01b03168152602001908152602001600020600060a18581548110612ffa57fe5b6001600160a01b038616600090815260a36020526040812060a1805491929186908110613b4f57fe5b906000526020600020015481526020019081526020016000206001018190555060a36000886001600160a01b03166001600160a01b03168152602001908152602001600020600060a18481548110613ba357fe5b9060005260206000200154815260200190815260200160002060020160009054906101000a90046001600160a01b031660a36000876001600160a01b03166001600160a01b03168152602001908152602001600020600060a18581548110613c0757fe5b9060005260206000200154815260200190815260200160002060020160006101000a8154816001600160a01b0302191690836001600160a01b03160217905550846001600160a01b0316876001600160a01b03167fd172b07a50f3a175b2e227bc1ac96b00c8cd4547c3471f8190122b7f7494cfed60a18581548110613c8957fe5b60009182526020918290200154604080519182529181018d905280820186905290519081900360600190a35b613d0f8860a360008a6001600160a01b03166001600160a01b03168152602001908152602001600020600060a18681548110613ced57fe5b9060005260206000200154815260200190815260200160002060010154613fac565b6001600160a01b038816600090815260a36020526040812060a18054939b50909285908110613d3a57fe5b6000918252602080832090910154835282810193909352604090910181208181556001808201839055600290910180546001600160a01b0319169055600160d01b6572656465656d0290915260a4909152600080516020614aa8833981519152805460ff191690559250505b6001016125f5565b5095945050505050565b6000828201838110156113be5760408051600160e51b62461bcd02815260206004820152601b60248201527f536166654d6174683a206164646974696f6e206f766572666c6f770000000000604482015290519081900360640190fd5b609d805460ff191690556040517fa45f47fdea8a1efdd9029a5691c7f759c32b7c698632b563573e155625d1693390600090a1565b600081613ea15760408051600160e51b62461bcd02815260206004820152600d60248201527f5a45524f5f4449564953494f4e00000000000000000000000000000000000000604482015290519081900360640190fd5b82613eae57506000610e63565b670de0b6b3a764000083810290848281613ec457fe5b0414613f1a5760408051600160e51b62461bcd02815260206004820152600c60248201527f4449565f494e5445524e414c0000000000000000000000000000000000000000604482015290519081900360640190fd5b828181613f2357fe5b04915050610e63565b6000828202831580613f46575082848281613f4357fe5b04145b613f9a5760408051600160e51b62461bcd02815260206004820152600c60248201527f4d554c5f4f564552464c4f570000000000000000000000000000000000000000604482015290519081900360640190fd5b670de0b6b3a764000090049392505050565b6000828211156140065760408051600160e51b62461bcd02815260206004820152600c60248201527f5355425f4f564552464c4f570000000000000000000000000000000000000000604482015290519081900360640190fd5b50900390565b6001600160a01b03821661405457604051600160e51b62461bcd028152600401808060200182810382526021815260200180614ac86021913960400191505060405180910390fd5b614097816040518060600160405280602281526020016149c9602291396001600160a01b038516600090815260336020526040902054919063ffffffff61416f16565b6001600160a01b0383166000908152603360205260409020556035546140c3908263ffffffff6148cb16565b6035556040805182815290516000916001600160a01b038516917fddf252ad1be2c89b69c2b068fc378daa952ba7f163c4a11628f55a4df523b3ef9181900360200190a35050565b609d805460ff191660011790556040517f9e87fac88ff661f02d44f95383c817fece4bce600a3dab7a54406878b965e75290600090a1565b303b1590565b8051611bc790603690602084019061490d565b8051611bc790603790602084019061490d565b6000818484111561420157604051600160e51b62461bcd0281526004018080602001828103825283818151815260200191508051906020019080838360005b838110156141c65781810151838201526020016141ae565b50505050905090810190601f1680156141f35780820380516001836020036101000a031916815260200191505b509250505060405180910390fd5b505050900390565b6001600160a01b03831661425157604051600160e51b62461bcd028152600401808060200182810382526025815260200180614ae96025913960400191505060405180910390fd5b6001600160a01b03821661429957604051600160e51b62461bcd0281526004018080602001828103825260238152602001806149a66023913960400191505060405180910390fd5b6142dc81604051806060016040528060268152602001614a33602691396001600160a01b038616600090815260336020526040902054919063ffffffff61416f16565b6001600160a01b038085166000908152603360205260408082209390935590841681522054614311908263ffffffff613db816565b6001600160a01b0380841660008181526033602090815260409182902094909455805185815290519193928716927fddf252ad1be2c89b69c2b068fc378daa952ba7f163c4a11628f55a4df523b3ef92918290030190a3505050565b60008261437930611471565b1061439157614389308385614209565b506000610e63565b60006143a5846143a030611471565b613fac565b90506143ba30846143b530611471565b614209565b9050610e63565b600080826001600160a01b031663313ce5676040518163ffffffff1660e01b815260040160206040518083038186803b1580156143fd57600080fd5b505afa158015614411573d6000803e3d6000fd5b505050506040513d602081101561442757600080fd5b505160ff169050600061443b601283613fac565b600a0a670de0b6b3a764000002949350505050565b60006113be8383613f2c565b60008261446883611471565b1061438957614478823085614209565b506001610e63565b6001600160a01b0381166144c857604051600160e51b62461bcd0281526004018080602001828103825260268152602001806149eb6026913960400191505060405180910390fd5b606a546040516001600160a01b038084169216907f8be0079c531659141344cd1fd0a4f28419497f9722a3daafe3b4186f6b6457e090600090a3606a80546001600160a01b0319166001600160a01b0392909216919091179055565b6001600160a01b0382166145825760408051600160e51b62461bcd02815260206004820152601f60248201527f45524332303a206d696e7420746f20746865207a65726f206164647265737300604482015290519081900360640190fd5b603554614595908263ffffffff613db816565b6035556001600160a01b0382166000908152603360205260409020546145c1908263ffffffff613db816565b6001600160a01b03831660008181526033602090815260408083209490945583518581529351929391927fddf252ad1be2c89b69c2b068fc378daa952ba7f163c4a11628f55a4df523b3ef9281900390910190a35050565b600080600083600160c11b673a3930b739b332b90214156146c557609e5460408051600160e01b63e5f3d3a5028152600160b01b6972656d697474616e636502600482015290516001600160a01b039092169163e5f3d3a591602480820192602092909190829003018186803b15801561469257600080fd5b505afa1580156146a6573d6000803e3d6000fd5b505050506040513d60208110156146bc57600080fd5b50519050614768565b83600160ba1b681dda5d1a191c985ddb02141561476857609e5460408051600160e01b63e5f3d3a5028152600160ba1b681dda5d1a191c985ddb02600482015290516001600160a01b039092169163e5f3d3a591602480820192602092909190829003018186803b15801561473957600080fd5b505afa15801561474d573d6000803e3d6000fd5b505050506040513d602081101561476357600080fd5b505190505b80156148bd57609e5460408051600160e01b63c561d4b702815290516000926001600160a01b03169163c561d4b7916004808301926020929190829003018186803b1580156147b657600080fd5b505afa1580156147ca573d6000803e3d6000fd5b505050506040513d60208110156147e057600080fd5b505190506001600160a01b038116156148bb57614801886143a0848b613f2c565b9750614811876143a0848a613f2c565b965061482289826143b5858c613f2c565b6001600160a01b038116600090815260a36020908152604080832089845290915290206001015461485c90614857848b613f2c565b6123e1565b6001600160a01b038216600090815260a3602090815260408083208a8452909152902060018101919091555461489690614857848a613f2c565b6001600160a01b038216600090815260a3602090815260408083208a84529091529020555b505b509496939550929350505050565b60006113be83836040518060400160405280601e81526020017f536166654d6174683a207375627472616374696f6e206f766572666c6f77000081525061416f565b828054600181600116156101000203166002900490600052602060002090601f016020900481019282601f1061494e57805160ff191683800117855561497b565b8280016001018555821561497b579182015b8281111561497b578251825591602001919060010190614960565b5061498792915061498b565b5090565b610e1391905b80821115614987576000815560010161499156fe45524332303a207472616e7366657220746f20746865207a65726f206164647265737345524332303a206275726e20616d6f756e7420657863656564732062616c616e63654f776e61626c653a206e6577206f776e657220697320746865207a65726f206164647265737345524332303a20617070726f766520746f20746865207a65726f206164647265737345524332303a207472616e7366657220616d6f756e7420657863656564732062616c616e6365496e73756666696369656e742062616c616e636520666f72207472616e73666572436f6e747261637420696e7374616e63652068617320616c7265616479206265656e20696e697469616c697a656494d05dfec762f4feefa20f3d96074a9e9096c817198523a2600cbbeee33cc1f345524332303a206275726e2066726f6d20746865207a65726f206164647265737345524332303a207472616e736665722066726f6d20746865207a65726f206164647265737345524332303a20617070726f76652066726f6d20746865207a65726f206164647265737345524332303a2064656372656173656420616c6c6f77616e63652062656c6f77207a65726fa165627a7a7230582099a2960ead30a345dcac1bd62c1b0b7f6a0a6d9edce0a740bb7d4e323606de880029",
  "source": "// (c) Kallol Borah, 2020\r\n// Implementation of the Verified cash token.\r\n// SPDX-License-Identifier: BUSL\r\n\r\npragma solidity 0.5.7;\r\n\r\nimport \"./interfaces/ViaCash.sol\";\r\nimport \"./interfaces/ViaBond.sol\";\r\nimport \"./interfaces/ViaToken.sol\";\r\nimport \"./interfaces/ViaOracle.sol\";\r\nimport \"./interfaces/ViaFactory.sol\";\r\nimport \"./interfaces/VerifiedClient.sol\";\r\nimport \"./interfaces/VerifiedRates.sol\";\r\n\r\nimport \"./math/Math.sol\";\r\nimport \"./math/FixedPoint.sol\";\r\n\r\nimport \"./utilities/Pausable.sol\";\r\nimport \"./utilities/StringUtils.sol\";\r\nimport \"./utilities/ERC20.sol\";\r\n\r\nimport \"@openzeppelin/upgrades/contracts/Initializable.sol\";\r\nimport \"@openzeppelin/contracts-ethereum-package/contracts/ownership/Ownable.sol\";\r\n\r\ncontract Cash is ViaCash, Initializable, ERC20, Ownable, Pausable {\r\n\r\n    using stringutils for *;\r\n    using Math for uint256;\r\n    using FixedPoint for uint256;\r\n\r\n    //via factory address\r\n    ViaFactory private _factory;\r\n\r\n    VerifiedRates private _rates;\r\n\r\n    //via oracle\r\n    ViaOracle private _oracle;\r\n\r\n    //name of Via cash token (eg, Via-USD)\r\n    bytes32 public _cashtokenName;\r\n\r\n    struct deposit{\r\n        uint256 depositAmount;\r\n        uint256 issuedAmount;\r\n        address depositor;\r\n    }\r\n\r\n    bytes32[] private currencies;\r\n\r\n    mapping(bytes32 => uint256) private currencyIndex;\r\n\r\n    //mapping of buyers (address) to deposit currency (bytes32) to deposits \r\n    mapping(address => mapping(bytes32 => deposit)) public _deposits;\r\n\r\n    modifier onlyCustodian(address sender){\r\n        //address client = _factory.getClient();\r\n        //(bytes32 role, , ) = VerifiedClient(client).getRole(sender);\r\n        //require(role==\"Custodian\" || role==\"Admin\");\r\n        _;\r\n    }\r\n\r\n    //events to capture and report to Via oracle\r\n    event CashIssued(address indexed party, bytes32 currency, uint256 amount, uint256 balance);\r\n    event CashRedeemed(address indexed party, bytes32 currency, uint256 amount, uint256 redeemedFor, uint256 balance);\r\n    event CashDeposits(address indexed party, bytes32 currency, uint256 amount);\r\n    event CashTransfer(address indexed party, address indexed counterparty, bytes32 currency, uint256 amount, uint256 deposit);\r\n\r\n    //mutex\r\n    mapping(bytes32 => bool) private _lock;\r\n\r\n    //initiliaze proxies\r\n    function initialize(bytes32 name, bytes32 currency, address owner, address oracle, address token, address fee) public initializer{\r\n        Ownable.initialize(owner);        \r\n        _factory = ViaFactory(msg.sender);\r\n        _oracle = ViaOracle(oracle);\r\n        setName(string(abi.encodePacked(name)));\r\n        setSymbol(name.substring(0,5));\r\n        _cashtokenName = currency;\r\n        _rates = VerifiedRates(fee);\r\n    }\r\n\r\n    //handling pay in of ether for issue of via cash tokens\r\n    function() external payable {\r\n        //ether paid in\r\n        require(msg.value !=0);\r\n        //only to pay in ether\r\n        require(msg.data.length==0);\r\n        //contract must not be paused\r\n        require(paused == false);\r\n        //check aml status\r\n        require(amlCheck(msg.sender)==true);        \r\n        //keep paid in currency for reference\r\n        if(currencyIndex[\"ether\"]==0){\r\n            currencies.push(\"ether\");\r\n            currencyIndex[\"ether\"] = currencies.length;\r\n        }\r\n        //issue via cash tokens\r\n        makeDeposit(msg.value, msg.sender, \"ether\");        \r\n    }\r\n\r\n    //accessor for issue function\r\n    function requestIssue(uint256 amount, address buyer, bytes32 currency) public {\r\n        require(_factory.getType(msg.sender) == \"ViaCash\" || _factory.checkSupportForToken(currency)==true);\r\n        bool status = true;\r\n        if(_factory.checkSupportForToken(currency)==true){\r\n            //for ERC20 tokens supported by Verified such as DAI, USDC, etc\r\n            uint256 scalingFactor = _computeScalingFactor(IERC20(_factory.getCurrencyToken(currency)));\r\n            amount = _upscale(amount, scalingFactor);\r\n            address token = _factory.getCurrencyToken(currency);\r\n            IERC20(token).transferFrom(msg.sender, address(this), amount);\r\n        }\r\n        else {\r\n            address cashToken = _factory.getTokenByNameType(currency,\"ViaCash\");\r\n            //transfer amount of currency from party to the deposit currency's cash contract \r\n            if(cashToken!=address(this))\r\n                status = Cash(address(uint160(cashToken))).requestAddToBalance(amount, buyer);\r\n            else\r\n                status = addToBalance(amount, buyer);\r\n        }\r\n        if(status){\r\n            //keep paid in currency for reference\r\n            if(currencyIndex[currency]==0){\r\n                currencies.push(currency);\r\n                currencyIndex[currency] = currencies.length;\r\n            }\r\n            makeDeposit(amount, buyer, currency);\r\n        }\r\n    }\r\n\r\n    //requesting issue of Via to buyer for amount of ether or some other supported cash token paid in and stored in cashContract\r\n    function makeDeposit(uint256 amount, address buyer, bytes32 currency) private {\r\n        //ensure that brought amount is not zero\r\n        require(amount != 0);\r\n        require(!_lock[\"receipt\"], \"Lock on deposits\");\r\n        _lock[\"receipt\"] = true;\r\n        _deposits[buyer][currency].depositAmount = Math.add(_deposits[buyer][currency].depositAmount, amount);\r\n        _deposits[buyer][currency].depositor = buyer;\r\n        // request oracle for exchange value of crypto paid in\r\n        uint256 issueAmount;\r\n        if(_factory.getTokenByNameType(currency, \"ViaCash\")!=address(0x0))\r\n            //exchange of one verified cash token to another\r\n            issueAmount = _oracle.request(currency, _cashtokenName, \"ver\");\r\n        else\r\n            //exchange of paid in supported token (not a verified cash token) to the fiat currency corresponding to this verified cash token\r\n            issueAmount = _oracle.request(currency, _cashtokenName.substringinbytes(2,5), \"er\");\r\n        emit CashDeposits(buyer, currency, amount); \r\n        issue(buyer, currency, issueAmount);\r\n        _lock[\"receipt\"] = false;     \r\n    }\r\n\r\n    //handles fiat pay in for issue of cash tokens by authorized custodians on Verified Network\r\n    function payIn(uint256 amount, address payer, bytes32 currency) onlyCustodian(msg.sender) external returns(bool){\r\n        //contract must not be paused\r\n        require(paused == false);\r\n        //keep paid in currency for reference\r\n        if(currencyIndex[currency]==0){\r\n            currencies.push(currency);\r\n            currencyIndex[currency] = currencies.length;\r\n        }\r\n        _deposits[payer][currency].depositor = msg.sender;\r\n        _deposits[payer][currency].depositAmount = Math.add(_deposits[payer][currency].depositAmount, amount);\r\n        //scale up paid in amount, just in case decimals are incorrectly sent by app\r\n        issue(payer, currency, FixedPoint.mulDown(amount, 1e18));\r\n    }\r\n\r\n    //party is the user account address to which issued tokens are credited \r\n    //currency is what is paid in\r\n    //amount is quantity of this verified cash token to issue\r\n    function issue(address party, bytes32 currency, uint256 amount) private {\r\n        //add paid in currency to depositor\r\n        _deposits[party][currency].issuedAmount = Math.add(_deposits[party][currency].issuedAmount, amount);\r\n        //add issued amount to payer\r\n        _mint(party, amount);\r\n        //generate event        \r\n        emit CashIssued(party, _cashtokenName, amount, balanceOf(party));\r\n    }\r\n\r\n    //accessor for addToBalance function\r\n    function requestAddToBalance(uint256 tokens, address sender) external returns (bool){\r\n        require(_factory.getType(msg.sender) == \"ViaCash\" || _factory.getType(msg.sender) == \"ViaBond\");\r\n        return addToBalance(tokens, sender);\r\n    }\r\n\r\n    //add to token balance of this contract from token balance of sender\r\n    function addToBalance(uint256 tokens, address sender) private returns (bool){\r\n        //sender should have more tokens than being transferred\r\n        if(balanceOf(sender) >= tokens){\r\n            //transferFrom(sender, address(this), tokens);\r\n            _transfer(sender, address(this), tokens);\r\n            return true;\r\n        }\r\n        else\r\n            return false;\r\n    }\r\n    \r\n    //requesting redemption of Verified cash token and transfer of currency it was issued against\r\n    //operation parameter indicates whether it is a redemption or a transfer of deposits from one party to another\r\n    function redeem(uint256 amount, address party, bytes32 operation, address receiver) private returns(bool){\r\n        bool found = false;\r\n        for(uint i=0; i<currencies.length && amount>0; i++){            \r\n            //check if currency in which redemption is to be done has sufficient issued balance for the deposited currency\r\n            if(_deposits[party][currencies[i]].issuedAmount >= amount){\r\n                require(!_lock[\"redeem\"], \"Lock on redemption\");\r\n                _lock[\"redeem\"] = true;\r\n                uint256 value = FixedPoint.mulDown(FixedPoint.divDown(amount, _deposits[party][currencies[i]].issuedAmount), _deposits[party][currencies[i]].depositAmount);\r\n                _deposits[party][currencies[i]].depositAmount = Math.sub(_deposits[party][currencies[i]].depositAmount, value);                \r\n                _deposits[party][currencies[i]].issuedAmount = Math.sub(_deposits[party][currencies[i]].issuedAmount, amount);\r\n                if(operation==\"redeem\"){\r\n                    (amount, value) = payFee(party, amount, value, currencies[i], \"withdrawl\");\r\n                    //reduces balances\r\n                    _burn(party, amount);\r\n                    //send redeemed ether to party\r\n                    if(currencies[i]==\"ether\"){\r\n                        address(uint160(party)).transfer(value);\r\n                    }\r\n                    else if(_factory.checkSupportForToken(currencies[i])==true){\r\n                        //non verified cash ERC20 token\r\n                        address token = _factory.getCurrencyToken(currencies[i]);\r\n                        IERC20(token).transfer(party, value);\r\n                    }\r\n                    else if(_factory.getTokenByNameType(currencies[i], \"ViaCash\")!=address(0x0)){   \r\n                        //verified cash token                \r\n                        address cashToken = _factory.getTokenByNameType(currencies[i],\"ViaCash\");\r\n                        if(cashToken==address(this))\r\n                            deductFromBalance(value, party);\r\n                        else\r\n                            Cash(address(uint160(cashToken))).requestDeductFromBalance(value, party);\r\n                    }\r\n                    else if(currencyIndex[currencies[i]]!=0){\r\n                        //if currency to redeem is fiat counterpart of this cash token, request oracle to pay out fiat\r\n                        _oracle.payOut(_deposits[party][currencies[i]].depositor, party, currencies[i], value);\r\n                    }\r\n                    //generate event\r\n                    emit CashRedeemed(party, currencies[i], value, amount, balanceOf(party));\r\n                }\r\n                else if(operation==\"transfer\"){\r\n                    //check if any fee is payable on remittance and acceptance and pay it if that is the case\r\n                    (amount, value) = payFee(party, amount, value, currencies[i], \"transfer\");\r\n                    //reduces balances\r\n                    _burn(party, amount);\r\n                    //transfer balances\r\n                    _mint(receiver, amount);\r\n                    //transfer deposits\r\n                    _deposits[receiver][currencies[i]].depositAmount = Math.add(_deposits[receiver][currencies[i]].depositAmount, value);\r\n                    //transfer issued amounts\r\n                    _deposits[receiver][currencies[i]].issuedAmount = Math.add(_deposits[receiver][currencies[i]].issuedAmount, amount);                    \r\n                    //change depositor \r\n                    _deposits[receiver][currencies[i]].depositor = _deposits[party][currencies[i]].depositor;\r\n                    emit CashTransfer(party, receiver, currencies[i], amount, value);\r\n                }\r\n                amount = 0;\r\n                found = true;\r\n                _lock[\"redeem\"] = false;\r\n            }\r\n            //amount to redeem is more than what is in deposit, so we need to remove deposit after redemption\r\n            else if(_deposits[party][currencies[i]].issuedAmount > 0){                \r\n                require(!_lock[\"redeem\"], \"Lock on redemption\");\r\n                _lock[\"redeem\"] = true;\r\n                uint256 value;\r\n                if(operation==\"redeem\"){    \r\n                    //check if any fee is payable on redemption and pay it if that is the case\r\n                    (amount, value) = payFee(party, _deposits[party][currencies[i]].issuedAmount, _deposits[party][currencies[i]].depositAmount, currencies[i], \"withdrawl\");          \r\n                    //reduces balances\r\n                    _burn(party, amount);      \r\n                    //send redeemed ether to party which is all of the ether in deposit with this user (party)\r\n                    if(currencies[i]==\"ether\"){    \r\n                        address(uint160(party)).transfer(value);\r\n                    }\r\n                    else if(_factory.checkSupportForToken(currencies[i])==true){\r\n                        //non verified cash token\r\n                        address token = _factory.getCurrencyToken(currencies[i]);\r\n                        IERC20(token).transfer(party, value);\r\n                    }\r\n                    else if(_factory.getTokenByNameType(currencies[i], \"ViaCash\")!=address(0x0)){  \r\n                        //verified cash token                \r\n                        address cashToken = _factory.getTokenByNameType(currencies[i],\"ViaCash\");\r\n                        if(cashToken==address(this))\r\n                            deductFromBalance(value, party);\r\n                        else\r\n                            Cash(address(uint160(cashToken))).requestDeductFromBalance(value, party);\r\n                    }     \r\n                    else if(currencyIndex[currencies[i]]!=0){\r\n                        //if currency to redeem is fiat counterpart of this cash token, request oracle to pay out fiat\r\n                        _oracle.payOut(_deposits[party][currencies[i]].depositor, party, currencies[i], value);\r\n                    }               \r\n                    //generate event\r\n                    emit CashRedeemed(party, currencies[i], value, _deposits[party][currencies[i]].issuedAmount, balanceOf(party));\r\n                }\r\n                else if(operation==\"transfer\"){\r\n                    //check if any fee is payable on remittance and acceptance and pay it if that is the case\r\n                    (amount, value) = payFee(party, _deposits[party][currencies[i]].issuedAmount, _deposits[party][currencies[i]].depositAmount, currencies[i], \"transfer\");\r\n                    //reduces balances\r\n                    _burn(party, amount);\r\n                    //transfer balances\r\n                    _mint(receiver, amount);\r\n                    //transfer deposits\r\n                    _deposits[receiver][currencies[i]].depositAmount = Math.add(_deposits[receiver][currencies[i]].depositAmount, value);\r\n                    //transfer issued amounts\r\n                    _deposits[receiver][currencies[i]].issuedAmount = Math.add(_deposits[receiver][currencies[i]].issuedAmount, amount);\r\n                    //change depositor \r\n                    _deposits[receiver][currencies[i]].depositor = _deposits[party][currencies[i]].depositor;\r\n                    emit CashTransfer(party, receiver, currencies[i], amount, value);\r\n                }\r\n                //calculate remaining amount to redeem or transfer\r\n                amount = Math.sub(amount, _deposits[party][currencies[i]].issuedAmount);\r\n                //make deposit and issued amount balances zero for ether\r\n                delete _deposits[party][currencies[i]];\r\n                found = true;\r\n                _lock[\"redeem\"] = false;\r\n            }\r\n        }\r\n        return found;\r\n    }\r\n\r\n    function burnCashTokens(uint256 amount, address party, bytes32 currency) onlyCustodian(msg.sender) external returns(bool){\r\n        uint256 value = FixedPoint.mulDown(FixedPoint.divDown(amount, _deposits[party][currency].issuedAmount), _deposits[party][currency].depositAmount);\r\n        _deposits[party][currency].depositAmount = Math.sub(_deposits[party][currency].depositAmount, value);\r\n        //reduces balances\r\n        _burn(party, amount);\r\n        _deposits[party][currency].issuedAmount = Math.sub(_deposits[party][currency].issuedAmount, amount);\r\n    } \r\n\r\n    //accessor for deductFromBalance function\r\n    function requestDeductFromBalance(uint256 tokens, address receiver) external returns (uint256){\r\n        require(_factory.getType(msg.sender) == \"ViaCash\" || _factory.getType(msg.sender) == \"ViaBond\");\r\n        return(deductFromBalance(tokens, receiver));\r\n    }\r\n\r\n    //deduct token balance from this contract and add token balance to receiver\r\n    function deductFromBalance(uint256 tokens, address receiver) private returns (uint256){\r\n        //this cash token issuer should have more tokens than being deducted\r\n        if(balanceOf(address(this)) >= tokens){\r\n            _transfer(address(this), receiver, tokens);\r\n            return 0;\r\n        }\r\n        else{\r\n            uint256 balance = Math.sub(tokens, balanceOf(address(this)));\r\n            _transfer(address(this), receiver, balanceOf(address(this)));\r\n            return balance;\r\n        }\r\n    }\r\n    \r\n    //overriding this function of ERC20 standard for transfer of via cash tokens to other users or to this contract for redemption\r\n    function transferFrom(address sender, address receiver, uint256 tokens) public returns (bool){\r\n        //contract must not be paused\r\n        require(paused == false);\r\n        //check aml status\r\n        require(amlCheck(sender)==true);\r\n        require(amlCheck(receiver)==true);\r\n        //ensure sender has enough tokens in balance before transferring or redeeming them\r\n        require(balanceOf(sender) >= tokens, \"Insufficient balance for transfer\");\r\n        //check if tokens are being transferred to this cash contract\r\n        if(receiver == address(this)){\r\n            //if token name is the same, this transfer has to be redeemed\r\n            if(redeem(tokens, sender, \"redeem\", address(this)))\r\n                return true;\r\n            else\r\n                return false;\r\n        }\r\n        //else request issue of cash tokens requested from receiver\r\n        else if(_factory.getType(receiver)==\"ViaCash\"){ \r\n            require(!_lock[\"transfer\"], \"Lock on transfer\");\r\n            _lock[\"transfer\"] = true;\r\n            //only issue if cash tokens are paid in, since bond tokens can't be paid to issue bond token\r\n            Cash(address(uint160(receiver))).requestIssue(tokens, sender, _cashtokenName);\r\n            _lock[\"transfer\"] = false; \r\n            return true;                \r\n        }\r\n        //else if cash tokens are paid into bond issuers, then request for issue of bonds\r\n        else if(_factory.getType(receiver)==\"ViaBond\"){\r\n            if(ViaBond(address(uint160(receiver))).requestIssue(tokens, sender, _cashtokenName, address(this)))\r\n                    return true;\r\n                else\r\n                    return false;\r\n        }\r\n        //else check if cash tokens are paid into any specific bond token for purchase\r\n        else if(_factory.getType(receiver)==\"ViaBondToken\"){\r\n            if(ViaToken(address(uint160(receiver))).requestTransaction(tokens, sender, _cashtokenName, address(this)))\r\n                    return true;\r\n                else\r\n                    return false;\r\n        }\r\n        else{\r\n            //else, tokens are being sent to another user's account\r\n            //sending contract should be allowed by token owner to make this transfer\r\n            if(redeem(tokens, sender, \"transfer\", receiver))\r\n                return true;\r\n            else\r\n                return false;\r\n        } \r\n    }\r\n\r\n    //amount is issued, value is deposits against issues    \r\n    function payFee(address payer, uint256 amount, uint256 value, bytes32 currency, bytes32 action) private returns (uint256, uint256){\r\n        uint256 fees;\r\n        if(action==\"transfer\")\r\n            fees = _rates.getFee(\"remittance\");\r\n        else if(action==\"withdrawl\")\r\n            fees = _rates.getFee(\"withdrawl\");\r\n        if(fees > 0){\r\n            address feeTo = _rates.getCustodian();\r\n            if(feeTo!=address(0x0)){\r\n                amount = Math.sub(amount, FixedPoint.mulDown(fees, amount));\r\n                value = Math.sub(value, FixedPoint.mulDown(fees, value));\r\n                _transfer(payer, feeTo, FixedPoint.mulDown(fees, amount));\r\n                _deposits[feeTo][currency].issuedAmount = Math.add(_deposits[feeTo][currency].issuedAmount, FixedPoint.mulDown(fees, amount));\r\n                _deposits[feeTo][currency].depositAmount = Math.add(_deposits[feeTo][currency].depositAmount, FixedPoint.mulDown(fees, value)); \r\n            }\r\n        }\r\n        return (amount, value);\r\n    }\r\n\r\n    //check AML status for account address\r\n    function amlCheck(address account) private view returns(bool){\r\n        address client = _factory.getClient();\r\n        if(client==address(0x0))\r\n            return true;\r\n        if(VerifiedClient(client).getAMLStatus(account))\r\n            return true;\r\n        else\r\n            return false;\r\n    }\r\n\r\n    function pause() onlyFactoryOwner(msg.sender) public {\r\n        _pause();\r\n    }\r\n    \r\n    function unpause() onlyFactoryOwner(msg.sender) public {\r\n        _unpause();\r\n    }\r\n\r\n    modifier onlyFactoryOwner (address sender){\r\n        require(sender == owner() || sender == address(_factory));\r\n        _;\r\n    }\r\n\r\n    function _computeScalingFactor(IERC20 token) internal view returns (uint256) {\r\n\r\n        // Tokens that don't implement the `decimals` method are not supported.\r\n        uint256 tokenDecimals = ERC20(address(token)).decimals();\r\n\r\n        // Tokens with more than 18 decimals are not supported.\r\n        uint256 decimalsDifference = Math.sub(18, tokenDecimals);\r\n        return 1e18 * 10**decimalsDifference;\r\n    }\r\n\r\n    function _upscale(uint256 amount, uint256 scalingFactor) internal pure returns (uint256) {\r\n        \r\n        return FixedPoint.mulDown(amount, scalingFactor);\r\n    }\r\n\r\n    function _downscaleDown(uint256 amount, uint256 scalingFactor) internal pure returns (uint256) {\r\n        return FixedPoint.divDown(amount, scalingFactor);\r\n    }\r\n\r\n    function _downscaleUp(uint256 amount, uint256 scalingFactor) internal pure returns (uint256) {\r\n        return FixedPoint.divUp(amount, scalingFactor);\r\n    }\r\n\r\n}",
  "sourcePath": "D:\\Code\\verified-payments\\contracts\\Cash.sol",
  "compiler": {
    "name": "solc",
    "version": "0.5.7+commit.6da8b019.Emscripten.clang"
  },
  "schemaVersion": "3.4.3",
  "updatedAt": "2023-04-27T00:44:03.961Z",
  "networkType": "ethereum",
  "devdoc": {
    "methods": {
      "allowance(address,address)": {
        "details": "See {IERC20-allowance}.\r"
      },
      "approve(address,uint256)": {
        "details": "See {IERC20-approve}.\r      * Requirements:\r      * - `spender` cannot be the zero address.\r"
      },
      "balanceOf(address)": {
        "details": "See {IERC20-balanceOf}.\r"
      },
      "decimals()": {
        "details": "Returns the number of decimals used to get its user representation.\r For example, if `decimals` equals `2`, a balance of `505` tokens should\r be displayed to a user as `5.05` (`505 / 10 ** 2`).\r      * Tokens usually opt for a value of 18, imitating the relationship between\r Ether and Wei. This is the default value returned by this function, unless\r it's overridden.\r      * NOTE: This information is only used for _display_ purposes: it in\r no way affects any of the arithmetic of the contract, including\r {IERC20-balanceOf} and {IERC20-transfer}.\r"
      },
      "decreaseAllowance(address,uint256)": {
        "details": "Atomically decreases the allowance granted to `spender` by the caller.\r      * This is an alternative to {approve} that can be used as a mitigation for\r problems described in {IERC20-approve}.\r      * Emits an {Approval} event indicating the updated allowance.\r      * Requirements:\r      * - `spender` cannot be the zero address.\r - `spender` must have allowance for the caller of at least\r `subtractedValue`.\r"
      },
      "increaseAllowance(address,uint256)": {
        "details": "Atomically increases the allowance granted to `spender` by the caller.\r      * This is an alternative to {approve} that can be used as a mitigation for\r problems described in {IERC20-approve}.\r      * Emits an {Approval} event indicating the updated allowance.\r      * Requirements:\r      * - `spender` cannot be the zero address.\r"
      },
      "initialize(address)": {
        "details": "Initializes the contract setting the deployer as the initial owner."
      },
      "isOwner()": {
        "details": "Returns true if the caller is the current owner."
      },
      "isPaused()": {
        "return": "True: contract is paused\rFalse: contract is not paused\r"
      },
      "name()": {
        "details": "Returns the name of the token.\r"
      },
      "owner()": {
        "details": "Returns the address of the current owner."
      },
      "renounceOwnership()": {
        "details": "Leaves the contract without owner. It will not be possible to call `onlyOwner` functions anymore. Can only be called by the current owner.     * > Note: Renouncing ownership will leave the contract without an owner, thereby removing any functionality that is only available to the owner."
      },
      "symbol()": {
        "details": "Returns the symbol of the token, usually a shorter version of the\r name.\r"
      },
      "totalSupply()": {
        "details": "See {IERC20-totalSupply}.\r"
      },
      "transfer(address,uint256)": {
        "details": "See {IERC20-transfer}.\r      * Requirements:\r      * - `recipient` cannot be the zero address.\r - the caller must have a balance of at least `amount`.\r"
      },
      "transferOwnership(address)": {
        "details": "Transfers ownership of the contract to a new account (`newOwner`). Can only be called by the current owner."
      }
    }
  },
  "userdoc": {
    "methods": {
      "isPaused()": {
        "notice": "returns whether or not the contract is paused\r"
      }
    }
  }
}