{
  "contractName": "CorporateActions",
  "abi": [
    {
      "constant": false,
      "inputs": [
        {
          "name": "spender",
          "type": "address"
        },
        {
          "name": "amount",
          "type": "uint256"
        }
      ],
      "name": "approve",
      "outputs": [
        {
          "name": "",
          "type": "bool"
        }
      ],
      "payable": false,
      "stateMutability": "nonpayable",
      "type": "function"
    },
    {
      "constant": true,
      "inputs": [],
      "name": "totalSupply",
      "outputs": [
        {
          "name": "",
          "type": "uint256"
        }
      ],
      "payable": false,
      "stateMutability": "view",
      "type": "function"
    },
    {
      "constant": false,
      "inputs": [
        {
          "name": "sender",
          "type": "address"
        },
        {
          "name": "recipient",
          "type": "address"
        },
        {
          "name": "amount",
          "type": "uint256"
        }
      ],
      "name": "transferFrom",
      "outputs": [
        {
          "name": "",
          "type": "bool"
        }
      ],
      "payable": false,
      "stateMutability": "nonpayable",
      "type": "function"
    },
    {
      "constant": false,
      "inputs": [
        {
          "name": "spender",
          "type": "address"
        },
        {
          "name": "addedValue",
          "type": "uint256"
        }
      ],
      "name": "increaseAllowance",
      "outputs": [
        {
          "name": "",
          "type": "bool"
        }
      ],
      "payable": false,
      "stateMutability": "nonpayable",
      "type": "function"
    },
    {
      "constant": true,
      "inputs": [
        {
          "name": "time",
          "type": "uint256"
        }
      ],
      "name": "snapshotTotalSupply",
      "outputs": [
        {
          "name": "",
          "type": "uint256"
        }
      ],
      "payable": false,
      "stateMutability": "view",
      "type": "function"
    },
    {
      "constant": true,
      "inputs": [
        {
          "name": "time",
          "type": "uint256"
        },
        {
          "name": "owner",
          "type": "address"
        }
      ],
      "name": "snapshotBalanceOf",
      "outputs": [
        {
          "name": "",
          "type": "uint256"
        }
      ],
      "payable": false,
      "stateMutability": "view",
      "type": "function"
    },
    {
      "constant": true,
      "inputs": [
        {
          "name": "account",
          "type": "address"
        }
      ],
      "name": "balanceOf",
      "outputs": [
        {
          "name": "",
          "type": "uint256"
        }
      ],
      "payable": false,
      "stateMutability": "view",
      "type": "function"
    },
    {
      "constant": false,
      "inputs": [
        {
          "name": "spender",
          "type": "address"
        },
        {
          "name": "subtractedValue",
          "type": "uint256"
        }
      ],
      "name": "decreaseAllowance",
      "outputs": [
        {
          "name": "",
          "type": "bool"
        }
      ],
      "payable": false,
      "stateMutability": "nonpayable",
      "type": "function"
    },
    {
      "constant": false,
      "inputs": [
        {
          "name": "recipient",
          "type": "address"
        },
        {
          "name": "amount",
          "type": "uint256"
        }
      ],
      "name": "transfer",
      "outputs": [
        {
          "name": "",
          "type": "bool"
        }
      ],
      "payable": false,
      "stateMutability": "nonpayable",
      "type": "function"
    },
    {
      "constant": true,
      "inputs": [
        {
          "name": "owner",
          "type": "address"
        },
        {
          "name": "spender",
          "type": "address"
        }
      ],
      "name": "allowance",
      "outputs": [
        {
          "name": "",
          "type": "uint256"
        }
      ],
      "payable": false,
      "stateMutability": "view",
      "type": "function"
    },
    {
      "constant": true,
      "inputs": [],
      "name": "getNextSnapshots",
      "outputs": [
        {
          "name": "",
          "type": "uint256[]"
        }
      ],
      "payable": false,
      "stateMutability": "view",
      "type": "function"
    },
    {
      "anonymous": false,
      "inputs": [
        {
          "indexed": true,
          "name": "security",
          "type": "address"
        },
        {
          "indexed": false,
          "name": "recordDate",
          "type": "uint256"
        },
        {
          "indexed": false,
          "name": "resolution",
          "type": "string"
        },
        {
          "indexed": false,
          "name": "voting",
          "type": "bool"
        }
      ],
      "name": "Resolution",
      "type": "event"
    },
    {
      "anonymous": false,
      "inputs": [
        {
          "indexed": true,
          "name": "security",
          "type": "address"
        },
        {
          "indexed": false,
          "name": "oldTime",
          "type": "uint256"
        },
        {
          "indexed": false,
          "name": "newTime",
          "type": "uint256"
        }
      ],
      "name": "SnapshotSchedule",
      "type": "event"
    },
    {
      "anonymous": false,
      "inputs": [
        {
          "indexed": true,
          "name": "security",
          "type": "address"
        },
        {
          "indexed": false,
          "name": "time",
          "type": "uint256"
        }
      ],
      "name": "SnapshotUnschedule",
      "type": "event"
    },
    {
      "anonymous": false,
      "inputs": [
        {
          "indexed": true,
          "name": "from",
          "type": "address"
        },
        {
          "indexed": true,
          "name": "to",
          "type": "address"
        },
        {
          "indexed": false,
          "name": "value",
          "type": "uint256"
        }
      ],
      "name": "Transfer",
      "type": "event"
    },
    {
      "anonymous": false,
      "inputs": [
        {
          "indexed": true,
          "name": "owner",
          "type": "address"
        },
        {
          "indexed": true,
          "name": "spender",
          "type": "address"
        },
        {
          "indexed": false,
          "name": "value",
          "type": "uint256"
        }
      ],
      "name": "Approval",
      "type": "event"
    },
    {
      "constant": true,
      "inputs": [
        {
          "name": "time",
          "type": "uint256"
        }
      ],
      "name": "getResolution",
      "outputs": [
        {
          "name": "",
          "type": "string"
        },
        {
          "name": "",
          "type": "bool"
        }
      ],
      "payable": false,
      "stateMutability": "view",
      "type": "function"
    },
    {
      "constant": false,
      "inputs": [
        {
          "name": "time",
          "type": "uint256"
        },
        {
          "name": "ballot",
          "type": "bool"
        }
      ],
      "name": "vote",
      "outputs": [
        {
          "name": "",
          "type": "bool"
        }
      ],
      "payable": false,
      "stateMutability": "nonpayable",
      "type": "function"
    },
    {
      "constant": true,
      "inputs": [
        {
          "name": "time",
          "type": "uint256"
        }
      ],
      "name": "getDistribution",
      "outputs": [
        {
          "name": "",
          "type": "address"
        },
        {
          "name": "",
          "type": "uint256"
        }
      ],
      "payable": false,
      "stateMutability": "view",
      "type": "function"
    }
  ],
  "bytecode": "0x6080604052611125806100136000396000f3fe608060405234801561001057600080fd5b50600436106100ea5760003560e01c806370a082311161008c578063c9d27afe11610066578063c9d27afe146102b2578063d565a533146102d7578063dd62ed3e14610377578063fb78ed40146103a5576100ea565b806370a0823114610234578063a457c2d71461025a578063a9059cbb14610286576100ea565b806339509351116100c8578063395093511461017f5780633b345a87146101ab5780635ee7a942146101eb578063634daf7614610208576100ea565b8063095ea7b3146100ef57806318160ddd1461012f57806323b872dd14610149575b600080fd5b61011b6004803603604081101561010557600080fd5b506001600160a01b0381351690602001356103fd565b604080519115158252519081900360200190f35b61013761041b565b60408051918252519081900360200190f35b61011b6004803603606081101561015f57600080fd5b506001600160a01b03813581169160208101359091169060400135610421565b61011b6004803603604081101561019557600080fd5b506001600160a01b0381351690602001356104ae565b6101c8600480360360208110156101c157600080fd5b5035610502565b604080516001600160a01b03909316835260208301919091528051918290030190f35b6101376004803603602081101561020157600080fd5b50356105ef565b6101376004803603604081101561021e57600080fd5b50803590602001356001600160a01b031661061f565b6101376004803603602081101561024a57600080fd5b50356001600160a01b0316610668565b61011b6004803603604081101561027057600080fd5b506001600160a01b038135169060200135610683565b61011b6004803603604081101561029c57600080fd5b506001600160a01b0381351690602001356106f1565b61011b600480360360408110156102c857600080fd5b50803590602001351515610705565b6102f4600480360360208110156102ed57600080fd5b503561093e565b604051808060200183151515158152602001828103825284818151815260200191508051906020019080838360005b8381101561033b578181015183820152602001610323565b50505050905090810190601f1680156103685780820380516001836020036101000a031916815260200191505b50935050505060405180910390f35b6101376004803603604081101561038d57600080fd5b506001600160a01b0381358116916020013516610b01565b6103ad610b2c565b60408051602080825283518183015283519192839290830191858101910280838360005b838110156103e95781810151838201526020016103d1565b505050509050019250505060405180910390f35b600061041161040a610b84565b8484610b88565b5060015b92915050565b60355490565b600061042e848484610c7a565b6104a48461043a610b84565b61049f85604051806060016040528060288152602001611064602891396001600160a01b038a16600090815260346020526040812090610478610b84565b6001600160a01b03168152602081019190915260400160002054919063ffffffff610dde16565b610b88565b5060019392505050565b60006104116104bb610b84565b8461049f85603460006104cc610b84565b6001600160a01b03908116825260208083019390935260409182016000908120918c16815292529020549063ffffffff610e7816565b6000806000610511843361061f565b11156105ea5760408051600080825260208083018085528351902087835260709091529083902080549193909201908190839060026000196101006001841615020190911604801561059a5780601f1061057857610100808354040283529182019161059a565b820191906000526020600020905b815481529060010190602001808311610586575b505091505060405160208183030381529060405280519060200120146105ea5750506000818152606f60209081526040808320338452909152902080546001909101546001600160a01b03909116905b915091565b60008060006105ff846069610edc565b91509150816106155761061061041b565b610617565b805b949350505050565b6001600160a01b038116600090815260686020526040812081908190610646908690610edc565b915091508161065d5761065884610668565b61065f565b805b95945050505050565b6001600160a01b031660009081526033602052604090205490565b6000610411610690610b84565b8461049f856040518060600160405280602581526020016110d560259139603460006106ba610b84565b6001600160a01b03908116825260208083019390935260409182016000908120918d1681529252902054919063ffffffff610dde16565b60006104116106fe610b84565b8484610c7a565b600080610712843361061f565b116107675760408051600160e51b62461bcd02815260206004820152601260248201527f556e617574686f72697a656420766f7465720000000000000000000000000000604482015290519081900360640190fd5b6000838152606e6020908152604080832033845290915290205460ff166109315760408051600080825260208083018085528351902087835260709091529083902080549193909201908190839060026000196101006001841615020190911604801561080b5780601f106107e957610100808354040283529182019161080b565b820191906000526020600020905b8154815290600101906020018083116107f7575b5050915050604051602081830303815290604052805190602001201461093957607160706000858152602001908152602001600020604051808280546001816001161561010002031660029004801561089b5780601f1061087957610100808354040283529182019161089b565b820191906000526020600020905b815481529060010190602001808311610887575b505092835250506040519081900360200190205460ff16151560011415610931576000838152606d6020908152604080832033845290915290205460ff1661092c57506000828152606d6020908152604080832033808552908352818420805486151560ff1991821617909155868552606e8452828520918552925290912080549091166001908117909155610415565b610939565b506000610415565b610415565b6040805160008082526020808301808552835190208583526070909152838220805460609593949293919290910190819083906002600019610100600184161502019091160480156109c75780601f106109a55761010080835404028352918201916109c7565b820191906000526020600020905b8154815290600101906020018083116109b3575b505091505060405160208183030381529060405280519060200120146105ea576000838152607060205260409081902090518154607191839181908390600260001961010060018416150201909116048015610a5a5780601f10610a38576101008083540402835291820191610a5a565b820191906000526020600020905b815481529060010190602001808311610a46575b50509283525050604080516020928190038301812054845460026101006001831615026000190190911604601f810185900485028301850190935282825260ff169290918491830182828015610af15780601f10610ac657610100808354040283529160200191610af1565b820191906000526020600020905b815481529060010190602001808311610ad457829003601f168201915b50505050509150915091506105ea565b6001600160a01b03918216600090815260346020908152604080832093909416825291909152205490565b6060606c805480602002602001604051908101604052809291908181526020018280548015610b7a57602002820191906000526020600020905b815481526020019060010190808311610b66575b5050505050905090565b3390565b6001600160a01b038316610bd057604051600160e51b62461bcd0281526004018080602001828103825260248152602001806110b16024913960400191505060405180910390fd5b6001600160a01b038216610c1857604051600160e51b62461bcd02815260040180806020018281038252602281526020018061101c6022913960400191505060405180910390fd5b6001600160a01b03808416600081815260346020908152604080832094871680845294825291829020859055815185815291517f8c5be1e5ebec7d5bd14f71427d1e84f3dd0314c0f7b2291e5b200ac8c7c3b9259281900390910190a3505050565b6001600160a01b038316610cc257604051600160e51b62461bcd02815260040180806020018281038252602581526020018061108c6025913960400191505060405180910390fd5b6001600160a01b038216610d0a57604051600160e51b62461bcd028152600401808060200182810382526023815260200180610ff96023913960400191505060405180910390fd5b610d4d8160405180606001604052806026815260200161103e602691396001600160a01b038616600090815260336020526040902054919063ffffffff610dde16565b6001600160a01b038085166000908152603360205260408082209390935590841681522054610d82908263ffffffff610e7816565b6001600160a01b0380841660008181526033602090815260409182902094909455805185815290519193928716927fddf252ad1be2c89b69c2b068fc378daa952ba7f163c4a11628f55a4df523b3ef92918290030190a3505050565b60008184841115610e7057604051600160e51b62461bcd0281526004018080602001828103825283818151815260200191508051906020019080838360005b83811015610e35578181015183820152602001610e1d565b50505050905090810190601f168015610e625780820380516001836020036101000a031916815260200191505b509250505060405180910390fd5b505050900390565b600082820183811015610ed55760408051600160e51b62461bcd02815260206004820152601b60248201527f536166654d6174683a206164646974696f6e206f766572666c6f770000000000604482015290519081900360640190fd5b9392505050565b60008080610ef0848663ffffffff610f3216565b8454909150811415610f09575060009150819050610f2b565b6001846001018281548110610f1a57fe5b906000526020600020015492509250505b9250929050565b8154600090610f4357506000610415565b82546000905b80821015610f92576000610f5d8383610fd3565b905084868281548110610f6c57fe5b90600052602060002001541115610f8557809150610f8c565b8060010192505b50610f49565b600082118015610fba575083856001840381548110610fad57fe5b9060005260206000200154145b15610fcb5750600019019050610415565b509050610415565b60006002808306600285060181610fe657fe5b0460028304600285040101939250505056fe45524332303a207472616e7366657220746f20746865207a65726f206164647265737345524332303a20617070726f766520746f20746865207a65726f206164647265737345524332303a207472616e7366657220616d6f756e7420657863656564732062616c616e636545524332303a207472616e7366657220616d6f756e74206578636565647320616c6c6f77616e636545524332303a207472616e736665722066726f6d20746865207a65726f206164647265737345524332303a20617070726f76652066726f6d20746865207a65726f206164647265737345524332303a2064656372656173656420616c6c6f77616e63652062656c6f77207a65726fa165627a7a72305820132b5d48a0782301e1b2ed70083bc9e7630b10bd3f02a9ce55e8661679c4970b0029",
  "source": "// Distributions and Voting on corporate actions for Verified securities\r\n// (c) Kallol Borah, 2023\r\n\r\npragma solidity 0.5.7;\r\n\r\nimport \"./Snapshot.sol\";\r\n\r\nimport \"@openzeppelin/contracts-ethereum-package/contracts/utils/Arrays.sol\";\r\n\r\ncontract CorporateActions is Snapshot {\r\n\r\n    using Arrays for uint256[];\r\n\r\n    //mapping snapshot time to security token holder to vote cast\r\n    mapping(uint256 => mapping(address => bool)) internal votes;\r\n    mapping(uint256 => mapping(address => bool)) internal ballots;\r\n\r\n    struct Distribution {\r\n        address token;\r\n        uint256 amount;\r\n    }\r\n\r\n    //mapping snapshot time to security token holder to payout made\r\n    mapping(uint256 => mapping(address => Distribution)) internal distributions;\r\n\r\n    //mapping snapshot time to urls of resolutions\r\n    mapping(uint256 => string) internal resolutions;\r\n\r\n    //mapping resolution to indicate whether it is up for voting or not\r\n    mapping(string => bool) internal voting;\r\n\r\n    event Resolution(address indexed security, uint256 recordDate, string resolution, bool voting);\r\n\r\n    //checks if time to create resolution for is present in current snapshots and if yes, record the resolution\r\n    function _createResolution(uint256 time, bool vote, string memory ipfsLink) internal{\r\n        uint256[] memory scheduledSnapshots = getNextSnapshots();\r\n        for(uint256 i=0; i<scheduledSnapshots.length; i++){\r\n            if(scheduledSnapshots[i]==time){\r\n                resolutions[time] = ipfsLink;\r\n                voting[ipfsLink] = vote;\r\n                emit Resolution(address(this), time, ipfsLink, vote);\r\n            }\r\n        }\r\n    }\r\n\r\n    //fetches resolution for given time\r\n    function getResolution(uint256 time) public view returns(string memory, bool){\r\n        if(keccak256(abi.encodePacked(resolutions[time])) != keccak256(abi.encodePacked(\"\"))){\r\n            return (resolutions[time], voting[resolutions[time]]);\r\n        }\r\n    }\r\n\r\n    //voting by holders of this security token\r\n    function vote(uint256 time, bool ballot) public returns(bool){\r\n        require(snapshotBalanceOf(time, msg.sender)>0, \"Unauthorized voter\");\r\n        if(ballots[time][msg.sender]==false){\r\n            if(keccak256(abi.encodePacked(resolutions[time])) != keccak256(abi.encodePacked(\"\"))){\r\n                if(voting[resolutions[time]]==true){\r\n                    if(votes[time][msg.sender]==false){\r\n                        votes[time][msg.sender] = ballot;\r\n                        ballots[time][msg.sender] = true;\r\n                        return true;\r\n                    }\r\n                }\r\n                else \r\n                    return false;\r\n            }\r\n        }\r\n        else\r\n            return false;\r\n    }      \r\n\r\n    //returns token address and amount paid out to msg.sender (investor) if it has positive balance of this security token at time\r\n    function getDistribution(uint256 time) public view returns(address, uint256){\r\n        if(snapshotBalanceOf(time, msg.sender)>0){//, \"No security token balance for sender\");\r\n            if(keccak256(abi.encodePacked(resolutions[time])) != keccak256(abi.encodePacked(\"\"))){\r\n                return (distributions[time][msg.sender].token, distributions[time][msg.sender].amount);\r\n            }\r\n        }\r\n    }\r\n\r\n}",
  "sourcePath": "D:\\Code\\verified-securities\\contracts\\CorporateActions.sol",
  "compiler": {
    "name": "solc",
    "version": "0.5.7+commit.6da8b019.Emscripten.clang"
  },
  "schemaVersion": "3.4.3",
  "updatedAt": "2023-07-03T05:43:30.612Z",
  "devdoc": {
    "methods": {
      "allowance(address,address)": {
        "details": "See {IERC20-allowance}."
      },
      "approve(address,uint256)": {
        "details": "See {IERC20-approve}.     * Requirements:     * - `spender` cannot be the zero address."
      },
      "balanceOf(address)": {
        "details": "See {IERC20-balanceOf}."
      },
      "decreaseAllowance(address,uint256)": {
        "details": "Atomically decreases the allowance granted to `spender` by the caller.     * This is an alternative to {approve} that can be used as a mitigation for problems described in {IERC20-approve}.     * Emits an {Approval} event indicating the updated allowance.     * Requirements:     * - `spender` cannot be the zero address. - `spender` must have allowance for the caller of at least `subtractedValue`."
      },
      "increaseAllowance(address,uint256)": {
        "details": "Atomically increases the allowance granted to `spender` by the caller.     * This is an alternative to {approve} that can be used as a mitigation for problems described in {IERC20-approve}.     * Emits an {Approval} event indicating the updated allowance.     * Requirements:     * - `spender` cannot be the zero address."
      },
      "totalSupply()": {
        "details": "See {IERC20-totalSupply}."
      },
      "transfer(address,uint256)": {
        "details": "See {IERC20-transfer}.     * Requirements:     * - `recipient` cannot be the zero address. - the caller must have a balance of at least `amount`."
      },
      "transferFrom(address,address,uint256)": {
        "details": "See {IERC20-transferFrom}.     * Emits an {Approval} event indicating the updated allowance. This is not required by the EIP. See the note at the beginning of {ERC20};     * Requirements: - `sender` and `recipient` cannot be the zero address. - `sender` must have a balance of at least `amount`. - the caller must have allowance for `sender`'s tokens of at least `amount`."
      }
    }
  },
  "userdoc": {
    "methods": {}
  }
}