{
  "contractName": "Factory",
  "abi": [
    {
      "constant": true,
      "inputs": [
        {
          "name": "_salt",
          "type": "uint256"
        },
        {
          "name": "_logic",
          "type": "address"
        },
        {
          "name": "_admin",
          "type": "address"
        },
        {
          "name": "_data",
          "type": "bytes"
        },
        {
          "name": "_signature",
          "type": "bytes"
        }
      ],
      "name": "getSigner",
      "outputs": [
        {
          "name": "",
          "type": "address"
        }
      ],
      "payable": false,
      "stateMutability": "view",
      "type": "function"
    },
    {
      "constant": false,
      "inputs": [
        {
          "name": "_salt",
          "type": "uint256"
        },
        {
          "name": "_logic",
          "type": "address"
        },
        {
          "name": "_admin",
          "type": "address"
        },
        {
          "name": "_data",
          "type": "bytes"
        },
        {
          "name": "_signature",
          "type": "bytes"
        }
      ],
      "name": "deploySigned",
      "outputs": [
        {
          "name": "",
          "type": "address"
        }
      ],
      "payable": false,
      "stateMutability": "nonpayable",
      "type": "function"
    },
    {
      "constant": true,
      "inputs": [
        {
          "name": "",
          "type": "uint256"
        }
      ],
      "name": "tokens",
      "outputs": [
        {
          "name": "",
          "type": "address"
        }
      ],
      "payable": false,
      "stateMutability": "view",
      "type": "function"
    },
    {
      "constant": false,
      "inputs": [
        {
          "name": "_salt",
          "type": "uint256"
        },
        {
          "name": "_logic",
          "type": "address"
        },
        {
          "name": "_admin",
          "type": "address"
        },
        {
          "name": "_data",
          "type": "bytes"
        }
      ],
      "name": "deploy",
      "outputs": [
        {
          "name": "",
          "type": "address"
        }
      ],
      "payable": false,
      "stateMutability": "nonpayable",
      "type": "function"
    },
    {
      "constant": true,
      "inputs": [
        {
          "name": "",
          "type": "address"
        }
      ],
      "name": "token",
      "outputs": [
        {
          "name": "tokenType",
          "type": "bytes32"
        },
        {
          "name": "name",
          "type": "bytes32"
        }
      ],
      "payable": false,
      "stateMutability": "view",
      "type": "function"
    },
    {
      "constant": false,
      "inputs": [],
      "name": "renounceOwnership",
      "outputs": [],
      "payable": false,
      "stateMutability": "nonpayable",
      "type": "function"
    },
    {
      "constant": true,
      "inputs": [
        {
          "name": "_salt",
          "type": "uint256"
        },
        {
          "name": "_sender",
          "type": "address"
        }
      ],
      "name": "getDeploymentAddress",
      "outputs": [
        {
          "name": "",
          "type": "address"
        }
      ],
      "payable": false,
      "stateMutability": "view",
      "type": "function"
    },
    {
      "constant": true,
      "inputs": [],
      "name": "owner",
      "outputs": [
        {
          "name": "",
          "type": "address"
        }
      ],
      "payable": false,
      "stateMutability": "view",
      "type": "function"
    },
    {
      "constant": true,
      "inputs": [],
      "name": "isOwner",
      "outputs": [
        {
          "name": "",
          "type": "bool"
        }
      ],
      "payable": false,
      "stateMutability": "view",
      "type": "function"
    },
    {
      "constant": false,
      "inputs": [
        {
          "name": "_logic",
          "type": "address"
        },
        {
          "name": "_data",
          "type": "bytes"
        }
      ],
      "name": "deployMinimal",
      "outputs": [
        {
          "name": "proxy",
          "type": "address"
        }
      ],
      "payable": false,
      "stateMutability": "nonpayable",
      "type": "function"
    },
    {
      "constant": false,
      "inputs": [
        {
          "name": "newOwner",
          "type": "address"
        }
      ],
      "name": "transferOwnership",
      "outputs": [],
      "payable": false,
      "stateMutability": "nonpayable",
      "type": "function"
    },
    {
      "constant": true,
      "inputs": [
        {
          "name": "",
          "type": "uint256"
        }
      ],
      "name": "currencies",
      "outputs": [
        {
          "name": "",
          "type": "bytes32"
        }
      ],
      "payable": false,
      "stateMutability": "view",
      "type": "function"
    },
    {
      "anonymous": false,
      "inputs": [
        {
          "indexed": true,
          "name": "issuer",
          "type": "address"
        },
        {
          "indexed": false,
          "name": "tokenName",
          "type": "bytes32"
        },
        {
          "indexed": false,
          "name": "tokenType",
          "type": "bytes32"
        }
      ],
      "name": "CashIssuerCreated",
      "type": "event"
    },
    {
      "anonymous": false,
      "inputs": [
        {
          "indexed": true,
          "name": "issuer",
          "type": "address"
        },
        {
          "indexed": false,
          "name": "tokenName",
          "type": "bytes32"
        },
        {
          "indexed": false,
          "name": "tokenType",
          "type": "bytes32"
        }
      ],
      "name": "BondIssuerCreated",
      "type": "event"
    },
    {
      "anonymous": false,
      "inputs": [
        {
          "indexed": true,
          "name": "token",
          "type": "address"
        },
        {
          "indexed": false,
          "name": "tokenName",
          "type": "bytes32"
        },
        {
          "indexed": false,
          "name": "tokenType",
          "type": "bytes32"
        }
      ],
      "name": "TokenCreated",
      "type": "event"
    },
    {
      "anonymous": false,
      "inputs": [
        {
          "indexed": true,
          "name": "previousOwner",
          "type": "address"
        },
        {
          "indexed": true,
          "name": "newOwner",
          "type": "address"
        }
      ],
      "name": "OwnershipTransferred",
      "type": "event"
    },
    {
      "anonymous": false,
      "inputs": [
        {
          "indexed": false,
          "name": "proxy",
          "type": "address"
        }
      ],
      "name": "ProxyCreated",
      "type": "event"
    },
    {
      "constant": false,
      "inputs": [],
      "name": "initialize",
      "outputs": [],
      "payable": false,
      "stateMutability": "nonpayable",
      "type": "function"
    },
    {
      "constant": false,
      "inputs": [
        {
          "name": "sender",
          "type": "address"
        }
      ],
      "name": "initialize",
      "outputs": [],
      "payable": false,
      "stateMutability": "nonpayable",
      "type": "function"
    },
    {
      "constant": true,
      "inputs": [],
      "name": "getTokenCount",
      "outputs": [
        {
          "name": "tokenCount",
          "type": "uint256"
        }
      ],
      "payable": false,
      "stateMutability": "view",
      "type": "function"
    },
    {
      "constant": true,
      "inputs": [
        {
          "name": "n",
          "type": "uint256"
        }
      ],
      "name": "getToken",
      "outputs": [
        {
          "name": "",
          "type": "address"
        }
      ],
      "payable": false,
      "stateMutability": "view",
      "type": "function"
    },
    {
      "constant": true,
      "inputs": [
        {
          "name": "viaAddress",
          "type": "address"
        }
      ],
      "name": "getName",
      "outputs": [
        {
          "name": "",
          "type": "bytes32"
        }
      ],
      "payable": false,
      "stateMutability": "view",
      "type": "function"
    },
    {
      "constant": true,
      "inputs": [
        {
          "name": "viaAddress",
          "type": "address"
        }
      ],
      "name": "getType",
      "outputs": [
        {
          "name": "",
          "type": "bytes32"
        }
      ],
      "payable": false,
      "stateMutability": "view",
      "type": "function"
    },
    {
      "constant": true,
      "inputs": [
        {
          "name": "viaAddress",
          "type": "address"
        }
      ],
      "name": "getNameAndType",
      "outputs": [
        {
          "name": "",
          "type": "bytes32"
        },
        {
          "name": "",
          "type": "bytes32"
        }
      ],
      "payable": false,
      "stateMutability": "view",
      "type": "function"
    },
    {
      "constant": true,
      "inputs": [
        {
          "name": "tokenName",
          "type": "bytes32"
        },
        {
          "name": "tokenType",
          "type": "bytes32"
        }
      ],
      "name": "getTokenByNameType",
      "outputs": [
        {
          "name": "",
          "type": "address"
        }
      ],
      "payable": false,
      "stateMutability": "view",
      "type": "function"
    },
    {
      "constant": true,
      "inputs": [
        {
          "name": "tokenType",
          "type": "bytes32"
        },
        {
          "name": "tokenName",
          "type": "bytes32"
        }
      ],
      "name": "getIssuer",
      "outputs": [
        {
          "name": "",
          "type": "address"
        }
      ],
      "payable": false,
      "stateMutability": "view",
      "type": "function"
    },
    {
      "constant": true,
      "inputs": [
        {
          "name": "tokenName",
          "type": "bytes32"
        }
      ],
      "name": "getAddressAndType",
      "outputs": [
        {
          "name": "",
          "type": "address"
        },
        {
          "name": "",
          "type": "bytes32"
        }
      ],
      "payable": false,
      "stateMutability": "view",
      "type": "function"
    },
    {
      "constant": true,
      "inputs": [],
      "name": "getViaOracleUrl",
      "outputs": [
        {
          "name": "",
          "type": "string"
        }
      ],
      "payable": false,
      "stateMutability": "view",
      "type": "function"
    },
    {
      "constant": true,
      "inputs": [],
      "name": "getFiatPayoutUrl",
      "outputs": [
        {
          "name": "",
          "type": "string"
        }
      ],
      "payable": false,
      "stateMutability": "view",
      "type": "function"
    },
    {
      "constant": true,
      "inputs": [
        {
          "name": "currency",
          "type": "string"
        }
      ],
      "name": "getCryptoDataUrl",
      "outputs": [
        {
          "name": "",
          "type": "string"
        }
      ],
      "payable": false,
      "stateMutability": "view",
      "type": "function"
    },
    {
      "constant": true,
      "inputs": [],
      "name": "getClient",
      "outputs": [
        {
          "name": "",
          "type": "address"
        }
      ],
      "payable": false,
      "stateMutability": "view",
      "type": "function"
    },
    {
      "constant": true,
      "inputs": [],
      "name": "getOracles",
      "outputs": [
        {
          "name": "",
          "type": "address[]"
        }
      ],
      "payable": false,
      "stateMutability": "view",
      "type": "function"
    },
    {
      "constant": true,
      "inputs": [],
      "name": "getBondTerm",
      "outputs": [
        {
          "name": "",
          "type": "uint256"
        }
      ],
      "payable": false,
      "stateMutability": "view",
      "type": "function"
    },
    {
      "constant": false,
      "inputs": [
        {
          "name": "_target",
          "type": "address"
        },
        {
          "name": "tokenName",
          "type": "bytes32"
        },
        {
          "name": "tokenType",
          "type": "bytes32"
        },
        {
          "name": "tokenCurrency",
          "type": "bytes32"
        },
        {
          "name": "_oracle",
          "type": "address"
        },
        {
          "name": "_token",
          "type": "address"
        },
        {
          "name": "_fee",
          "type": "address"
        }
      ],
      "name": "createIssuer",
      "outputs": [],
      "payable": false,
      "stateMutability": "nonpayable",
      "type": "function"
    },
    {
      "constant": false,
      "inputs": [
        {
          "name": "_target",
          "type": "address"
        },
        {
          "name": "issuer",
          "type": "address"
        },
        {
          "name": "tokenName",
          "type": "bytes32"
        },
        {
          "name": "tokenSymbol",
          "type": "bytes32"
        }
      ],
      "name": "createToken",
      "outputs": [
        {
          "name": "",
          "type": "address"
        }
      ],
      "payable": false,
      "stateMutability": "nonpayable",
      "type": "function"
    },
    {
      "constant": false,
      "inputs": [
        {
          "name": "_url",
          "type": "string"
        }
      ],
      "name": "setViaOracleUrl",
      "outputs": [],
      "payable": false,
      "stateMutability": "nonpayable",
      "type": "function"
    },
    {
      "constant": false,
      "inputs": [
        {
          "name": "_url",
          "type": "string"
        }
      ],
      "name": "setFiatPayoutUrl",
      "outputs": [],
      "payable": false,
      "stateMutability": "nonpayable",
      "type": "function"
    },
    {
      "constant": false,
      "inputs": [
        {
          "name": "_url",
          "type": "string"
        },
        {
          "name": "_currency",
          "type": "string"
        }
      ],
      "name": "setCryptoDataURL",
      "outputs": [],
      "payable": false,
      "stateMutability": "nonpayable",
      "type": "function"
    },
    {
      "constant": false,
      "inputs": [
        {
          "name": "_oracles",
          "type": "address[]"
        }
      ],
      "name": "setOracles",
      "outputs": [],
      "payable": false,
      "stateMutability": "nonpayable",
      "type": "function"
    },
    {
      "constant": false,
      "inputs": [
        {
          "name": "_term",
          "type": "uint256"
        }
      ],
      "name": "setBondTerm",
      "outputs": [],
      "payable": false,
      "stateMutability": "nonpayable",
      "type": "function"
    },
    {
      "constant": false,
      "inputs": [
        {
          "name": "_client",
          "type": "address"
        }
      ],
      "name": "setClientAddress",
      "outputs": [],
      "payable": false,
      "stateMutability": "nonpayable",
      "type": "function"
    },
    {
      "constant": false,
      "inputs": [
        {
          "name": "_currency",
          "type": "bytes32"
        },
        {
          "name": "_address",
          "type": "address"
        }
      ],
      "name": "supportTokens",
      "outputs": [],
      "payable": false,
      "stateMutability": "nonpayable",
      "type": "function"
    },
    {
      "constant": true,
      "inputs": [
        {
          "name": "_currency",
          "type": "bytes32"
        }
      ],
      "name": "checkSupportForToken",
      "outputs": [
        {
          "name": "",
          "type": "bool"
        }
      ],
      "payable": false,
      "stateMutability": "view",
      "type": "function"
    },
    {
      "constant": true,
      "inputs": [
        {
          "name": "_currency",
          "type": "bytes32"
        }
      ],
      "name": "getCurrencyToken",
      "outputs": [
        {
          "name": "",
          "type": "address"
        }
      ],
      "payable": false,
      "stateMutability": "view",
      "type": "function"
    }
  ],
  "bytecode": "0x60806040819052600160715561001560a0610039565b601f1982820381018352601f90910116604052805160209190910120600055610047565b6109a680620032fc83390190565b6132a580620000576000396000f3fe608060405234801561001057600080fd5b506004361061023d5760003560e01c806388a365f41161013b578063c16634c6116100b8578063edf6a8ac1161007c578063edf6a8ac14610c5e578063f2fde38b14610ccc578063f3458f1414610cf2578063f429f19b14610d15578063f6d1c27114610d3b5761023d565b8063c16634c614610b64578063c4d66de814610bd2578063d11322d414610bf8578063d6a5aad814610c15578063e4b50cb814610c415761023d565b8063ae9b71af116100ff578063ae9b71af14610977578063b3eeb5e2146109e5578063b946762914610a99578063b96b200414610ab6578063baa796bd14610af65761023d565b806388a365f4146108bd5780638d5040cc1461090f5780638da5cb5b1461094b5780638f32d59b14610953578063968eb4b21461096f5761023d565b80635fd4b08a116101c957806378a895671161018d57806378a895671461083e578063805ef812146108465780638129fc1c1461086c57806381ae1f5b146108745780638556aa67146108a05761023d565b80635fd4b08a146106e75780636150864c1461070d578063668151a7146107d15780636d46a1db14610810578063715018a6146108365761023d565b806340884c521161021057806340884c52146105905780634e616cbc146105e85780634f64b2be1461060257806359dc735c1461061f5780635b365e49146106275761023d565b8063290f8f56146102425780632ea77917146103a7578063332d6626146103ca5780633e18b01b14610513575b600080fd5b61038b600480360360a081101561025857600080fd5b8135916001600160a01b03602082013581169260408301359091169190810190608081016060820135600160201b81111561029257600080fd5b8201836020820111156102a457600080fd5b803590602001918460018302840111600160201b831117156102c557600080fd5b91908080601f0160208091040260200160405190810160405280939291908181526020018383808284376000920191909152509295949360208101935035915050600160201b81111561031757600080fd5b82018360208201111561032957600080fd5b803590602001918460018302840111600160201b8311171561034a57600080fd5b91908080601f016020809104026020016040519081016040528093929190818152602001838380828437600092019190915250929550610d58945050505050565b604080516001600160a01b039092168252519081900360200190f35b61038b600480360360408110156103bd57600080fd5b5080359060200135610e47565b61038b600480360360a08110156103e057600080fd5b8135916001600160a01b03602082013581169260408301359091169190810190608081016060820135600160201b81111561041a57600080fd5b82018360208201111561042c57600080fd5b803590602001918460018302840111600160201b8311171561044d57600080fd5b91908080601f0160208091040260200160405190810160405280939291908181526020018383808284376000920191909152509295949360208101935035915050600160201b81111561049f57600080fd5b8201836020820111156104b157600080fd5b803590602001918460018302840111600160201b831117156104d257600080fd5b91908080601f016020809104026020016040519081016040528093929190818152602001838380828437600092019190915250929550610e71945050505050565b61051b610eee565b6040805160208082528351818301528351919283929083019185019080838360005b8381101561055557818101518382015260200161053d565b50505050905090810190601f1680156105825780820380516001836020036101000a031916815260200191505b509250505060405180910390f35b610598610f99565b60408051602080825283518183015283519192839290830191858101910280838360005b838110156105d45781810151838201526020016105bc565b505050509050019250505060405180910390f35b6105f0611012565b60408051918252519081900360200190f35b61038b6004803603602081101561061857600080fd5b5035611018565b61038b61103f565b6106e56004803603604081101561063d57600080fd5b810190602081018135600160201b81111561065757600080fd5b82018360208201111561066957600080fd5b803590602001918460018302840111600160201b8311171561068a57600080fd5b919390929091602081019035600160201b8111156106a757600080fd5b8201836020820111156106b957600080fd5b803590602001918460018302840111600160201b831117156106da57600080fd5b5090925090506110e8565b005b6105f0600480360360208110156106fd57600080fd5b50356001600160a01b031661116f565b61038b6004803603608081101561072357600080fd5b8135916001600160a01b03602082013581169260408301359091169190810190608081016060820135600160201b81111561075d57600080fd5b82018360208201111561076f57600080fd5b803590602001918460018302840111600160201b8311171561079057600080fd5b91908080601f016020809104026020016040519081016040528093929190818152602001838380828437600092019190915250929550611191945050505050565b6107f7600480360360208110156107e757600080fd5b50356001600160a01b03166111a9565b6040805192835260208301919091528051918290030190f35b6107f76004803603602081101561082657600080fd5b50356001600160a01b03166111ce565b6106e56111e7565b6105f061127b565b6106e56004803603602081101561085c57600080fd5b50356001600160a01b0316611281565b6106e56112ed565b61038b6004803603604081101561088a57600080fd5b50803590602001356001600160a01b031661139a565b6106e5600480360360208110156108b657600080fd5b50356113ff565b6106e5600480360360e08110156108d357600080fd5b506001600160a01b038135811691602081013591604082013591606081013591608082013581169160a081013582169160c0909101351661144e565b61038b6004803603608081101561092557600080fd5b506001600160a01b038135811691602081013590911690604081013590606001356119b0565b61038b611b37565b61095b611b46565b604080519115158252519081900360200190f35b61051b611b6c565b6106e56004803603602081101561098d57600080fd5b810190602081018135600160201b8111156109a757600080fd5b8201836020820111156109b957600080fd5b803590602001918460208302840111600160201b831117156109da57600080fd5b509092509050611be1565b61038b600480360360408110156109fb57600080fd5b6001600160a01b038235169190810190604081016020820135600160201b811115610a2557600080fd5b820183602082011115610a3757600080fd5b803590602001918460018302840111600160201b83111715610a5857600080fd5b91908080601f016020809104026020016040519081016040528093929190818152602001838380828437600092019190915250929550611c3c945050505050565b61038b60048036036020811015610aaf57600080fd5b5035611d9d565b610ad360048036036020811015610acc57600080fd5b5035611db8565b604080516001600160a01b03909316835260208301919091528051918290030190f35b6106e560048036036020811015610b0c57600080fd5b810190602081018135600160201b811115610b2657600080fd5b820183602082011115610b3857600080fd5b803590602001918460018302840111600160201b83111715610b5957600080fd5b509092509050611e95565b61051b60048036036020811015610b7a57600080fd5b810190602081018135600160201b811115610b9457600080fd5b820183602082011115610ba657600080fd5b803590602001918460018302840111600160201b83111715610bc757600080fd5b509092509050611eeb565b6106e560048036036020811015610be857600080fd5b50356001600160a01b0316611fb8565b61095b60048036036020811015610c0e57600080fd5b50356120ac565b6106e560048036036040811015610c2b57600080fd5b50803590602001356001600160a01b03166120d0565b61038b60048036036020811015610c5757600080fd5b5035612196565b6106e560048036036020811015610c7457600080fd5b810190602081018135600160201b811115610c8e57600080fd5b820183602082011115610ca057600080fd5b803590602001918460018302840111600160201b83111715610cc157600080fd5b5090925090506121c0565b6106e560048036036020811015610ce257600080fd5b50356001600160a01b0316612216565b61038b60048036036040811015610d0857600080fd5b5080359060200135612269565b6105f060048036036020811015610d2b57600080fd5b50356001600160a01b031661234b565b6105f060048036036020811015610d5157600080fd5b5035612366565b600080610e30878787873060405160200180868152602001856001600160a01b03166001600160a01b031660601b8152601401846001600160a01b03166001600160a01b031660601b815260140183805190602001908083835b60208310610dd15780518252601f199092019160209182019101610db2565b6001836020036101000a038019825116818451168082178552505050505050905001826001600160a01b03166001600160a01b031660601b81526014019550505050505060405160208183030381529060405280519060200120612384565b9050610e3c81846123d5565b979650505050505050565b60008281526070602090815260408083208484529091529020546001600160a01b03165b92915050565b600080610e818787878787610d58565b90506001600160a01b038116610ee15760408051600160e51b62461bcd02815260206004820152601160248201527f496e76616c6964207369676e6174757265000000000000000000000000000000604482015290519081900360640190fd5b610e3c87878787856124c3565b6068546060906001600160a01b03163314610f0857600080fd5b6069805460408051602060026001851615610100026000190190941693909304601f81018490048402820184019092528181529291830182828015610f8e5780601f10610f6357610100808354040283529160200191610f8e565b820191906000526020600020905b815481529060010190602001808311610f7157829003601f168201915b505050505090505b90565b6068546060906001600160a01b03163314610fb357600080fd5b606c805480602002602001604051908101604052809291908181526020018280548015610f8e57602002820191906000526020600020905b81546001600160a01b03168152600190910190602001808311610feb575050505050905090565b60715490565b606e818154811061102557fe5b6000918252602090912001546001600160a01b0316905081565b33600090815260676020526040812054600160cb1b660acd2c286c2e6d021480611084575033600090815260676020526040902054600160ca1b66159a58509bdb9902145b6110d85760408051600160e51b62461bcd02815260206004820152601660248201527f47657420636c69656e74203a20464f5242494444454e00000000000000000000604482015290519081900360640190fd5b50606d546001600160a01b031690565b6110f0611b46565b6111325760408051600160e51b62461bcd028152602060048201819052602482015260008051602061322c833981519152604482015290519081900360640190fd5b8383606b848460405180838380828437808301925050509250505090815260200160405180910390209190611168929190612737565b5050505050565b6001600160a01b0381166000908152606760205260409020600101545b919050565b60006111a085858585336124c3565b95945050505050565b6001600160a01b0381166000908152606760205260409020600181015490545b915091565b6067602052600090815260409020805460019091015482565b6111ef611b46565b6112315760408051600160e51b62461bcd028152602060048201819052602482015260008051602061322c833981519152604482015290519081900360640190fd5b6034546040516000916001600160a01b0316907f8be0079c531659141344cd1fd0a4f28419497f9722a3daafe3b4186f6b6457e0908390a3603480546001600160a01b0319169055565b606e5490565b611289611b46565b6112cb5760408051600160e51b62461bcd028152602060048201819052602482015260008051602061322c833981519152604482015290519081900360640190fd5b606d80546001600160a01b0319166001600160a01b0392909216919091179055565b600154610100900460ff168061130657506113066125f7565b80611314575060015460ff16155b61135257604051600160e51b62461bcd02815260040180806020018281038252602e81526020018061324c602e913960400191505060405180910390fd5b600154610100900460ff1615801561137c576001805460ff1961ff00199091166101001716811790555b61138533611fb8565b8015611397576001805461ff00191690555b50565b6000806113a784846125fd565b600054604080516001600160f81b031960208083019190915230606090811b602184015260358301959095526055808301949094528251808303909401845260759091019091528151910120811b901c949350505050565b611407611b46565b6114495760408051600160e51b62461bcd028152602060048201819052602482015260008051602061322c833981519152604482015290519081900360640190fd5b607155565b611456611b46565b6114985760408051600160e51b62461bcd028152602060048201819052602482015260008051602061322c833981519152604482015290519081900360640190fd5b606880546001600160a01b0319166001600160a01b038516179055606086856114bf611b37565b60408051602481019490945260448401929092526001600160a01b039081166064840152808716608484015280861660a4840152841660c4808401919091528151808403909101815260e490920190526020810180516001600160e01b0316600160e21b632274a713021790529050600061153a8983611c3c565b905086600160e31b63086c2e6d02141561159657604080518981526020810189905281516001600160a01b038416927f49c2bdad6020b81dabafa7be5ba1d6b64dccc883841d724393e4a0242819bc34928290030190a26115ec565b86600160e21b63109bdb990214156115ec57604080518981526020810189905281516001600160a01b038416927fdaec82b39e03602f1e7b1c03805276c348a0b9c50d3e83d4ae136f2bbb74137f928290030190a25b86600160e31b63086c2e6d0214156117cb5760008681527f725b1f02019c28ac763ea79e1ff934efc707f63e9b319f205fa7fd7c1ddb05d360205260409020546001600160a01b03161561170257604080518082018252600160cb1b660acd2c286c2e6d02815260208082018b81526001600160a01b0385166000908152606783528481209351845590516001909301929092558a8252606f90522054606e8054839290811061169857fe5b6000918252602080832090910180546001600160a01b039485166001600160a01b0319918216179091558983527f725b1f02019c28ac763ea79e1ff934efc707f63e9b319f205fa7fd7c1ddb05d390915260409091208054928416929091169190911790556117c6565b604080518082018252600160cb1b660acd2c286c2e6d02815260208082018b81526001600160a01b038516600081815260678452858120945185559151600194850155606e80548e8452606f855286842081905594850190557f9930d9ff0dee0ef5ca2f7710ea66b8f84dd0f5f5351ecffe72b952cd9db7142a90930180546001600160a01b031990811685179091558a82527f725b1f02019c28ac763ea79e1ff934efc707f63e9b319f205fa7fd7c1ddb05d39092529290922080549092161790555b6119a5565b86600160e21b63109bdb990214156119a55760008681527ff296d0245ee9f13beb062c173c79f5bf555e94b2a5108722d840fc530e48618160205260409020546001600160a01b0316156118e157604080518082018252600160ca1b66159a58509bdb9902815260208082018b81526001600160a01b0385166000908152606783528481209351845590516001909301929092558a8252606f90522054606e8054839290811061187757fe5b6000918252602080832090910180546001600160a01b039485166001600160a01b0319918216179091558983527ff296d0245ee9f13beb062c173c79f5bf555e94b2a5108722d840fc530e48618190915260409091208054928416929091169190911790556119a5565b604080518082018252600160ca1b66159a58509bdb9902815260208082018b81526001600160a01b038516600081815260678452858120945185559151600194850155606e80548e8452606f855286842081905594850190557f9930d9ff0dee0ef5ca2f7710ea66b8f84dd0f5f5351ecffe72b952cd9db7142a90930180546001600160a01b031990811685179091558a82527ff296d0245ee9f13beb062c173c79f5bf555e94b2a5108722d840fc530e4861819092529290922080549092161790555b505050505050505050565b33600090815260676020526040812054600160ca1b66159a58509bdb990214806119f257506119dd611b37565b6001600160a01b0316336001600160a01b0316145b6119fb57600080fd5b60408051602481018590526001600160a01b038616604482015233606482015260848082018590528251808303909101815260a49091019091526020810180516001600160e01b0316600160e01b63ef239721021790526000611a5e8783611c3c565b60408051868152600160ca1b66159a58509bdb9902602082015281519293506001600160a01b038416927f59bcd02033e203f8af464062ce742d11a3358b7b8fd7e996b91d74bee929d7e5929181900390910190a26001600160a01b03811660008181526067602052604081207f566961426f6e64546f6b656e00000000000000000000000000000000000000009055606e805460018101825591527f9930d9ff0dee0ef5ca2f7710ea66b8f84dd0f5f5351ecffe72b952cd9db7142a0180546001600160a01b03191690911790559695505050505050565b6034546001600160a01b031690565b6034546000906001600160a01b0316611b5d612636565b6001600160a01b031614905090565b6068546060906001600160a01b03163314611b8657600080fd5b606a805460408051602060026001851615610100026000190190941693909304601f81018490048402820184019092528181529291830182828015610f8e5780601f10610f6357610100808354040283529160200191610f8e565b611be9611b46565b611c2b5760408051600160e51b62461bcd028152602060048201819052602482015260008051602061322c833981519152604482015290519081900360640190fd5b611c37606c83836127b5565b505050565b6000808360601b90506040517f3d602d80600a3d3981f3363d3d373d3d3d363d7300000000000000000000000081528160148201527f5af43d82803e903d91602b57fd5bf3000000000000000000000000000000000060288201526037816000f0604080516001600160a01b038316815290519194507efffc2da0b561cae30d9826d37709e9421c4725faebc226cbbb7ef5fc5e7349925081900360200190a1825115611d96576000826001600160a01b0316846040518082805190602001908083835b60208310611d1f5780518252601f199092019160209182019101611d00565b6001836020036101000a0380198251168184511680821785525050505050509050019150506000604051808303816000865af19150503d8060008114611d81576040519150601f19603f3d011682016040523d82523d6000602084013e611d86565b606091505b5050905080611d9457600080fd5b505b5092915050565b6000908152607460205260409020546001600160a01b031690565b6000818152606f6020526040812054606e80548392839286926067928592918110611ddf57fe5b600091825260209182902001546001600160a01b031682520152508015611e88576000848152606f6020526040902054606e80549091908110611e1e57fe5b6000918252602080832090910154868352606f9091526040822054606e80546001600160a01b03909316936067939092908110611e5757fe5b60009182526020808320909101546001600160a01b0316835282019290925260400190205490935091506111c99050565b50600091508190506111c9565b611e9d611b46565b611edf5760408051600160e51b62461bcd028152602060048201819052602482015260008051602061322c833981519152604482015290519081900360640190fd5b611c37606a8383612737565b6068546060906001600160a01b03163314611f0557600080fd5b606b8383604051808383808284379190910194855250506040805160209481900385018120805460026001821615610100026000190190911604601f81018790048702830187019093528282529094909350909150830182828015611fab5780601f10611f8057610100808354040283529160200191611fab565b820191906000526020600020905b815481529060010190602001808311611f8e57829003601f168201915b5050505050905092915050565b600154610100900460ff1680611fd15750611fd16125f7565b80611fdf575060015460ff16155b61201d57604051600160e51b62461bcd02815260040180806020018281038252602e81526020018061324c602e913960400191505060405180910390fd5b600154610100900460ff16158015612047576001805460ff1961ff00199091166101001716811790555b603480546001600160a01b0319166001600160a01b0384811691909117918290556040519116906000907f8be0079c531659141344cd1fd0a4f28419497f9722a3daafe3b4186f6b6457e0908290a380156120a8576001805461ff00191690555b5050565b600081815260736020526040812054156120c85750600161118c565b50600061118c565b6120d8611b46565b61211a5760408051600160e51b62461bcd028152602060048201819052602482015260008051602061322c833981519152604482015290519081900360640190fd5b6000828152607360205260409020546120a857607280546001810182557fdffbd64cc7c1a7eb27984335d9416d51137a03d3fabec7141025c62663253fe10183905554600083815260736020908152604080832093909355607490522080546001600160a01b0383166001600160a01b03199091161790555050565b6000606e82815481106121a557fe5b6000918252602090912001546001600160a01b031692915050565b6121c8611b46565b61220a5760408051600160e51b62461bcd028152602060048201819052602482015260008051602061322c833981519152604482015290519081900360640190fd5b611c3760698383612737565b61221e611b46565b6122605760408051600160e51b62461bcd028152602060048201819052602482015260008051602061322c833981519152604482015290519081900360640190fd5b6113978161263a565b60008260676000606e606f6000888152602001908152602001600020548154811061229057fe5b60009182526020808320909101546001600160a01b0316835282019290925260400190206001015414801561230c57508160676000606e606f600088815260200190815260200160002054815481106122e557fe5b60009182526020808320909101546001600160a01b03168352820192909252604001902054145b15610e6b576000838152606f6020526040902054606e8054909190811061232f57fe5b6000918252602090912001546001600160a01b03169050610e6b565b6001600160a01b031660009081526067602052604090205490565b6072818154811061237357fe5b600091825260209091200154905081565b604080517f19457468657265756d205369676e6564204d6573736167653a0a333200000000602080830191909152603c8083019490945282518083039094018452605c909101909152815191012090565b600081516041146123e857506000610e6b565b60208201516040830151606084015160001a7f7fffffffffffffffffffffffffffffff5d576e7357a4501ddfe92f46681b20a082111561242e5760009350505050610e6b565b8060ff16601b1415801561244657508060ff16601c14155b156124575760009350505050610e6b565b6040805160008152602080820180845289905260ff8416828401526060820186905260808201859052915160019260a0808401939192601f1981019281900390910190855afa1580156124ae573d6000803e3d6000fd5b5050604051601f190151979650505050505050565b6000806124d087846126de565b604080516001600160a01b038316815290519192507efffc2da0b561cae30d9826d37709e9421c4725faebc226cbbb7ef5fc5e7349919081900360200190a1604051600160e01b63cf7a1d770281526001600160a01b038781166004830190815287821660248401526060604484019081528751606485015287519285169363cf7a1d77938b938b938b939192909160840190602085019080838360005b8381101561258657818101518382015260200161256e565b50505050905090810190601f1680156125b35780820380516001836020036101000a031916815260200191505b50945050505050600060405180830381600087803b1580156125d457600080fd5b505af11580156125e8573d6000803e3d6000fd5b50929998505050505050505050565b303b1590565b604080516020808201949094526001600160a01b039290921660601b828201528051808303603401815260549092019052805191012090565b3390565b6001600160a01b03811661268257604051600160e51b62461bcd0281526004018080602001828103825260268152602001806132066026913960400191505060405180910390fd5b6034546040516001600160a01b038084169216907f8be0079c531659141344cd1fd0a4f28419497f9722a3daafe3b4186f6b6457e090600090a3603480546001600160a01b0319166001600160a01b0392909216919091179055565b6000806060604051806020016126f390612814565b601f1982820381018352601f909101166040529050600061271486866125fd565b9050808251602084016000f59250823b61272d57600080fd5b5090949350505050565b828054600181600116156101000203166002900490600052602060002090601f016020900481019282601f106127785782800160ff198235161785556127a5565b828001600101855582156127a5579182015b828111156127a557823582559160200191906001019061278a565b506127b1929150612821565b5090565b828054828255906000526020600020908101928215612808579160200282015b828111156128085781546001600160a01b0319166001600160a01b038435161782556020909201916001909101906127d5565b506127b192915061283b565b6109a68061286083390190565b610f9691905b808211156127b15760008155600101612827565b610f9691905b808211156127b15780546001600160a01b031916815560010161284156fe608060405234801561001057600080fd5b50610986806100206000396000f3fe6080604052600436106100705760003560e01c80638f2839701161004e5780638f2839701461015e578063cf7a1d7714610191578063d1f5789414610250578063f851a4401461030657610070565b80633659cfe61461007a5780634f1ef286146100ad5780635c60da1b1461012d575b61007861031b565b005b34801561008657600080fd5b506100786004803603602081101561009d57600080fd5b50356001600160a01b0316610335565b610078600480360360408110156100c357600080fd5b6001600160a01b0382351691908101906040810160208201356401000000008111156100ee57600080fd5b82018360208201111561010057600080fd5b8035906020019184600183028401116401000000008311171561012257600080fd5b50909250905061036f565b34801561013957600080fd5b5061014261041c565b604080516001600160a01b039092168252519081900360200190f35b34801561016a57600080fd5b506100786004803603602081101561018157600080fd5b50356001600160a01b0316610459565b610078600480360360608110156101a757600080fd5b6001600160a01b0382358116926020810135909116918101906060810160408201356401000000008111156101db57600080fd5b8201836020820111156101ed57600080fd5b8035906020019184600183028401116401000000008311171561020f57600080fd5b91908080601f016020809104026020016040519081016040528093929190818152602001838380828437600092019190915250929550610516945050505050565b6100786004803603604081101561026657600080fd5b6001600160a01b03823516919081019060408101602082013564010000000081111561029157600080fd5b8201836020820111156102a357600080fd5b803590602001918460018302840111640100000000831117156102c557600080fd5b91908080601f0160208091040260200160405190810160405280939291908181526020018383808284376000920191909152509295506105a6945050505050565b34801561031257600080fd5b506101426106e6565b610323610711565b61033361032e610774565b610799565b565b61033d6107bd565b6001600160a01b0316336001600160a01b031614156103645761035f816107e2565b61036c565b61036c61031b565b50565b6103776107bd565b6001600160a01b0316336001600160a01b0316141561040f57610399836107e2565b6000836001600160a01b031683836040518083838082843760405192019450600093509091505080830381855af49150503d80600081146103f6576040519150601f19603f3d011682016040523d82523d6000602084013e6103fb565b606091505b505090508061040957600080fd5b50610417565b61041761031b565b505050565b60006104266107bd565b6001600160a01b0316336001600160a01b0316141561044e57610447610774565b9050610456565b61045661031b565b90565b6104616107bd565b6001600160a01b0316336001600160a01b03161415610364576001600160a01b0381166104c257604051600160e51b62461bcd0281526004018080602001828103825260368152602001806108ea6036913960400191505060405180910390fd5b7f7e644d79422f17c01e4894b5f4f588d331ebfa28653d42ae832dc59e38c9798f6104eb6107bd565b604080516001600160a01b03928316815291841660208301528051918290030190a161035f81610822565b6000610520610774565b6001600160a01b03161461053357600080fd5b61053d83826105a6565b604080517f656970313936372e70726f78792e61646d696e00000000000000000000000000815290519081900360130190207fb53127684a568b3173ae13b9f8a6016e243e63b6e8ee1178d6a717850b5d61036000199091011461059d57fe5b61041782610822565b60006105b0610774565b6001600160a01b0316146105c357600080fd5b604080517f656970313936372e70726f78792e696d706c656d656e746174696f6e000000008152905190819003601c0190207f360894a13ba1a3210667c828492db98dca3e2076cc3735a920a3ca505d382bbc6000199091011461062357fe5b61062c82610846565b8051156106e2576000826001600160a01b0316826040518082805190602001908083835b6020831061066f5780518252601f199092019160209182019101610650565b6001836020036101000a038019825116818451168082178552505050505050905001915050600060405180830381855af49150503d80600081146106cf576040519150601f19603f3d011682016040523d82523d6000602084013e6106d4565b606091505b505090508061041757600080fd5b5050565b60006106f06107bd565b6001600160a01b0316336001600160a01b0316141561044e576104476107bd565b6107196107bd565b6001600160a01b0316336001600160a01b0316141561076c57604051600160e51b62461bcd0281526004018080602001828103825260328152602001806108b86032913960400191505060405180910390fd5b610333610333565b7f360894a13ba1a3210667c828492db98dca3e2076cc3735a920a3ca505d382bbc5490565b3660008037600080366000845af43d6000803e8080156107b8573d6000f35b3d6000fd5b7fb53127684a568b3173ae13b9f8a6016e243e63b6e8ee1178d6a717850b5d61035490565b6107eb81610846565b6040516001600160a01b038216907fbc7cd75a20ee27fd9adebab32041f755214dbc6bffa90cc0225b39da2e5c2d3b90600090a250565b7fb53127684a568b3173ae13b9f8a6016e243e63b6e8ee1178d6a717850b5d610355565b61084f816108b1565b61088d57604051600160e51b62461bcd02815260040180806020018281038252603b815260200180610920603b913960400191505060405180910390fd5b7f360894a13ba1a3210667c828492db98dca3e2076cc3735a920a3ca505d382bbc55565b3b15159056fe43616e6e6f742063616c6c2066616c6c6261636b2066756e6374696f6e2066726f6d207468652070726f78792061646d696e43616e6e6f74206368616e6765207468652061646d696e206f6620612070726f787920746f20746865207a65726f206164647265737343616e6e6f742073657420612070726f787920696d706c656d656e746174696f6e20746f2061206e6f6e2d636f6e74726163742061646472657373a165627a7a72305820acd86240912c703ba88ccefef3db77e88d3507353c7c194b0b27eed571ae96c900294f776e61626c653a206e6577206f776e657220697320746865207a65726f20616464726573734f776e61626c653a2063616c6c6572206973206e6f7420746865206f776e6572436f6e747261637420696e7374616e63652068617320616c7265616479206265656e20696e697469616c697a6564a165627a7a72305820d10a8fc44e8be52e01521adc5733bf54e854b57496175e02d1b19d9e236d7ece0029608060405234801561001057600080fd5b50610986806100206000396000f3fe6080604052600436106100705760003560e01c80638f2839701161004e5780638f2839701461015e578063cf7a1d7714610191578063d1f5789414610250578063f851a4401461030657610070565b80633659cfe61461007a5780634f1ef286146100ad5780635c60da1b1461012d575b61007861031b565b005b34801561008657600080fd5b506100786004803603602081101561009d57600080fd5b50356001600160a01b0316610335565b610078600480360360408110156100c357600080fd5b6001600160a01b0382351691908101906040810160208201356401000000008111156100ee57600080fd5b82018360208201111561010057600080fd5b8035906020019184600183028401116401000000008311171561012257600080fd5b50909250905061036f565b34801561013957600080fd5b5061014261041c565b604080516001600160a01b039092168252519081900360200190f35b34801561016a57600080fd5b506100786004803603602081101561018157600080fd5b50356001600160a01b0316610459565b610078600480360360608110156101a757600080fd5b6001600160a01b0382358116926020810135909116918101906060810160408201356401000000008111156101db57600080fd5b8201836020820111156101ed57600080fd5b8035906020019184600183028401116401000000008311171561020f57600080fd5b91908080601f016020809104026020016040519081016040528093929190818152602001838380828437600092019190915250929550610516945050505050565b6100786004803603604081101561026657600080fd5b6001600160a01b03823516919081019060408101602082013564010000000081111561029157600080fd5b8201836020820111156102a357600080fd5b803590602001918460018302840111640100000000831117156102c557600080fd5b91908080601f0160208091040260200160405190810160405280939291908181526020018383808284376000920191909152509295506105a6945050505050565b34801561031257600080fd5b506101426106e6565b610323610711565b61033361032e610774565b610799565b565b61033d6107bd565b6001600160a01b0316336001600160a01b031614156103645761035f816107e2565b61036c565b61036c61031b565b50565b6103776107bd565b6001600160a01b0316336001600160a01b0316141561040f57610399836107e2565b6000836001600160a01b031683836040518083838082843760405192019450600093509091505080830381855af49150503d80600081146103f6576040519150601f19603f3d011682016040523d82523d6000602084013e6103fb565b606091505b505090508061040957600080fd5b50610417565b61041761031b565b505050565b60006104266107bd565b6001600160a01b0316336001600160a01b0316141561044e57610447610774565b9050610456565b61045661031b565b90565b6104616107bd565b6001600160a01b0316336001600160a01b03161415610364576001600160a01b0381166104c257604051600160e51b62461bcd0281526004018080602001828103825260368152602001806108ea6036913960400191505060405180910390fd5b7f7e644d79422f17c01e4894b5f4f588d331ebfa28653d42ae832dc59e38c9798f6104eb6107bd565b604080516001600160a01b03928316815291841660208301528051918290030190a161035f81610822565b6000610520610774565b6001600160a01b03161461053357600080fd5b61053d83826105a6565b604080517f656970313936372e70726f78792e61646d696e00000000000000000000000000815290519081900360130190207fb53127684a568b3173ae13b9f8a6016e243e63b6e8ee1178d6a717850b5d61036000199091011461059d57fe5b61041782610822565b60006105b0610774565b6001600160a01b0316146105c357600080fd5b604080517f656970313936372e70726f78792e696d706c656d656e746174696f6e000000008152905190819003601c0190207f360894a13ba1a3210667c828492db98dca3e2076cc3735a920a3ca505d382bbc6000199091011461062357fe5b61062c82610846565b8051156106e2576000826001600160a01b0316826040518082805190602001908083835b6020831061066f5780518252601f199092019160209182019101610650565b6001836020036101000a038019825116818451168082178552505050505050905001915050600060405180830381855af49150503d80600081146106cf576040519150601f19603f3d011682016040523d82523d6000602084013e6106d4565b606091505b505090508061041757600080fd5b5050565b60006106f06107bd565b6001600160a01b0316336001600160a01b0316141561044e576104476107bd565b6107196107bd565b6001600160a01b0316336001600160a01b0316141561076c57604051600160e51b62461bcd0281526004018080602001828103825260328152602001806108b86032913960400191505060405180910390fd5b610333610333565b7f360894a13ba1a3210667c828492db98dca3e2076cc3735a920a3ca505d382bbc5490565b3660008037600080366000845af43d6000803e8080156107b8573d6000f35b3d6000fd5b7fb53127684a568b3173ae13b9f8a6016e243e63b6e8ee1178d6a717850b5d61035490565b6107eb81610846565b6040516001600160a01b038216907fbc7cd75a20ee27fd9adebab32041f755214dbc6bffa90cc0225b39da2e5c2d3b90600090a250565b7fb53127684a568b3173ae13b9f8a6016e243e63b6e8ee1178d6a717850b5d610355565b61084f816108b1565b61088d57604051600160e51b62461bcd02815260040180806020018281038252603b815260200180610920603b913960400191505060405180910390fd5b7f360894a13ba1a3210667c828492db98dca3e2076cc3735a920a3ca505d382bbc55565b3b15159056fe43616e6e6f742063616c6c2066616c6c6261636b2066756e6374696f6e2066726f6d207468652070726f78792061646d696e43616e6e6f74206368616e6765207468652061646d696e206f6620612070726f787920746f20746865207a65726f206164647265737343616e6e6f742073657420612070726f787920696d706c656d656e746174696f6e20746f2061206e6f6e2d636f6e74726163742061646472657373a165627a7a72305820acd86240912c703ba88ccefef3db77e88d3507353c7c194b0b27eed571ae96c90029",
  "source": "// (c) Kallol Borah, 2020\r\n// Implementation of the Via cash and bond factory\r\n// SPDX-License-Identifier: MIT\r\n\r\npragma solidity 0.5.7;\r\n\r\nimport \"./interfaces/ViaFactory.sol\";\r\nimport \"./interfaces/ViaToken.sol\";\r\nimport \"./interfaces/VerifiedClient.sol\";\r\nimport \"@openzeppelin/upgrades/contracts/Initializable.sol\";\r\nimport \"@openzeppelin/upgrades/contracts/upgradeability/ProxyFactory.sol\";\r\nimport \"@openzeppelin/contracts-ethereum-package/contracts/ownership/Ownable.sol\";\r\n\r\ncontract Factory is ViaFactory, ProxyFactory, Initializable, Ownable {\r\n\r\n    //data structure for token proxies\r\n    struct via{\r\n        bytes32 tokenType;\r\n        bytes32 name;        \r\n    }\r\n\r\n    //addresses of all Via proxies\r\n    mapping(address => via) public token;\r\n\r\n    //Via oracle url address\r\n    address ViaOracle;\r\n    string ViaOracleUrl;\r\n\r\n    //Payout url\r\n    string FiatPayoutUrl;\r\n\r\n    //Crypto data url\r\n    mapping(string => string) CryptoDataUrl;\r\n\r\n    //Oracle address\r\n    address[] oracles;\r\n\r\n    //Verified accounts client\r\n    address client;    \r\n\r\n    //token index and position in index\r\n    address[] public tokens;\r\n\r\n    //mapping token name (currency) to index position \r\n    mapping(bytes32 => uint256) private tokenIndex;\r\n\r\n    //list of token type to token currency to product issuers\r\n    mapping(bytes32 => mapping(bytes32 => address)) issuers;\r\n\r\n    //default term of bond (in seconds)\r\n    uint term = 1;\r\n\r\n    //storing supporting ERC20 tokens\r\n    bytes32[] public currencies;\r\n    mapping(bytes32 => uint256) private currencyIndex;\r\n    mapping(bytes32 => address) private currencyAddress;\r\n\r\n    event CashIssuerCreated(address indexed issuer, bytes32 tokenName, bytes32 tokenType);\r\n    event BondIssuerCreated(address indexed issuer, bytes32 tokenName, bytes32 tokenType);\r\n    event TokenCreated(address indexed token, bytes32 tokenName, bytes32 tokenType);\r\n\r\n    function initialize() public initializer{\r\n        Ownable.initialize(msg.sender);\r\n    }\r\n\r\n    function getTokenCount() external view returns(uint tokenCount) {\r\n        return tokens.length;\r\n    }\r\n\r\n    function getToken(uint256 n) external view returns(address){\r\n        return tokens[n];\r\n    }\r\n\r\n    function getName(address viaAddress) external view returns(bytes32) {\r\n        return token[viaAddress].name;\r\n    }\r\n\r\n    function getType(address viaAddress) external view returns(bytes32) {\r\n        return token[viaAddress].tokenType;\r\n    }\r\n\r\n    function getNameAndType(address viaAddress) external view returns(bytes32, bytes32){\r\n        return (token[viaAddress].name, token[viaAddress].tokenType);\r\n    }\r\n\r\n    function getTokenByNameType(bytes32 tokenName, bytes32 tokenType) external view returns(address){\r\n        if(token[tokens[tokenIndex[tokenName]]].name == tokenName && token[tokens[tokenIndex[tokenName]]].tokenType == tokenType)\r\n                return tokens[tokenIndex[tokenName]];\r\n    }\r\n\r\n    //retrieve token product issuer address for given token name and type\r\n    function getIssuer(bytes32 tokenType, bytes32 tokenName) external view returns(address){\r\n        return issuers[tokenType][tokenName];\r\n    }\r\n\r\n    //retrieves address and type of token for name specified\r\n    function getAddressAndType(bytes32 tokenName) external view returns (address, bytes32){\r\n        bool found = false;\r\n        if(token[tokens[tokenIndex[tokenName]]].name==tokenName)\r\n            found == true;\r\n        if(found)\r\n            return (tokens[tokenIndex[tokenName]], token[tokens[tokenIndex[tokenName]]].tokenType);\r\n        else\r\n            return (address(0x0), \"\");\r\n    }\r\n\r\n    function getViaOracleUrl() external view returns(string memory){\r\n        require(msg.sender == ViaOracle);\r\n        return ViaOracleUrl;\r\n    }\r\n\r\n    function getFiatPayoutUrl() external view returns(string memory){\r\n        require(msg.sender == ViaOracle);\r\n        return FiatPayoutUrl;\r\n    }\r\n\r\n    function getCryptoDataUrl(string calldata currency) external view returns(string memory){\r\n        require(msg.sender == ViaOracle);\r\n        return CryptoDataUrl[currency];\r\n    }\r\n\r\n    //get Verified client address for AML check\r\n    function getClient() external view returns(address){\r\n        require(token[msg.sender].tokenType == \"ViaCash\" || token[msg.sender].tokenType == \"ViaBond\", 'Get client : FORBIDDEN');\r\n        return client;\r\n    }\r\n\r\n    function getOracles() external view returns(address[] memory){\r\n        require(msg.sender == ViaOracle);\r\n        return oracles;\r\n    }\r\n\r\n    function getBondTerm() external view returns(uint256){\r\n        return term;\r\n    }\r\n\r\n    //token issuer factory \r\n    function createIssuer(address _target, bytes32 tokenName, bytes32 tokenType, bytes32 tokenCurrency, address _oracle, address _token, address _fee) onlyOwner external{\r\n        ViaOracle = _oracle;\r\n        bytes memory _payload = abi.encodeWithSignature(\"initialize(bytes32,bytes32,address,address,address,address)\",tokenName,tokenCurrency,owner(),_oracle,_token,_fee);\r\n\r\n        // Deploy proxy\r\n        address _issuer = deployMinimal(_target, _payload);\r\n        if(tokenType==\"Cash\")\r\n            emit CashIssuerCreated(_issuer, tokenName, tokenType);\r\n        else if(tokenType == \"Bond\")\r\n            emit BondIssuerCreated(_issuer, tokenName, tokenType);\r\n\r\n        if(tokenType == \"Cash\"){\r\n            if(issuers[\"ViaCash\"][tokenCurrency]!=address(0x0)){\r\n                token[_issuer] = via(\"ViaCash\", tokenName);\r\n                tokens[tokenIndex[tokenName]] = _issuer;\r\n                issuers[\"ViaCash\"][tokenCurrency] = _issuer;\r\n            }\r\n            else{\r\n                token[_issuer] = via(\"ViaCash\", tokenName);\r\n                tokenIndex[tokenName]=tokens.length;\r\n                tokens.push(_issuer);                \r\n                issuers[\"ViaCash\"][tokenCurrency] = _issuer;\r\n            }\r\n        }\r\n        else if(tokenType == \"Bond\"){\r\n            if(issuers[\"ViaBond\"][tokenCurrency]!=address(0x0)){\r\n                token[_issuer] = via(\"ViaBond\", tokenName);\r\n                tokens[tokenIndex[tokenName]] = _issuer;\r\n                issuers[\"ViaBond\"][tokenCurrency] = _issuer;\r\n            }\r\n            else{\r\n                token[_issuer] = via(\"ViaBond\", tokenName);\r\n                tokenIndex[tokenName]=tokens.length;\r\n                tokens.push(_issuer);                \r\n                issuers[\"ViaBond\"][tokenCurrency] = _issuer;\r\n            }\r\n        }\r\n    }\r\n    \r\n    //token factory\r\n    function createToken(address _target, address issuer, bytes32 tokenName, bytes32 tokenSymbol) external returns(address){\r\n        require(token[msg.sender].tokenType == \"ViaBond\" || msg.sender==owner());\r\n\r\n        bytes memory _payload = abi.encodeWithSignature(\"initialize(bytes32,address,address,bytes32)\", tokenName, issuer, msg.sender, tokenSymbol);\r\n\r\n        // Deploy proxy\r\n        address _token = deployMinimal(_target, _payload);\r\n        emit TokenCreated(_token, tokenSymbol, \"ViaBond\");\r\n        \r\n        via storage t = token[_token];\r\n        t.tokenType = \"ViaBondToken\";\r\n        tokens.push(_token);\r\n        \r\n        return _token;\r\n    }\r\n\r\n    function setViaOracleUrl(string calldata _url) onlyOwner external {\r\n        ViaOracleUrl = _url;\r\n    }   \r\n\r\n    function setFiatPayoutUrl(string calldata _url) onlyOwner external {\r\n        FiatPayoutUrl = _url;\r\n    }\r\n\r\n    function setCryptoDataURL(string calldata _url, string calldata _currency) onlyOwner external {\r\n        CryptoDataUrl[_currency] = _url;\r\n    }\r\n\r\n    function setOracles(address[] calldata _oracles) onlyOwner external {\r\n        oracles = _oracles;\r\n    }\r\n\r\n    function setBondTerm(uint256 _term) onlyOwner external {\r\n        term = _term;\r\n    }\r\n\r\n    function setClientAddress(address _client) onlyOwner external {\r\n        client = _client;\r\n    }\r\n\r\n    function supportTokens(bytes32 _currency, address _address) onlyOwner external {\r\n        if(currencyIndex[_currency]==0){\r\n            currencies.push(_currency);\r\n            currencyIndex[_currency] = currencies.length;\r\n            currencyAddress[_currency] = _address;\r\n        }\r\n    }\r\n\r\n    function checkSupportForToken(bytes32 _currency) external view returns(bool){\r\n        if(currencyIndex[_currency]>0)\r\n            return true;\r\n        else\r\n            return false;\r\n    }\r\n\r\n    function getCurrencyToken(bytes32 _currency) external view returns(address){\r\n        return currencyAddress[_currency];\r\n    }\r\n\r\n}\r\n\r\n\r\n\r\n\r\n\r\n\r\n",
  "sourcePath": "D:\\Code\\verified-payments\\contracts\\Factory.sol",
  "compiler": {
    "name": "solc",
    "version": "0.5.7+commit.6da8b019.Emscripten.clang"
  },
  "schemaVersion": "3.4.3",
  "updatedAt": "2023-04-19T05:06:43.500Z",
  "networkType": "ethereum",
  "devdoc": {
    "methods": {
      "initialize(address)": {
        "details": "Initializes the contract setting the deployer as the initial owner."
      },
      "isOwner()": {
        "details": "Returns true if the caller is the current owner."
      },
      "owner()": {
        "details": "Returns the address of the current owner."
      },
      "renounceOwnership()": {
        "details": "Leaves the contract without owner. It will not be possible to call `onlyOwner` functions anymore. Can only be called by the current owner.     * > Note: Renouncing ownership will leave the contract without an owner, thereby removing any functionality that is only available to the owner."
      },
      "transferOwnership(address)": {
        "details": "Transfers ownership of the contract to a new account (`newOwner`). Can only be called by the current owner."
      }
    }
  },
  "userdoc": {
    "methods": {}
  }
}