{
  "contractName": "MarginIssueManager",
  "abi": [
    {
      "anonymous": false,
      "inputs": [
        {
          "indexed": true,
          "internalType": "address",
          "name": "previousOwner",
          "type": "address"
        },
        {
          "indexed": true,
          "internalType": "address",
          "name": "newOwner",
          "type": "address"
        }
      ],
      "name": "OwnershipTransferred",
      "type": "event"
    },
    {
      "anonymous": false,
      "inputs": [
        {
          "indexed": true,
          "internalType": "address",
          "name": "user",
          "type": "address"
        },
        {
          "indexed": false,
          "internalType": "address",
          "name": "security",
          "type": "address"
        },
        {
          "indexed": false,
          "internalType": "address",
          "name": "currency",
          "type": "address"
        },
        {
          "indexed": false,
          "internalType": "int256",
          "name": "financing",
          "type": "int256"
        },
        {
          "indexed": false,
          "internalType": "int256",
          "name": "dividend",
          "type": "int256"
        },
        {
          "indexed": false,
          "internalType": "int256",
          "name": "commission",
          "type": "int256"
        },
        {
          "indexed": false,
          "internalType": "uint256",
          "name": "settlementTime",
          "type": "uint256"
        }
      ],
      "name": "PnLSettled",
      "type": "event"
    },
    {
      "anonymous": false,
      "inputs": [
        {
          "indexed": true,
          "internalType": "bytes32",
          "name": "poolId",
          "type": "bytes32"
        },
        {
          "indexed": false,
          "internalType": "address",
          "name": "security",
          "type": "address"
        },
        {
          "indexed": false,
          "internalType": "uint256",
          "name": "timestamp",
          "type": "uint256"
        }
      ],
      "name": "closures",
      "type": "event"
    },
    {
      "anonymous": false,
      "inputs": [
        {
          "indexed": false,
          "internalType": "bytes32",
          "name": "action",
          "type": "bytes32"
        },
        {
          "indexed": true,
          "internalType": "address",
          "name": "user",
          "type": "address"
        },
        {
          "indexed": false,
          "internalType": "address",
          "name": "currency",
          "type": "address"
        },
        {
          "indexed": false,
          "internalType": "int256",
          "name": "balance",
          "type": "int256"
        },
        {
          "indexed": false,
          "internalType": "uint256",
          "name": "offerTime",
          "type": "uint256"
        }
      ],
      "name": "collateral",
      "type": "event"
    },
    {
      "anonymous": false,
      "inputs": [
        {
          "indexed": true,
          "internalType": "address",
          "name": "platform",
          "type": "address"
        },
        {
          "indexed": false,
          "internalType": "uint256",
          "name": "collection",
          "type": "uint256"
        },
        {
          "indexed": false,
          "internalType": "uint256",
          "name": "timestamp",
          "type": "uint256"
        }
      ],
      "name": "feecollection",
      "type": "event"
    },
    {
      "anonymous": false,
      "inputs": [
        {
          "indexed": false,
          "internalType": "address",
          "name": "party",
          "type": "address"
        },
        {
          "indexed": false,
          "internalType": "address",
          "name": "counterparty",
          "type": "address"
        },
        {
          "indexed": true,
          "internalType": "address",
          "name": "securityTraded",
          "type": "address"
        },
        {
          "indexed": false,
          "internalType": "uint256",
          "name": "securityAmount",
          "type": "uint256"
        },
        {
          "indexed": false,
          "internalType": "address",
          "name": "currencySettled",
          "type": "address"
        },
        {
          "indexed": false,
          "internalType": "uint256",
          "name": "cashAmount",
          "type": "uint256"
        },
        {
          "indexed": false,
          "internalType": "bytes32",
          "name": "orderRef",
          "type": "bytes32"
        },
        {
          "indexed": false,
          "internalType": "uint256",
          "name": "timestamp",
          "type": "uint256"
        }
      ],
      "name": "subscribers",
      "type": "event"
    },
    {
      "anonymous": false,
      "inputs": [
        {
          "indexed": true,
          "internalType": "bytes32",
          "name": "poolid",
          "type": "bytes32"
        },
        {
          "indexed": false,
          "internalType": "address",
          "name": "transferor",
          "type": "address"
        },
        {
          "indexed": false,
          "internalType": "address",
          "name": "transferee",
          "type": "address"
        },
        {
          "indexed": false,
          "internalType": "uint256",
          "name": "unitsToTransfer",
          "type": "uint256"
        },
        {
          "indexed": false,
          "internalType": "address",
          "name": "security",
          "type": "address"
        },
        {
          "indexed": false,
          "internalType": "address",
          "name": "currency",
          "type": "address"
        },
        {
          "indexed": false,
          "internalType": "uint256",
          "name": "amountPaid",
          "type": "uint256"
        },
        {
          "indexed": false,
          "internalType": "bytes32",
          "name": "cref",
          "type": "bytes32"
        },
        {
          "indexed": false,
          "internalType": "bytes32",
          "name": "ref",
          "type": "bytes32"
        },
        {
          "indexed": false,
          "internalType": "uint256",
          "name": "fee",
          "type": "uint256"
        },
        {
          "indexed": false,
          "internalType": "uint256",
          "name": "timestamp",
          "type": "uint256"
        }
      ],
      "name": "tradeSettled",
      "type": "event"
    },
    {
      "inputs": [],
      "name": "owner",
      "outputs": [
        {
          "internalType": "address",
          "name": "",
          "type": "address"
        }
      ],
      "stateMutability": "view",
      "type": "function",
      "constant": true
    },
    {
      "inputs": [],
      "name": "renounceOwnership",
      "outputs": [],
      "stateMutability": "nonpayable",
      "type": "function"
    },
    {
      "inputs": [
        {
          "internalType": "address",
          "name": "newOwner",
          "type": "address"
        }
      ],
      "name": "transferOwnership",
      "outputs": [],
      "stateMutability": "nonpayable",
      "type": "function"
    },
    {
      "inputs": [
        {
          "internalType": "address",
          "name": "poolFactory",
          "type": "address"
        },
        {
          "internalType": "address",
          "name": "vault",
          "type": "address"
        },
        {
          "internalType": "address",
          "name": "securityFactory",
          "type": "address"
        },
        {
          "internalType": "address",
          "name": "distribution",
          "type": "address"
        }
      ],
      "name": "initialize",
      "outputs": [],
      "stateMutability": "nonpayable",
      "type": "function"
    },
    {
      "inputs": [
        {
          "internalType": "address",
          "name": "bridge",
          "type": "address"
        }
      ],
      "name": "setBridge",
      "outputs": [],
      "stateMutability": "nonpayable",
      "type": "function"
    },
    {
      "inputs": [
        {
          "internalType": "bytes32",
          "name": "poolId",
          "type": "bytes32"
        }
      ],
      "name": "getPool",
      "outputs": [
        {
          "internalType": "bool",
          "name": "",
          "type": "bool"
        }
      ],
      "stateMutability": "view",
      "type": "function",
      "constant": true
    },
    {
      "inputs": [
        {
          "internalType": "address",
          "name": "security",
          "type": "address"
        },
        {
          "internalType": "bytes32",
          "name": "securityType",
          "type": "bytes32"
        },
        {
          "internalType": "address",
          "name": "currency",
          "type": "address"
        },
        {
          "internalType": "bytes32",
          "name": "cficode",
          "type": "bytes32"
        },
        {
          "internalType": "uint256",
          "name": "securityAmount",
          "type": "uint256"
        },
        {
          "internalType": "uint256",
          "name": "minimumOrderSize",
          "type": "uint256"
        },
        {
          "internalType": "uint256",
          "name": "cashAmount",
          "type": "uint256"
        },
        {
          "internalType": "uint256",
          "name": "margin",
          "type": "uint256"
        },
        {
          "internalType": "uint256",
          "name": "collateralAmnt",
          "type": "uint256"
        },
        {
          "internalType": "uint256",
          "name": "tradeFee",
          "type": "uint256"
        }
      ],
      "name": "issueProduct",
      "outputs": [],
      "stateMutability": "nonpayable",
      "type": "function"
    },
    {
      "inputs": [
        {
          "internalType": "address",
          "name": "security",
          "type": "address"
        }
      ],
      "name": "close",
      "outputs": [],
      "stateMutability": "nonpayable",
      "type": "function"
    },
    {
      "inputs": [
        {
          "internalType": "address",
          "name": "cashToken",
          "type": "address"
        },
        {
          "internalType": "uint256",
          "name": "amount",
          "type": "uint256"
        },
        {
          "internalType": "address",
          "name": "security",
          "type": "address"
        }
      ],
      "name": "offerCollateral",
      "outputs": [],
      "stateMutability": "nonpayable",
      "type": "function"
    },
    {
      "inputs": [
        {
          "internalType": "address",
          "name": "cashToken",
          "type": "address"
        },
        {
          "internalType": "uint256",
          "name": "amount",
          "type": "uint256"
        },
        {
          "internalType": "address",
          "name": "security",
          "type": "address"
        }
      ],
      "name": "sendCollateral",
      "outputs": [],
      "stateMutability": "nonpayable",
      "type": "function"
    },
    {
      "inputs": [
        {
          "internalType": "bytes32",
          "name": "poolId",
          "type": "bytes32"
        },
        {
          "internalType": "address",
          "name": "currency",
          "type": "address"
        }
      ],
      "name": "getCollateral",
      "outputs": [
        {
          "internalType": "uint256",
          "name": "",
          "type": "uint256"
        }
      ],
      "stateMutability": "view",
      "type": "function",
      "constant": true
    },
    {
      "inputs": [
        {
          "internalType": "address",
          "name": "party",
          "type": "address"
        },
        {
          "internalType": "address",
          "name": "counterparty",
          "type": "address"
        },
        {
          "internalType": "bytes32",
          "name": "orderRef",
          "type": "bytes32"
        },
        {
          "internalType": "address",
          "name": "security",
          "type": "address"
        },
        {
          "internalType": "uint256",
          "name": "securityTraded",
          "type": "uint256"
        },
        {
          "internalType": "address",
          "name": "currency",
          "type": "address"
        },
        {
          "internalType": "uint256",
          "name": "cashTraded",
          "type": "uint256"
        }
      ],
      "name": "onMatch",
      "outputs": [],
      "stateMutability": "nonpayable",
      "type": "function"
    },
    {
      "inputs": [
        {
          "internalType": "bytes32",
          "name": "ref",
          "type": "bytes32"
        },
        {
          "internalType": "bytes32",
          "name": "cref",
          "type": "bytes32"
        },
        {
          "internalType": "address",
          "name": "security",
          "type": "address"
        },
        {
          "internalType": "uint256",
          "name": "securityTraded",
          "type": "uint256"
        },
        {
          "internalType": "address",
          "name": "currency",
          "type": "address"
        },
        {
          "internalType": "uint256",
          "name": "currencyTraded",
          "type": "uint256"
        },
        {
          "internalType": "uint256",
          "name": "executionTime",
          "type": "uint256"
        }
      ],
      "name": "onTrade",
      "outputs": [],
      "stateMutability": "nonpayable",
      "type": "function"
    },
    {
      "inputs": [
        {
          "internalType": "address",
          "name": "security",
          "type": "address"
        },
        {
          "internalType": "address",
          "name": "currency",
          "type": "address"
        },
        {
          "internalType": "int256",
          "name": "financingBidPerSec",
          "type": "int256"
        },
        {
          "internalType": "int256",
          "name": "financingOfferPerSec",
          "type": "int256"
        },
        {
          "internalType": "int256",
          "name": "dividendBidPerSec",
          "type": "int256"
        },
        {
          "internalType": "int256",
          "name": "dividendOfferPerSec",
          "type": "int256"
        },
        {
          "internalType": "int256",
          "name": "swapLong",
          "type": "int256"
        },
        {
          "internalType": "int256",
          "name": "swapShort",
          "type": "int256"
        },
        {
          "internalType": "uint256",
          "name": "settlementTime",
          "type": "uint256"
        }
      ],
      "name": "onSettle",
      "outputs": [],
      "stateMutability": "nonpayable",
      "type": "function"
    },
    {
      "inputs": [
        {
          "internalType": "address",
          "name": "security",
          "type": "address"
        },
        {
          "internalType": "address",
          "name": "currency",
          "type": "address"
        },
        {
          "internalType": "uint256",
          "name": "amount",
          "type": "uint256"
        }
      ],
      "name": "withdraw",
      "outputs": [],
      "stateMutability": "nonpayable",
      "type": "function"
    },
    {
      "inputs": [
        {
          "internalType": "address",
          "name": "_token",
          "type": "address"
        }
      ],
      "name": "getTradingFeeCollected",
      "outputs": [
        {
          "internalType": "uint256",
          "name": "",
          "type": "uint256"
        }
      ],
      "stateMutability": "nonpayable",
      "type": "function"
    }
  ],
  "bytecode": "0x608060405234801561001057600080fd5b50600080546001600160a01b0319163390811782556040519091907f8be0079c531659141344cd1fd0a4f28419497f9722a3daafe3b4186f6b6457e0908290a36148758061005f6000396000f3fe608060405234801561001057600080fd5b50600436106101005760003560e01c80638da5cb5b11610097578063d9caed1211610066578063d9caed12146101f8578063f2fde38b1461020b578063f6c009271461021e578063f8c8765e1461023e57610100565b80638da5cb5b146101aa5780638dd14802146101bf57806397db1a92146101d2578063c74073a1146101e557610100565b806359e7e4b1116100d357806359e7e4b1146101695780636b0fd1401461017c5780636f943a091461018f578063715018a6146101a257610100565b806320f55dfe146101055780632b06b5101461011a5780632d9167461461012d578063541af9d814610156575b600080fd5b610118610113366004613e75565b610251565b005b610118610128366004613dfb565b61055f565b61014061013b366004613d68565b610a5e565b60405161014d9190614497565b60405180910390f35b610118610164366004613f29565b610b93565b610118610177366004613fa9565b610fb1565b61011861018a366004614135565b6111af565b61014061019d366004614106565b611a34565b610118611a5c565b6101b2611ac4565b60405161014d9190614365565b6101186101cd366004613d68565b611ad3565b6101186101e0366004613fa9565b611b01565b6101186101f3366004613d68565b611ce6565b610118610206366004613ee9565b612219565b610118610219366004613d68565b612a80565b61023161022c3660046140d6565b612afe565b60405161014d919061448c565b61011861024c366004613da0565b612b2a565b6004805460405163e0a87de160e01b815233928c926000926001600160a01b039091169163e0a87de19161028791869101614365565b60206040518083038186803b15801561029f57600080fd5b505afa1580156102b3573d6000803e3d6000fd5b505050506040513d601f19601f820116820180604052508101906102d79190613d84565b9050826001600160a01b0316816001600160a01b0316146103135760405162461bcd60e51b815260040161030a906145d0565b60405180910390fd5b60005b600e60008e6001600160a01b03166001600160a01b0316815260200190815260200160002060008d6001600160a01b03166001600160a01b031681526020019081526020016000208054905081101561055057610371613be3565b600e60008f6001600160a01b03166001600160a01b0316815260200190815260200160002060008e6001600160a01b03166001600160a01b0316815260200190815260200160002082815481106103c457fe5b90600052602060002090600702016040518060e00160405290816000820160009054906101000a90046001600160a01b03166001600160a01b03166001600160a01b031681526020016001820160009054906101000a90046001600160a01b03166001600160a01b03166001600160a01b03168152602001600282015481526020016003820154815260200160048201548152602001600582015481526020016006820154815250509050600a600082600001516001600160a01b03166001600160a01b0316815260200190815260200160002060008e6001600160a01b03166001600160a01b03168152602001908152602001600020546000146104db576104db81600001518f8f8e8d8c8c8860c00151612b92565b600a600082602001516001600160a01b03166001600160a01b0316815260200190815260200160002060008e6001600160a01b03166001600160a01b03168152602001908152602001600020546000146105475761054781602001518f8f8f8e8c8c8860c00151612e96565b50600101610316565b50505050505050505050505050565b60095433906001600160a01b0316811461058b5760405162461bcd60e51b815260040161030a906145a4565b610593613c35565b6001600160a01b038087166000908152600560209081526040808320888516845282529182902054825163ab63c60760e01b8152925193169263ab63c607926004808201939291829003018186803b1580156105ee57600080fd5b505afa158015610602573d6000803e3d6000fd5b505050506040513d601f19601f820116820180604052508101906106269190613d84565b6001600160a01b0316635778472a886040518263ffffffff1660e01b81526004016106519190614497565b60a06040518083038186803b15801561066957600080fd5b505afa15801561067d573d6000803e3d6000fd5b505050506040513d601f19601f820116820180604052508101906106a1919061419c565b6001600160a01b03808816600090815260056020908152604080832089851684528252808320548151631288bdb960e11b8152915195965092946107ab94610746948a949116926325117b729260048083019392829003018186803b15801561070957600080fd5b505afa15801561071d573d6000803e3d6000fd5b505050506040513d601f19601f8201168201806040525081019061074191906140ee565b6130a8565b6001600160a01b03808a1660009081526005602090815260408083208b85168452825291829020548251635c1548fb60e01b815292516107a6948b94921692635c1548fb9260048082019391829003018186803b15801561070957600080fd5b6130de565b90506107b9828b87846130f7565b15610a5257866001600160a01b03167f4f21132feec602e5e9588b602a7ede709b68eed293452dd8745c2c80cb3c3f118b8b8989898e42604051610803979695949392919061442f565b60405180910390a2846001600160a01b031682600001516001600160a01b03161480156108455750896001600160a01b031682606001516001600160a01b0316145b156108ce576001600160a01b03808b166000908152600a602090815260408083209389168352929052205461087a908261315f565b6001600160a01b038b81166000818152600a60209081526040808320948b16835293905282902083905590519091600080516020614820833981519152916108c591899142906146a0565b60405180910390a25b6108d6613be3565b6040518060e00160405280876001600160a01b031685600001516001600160a01b031614801561091b57508b6001600160a01b031685606001516001600160a01b0316145b610925578c610927565b8b5b6001600160a01b03168152602001896001600160a01b031685600001516001600160a01b031614801561096f57508b6001600160a01b031685606001516001600160a01b0316145b610979578c61097b565b8b5b6001600160a01b03908116825260208083018b905260408084018a905260608085018f90526080808601899052600060a09687018190528f86168152600e85528381208e8716825285528381208054600181810183558284528784208b516007909302018054928a166001600160a01b03199384161781558b890151918101805492909a16919092161790975588850151600288015592880151600387015590870151600486015594860151600585015560c09095015160069093019290925592548c835260109093529020600019919091019055505b50505050505050505050565b6003546000906001600160a01b03163314610a8b5760405162461bcd60e51b815260040161030a906145fd565b6001600160a01b038216600090815260086020526040902054610aae8180613193565b6001600160a01b038085166000818152600860205260409081902093909355600354925163a9059cbb60e01b8152909263a9059cbb92610af5929116908590600401614473565b602060405180830381600087803b158015610b0f57600080fd5b505af1158015610b23573d6000803e3d6000fd5b505050506040513d601f19601f82011682018060405250810190610b4791906140b6565b50306001600160a01b03167feaad90c8664cdf61d60bd7ba6745a881fd1c38d9f4ff0b373b4365cdeeb0f9e88242604051610b839291906147b2565b60405180910390a290505b919050565b6004805460405163e0a87de160e01b815233928d926000926001600160a01b039091169163e0a87de191610bc991869101614365565b60206040518083038186803b158015610be157600080fd5b505afa158015610bf5573d6000803e3d6000fd5b505050506040513d601f19601f82011682018060405250810190610c199190613d84565b9050826001600160a01b0316816001600160a01b031614610c4c5760405162461bcd60e51b815260040161030a906145d0565b6040516370a0823160e01b815289906001600160a01b038f16906370a0823190610c7a903390600401614365565b60206040518083038186803b158015610c9257600080fd5b505afa158015610ca6573d6000803e3d6000fd5b505050506040513d601f19601f82011682018060405250810190610cca91906140ee565b10158015610d5457506040516370a0823160e01b815287906001600160a01b038d16906370a0823190610d01903390600401614365565b60206040518083038186803b158015610d1957600080fd5b505afa158015610d2d573d6000803e3d6000fd5b505050506040513d601f19601f82011682018060405250810190610d5191906140ee565b10155b610d705760405162461bcd60e51b815260040161030a90614634565b6040516323b872dd60e01b81526001600160a01b038c16906323b872dd90610da090339030908c90600401614379565b602060405180830381600087803b158015610dba57600080fd5b505af1158015610dce573d6000803e3d6000fd5b505050506040513d601f19601f82011682018060405250810190610df291906140b6565b506040516323b872dd60e01b81526001600160a01b038e16906323b872dd90610e2390339030908e90600401614379565b602060405180830381600087803b158015610e3d57600080fd5b505af1158015610e51573d6000803e3d6000fd5b505050506040513d601f19601f82011682018060405250810190610e7591906140b6565b508c6001600160a01b03166372e0f853600260009054906101000a90046001600160a01b03168b6040518363ffffffff1660e01b8152600401610eb9929190614473565b600060405180830381600087803b158015610ed357600080fd5b505af1158015610ee7573d6000803e3d6000fd5b50505050610ef3613c65565b604051806101400160405280604051806040016040528060138152602001722b32b934b334b2b2102837b7b6102a37b5b2b760691b81525081526020016040518060400160405280600381526020016215941560ea1b81525081526020018f6001600160a01b031681526020018e81526020018d6001600160a01b031681526020018c81526020018a8152602001888152602001878152602001868152509050610fa1818f8c8f8c336131a9565b5050505050505050505050505050565b6040516323b872dd60e01b81526001600160a01b038416906323b872dd90610fe190339030908790600401614379565b602060405180830381600087803b158015610ffb57600080fd5b505af115801561100f573d6000803e3d6000fd5b505050506040513d601f19601f8201168201806040525081019061103391906140b6565b50600061103f8461332b565b905061104b83826133c6565b336000908152600a602090815260408083206001600160a01b038916845290915290205490935061107d9084906133d2565b336000818152600a602090815260408083206001600160a01b038a168452825280832094909455918152600d909152205461110457600c80546001810182557fdf6966c971051c3d54ec59162606531493a51404a002842f56009d7e5cf4a8c70180546001600160a01b0319163390811790915590546000918252600d6020526040909120555b6001600160a01b03808316600090815260066020908152604080832054808452600b835281842094891684529390915290205461114190856130de565b6000828152600b602090815260408083206001600160a01b038a168085529083528184209490945533808452600a83528184209484529390915290819020549051600080516020614820833981519152916111a0918991904290614575565b60405180910390a25050505050565b60095433906001600160a01b031681146111db5760405162461bcd60e51b815260040161030a906145a4565b84158015906111e957508215155b156116aa576001600160a01b0380871660009081526005602090815260408083208885168452909152812054909161122391168686613406565b6001600160a01b0380891660009081526005602090815260408083208a85168452825280832054815163ab63c60760e01b815291519596509294929093169263ab63c6079260048083019392829003018186803b15801561128357600080fd5b505afa158015611297573d6000803e3d6000fd5b505050506040513d601f19601f820116820180604052508101906112bb9190613d84565b90506000866001600160a01b0316826001600160a01b0316635778472a8d6040518263ffffffff1660e01b81526004016112f59190614497565b60a06040518083038186803b15801561130d57600080fd5b505afa158015611321573d6000803e3d6000fd5b505050506040513d601f19601f82011682018060405250810190611345919061419c565b516001600160a01b0316146113d957604051632bbc239560e11b81526001600160a01b03831690635778472a90611380908d90600401614497565b60a06040518083038186803b15801561139857600080fd5b505afa1580156113ac573d6000803e3d6000fd5b505050506040513d601f19601f820116820180604052508101906113d0919061419c565b6060015161145a565b604051632bbc239560e11b81526001600160a01b03831690635778472a90611405908e90600401614497565b60a06040518083038186803b15801561141d57600080fd5b505afa158015611431573d6000803e3d6000fd5b505050506040513d601f19601f82011682018060405250810190611455919061419c565b606001515b60405163111303ab60e31b81529091506001600160a01b038316906388981d5890611491908e908e908d908c9042906004016144dc565b600060405180830381600087803b1580156114ab57600080fd5b505af11580156114bf573d6000803e3d6000fd5b505050506114d2828c8c8b8a86896134ce565b60008b8152601060205260409020546114e9613be3565b6001600160a01b03808c166000908152600e60209081526040808320938d1683529290522080548390811061151a57fe5b90600052602060002090600702016040518060e00160405290816000820160009054906101000a90046001600160a01b03166001600160a01b03166001600160a01b031681526020016001820160009054906101000a90046001600160a01b03166001600160a01b03166001600160a01b03168152602001600282015481526020016003820154815260200160048201548152602001600582015481526020016006820154815250509050868160c0018181525050601060008d8152602001908152602001600020549150600e60008c6001600160a01b03166001600160a01b0316815260200190815260200160002060008a6001600160a01b03166001600160a01b03168152602001908152602001600020828154811061163857fe5b60009182526020918290206040805160e081018252600790930290910180546001600160a01b03908116845260018201541693830193909352600283015490820152600382015460608201526004820154608082015260059091015460a082015260c00187905250611a2a9350505050565b6116b2613be3565b6000898152601060209081526040808320546001600160a01b03808c168552600e8452828520908a1685529092529091208054829081106116ef57fe5b600091825260208083206040805160e081018252600790940290910180546001600160a01b0390811680865260018301548216868601526002830154868501526003830154606087015260048301546080870152600583015460a0870190815260069093015460c08701528652600a8452828620908c16865290925290922054915190935061177e91906133d2565b82516001600160a01b039081166000908152600a602090815260408083208b851680855290835281842095909555928c168252600e81528282209382529290925290208054829081106117cd57fe5b60009182526020808320600790920290910180546001600160a01b0319908116825560018201805490911690556002810183905560038101839055600481018390556005810183905560060182905583516001600160a01b03908116808452600a83526040808520928b1685529190925291829020549151909160008051602061482083398151915291611864918a9142906146cf565b60405180910390a2506000888152601060209081526040808320546001600160a01b03808c168552600e8452828520908a1685529092529091208054829081106118aa57fe5b600091825260208083206040805160e081018252600790940290910180546001600160a01b0390811680865260018301548216868601526002830154868501526003830154606087015260048301546080870152600583015460a0870190815260069093015460c08701528652600a8452828620908c16865290925290922054915190935061193991906133d2565b82516001600160a01b039081166000908152600a602090815260408083208b851680855290835281842095909555928c168252600e815282822093825292909252902080548290811061198857fe5b60009182526020808320600790920290910180546001600160a01b0319908116825560018201805490911690556002810183905560038101839055600481018390556005810183905560060182905583516001600160a01b03908116808452600a83526040808520928b1685529190925291829020549151909160008051602061482083398151915291611a1f918a9142906146cf565b60405180910390a250505b5050505050505050565b6000918252600b602090815260408084206001600160a01b0393909316845291905290205490565b611a7a33611a68611ac4565b6001600160a01b0316146101aa61380e565b600080546040516001600160a01b03909116907f8be0079c531659141344cd1fd0a4f28419497f9722a3daafe3b4186f6b6457e0908390a3600080546001600160a01b0319169055565b6000546001600160a01b031690565b611adf33611a68611ac4565b600980546001600160a01b0319166001600160a01b0392909216919091179055565b6004805460405163e0a87de160e01b8152339284926000926001600160a01b039091169163e0a87de191611b3791869101614365565b60206040518083038186803b158015611b4f57600080fd5b505afa158015611b63573d6000803e3d6000fd5b505050506040513d601f19601f82011682018060405250810190611b879190613d84565b9050826001600160a01b0316816001600160a01b031614611bba5760405162461bcd60e51b815260040161030a906145d0565b6001600160a01b03808516600090815260066020908152604080832054808452600b8352818420948b16845293909152902054861115611c0c5760405162461bcd60e51b815260040161030a9061466b565b6000818152600b602090815260408083206001600160a01b038b168452909152902054611c399087613193565b6000828152600b602090815260408083206001600160a01b03808d168086529184528285209590955585845260079092529182902054915163a9059cbb60e01b8152909263a9059cbb92611c94929116908a90600401614473565b602060405180830381600087803b158015611cae57600080fd5b505af1158015611cc2573d6000803e3d6000fd5b505050506040513d601f19601f82011682018060405250810190611a2a91906140b6565b6004805460405163e0a87de160e01b8152339284926000926001600160a01b039091169163e0a87de191611d1c91869101614365565b60206040518083038186803b158015611d3457600080fd5b505afa158015611d48573d6000803e3d6000fd5b505050506040513d601f19601f82011682018060405250810190611d6c9190613d84565b9050826001600160a01b0316816001600160a01b031614611d9f5760405162461bcd60e51b815260040161030a906145d0565b6000846001600160a01b0316636945c1fd6040518163ffffffff1660e01b815260040160206040518083038186803b158015611dda57600080fd5b505afa158015611dee573d6000803e3d6000fd5b505050506040513d601f19601f82011682018060405250810190611e129190613d84565b6001600160a01b0380871660009081526006602052604090819020546002549151631f29a8cd60e31b815293945092606092919091169063f94d466890611e5d908590600401614497565b60006040518083038186803b158015611e7557600080fd5b505afa158015611e89573d6000803e3d6000fd5b505050506040513d6000823e601f3d908101601f19168201604052611eb19190810190613fea565b505090506060611ec082613820565b90506060825167ffffffffffffffff81118015611edc57600080fd5b50604051908082528060200260200182016040528015611f06578160200160208202803683370190505b509050611f11613cd0565b604051806080016040528084815260200183815260200160016000604051602001611f3d9291906144ff565b60408051808303601f1901815291815290825260006020909201919091526002549051638bdb391360e01b81529192506001600160a01b031690638bdb391390611f919088903090819087906004016144a0565b600060405180830381600087803b158015611fab57600080fd5b505af1158015611fbf573d6000803e3d6000fd5b50505050847f56eadf552f1d54f8f73fbbf801097c1c4d7bb3d77d5ac2bebfd0a8151642d55a8b42604051611ff5929190614473565b60405180910390a2600085815260076020526040908190205490516370a0823160e01b81526001600160a01b038089169263a9059cbb9291169083906370a0823190612045903090600401614365565b60206040518083038186803b15801561205d57600080fd5b505afa158015612071573d6000803e3d6000fd5b505050506040513d601f19601f8201168201806040525081019061209591906140ee565b6040518363ffffffff1660e01b81526004016120b2929190614473565b602060405180830381600087803b1580156120cc57600080fd5b505af11580156120e0573d6000803e3d6000fd5b505050506040513d601f19601f8201168201806040525081019061210491906140b6565b50600085815260076020526040908190205490516370a0823160e01b81526001600160a01b03808d169263a9059cbb9291169083906370a082319061214d903090600401614365565b60206040518083038186803b15801561216557600080fd5b505afa158015612179573d6000803e3d6000fd5b505050506040513d601f19601f8201168201806040525081019061219d91906140ee565b6040518363ffffffff1660e01b81526004016121ba929190614473565b602060405180830381600087803b1580156121d457600080fd5b505af11580156121e8573d6000803e3d6000fd5b505050506040513d601f19601f8201168201806040525081019061220c91906140b6565b5050505050505050505050565b336000818152600d60205260409020546122455760405162461bcd60e51b815260040161030a906145d0565b6001600160a01b038416600090815260066020526040812054905b6001600160a01b038087166000908152600e6020908152604080832093891683529290522054811015612a7857612295613be3565b6001600160a01b038088166000908152600e60209081526040808320938a168352929052208054839081106122c657fe5b60009182526020918290206040805160e081018252600790930290910180546001600160a01b039081168085526001830154909116948401949094526002810154918301919091526003810154606083015260048101546080830152600581015460a08301526006015460c082015291503314801561236c575080516001600160a01b039081166000908152600a60209081526040808320938a16835292905290812054135b156126c35780516001600160a01b039081166000908152600a60209081526040808320938a168352929052205485126125575780516001600160a01b038181166000908152600a60209081526040808320938b16808452939091529081902054905163a9059cbb60e01b8152919263a9059cbb926123ed9290600401614473565b602060405180830381600087803b15801561240757600080fd5b505af115801561241b573d6000803e3d6000fd5b505050506040513d601f19601f8201168201806040525081019061243f91906140b6565b506000838152600b602090815260408083206001600160a01b03808b168086529184528285205486519091168552600a84528285209185529252909120546124879190613193565b6000848152600b602090815260408083206001600160a01b03808c16808652918452828520959095558551909416808452600a83528184209484529390915290819020549051600080516020614820833981519152916124eb918a91904290614542565b60405180910390a280516001600160a01b039081166000908152600a60209081526040808320938a1683529290522054612526908690613193565b81516001600160a01b039081166000908152600a60209081526040808320938b1683529290529081205594506126be565b805160405163a9059cbb60e01b81526001600160a01b0388169163a9059cbb9161258691908990600401614473565b602060405180830381600087803b1580156125a057600080fd5b505af11580156125b4573d6000803e3d6000fd5b505050506040513d601f19601f820116820180604052508101906125d891906140b6565b506000838152600b602090815260408083206001600160a01b038a1684529091529020546126069086613193565b6000848152600b602090815260408083206001600160a01b03808c16855292529182902092909255825190519116906000805160206148208339815191529061265490899089904290614542565b60405180910390a280516001600160a01b039081166000908152600a60209081526040808320938a168352929052205461268e908661315f565b81516001600160a01b039081166000908152600a60209081526040808320938b1683529290529081209190915594505b612a6f565b60208101516001600160a01b03163314801561270757506020808201516001600160a01b039081166000908152600a83526040808220928a16825291909252812054135b15612a6f576020808201516001600160a01b039081166000908152600a83526040808220928a1682529190925290205485126128ff576020808201516001600160a01b038181166000908152600a84526040808220928b168083529290945283902054925163a9059cbb60e01b8152909263a9059cbb9261278d92909190600401614473565b602060405180830381600087803b1580156127a757600080fd5b505af11580156127bb573d6000803e3d6000fd5b505050506040513d601f19601f820116820180604052508101906127df91906140b6565b506000838152600b602090815260408083206001600160a01b03808b1680865291845282852054868501519091168552600a84528285209185529252909120546128299190613193565b6000848152600b602090815260408083206001600160a01b03808c168086529184528285209590955585830151909416808452600a835281842094845293909152908190205490516000805160206148208339815191529161288f918a91904290614542565b60405180910390a26020808201516001600160a01b039081166000908152600a83526040808220928a168252919092529020546128cd908690613193565b6020808301516001600160a01b039081166000908152600a83526040808220928b168252919092528120559450612a6f565b602081015160405163a9059cbb60e01b81526001600160a01b0388169163a9059cbb9161293191908990600401614473565b602060405180830381600087803b15801561294b57600080fd5b505af115801561295f573d6000803e3d6000fd5b505050506040513d601f19601f8201168201806040525081019061298391906140b6565b506000838152600b602090815260408083206001600160a01b038a1684529091529020546129b19086613193565b6000848152600b602090815260408083206001600160a01b03808c1685529083529281902093909355830151915191169060008051602061482083398151915290612a0190899089904290614542565b60405180910390a26020808201516001600160a01b039081166000908152600a83526040808220928a16825291909252902054612a3e908661315f565b6020808301516001600160a01b039081166000908152600a83526040808220928b1682529190925281209190915594505b50600101612260565b505050505050565b612a8c33611a68611ac4565b612aa36001600160a01b03821615156101ab61380e565b600080546040516001600160a01b03808516939216917f8be0079c531659141344cd1fd0a4f28419497f9722a3daafe3b4186f6b6457e091a3600080546001600160a01b0319166001600160a01b0392909216919091179055565b6000818152600760205260408120546001600160a01b0316612b2257506000610b8e565b506001610b8e565b612b3633611a68611ac4565b600180546001600160a01b03199081166001600160a01b03968716179091556002805482169486169490941790935560048054841692851692909217909155600380548316919093161790915560098054339216919091179055565b6000851315612c01576001600160a01b038089166000908152600a60209081526040808320938a1683529290522054612bd690612bcf8484613193565b870261315f565b6001600160a01b03808a166000908152600a60209081526040808320938b1683529290522055612c6c565b6000851215612c6c576001600160a01b038089166000908152600a60209081526040808320938a1683529290522054612c4590612c3e8484613193565b87026133d2565b6001600160a01b03808a166000908152600a60209081526040808320938b16835292905220555b6000841315612cdb576001600160a01b038089166000908152600a60209081526040808320938a1683529290522054612cb090612ca98484613193565b860261315f565b6001600160a01b03808a166000908152600a60209081526040808320938b1683529290522055612d46565b6000841215612d46576001600160a01b038089166000908152600a60209081526040808320938a1683529290522054612d1f90612d188484613193565b86026133d2565b6001600160a01b03808a166000908152600a60209081526040808320938b16835292905220555b6000831315612db5576001600160a01b038089166000908152600a60209081526040808320938a1683529290522054612d8a90612d838484613193565b850261315f565b6001600160a01b03808a166000908152600a60209081526040808320938b1683529290522055612e20565b6000831215612e20576001600160a01b038089166000908152600a60209081526040808320938a1683529290522054612df990612df28484613193565b85026133d2565b6001600160a01b03808a166000908152600a60209081526040808320938b16835292905220555b876001600160a01b03167ff76f10f0e1a4d96de83e72f10dc6773179bdcf79f2ba735893488e0913d999598888612e578686613193565b8902612e638787613193565b8902612e6f8888613193565b890242604051612e849695949392919061439d565b60405180910390a25050505050505050565b6000851315612efe576001600160a01b038089166000908152600a60209081526040808320938a1683529290522054612ed390612c3e8484613193565b6001600160a01b03808a166000908152600a60209081526040808320938b1683529290522055612f62565b6000851215612f62576001600160a01b038089166000908152600a60209081526040808320938a1683529290522054612f3b90612bcf8484613193565b6001600160a01b03808a166000908152600a60209081526040808320938b16835292905220555b6000841315612fca576001600160a01b038089166000908152600a60209081526040808320938a1683529290522054612f9f90612d188484613193565b6001600160a01b03808a166000908152600a60209081526040808320938b168352929052205561302e565b600084121561302e576001600160a01b038089166000908152600a60209081526040808320938a168352929052205461300790612ca98484613193565b6001600160a01b03808a166000908152600a60209081526040808320938b16835292905220555b600083131561306b576001600160a01b038089166000908152600a60209081526040808320938a1683529290522054612d8a90612df28484613193565b6000831215612e20576001600160a01b038089166000908152600a60209081526040808320938a1683529290522054612df990612d838484613193565b60008282026130cc8415806130c55750838583816130c257fe5b04145b600361380e565b670de0b6b3a764000090049392505050565b60008282016130f0848210158361380e565b9392505050565b6000826001600160a01b031685600001516001600160a01b03161415613153576001600160a01b038085166000908152600a6020908152604080832093871683529290522054821361314b57506001613157565b506000613157565b5060015b949350505050565b60008183036130f08284128015906131775750848213155b8061318c575060008412801561318c57508482135b600161380e565b60006131a383831115600161380e565b50900390565b6001546040516304f9d33f60e11b81526001600160a01b03909116906309f3a67e906131d99089906004016146fe565b602060405180830381600087803b1580156131f357600080fd5b505af1158015613207573d6000803e3d6000fd5b505050506040513d601f19601f8201168201806040525081019061322b9190613d84565b6001600160a01b0386811660009081526005602090815260408083208885168452825280832080546001600160a01b0319169585169590951794859055805163038fff2d60e41b815290519294909316926338fff2d09260048083019392829003018186803b15801561329d57600080fd5b505afa1580156132b1573d6000803e3d6000fd5b505050506040513d601f19601f820116820180604052508101906132d591906140ee565b6001600160a01b0387811660009081526006602090815260408083208590558483526007909152902080546001600160a01b03191691851691909117905590506133228685878685613823565b50505050505050565b600080826001600160a01b031663313ce5676040518163ffffffff1660e01b815260040160206040518083038186803b15801561336757600080fd5b505afa15801561337b573d6000803e3d6000fd5b505050506040513d601f19601f8201168201806040525081019061339f9190614216565b60ff16905060006133b1601283613193565b600a0a670de0b6b3a764000002949350505050565b60006130f083836130a8565b60008282016130f08284128015906133ea5750848212155b806133ff57506000841280156133ff57508482125b600061380e565b600080846001600160a01b031663ced72f876040518163ffffffff1660e01b815260040160206040518083038186803b15801561344257600080fd5b505afa158015613456573d6000803e3d6000fd5b505050506040513d601f19601f8201168201806040525081019061347a91906140ee565b905061348683826130a8565b6001600160a01b0385166000908152600860205260409020549091506134ac90826130de565b6001600160a01b03851660009081526008602052604090205590509392505050565b866001600160a01b03166338fff2d06040518163ffffffff1660e01b815260040160206040518083038186803b15801561350757600080fd5b505afa15801561351b573d6000803e3d6000fd5b505050506040513d601f19601f8201168201806040525081019061353f91906140ee565b7fbe8183e0bf67f74150edc1b1b2ff1b35ca15cb451161a42e3c428c208c46f38f836001600160a01b0316896001600160a01b0316635778472a8a6040518263ffffffff1660e01b81526004016135969190614497565b60a06040518083038186803b1580156135ae57600080fd5b505afa1580156135c2573d6000803e3d6000fd5b505050506040513d601f19601f820116820180604052508101906135e6919061419c565b606001516001600160a01b03161461367d57604051632bbc239560e11b81526001600160a01b038a1690635778472a90613624908b90600401614497565b60a06040518083038186803b15801561363c57600080fd5b505afa158015613650573d6000803e3d6000fd5b505050506040513d601f19601f82011682018060405250810190613674919061419c565b606001516136fe565b604051632bbc239560e11b81526001600160a01b038a1690635778472a906136a9908a90600401614497565b60a06040518083038186803b1580156136c157600080fd5b505afa1580156136d5573d6000803e3d6000fd5b505050506040513d601f19601f820116820180604052508101906136f9919061419c565b606001515b84878b6001600160a01b0316632541897f6040518163ffffffff1660e01b815260040160206040518083038186803b15801561373957600080fd5b505afa15801561374d573d6000803e3d6000fd5b505050506040513d601f19601f820116820180604052508101906137719190613d84565b8c6001600160a01b0316636945c1fd6040518163ffffffff1660e01b815260040160206040518083038186803b1580156137aa57600080fd5b505afa1580156137be573d6000803e3d6000fd5b505050506040513d601f19601f820116820180604052508101906137e29190613d84565b898c8e8a426040516137fd9a999897969594939291906143d3565b60405180910390a250505050505050565b8161381c5761381c81613b90565b5050565b90565b600254604051631f29a8cd60e31b81526060916001600160a01b03169063f94d466890613854908590600401614497565b60006040518083038186803b15801561386c57600080fd5b505afa158015613880573d6000803e3d6000fd5b505050506040513d6000823e601f3d908101601f191682016040526138a89190810190613fea565b5050905060606138b782613820565b90506060825167ffffffffffffffff811180156138d357600080fd5b506040519080825280602002602001820160405280156138fd578160200160208202803683370190505b5060025460405163095ea7b360e01b81529192506001600160a01b03808a169263095ea7b3926139339216908990600401614473565b602060405180830381600087803b15801561394d57600080fd5b505af1158015613961573d6000803e3d6000fd5b505050506040513d601f19601f8201168201806040525081019061398591906140b6565b5060025460405163095ea7b360e01b81526001600160a01b038a81169263095ea7b3926139ba92909116908a90600401614473565b602060405180830381600087803b1580156139d457600080fd5b505af11580156139e8573d6000803e3d6000fd5b505050506040513d601f19601f82011682018060405250810190613a0c91906140b6565b5060005b8351811015613ada57886001600160a01b0316848281518110613a2f57fe5b60200260200101516001600160a01b03161415613a645786828281518110613a5357fe5b602002602001018181525050613ad2565b876001600160a01b0316848281518110613a7a57fe5b60200260200101516001600160a01b03161415613a9e5785828281518110613a5357fe5b613ab96dffffffffffffffffffffffffffff620f4240613193565b828281518110613ac557fe5b6020026020010181815250505b600101613a10565b50613ae3613cd0565b6040518060800160405280848152602001838152602001600084604051602001613b0e92919061451f565b60408051808303601f190181529181529082526000602090920191909152600254905163172b958560e31b81529192506001600160a01b03169063b95cac2890613b629088903090819087906004016144a0565b600060405180830381600087803b158015613b7c57600080fd5b505af1158015610550573d6000803e3d6000fd5b62461bcd60e51b6000908152602060045260076024526642414c23000030600a808404818106603090810160081b95839006959095019082900491820690940160101b939093010160c81b604452606490fd5b6040518060e0016040528060006001600160a01b0316815260200160006001600160a01b0316815260200160008152602001600081526020016000801916815260200160008152602001600081525090565b6040805160a081019091526000808252602082019081526020016000815260006020820181905260409091015290565b604051806101400160405280606081526020016060815260200160006001600160a01b031681526020016000801916815260200160006001600160a01b0316815260200160008019168152602001600081526020016000815260200160008152602001600081525090565b60405180608001604052806060815260200160608152602001606081526020016000151581525090565b600082601f830112613d0a578081fd5b8151613d1d613d18826147e7565b6147c0565b818152915060208083019084810181840286018201871015613d3e57600080fd5b60005b84811015613d5d57815184529282019290820190600101613d41565b505050505092915050565b600060208284031215613d79578081fd5b81356130f081614807565b600060208284031215613d95578081fd5b81516130f081614807565b60008060008060808587031215613db5578283fd5b8435613dc081614807565b93506020850135613dd081614807565b92506040850135613de081614807565b91506060850135613df081614807565b939692955090935050565b600080600080600080600060e0888a031215613e15578283fd5b8735613e2081614807565b96506020880135613e3081614807565b9550604088013594506060880135613e4781614807565b93506080880135925060a0880135613e5e81614807565b8092505060c0880135905092959891949750929550565b60008060008060008060008060006101208a8c031215613e93578182fd5b8935613e9e81614807565b985060208a0135613eae81614807565b989b989a505050506040870135966060810135966080820135965060a0820135955060c0820135945060e08201359350610100909101359150565b600080600060608486031215613efd578283fd5b8335613f0881614807565b92506020840135613f1881614807565b929592945050506040919091013590565b6000806000806000806000806000806101408b8d031215613f48578384fd5b8a35613f5381614807565b995060208b0135985060408b0135613f6a81614807565b999c989b5098996060810135995060808101359860a0820135985060c0820135975060e082013596506101008201359550610120909101359350915050565b600080600060608486031215613fbd578081fd5b8335613fc881614807565b9250602084013591506040840135613fdf81614807565b809150509250925092565b600080600060608486031215613ffe578081fd5b835167ffffffffffffffff80821115614015578283fd5b818601915086601f830112614028578283fd5b8151614036613d18826147e7565b80828252602080830192508086018b828387028901011115614056578788fd5b8796505b8487101561408157805161406d81614807565b84526001969096019592810192810161405a565b508901519097509350505080821115614098578283fd5b506140a586828701613cfa565b925050604084015190509250925092565b6000602082840312156140c7578081fd5b815180151581146130f0578182fd5b6000602082840312156140e7578081fd5b5035919050565b6000602082840312156140ff578081fd5b5051919050565b60008060408385031215614118578182fd5b82359150602083013561412a81614807565b809150509250929050565b600080600080600080600060e0888a03121561414f578081fd5b8735965060208801359550604088013561416881614807565b945060608801359350608088013561417f81614807565b9699959850939692959460a0840135945060c09093013592915050565b600060a082840312156141ad578081fd5b6141b760a06147c0565b82516141c281614807565b81526020830151600381106141d5578283fd5b60208201526040830151600581106141eb578283fd5b604082015260608301516141fe81614807565b60608201526080928301519281019290925250919050565b600060208284031215614227578081fd5b815160ff811681146130f0578182fd5b6001600160a01b03169052565b6000815180845260208085019450808401835b8381101561427357815187529582019590820190600101614257565b509495945050505050565b15159052565b60008151808452815b818110156142a95760208185018101518683018201520161428d565b818111156142ba5782602083870101525b50601f01601f19169290920160200192915050565b8051608080845281519084018190526000916020919082019060a0860190845b818110156143145783516001600160a01b0316835292840192918401916001016142ef565b50508285015191508581038387015261432d8183614244565b92505050604083015184820360408601526143488282614284565b915050606083015161435d606086018261427e565b509392505050565b6001600160a01b0391909116815260200190565b6001600160a01b039384168152919092166020820152604081019190915260600190565b6001600160a01b03968716815294909516602085015260408401929092526060830152608082015260a081019190915260c00190565b6001600160a01b039a8b168152988a1660208a01526040890197909752948816606088015292909616608086015260a085015260c084019490945260e08301939093526101008201929092526101208101919091526101400190565b6001600160a01b03978816815295871660208701526040860194909452919094166060840152608083019390935260a082019290925260c081019190915260e00190565b6001600160a01b03929092168252602082015260400190565b901515815260200190565b90815260200190565b8481526001600160a01b038481166020830152831660408201526080606082018190526000906144d2908301846142cf565b9695505050505050565b948552602085019390935260408401919091526060830152608082015260a00190565b604081016002841061450d57fe5b92815260ff9190911660209091015290565b60006004841061452b57fe5b838252604060208301526131576040830184614244565b681dda5d1a191c985ddb60ba1b81526001600160a01b039390931660208401526040830191909152606082015260800190565b6437b33332b960d91b81526001600160a01b039390931660208401526040830191909152606082015260800190565b6020808252601290820152714f6e6c79204272696467652061636365737360701b604082015260600190565b602080825260139082015272556e617574686f72697a65642061636365737360681b604082015260600190565b6020808252601f908201527f556e617574686f72697a656420636f6c6c656374696f6e207265717565737400604082015260600190565b60208082526019908201527f4e6f2062616c616e636520746f2063726561746520706f6f6c00000000000000604082015260600190565b6020808252818101527f496e73756666696369656e7420636f6c6c61746572616c20666f7220706f6f6c604082015260600190565b640dac2e8c6d60db1b81526001600160a01b039390931660208401526040830191909152606082015260800190565b64747261646560d81b81526001600160a01b039390931660208401526040830191909152606082015260800190565b600060208252825161014080602085015261471d610160850183614284565b91506020850151601f1985840301604086015261473a8382614284565b925050604085015161474f6060860182614237565b5060608501516080850152608085015161476c60a0860182614237565b5060a085015160c085015260c085015160e085015260e0850151610100818187015280870151915050610120818187015280870151838701525050508091505092915050565b918252602082015260400190565b60405181810167ffffffffffffffff811182821017156147df57600080fd5b604052919050565b600067ffffffffffffffff8211156147fd578081fd5b5060209081020190565b6001600160a01b038116811461481c57600080fd5b5056fe9729135f54e0b4d82a83f156404c915e7232ec9706f1de0aea769af82cc1f8eaa26469706673582212203a45bbad243be5e7d472c4d97d95c2e1b571adf3fd48b0b8ff722d2d440d42b864736f6c63430007010033",
  "immutableReferences": {},
  "source": "// Manager for creating margin trading pools\r\n// (c) Kallol Borah, 2023\r\n// \"SPDX-License-Identifier: BUSL1.1\"\r\n\r\npragma solidity 0.7.1;\r\npragma experimental ABIEncoderV2;\r\n\r\nimport \"./interfaces/IFactory.sol\";\r\nimport \"./interfaces/ISecurity.sol\";\r\nimport \"./interfaces/IMarginOrder.sol\";\r\nimport \"./interfaces/IMarginManager.sol\";\r\nimport \"./interfaces/IMarginTradingPool.sol\";\r\nimport \"./interfaces/IMarginTradingPoolFactory.sol\";\r\n\r\nimport '@balancer-labs/v2-vault/contracts/interfaces/IAsset.sol';\r\nimport '@balancer-labs/v2-vault/contracts/interfaces/IVault.sol';\r\n\r\nimport \"@balancer-labs/v2-solidity-utils/contracts/math/Math.sol\";\r\nimport \"@balancer-labs/v2-solidity-utils/contracts/math/FixedPoint.sol\";\r\nimport \"@balancer-labs/v2-solidity-utils/contracts/openzeppelin/ERC20.sol\";\r\nimport \"@balancer-labs/v2-solidity-utils/contracts/openzeppelin/IERC20.sol\";\r\nimport \"@balancer-labs/v2-solidity-utils/contracts/openzeppelin/Ownable.sol\";\r\n\r\ncontract MarginIssueManager is IMarginManager, Ownable {\r\n\r\n    using Math for *;\r\n\r\n    // balancer variables\r\n    address private _poolFactory;    \r\n\r\n    address private _vault;\r\n\r\n    address private _distribution;\r\n\r\n    IFactory private _securityFactory;\r\n\r\n    uint256 private constant _INITIAL_BPT_SUPPLY = 2**(112) - 1;\r\n    uint256 private constant _DEFAULT_MINIMUM_BPT = 1e6;\r\n\r\n    //mapping security address to currency address to pool address\r\n    mapping(address => mapping(address => address)) private pools;\r\n\r\n    //mapping security token to pool id traded\r\n    mapping(address => bytes32) private poolSecurity;\r\n\r\n    //mapping pool id to issuer\r\n    mapping(bytes32 => address) private issuer;\r\n\r\n    //mapping token address to issuing fee collected\r\n    mapping(address => uint256) private fees;\r\n\r\n    //bridge \r\n    address private _bridge;\r\n\r\n    //positions mapping trader address to collateral address to positive/negative balance (true for +ve, false for -ve) amount\r\n    mapping(address => mapping(address => int256)) private collateralBalance;\r\n\r\n    //mapping pool id to cash token to collateral amount\r\n    mapping(bytes32 => mapping(address => uint256)) private collateralAmount;\r\n\r\n    //traders\r\n    address[] private traders;\r\n    mapping(address => uint256) private traderIndex;    \r\n\r\n    //positions mapping security to currency to array of trade positions\r\n    mapping(address => mapping(address => IMarginManager.tradePosition[])) private positions;\r\n\r\n    //position balances mapping buy (security or currency) to sell (security or currency) \r\n    mapping(address => mapping(address => uint256)) private positionBalance;\r\n    \r\n    //mapping order ref to index of position in positions array\r\n    mapping(bytes32 => uint256) private orders;\r\n\r\n    event tradeSettled( \r\n                        bytes32 indexed poolid,\r\n                        address transferor,\r\n                        address transferee,\r\n                        uint256 unitsToTransfer,\r\n                        address security,\r\n                        address currency,                        \r\n                        uint256 amountPaid,\r\n                        bytes32 cref,\r\n                        bytes32 ref,\r\n                        uint256 fee,\r\n                        uint256 timestamp\r\n                    );\r\n\r\n    event subscribers(address party, address counterparty, address indexed securityTraded, uint256 securityAmount, \r\n                        address currencySettled, uint256 cashAmount, bytes32 orderRef, uint256 timestamp);\r\n\r\n    event closures(bytes32 indexed poolId, address security, uint256 timestamp);\r\n    event feecollection(address indexed platform, uint256 collection, uint256 timestamp);\r\n\r\n    event collateral(bytes32 action, address indexed user, address currency, int256 balance, uint256 offerTime);\r\n    event PnLSettled(address indexed user, address security, address currency, int256 financing, int256 dividend, int256 commission, uint256 settlementTime);\r\n\r\n    modifier onlyIssueManager(address sender, address security){\r\n        address DP = _securityFactory.getDP(security);\r\n        require(DP==sender, \"Unauthorized access\");\r\n        _;\r\n    }\r\n\r\n    modifier onlyTrader(address sender){\r\n        require(traderIndex[sender]!=0, \"Unauthorized access\");\r\n        _;\r\n    }\r\n\r\n    modifier onlyBridge(address sender){\r\n        require(sender==_bridge, \"Only Bridge access\");\r\n        _;\r\n    } \r\n\r\n    function initialize(address poolFactory, address vault, address securityFactory, address distribution) public onlyOwner {\r\n        _poolFactory = poolFactory;\r\n        _vault = vault;\r\n        _securityFactory = IFactory(securityFactory);\r\n        _distribution = distribution;\r\n        _bridge = msg.sender;\r\n    }\r\n\r\n    function setBridge(address bridge) public onlyOwner {\r\n        _bridge = bridge;\r\n    }\r\n\r\n    function getPool(bytes32 poolId) external override view returns(bool){\r\n        if(issuer[poolId]==address(0x0)) \r\n            return false;\r\n        else\r\n            return true;\r\n    }\r\n\r\n    function issueProduct(address security, bytes32 securityType, address currency, bytes32 cficode, uint256 securityAmount, uint256 minimumOrderSize, uint256 cashAmount,\r\n                                uint256 margin, uint256 collateralAmnt, uint256 tradeFee) override external onlyIssueManager(msg.sender, security) {\r\n        require(IERC20(security).balanceOf(msg.sender)>=securityAmount && \r\n                IERC20(currency).balanceOf(msg.sender)>=cashAmount, \"No balance to create pool\");\r\n        ERC20(currency).transferFrom(msg.sender, address(this), cashAmount);\r\n        ERC20(security).transferFrom(msg.sender, address(this), securityAmount);  \r\n        ISecurity(security).whiteList(_vault, securityAmount);      \r\n        IMarginTradingPoolFactory.FactoryPoolParams memory poolparams = IMarginTradingPoolFactory.FactoryPoolParams({\r\n            name : \"Verified Pool Token\",\r\n            symbol : \"VPT\",\r\n            security : security,\r\n            securityType: securityType,\r\n            currency : currency,\r\n            cficode: cficode,\r\n            minOrderSize : minimumOrderSize,\r\n            margin : margin,\r\n            collateral: collateralAmnt,\r\n            tradeFeePercentage : tradeFee\r\n        });    \r\n        createPool(poolparams, security, securityAmount, currency, cashAmount, msg.sender);        \r\n    }\r\n\r\n    function createPool(IMarginTradingPoolFactory.FactoryPoolParams memory poolparams, address security, uint256 securityAmount, address currency, uint256 cashAmount, address creator) private {\r\n        pools[security][currency] = IMarginTradingPoolFactory(_poolFactory).create(poolparams);   \r\n        bytes32 poolId = IMarginTradingPool(pools[security][currency]).getPoolId();  \r\n        poolSecurity[security] = poolId; \r\n        issuer[poolId] = creator;\r\n        joinPool(security, currency, securityAmount, cashAmount, poolId);\r\n    }\r\n\r\n    function joinPool(address security, address currency, uint256 securityAmount, uint256 cashAmount, bytes32 poolId) private {\r\n        // join the pool here                \r\n        (IERC20[] memory tokens, , ) = IVault(_vault).getPoolTokens(poolId);\r\n        IAsset[] memory assets = _convertERC20sToAssets(tokens);\r\n        uint256[] memory maxAmountsIn = new uint256[](tokens.length);\r\n        ERC20(currency).approve(_vault, cashAmount);\r\n        ERC20(security).approve(_vault, securityAmount);\r\n        for(uint256 t; t < tokens.length; t++) {\r\n            if(tokens[t]==IERC20(security))\r\n                maxAmountsIn[t] = securityAmount;\r\n            else if(tokens[t]==IERC20(currency))\r\n                maxAmountsIn[t] = cashAmount;\r\n            else \r\n                maxAmountsIn[t] = Math.sub(_INITIAL_BPT_SUPPLY, _DEFAULT_MINIMUM_BPT);\r\n        }\r\n        IVault.JoinPoolRequest memory request = IVault.JoinPoolRequest({\r\n            assets: assets,\r\n            maxAmountsIn: maxAmountsIn,\r\n            userData: abi.encode(JoinKind.INIT, maxAmountsIn),\r\n            fromInternalBalance: false\r\n        });         \r\n        IVault(_vault).joinPool(poolId, address(this), address(this), request);\r\n    }\r\n\r\n    function close(address security) override external onlyIssueManager(msg.sender, security) {\r\n        address currency = IMarginTradingPool(security).getCurrency(); \r\n        // exit the pool here   \r\n        bytes32 poolId = poolSecurity[security];\r\n        (IERC20[] memory tokens, , ) = IVault(_vault).getPoolTokens(poolId);\r\n        IAsset[] memory assets = _convertERC20sToAssets(tokens);\r\n        uint256[] memory amountsOut = new uint256[](tokens.length);\r\n        IVault.ExitPoolRequest memory request = IVault.ExitPoolRequest({\r\n            assets: assets,\r\n            minAmountsOut: amountsOut,\r\n            userData: abi.encode(ExitKind.EXACT_BPT_IN_FOR_TOKENS_OUT, 0),\r\n            toInternalBalance: false\r\n        });         \r\n        IVault(_vault).exitPool(poolId, address(this), payable(address(this)), request);\r\n        emit closures(poolId, security, block.timestamp);\r\n        IERC20(currency).transfer(issuer[poolId], IERC20(currency).balanceOf(address(this)));\r\n        IERC20(security).transfer(issuer[poolId], IERC20(security).balanceOf(address(this)));\r\n    }\r\n    \r\n    function offerCollateral(address cashToken, uint256 amount, address security) override external {\r\n        IERC20(cashToken).transferFrom(msg.sender, address(this), amount);\r\n        uint256 scalingFactor = _computeScalingFactor(IERC20(cashToken));\r\n        amount = _upscale(amount, scalingFactor);\r\n        collateralBalance[msg.sender][cashToken] = Math.add(int(amount), collateralBalance[msg.sender][cashToken]);\r\n        if(traderIndex[msg.sender]==0){\r\n            traders.push(msg.sender);\r\n            traderIndex[msg.sender] = traders.length;\r\n        }\r\n        bytes32 poolId = poolSecurity[security];\r\n        collateralAmount[poolId][cashToken] = Math.add(collateralAmount[poolId][cashToken], amount);\r\n        emit collateral(\"offer\", msg.sender, cashToken, collateralBalance[msg.sender][cashToken], block.timestamp);\r\n    }\r\n\r\n    function sendCollateral(address cashToken, uint256 amount, address security) override external onlyIssueManager(msg.sender, security){\r\n        bytes32 poolId = poolSecurity[security];\r\n        require(collateralAmount[poolId][cashToken] >= amount, \"Insufficient collateral for pool\");\r\n        collateralAmount[poolId][cashToken] = Math.sub(collateralAmount[poolId][cashToken], amount);\r\n        IERC20(cashToken).transfer(issuer[poolId], amount);\r\n    }\r\n\r\n    function getCollateral(bytes32 poolId, address currency) external override view returns(uint256){\r\n        return collateralAmount[poolId][currency];\r\n    }\r\n    \r\n    function onMatch(address party, address counterparty, bytes32 orderRef, address security, uint256 securityTraded, address currency, uint256 cashTraded) external \r\n                            override onlyBridge(msg.sender) {\r\n        IMarginOrder.order memory order = IMarginOrder(IMarginTradingPool(pools[security][currency]).getOrderbook()).getOrder(orderRef);\r\n        uint256 marginCollateral = Math.add(FixedPoint.mulDown(cashTraded, IMarginTradingPool(pools[security][currency]).getMargin()),\r\n                                            FixedPoint.mulDown(cashTraded, IMarginTradingPool(pools[security][currency]).getCollateral()));\r\n        //for security traded in by counterparty, party is trading in cash to buy security, so margin collateral needs to be checked        \r\n        if(pretradeCheck(order, party, currency, marginCollateral)){   \r\n            emit subscribers(party, counterparty, security, securityTraded, currency, cashTraded, orderRef, block.timestamp);\r\n            if(order.tokenIn==currency && order.party==party){\r\n                collateralBalance[party][currency] = Math.sub(collateralBalance[party][currency], int(marginCollateral));\r\n                emit collateral(\"match\", party, currency, collateralBalance[party][currency], block.timestamp);\r\n            }\r\n            //record trade position\r\n            IMarginManager.tradePosition memory position = IMarginManager.tradePosition({\r\n                buyer : order.tokenIn==currency && order.party==counterparty ? counterparty : party,\r\n                seller : order.tokenIn==security && order.party==counterparty ? counterparty : party,\r\n                securityAmount : securityTraded,\r\n                cashAmount : cashTraded,\r\n                orderReference : orderRef,\r\n                marginCollateral : marginCollateral,\r\n                timestamp : 0\r\n            });\r\n            positions[security][currency].push(position);\r\n            orders[orderRef] = positions[security][currency].length - 1;\r\n        }\r\n    }\r\n    \r\n    function pretradeCheck(IMarginOrder.order memory order, address party, address currency, uint256 marginCollateral) private view returns(bool){\r\n        if(order.tokenIn==currency){\r\n            if(collateralBalance[party][currency] >= int(marginCollateral))\r\n                return true;\r\n            else\r\n                return false;\r\n        }\r\n        return true;\r\n    }\r\n\r\n    function onTrade(bytes32 ref, bytes32 cref, address security, uint256 securityTraded, address currency, uint256 currencyTraded, uint256 executionTime) external override onlyBridge(msg.sender) {\r\n        if(securityTraded!=0 && currencyTraded!=0){ //if trade execution is successful, report trade and update timestamp\r\n            uint256 pay = calculateFee(pools[security][currency], currency, currencyTraded);\r\n            address orderbook = IMarginTradingPool(pools[security][currency]).getOrderbook();\r\n            address party = IMarginOrder(orderbook).getOrder(ref).tokenIn==currency ? \r\n                                        IMarginOrder(orderbook).getOrder(ref).party :\r\n                                        IMarginOrder(orderbook).getOrder(cref).party;\r\n            //collateralBalance[party][currency] = Math.sub(collateralBalance[party][currency], int(pay));\r\n            IMarginOrder(orderbook).reportTrade(ref, cref, securityTraded, currencyTraded, block.timestamp);\r\n            tradeReport(orderbook, ref, cref, securityTraded, currencyTraded, party, pay);\r\n            uint256 pos = orders[ref];\r\n            IMarginManager.tradePosition memory position;\r\n            //if(pos!=0){\r\n                position = positions[security][currency][pos];\r\n                position.timestamp = executionTime;\r\n            //}\r\n            pos = orders[cref];\r\n            //if(pos!=0){\r\n                position = positions[security][currency][pos];\r\n                position.timestamp = executionTime;\r\n            //}\r\n        }\r\n        else{ //if trade execution fails, add back cash \r\n            IMarginManager.tradePosition memory position;\r\n            uint256 pos = orders[ref];\r\n            //if(pos!=0){\r\n                position = positions[security][currency][pos];\r\n                collateralBalance[position.buyer][currency] = Math.add(collateralBalance[position.buyer][currency], int(position.marginCollateral));\r\n                delete positions[security][currency][pos];\r\n            //}\r\n            emit collateral(\"trade\", position.buyer, currency, collateralBalance[position.buyer][currency], block.timestamp);\r\n            pos = orders[cref];\r\n            //if(pos!=0){\r\n                position = positions[security][currency][pos];\r\n                collateralBalance[position.buyer][currency] = Math.add(collateralBalance[position.buyer][currency], int(position.marginCollateral));\r\n                delete positions[security][currency][pos];\r\n            //}\r\n            emit collateral(\"trade\", position.buyer, currency, collateralBalance[position.buyer][currency], block.timestamp);\r\n        }\r\n    }\r\n\r\n    function tradeReport(address orderbook, bytes32 ref, bytes32 cref, uint256 securityTraded, \r\n                            uint256 currencyTraded, address buyer, uint256 pay) private {\r\n        emit tradeSettled( \r\n            IMarginOrder(orderbook).getPoolId(),\r\n            IMarginOrder(orderbook).getOrder(ref).party==buyer ?\r\n                                IMarginOrder(orderbook).getOrder(cref).party :\r\n                                IMarginOrder(orderbook).getOrder(ref).party,\r\n            buyer,\r\n            securityTraded,\r\n            IMarginOrder(orderbook).getSecurity(),\r\n            IMarginOrder(orderbook).getCurrency(),\r\n            currencyTraded,\r\n            cref,\r\n            ref,\r\n            pay,\r\n            block.timestamp\r\n        );\r\n    }    \r\n    \r\n    function calculateFee(address pool, address currency, uint256 currencyTraded) private returns(uint256){\r\n        uint256 fee = IMarginTradingPool(pool).getFee();\r\n        fee = FixedPoint.mulDown(currencyTraded, fee);\r\n        //uint256 pay = FixedPoint.divDown(fee, _computeScalingFactor(IERC20(currency)));\r\n        //emit feeTest(IMarginTradingPool(pool).getFee(), fee, pay);\r\n        fees[currency] = Math.add(fees[currency], fee);\r\n        return fee;\r\n    }\r\n\r\n    function onSettle(address security, address currency, int256 financingBidPerSec, int256 financingOfferPerSec, int256 dividendBidPerSec, int256 dividendOfferPerSec, int256 swapLong, int256 swapShort, uint256 settlementTime) override external onlyIssueManager(msg.sender, security){\r\n        for(uint256 i=0; i<positions[security][currency].length; i++){\r\n            IMarginManager.tradePosition memory position = positions[security][currency][i];\r\n            if(collateralBalance[position.buyer][currency]!=0){\r\n                buyerCollateralBalance(position.buyer, security, currency, financingOfferPerSec, dividendOfferPerSec, swapShort, settlementTime, position.timestamp);            \r\n            }\r\n            if(collateralBalance[position.seller][currency]!=0){\r\n                sellerCollateralBalance(position.seller, security, currency, financingBidPerSec, dividendBidPerSec, swapShort, settlementTime, position.timestamp);\r\n            }\r\n        }\r\n    }    \r\n\r\n    function buyerCollateralBalance(address user, address security, address currency, int256 financingOfferPerSec, int256 dividendOfferPerSec, int256 swapLong, uint256 settlementTime, uint256 timestamp) private {\r\n        if(financingOfferPerSec > 0)\r\n            collateralBalance[user][currency] = Math.sub(collateralBalance[user][currency], financingOfferPerSec * int(Math.sub(settlementTime, timestamp)));\r\n        else if(financingOfferPerSec < 0)\r\n            collateralBalance[user][currency] = Math.add(collateralBalance[user][currency], financingOfferPerSec * int(Math.sub(settlementTime, timestamp)));\r\n        if(dividendOfferPerSec > 0)\r\n            collateralBalance[user][currency] = Math.sub(collateralBalance[user][currency], dividendOfferPerSec * int(Math.sub(settlementTime, timestamp)));\r\n        else if(dividendOfferPerSec < 0)\r\n            collateralBalance[user][currency] = Math.add(collateralBalance[user][currency], dividendOfferPerSec * int(Math.sub(settlementTime, timestamp)));\r\n        if(swapLong > 0)\r\n            collateralBalance[user][currency] = Math.sub(collateralBalance[user][currency], swapLong * int(Math.sub(settlementTime, timestamp)));\r\n        else if(swapLong < 0)\r\n            collateralBalance[user][currency] = Math.add(collateralBalance[user][currency], swapLong * int(Math.sub(settlementTime, timestamp)));\r\n        //position.timestamp = settlementTime;\r\n        emit PnLSettled(user, security, currency, financingOfferPerSec * int(Math.sub(settlementTime, timestamp)), dividendOfferPerSec * int(Math.sub(settlementTime, timestamp)), swapLong * int(Math.sub(settlementTime, timestamp)), block.timestamp);\r\n    }\r\n\r\n    function sellerCollateralBalance(address user, address security, address currency, int256 financingBidPerSec, int256 dividendBidPerSec, int256 swapShort, uint256 settlementTime, uint256 timestamp) private {\r\n        if(financingBidPerSec > 0)\r\n            collateralBalance[user][currency] = Math.add(collateralBalance[user][currency], financingBidPerSec * int(Math.sub(settlementTime, timestamp)));\r\n        else if(financingBidPerSec < 0)\r\n            collateralBalance[user][currency] = Math.sub(collateralBalance[user][currency], financingBidPerSec * int(Math.sub(settlementTime, timestamp)));\r\n        if(dividendBidPerSec > 0)\r\n            collateralBalance[user][currency] = Math.add(collateralBalance[user][currency], dividendBidPerSec * int(Math.sub(settlementTime, timestamp)));\r\n        else if(dividendBidPerSec < 0)\r\n            collateralBalance[user][currency] = Math.sub(collateralBalance[user][currency], dividendBidPerSec * int(Math.sub(settlementTime, timestamp)));\r\n        if(swapShort > 0)\r\n            collateralBalance[user][currency] = Math.add(collateralBalance[user][currency], swapShort * int(Math.sub(settlementTime, timestamp)));\r\n        else if(swapShort < 0)\r\n            collateralBalance[user][currency] = Math.sub(collateralBalance[user][currency], swapShort * int(Math.sub(settlementTime, timestamp)));\r\n        //position.timestamp = settlementTime;\r\n        emit PnLSettled(user, security, currency, financingBidPerSec * int(Math.sub(settlementTime, timestamp)), dividendBidPerSec * int(Math.sub(settlementTime, timestamp)), swapShort * int(Math.sub(settlementTime, timestamp)), block.timestamp);\r\n    }\r\n\r\n    function withdraw(address security, address currency, uint256 amount) override external onlyTrader(msg.sender){\r\n        bytes32 poolId = poolSecurity[security];\r\n        for(uint256 i=0; i<positions[security][currency].length; i++){\r\n            IMarginManager.tradePosition memory position = positions[security][currency][i];\r\n            if(position.buyer==msg.sender && collateralBalance[position.buyer][currency]>0){\r\n                if(int(amount) >= collateralBalance[position.buyer][currency]){\r\n                    IERC20(currency).transfer(position.buyer, uint(collateralBalance[position.buyer][currency]));\r\n                    collateralAmount[poolId][currency] = Math.sub(collateralAmount[poolId][currency], uint(collateralBalance[position.buyer][currency]));\r\n                    emit collateral(\"withdrawl\", position.buyer, currency, collateralBalance[position.buyer][currency], block.timestamp);\r\n                    amount = Math.sub(amount, uint(collateralBalance[position.buyer][currency]));\r\n                    collateralBalance[position.buyer][currency] = 0;                    \r\n                }\r\n                else{\r\n                    IERC20(currency).transfer(position.buyer, amount);\r\n                    collateralAmount[poolId][currency] = Math.sub(collateralAmount[poolId][currency], amount);   \r\n                    emit collateral(\"withdrawl\", position.buyer, currency, int(amount), block.timestamp);                 \r\n                    collateralBalance[position.buyer][currency] = Math.sub(collateralBalance[position.buyer][currency], int(amount)); \r\n                    amount = 0;\r\n                }                \r\n                //delete positions[security][currency][orders[position.orderReference]];\r\n            }\r\n            else if(position.seller==msg.sender && collateralBalance[position.seller][currency]>0){\r\n                if(int(amount) >= collateralBalance[position.seller][currency]){\r\n                    IERC20(currency).transfer(position.seller, uint(collateralBalance[position.seller][currency]));\r\n                    collateralAmount[poolId][currency] = Math.sub(collateralAmount[poolId][currency], uint(collateralBalance[position.seller][currency]));\r\n                    emit collateral(\"withdrawl\", position.seller, currency, collateralBalance[position.seller][currency], block.timestamp);\r\n                    amount = Math.sub(amount, uint(collateralBalance[position.seller][currency]));\r\n                    collateralBalance[position.seller][currency] = 0;                    \r\n                }\r\n                else{\r\n                    IERC20(currency).transfer(position.seller, amount);\r\n                    collateralAmount[poolId][currency] = Math.sub(collateralAmount[poolId][currency], amount);   \r\n                    emit collateral(\"withdrawl\", position.seller, currency, int(amount), block.timestamp);                 \r\n                    collateralBalance[position.seller][currency] = Math.sub(collateralBalance[position.seller][currency], int(amount)); \r\n                    amount = 0;\r\n                }\r\n                //delete positions[security][currency][orders[position.orderReference]];\r\n            }\r\n        }\r\n    }\r\n\r\n    function getTradingFeeCollected(address _token) override external returns(uint256){\r\n        require(msg.sender==_distribution, \"Unauthorized collection request\");\r\n        uint256 feeCollected = fees[_token];\r\n        fees[_token] = Math.sub(fees[_token], feeCollected);\r\n        IERC20(_token).transfer(_distribution, feeCollected);\r\n        emit feecollection(address(this), feeCollected, block.timestamp);\r\n        return feeCollected;\r\n    }  \r\n\r\n    /**\r\n     * @dev This helper function is a fast and cheap way to convert between IERC20[] and IAsset[] types\r\n     */\r\n    function _convertERC20sToAssets(IERC20[] memory tokens) internal pure returns (IAsset[] memory assets) {\r\n        // solhint-disable-next-line no-inline-assembly\r\n        assembly {\r\n            assets := tokens\r\n        }\r\n    }\r\n\r\n    /**\r\n     * @dev Returns a scaling factor that, when multiplied to a token amount for `token`, normalizes its balance as if\r\n     * it had 18 decimals.\r\n     */\r\n    function _computeScalingFactor(IERC20 token) internal view returns (uint256) {\r\n        // Tokens that don't implement the `decimals` method are not supported.\r\n        uint256 tokenDecimals = ERC20(address(token)).decimals();\r\n\r\n        // Tokens with more than 18 decimals are not supported.\r\n        uint256 decimalsDifference = Math.sub(18, tokenDecimals);\r\n        return FixedPoint.ONE * 10**decimalsDifference;\r\n    }\r\n\r\n    function _upscale(uint256 amount, uint256 scalingFactor) internal pure returns (uint256) {        \r\n        return FixedPoint.mulDown(amount, scalingFactor);\r\n    }\r\n\r\n}",
  "sourcePath": "D:\\Code\\verified-balancer\\contracts\\MarginIssueManager.sol",
  "compiler": {
    "name": "solc",
    "version": "0.7.1+commit.f4a555be.Emscripten.clang"
  },
  "schemaVersion": "3.4.3",
  "updatedAt": "2024-08-21T19:44:26.456Z",
  "networkType": "ethereum",
  "devdoc": {
    "kind": "dev",
    "methods": {
      "owner()": {
        "details": "Returns the address of the current owner."
      },
      "renounceOwnership()": {
        "details": "Leaves the contract without owner. It will not be possible to call `onlyOwner` functions anymore. Can only be called by the current owner. NOTE: Renouncing ownership will leave the contract without an owner, thereby removing any functionality that is only available to the owner."
      },
      "transferOwnership(address)": {
        "details": "Transfers ownership of the contract to a new account (`newOwner`). Can only be called by the current owner."
      }
    },
    "version": 1
  },
  "userdoc": {
    "kind": "user",
    "methods": {},
    "version": 1
  }
}