{
  "contractName": "SecondaryIssueManager",
  "abi": [
    {
      "anonymous": false,
      "inputs": [
        {
          "indexed": true,
          "internalType": "address",
          "name": "previousOwner",
          "type": "address"
        },
        {
          "indexed": true,
          "internalType": "address",
          "name": "newOwner",
          "type": "address"
        }
      ],
      "name": "OwnershipTransferred",
      "type": "event"
    },
    {
      "anonymous": false,
      "inputs": [
        {
          "indexed": true,
          "internalType": "bytes32",
          "name": "poolId",
          "type": "bytes32"
        },
        {
          "indexed": false,
          "internalType": "address",
          "name": "security",
          "type": "address"
        },
        {
          "indexed": false,
          "internalType": "uint256",
          "name": "timestamp",
          "type": "uint256"
        }
      ],
      "name": "closures",
      "type": "event"
    },
    {
      "anonymous": false,
      "inputs": [
        {
          "indexed": true,
          "internalType": "address",
          "name": "platform",
          "type": "address"
        },
        {
          "indexed": false,
          "internalType": "uint256",
          "name": "collection",
          "type": "uint256"
        },
        {
          "indexed": false,
          "internalType": "uint256",
          "name": "timestamp",
          "type": "uint256"
        }
      ],
      "name": "feecollection",
      "type": "event"
    },
    {
      "anonymous": false,
      "inputs": [
        {
          "indexed": false,
          "internalType": "uint256",
          "name": "consideration",
          "type": "uint256"
        },
        {
          "indexed": false,
          "internalType": "uint256",
          "name": "unitsTransferred",
          "type": "uint256"
        }
      ],
      "name": "reject",
      "type": "event"
    },
    {
      "anonymous": false,
      "inputs": [
        {
          "indexed": false,
          "internalType": "bytes32",
          "name": "poolId",
          "type": "bytes32"
        },
        {
          "indexed": false,
          "internalType": "address",
          "name": "seller",
          "type": "address"
        },
        {
          "indexed": false,
          "internalType": "address",
          "name": "investor",
          "type": "address"
        },
        {
          "indexed": true,
          "internalType": "address",
          "name": "securityTraded",
          "type": "address"
        },
        {
          "indexed": false,
          "internalType": "address",
          "name": "currencySettled",
          "type": "address"
        },
        {
          "indexed": false,
          "internalType": "uint256",
          "name": "amount",
          "type": "uint256"
        },
        {
          "indexed": false,
          "internalType": "uint256",
          "name": "price",
          "type": "uint256"
        },
        {
          "indexed": false,
          "internalType": "bytes32",
          "name": "tradeRef",
          "type": "bytes32"
        },
        {
          "indexed": false,
          "internalType": "bytes32",
          "name": "DPID",
          "type": "bytes32"
        },
        {
          "indexed": false,
          "internalType": "uint256",
          "name": "timestamp",
          "type": "uint256"
        }
      ],
      "name": "subscribers",
      "type": "event"
    },
    {
      "anonymous": false,
      "inputs": [
        {
          "indexed": true,
          "internalType": "bytes32",
          "name": "poolid",
          "type": "bytes32"
        },
        {
          "indexed": false,
          "internalType": "address",
          "name": "transferor",
          "type": "address"
        },
        {
          "indexed": false,
          "internalType": "address",
          "name": "transferee",
          "type": "address"
        },
        {
          "indexed": false,
          "internalType": "uint256",
          "name": "unitsToTransfer",
          "type": "uint256"
        },
        {
          "indexed": false,
          "internalType": "address",
          "name": "security",
          "type": "address"
        },
        {
          "indexed": false,
          "internalType": "uint256",
          "name": "price",
          "type": "uint256"
        },
        {
          "indexed": false,
          "internalType": "address",
          "name": "currency",
          "type": "address"
        },
        {
          "indexed": false,
          "internalType": "bytes32",
          "name": "settlementStatus",
          "type": "bytes32"
        },
        {
          "indexed": false,
          "internalType": "bytes32",
          "name": "tradeRef",
          "type": "bytes32"
        },
        {
          "indexed": false,
          "internalType": "uint256",
          "name": "fee",
          "type": "uint256"
        }
      ],
      "name": "tradeSettled",
      "type": "event"
    },
    {
      "inputs": [],
      "name": "owner",
      "outputs": [
        {
          "internalType": "address",
          "name": "",
          "type": "address"
        }
      ],
      "stateMutability": "view",
      "type": "function"
    },
    {
      "inputs": [],
      "name": "renounceOwnership",
      "outputs": [],
      "stateMutability": "nonpayable",
      "type": "function"
    },
    {
      "inputs": [
        {
          "internalType": "address",
          "name": "newOwner",
          "type": "address"
        }
      ],
      "name": "transferOwnership",
      "outputs": [],
      "stateMutability": "nonpayable",
      "type": "function"
    },
    {
      "inputs": [
        {
          "internalType": "address",
          "name": "_factory",
          "type": "address"
        },
        {
          "internalType": "uint256",
          "name": "_issueFeePercentage",
          "type": "uint256"
        },
        {
          "internalType": "address",
          "name": "_client",
          "type": "address"
        },
        {
          "internalType": "address",
          "name": "_vault",
          "type": "address"
        },
        {
          "internalType": "address",
          "name": "_distribution",
          "type": "address"
        },
        {
          "internalType": "address",
          "name": "_products",
          "type": "address"
        }
      ],
      "name": "initialize",
      "outputs": [],
      "stateMutability": "nonpayable",
      "type": "function"
    },
    {
      "inputs": [
        {
          "internalType": "address",
          "name": "security",
          "type": "address"
        },
        {
          "internalType": "address",
          "name": "currency",
          "type": "address"
        },
        {
          "internalType": "uint256",
          "name": "securityAmount",
          "type": "uint256"
        },
        {
          "internalType": "uint256",
          "name": "minSecurityOrder",
          "type": "uint256"
        },
        {
          "internalType": "uint256",
          "name": "cashAmount",
          "type": "uint256"
        }
      ],
      "name": "issueSecondary",
      "outputs": [],
      "stateMutability": "nonpayable",
      "type": "function"
    },
    {
      "inputs": [
        {
          "internalType": "address",
          "name": "security",
          "type": "address"
        },
        {
          "internalType": "address",
          "name": "currency",
          "type": "address"
        },
        {
          "internalType": "uint256",
          "name": "swapfee",
          "type": "uint256"
        }
      ],
      "name": "setIssuingFee",
      "outputs": [],
      "stateMutability": "nonpayable",
      "type": "function"
    },
    {
      "inputs": [
        {
          "components": [
            {
              "internalType": "address",
              "name": "partyAddress",
              "type": "address"
            },
            {
              "internalType": "bytes32",
              "name": "partyRef",
              "type": "bytes32"
            },
            {
              "internalType": "bytes32",
              "name": "counterpartyRef",
              "type": "bytes32"
            },
            {
              "internalType": "uint256",
              "name": "dt",
              "type": "uint256"
            },
            {
              "internalType": "uint256",
              "name": "securityTraded",
              "type": "uint256"
            },
            {
              "internalType": "uint256",
              "name": "currencyTraded",
              "type": "uint256"
            }
          ],
          "internalType": "struct ITrade.trade",
          "name": "tradeToReport",
          "type": "tuple"
        },
        {
          "internalType": "contract IOrder",
          "name": "orderbook",
          "type": "address"
        }
      ],
      "name": "requestSettlement",
      "outputs": [],
      "stateMutability": "nonpayable",
      "type": "function"
    },
    {
      "inputs": [
        {
          "internalType": "bytes32",
          "name": "dpid",
          "type": "bytes32"
        },
        {
          "internalType": "bytes32",
          "name": "poolId",
          "type": "bytes32"
        }
      ],
      "name": "getSettlementRequests",
      "outputs": [
        {
          "internalType": "bytes32[]",
          "name": "",
          "type": "bytes32[]"
        }
      ],
      "stateMutability": "view",
      "type": "function"
    },
    {
      "inputs": [
        {
          "internalType": "bytes32",
          "name": "ref",
          "type": "bytes32"
        }
      ],
      "name": "getSettlementRequest",
      "outputs": [
        {
          "components": [
            {
              "internalType": "contract IOrder",
              "name": "orderPool",
              "type": "address"
            },
            {
              "internalType": "address",
              "name": "transferor",
              "type": "address"
            },
            {
              "internalType": "address",
              "name": "transferee",
              "type": "address"
            },
            {
              "internalType": "address",
              "name": "security",
              "type": "address"
            },
            {
              "internalType": "address",
              "name": "currency",
              "type": "address"
            },
            {
              "internalType": "bytes32",
              "name": "status",
              "type": "bytes32"
            },
            {
              "internalType": "bytes32",
              "name": "DPID",
              "type": "bytes32"
            },
            {
              "internalType": "uint256",
              "name": "price",
              "type": "uint256"
            },
            {
              "internalType": "uint256",
              "name": "unitsToTransfer",
              "type": "uint256"
            },
            {
              "internalType": "uint256",
              "name": "consideration",
              "type": "uint256"
            },
            {
              "internalType": "uint256",
              "name": "executionDate",
              "type": "uint256"
            },
            {
              "internalType": "bytes32",
              "name": "partyRef",
              "type": "bytes32"
            },
            {
              "internalType": "bytes32",
              "name": "counterpartyRef",
              "type": "bytes32"
            }
          ],
          "internalType": "struct ISettlor.settlement",
          "name": "",
          "type": "tuple"
        }
      ],
      "stateMutability": "view",
      "type": "function"
    },
    {
      "inputs": [
        {
          "internalType": "bytes32",
          "name": "poolId",
          "type": "bytes32"
        }
      ],
      "name": "close",
      "outputs": [],
      "stateMutability": "nonpayable",
      "type": "function"
    },
    {
      "inputs": [
        {
          "internalType": "bytes32",
          "name": "ref",
          "type": "bytes32"
        },
        {
          "internalType": "bytes32",
          "name": "status",
          "type": "bytes32"
        }
      ],
      "name": "setSettlementStatus",
      "outputs": [],
      "stateMutability": "nonpayable",
      "type": "function"
    },
    {
      "inputs": [
        {
          "internalType": "bytes32",
          "name": "poolId",
          "type": "bytes32"
        }
      ],
      "name": "getSubscribers",
      "outputs": [
        {
          "components": [
            {
              "internalType": "address",
              "name": "investor",
              "type": "address"
            },
            {
              "internalType": "address",
              "name": "asset",
              "type": "address"
            },
            {
              "internalType": "address",
              "name": "currency",
              "type": "address"
            },
            {
              "internalType": "uint256",
              "name": "amount",
              "type": "uint256"
            },
            {
              "internalType": "uint256",
              "name": "price",
              "type": "uint256"
            }
          ],
          "internalType": "struct ISettlor.subscriptions[]",
          "name": "",
          "type": "tuple[]"
        }
      ],
      "stateMutability": "view",
      "type": "function"
    },
    {
      "inputs": [
        {
          "internalType": "address",
          "name": "_token",
          "type": "address"
        }
      ],
      "name": "getTradingFeeCollected",
      "outputs": [
        {
          "internalType": "uint256",
          "name": "",
          "type": "uint256"
        }
      ],
      "stateMutability": "nonpayable",
      "type": "function"
    }
  ],
  "bytecode": "0x608060405234801561001057600080fd5b50600080546001600160a01b0319163390811782556040519091907f8be0079c531659141344cd1fd0a4f28419497f9722a3daafe3b4186f6b6457e0908290a36137888061005f6000396000f3fe608060405234801561001057600080fd5b50600436106100cf5760003560e01c806379a7dc0e1161008c578063b431657c11610066578063b431657c1461019b578063bfa0caa7146101ae578063c9fca3c7146101ce578063f2fde38b146101ee576100cf565b806379a7dc0e146101535780638da5cb5b14610173578063a2dc2ab714610188576100cf565b806304967159146100d457806306d53a93146100e95780632d916746146100fc57806339c79e0c14610125578063715018a61461013857806371eedc7f14610140575b600080fd5b6100e76100e2366004612fbb565b610201565b005b6100e76100f7366004612dd7565b6102e6565b61010f61010a366004612d5f565b610baa565b60405161011c91906133af565b60405180910390f35b6100e7610133366004612f8b565b610cdd565b6100e761124e565b6100e761014e366004613056565b6112b6565b610166610161366004612f8b565b611a77565b60405161011c9190613637565b61017b611b52565b60405161011c919061323c565b6100e7610196366004612e27565b611b61565b6100e76101a9366004612d97565b611bd3565b6101c16101bc366004612f8b565b611cba565b60405161011c9190613326565b6101e16101dc366004612fbb565b611e2b565b60405161011c91906132e2565b6100e76101fc366004612d5f565b611f5b565b60008281526005602052604080822060030154600e54915163e0a87de160e01b815233936001600160a01b03928316939092169063e0a87de19061024990859060040161323c565b60206040518083038186803b15801561026157600080fd5b505afa158015610275573d6000803e3d6000fd5b505050506040513d601f19601f820116820180604052508101906102999190612d7b565b9050826001600160a01b0316816001600160a01b0316146102d55760405162461bcd60e51b81526004016102cc906134d2565b60405180910390fd5b6102df8585611fd9565b5050505050565b600e5460405163e0a87de160e01b8152339187916000916001600160a01b03169063e0a87de19061031b90859060040161323c565b60206040518083038186803b15801561033357600080fd5b505afa158015610347573d6000803e3d6000fd5b505050506040513d601f19601f8201168201806040525081019061036b9190612d7b565b9050826001600160a01b0316816001600160a01b03161461039e5760405162461bcd60e51b81526004016102cc906134d2565b6040516370a0823160e01b815286906001600160a01b038a16906370a08231906103cc90339060040161323c565b60206040518083038186803b1580156103e457600080fd5b505afa1580156103f8573d6000803e3d6000fd5b505050506040513d601f19601f8201168201806040525081019061041c9190612fa3565b1015801561042a5750848610155b80156104b257506040516370a0823160e01b815284906001600160a01b038916906370a082319061045f90339060040161323c565b60206040518083038186803b15801561047757600080fd5b505afa15801561048b573d6000803e3d6000fd5b505050506040513d601f19601f820116820180604052508101906104af9190612fa3565b10155b6104ce5760405162461bcd60e51b81526004016102cc90613561565b6040516323b872dd60e01b81526001600160a01b038816906323b872dd906104fe90339030908990600401613250565b602060405180830381600087803b15801561051857600080fd5b505af115801561052c573d6000803e3d6000fd5b505050506040513d601f19601f820116820180604052508101906105509190612f6b565b506040516323b872dd60e01b81526001600160a01b038916906323b872dd9061058190339030908b90600401613250565b602060405180830381600087803b15801561059b57600080fd5b505af11580156105af573d6000803e3d6000fd5b505050506040513d601f19601f820116820180604052508101906105d39190612f6b565b506002546040516372e0f85360e01b81526001600160a01b038a8116926372e0f8539261060892909116908a906004016132c9565b600060405180830381600087803b15801561062257600080fd5b505af1158015610636573d6000803e3d6000fd5b5050600154600354604051631d3731e960e21b8152600094506001600160a01b0390921692506374dcc7a491610674918d918d918c91600401613598565b602060405180830381600087803b15801561068e57600080fd5b505af11580156106a2573d6000803e3d6000fd5b505050506040513d601f19601f820116820180604052508101906106c69190612d7b565b90506000816001600160a01b03166338fff2d06040518163ffffffff1660e01b815260040160206040518083038186803b15801561070357600080fd5b505afa158015610717573d6000803e3d6000fd5b505050506040513d601f19601f8201168201806040525081019061073b9190612fa3565b9050896009600083815260200190815260200160002060006101000a8154816001600160a01b0302191690836001600160a01b0316021790555033600a600083815260200190815260200160002060006101000a8154816001600160a01b0302191690836001600160a01b031602179055508060076000846001600160a01b03166001600160a01b0316815260200190815260200160002081905550816008600083815260200190815260200160002060006101000a8154816001600160a01b0302191690836001600160a01b031602179055506060600260009054906101000a90046001600160a01b03166001600160a01b031663f94d4668836040518263ffffffff1660e01b815260040161085291906133af565b60006040518083038186803b15801561086a57600080fd5b505afa15801561087e573d6000803e3d6000fd5b505050506040513d6000823e601f3d908101601f191682016040526108a69190810190612e9f565b5050905060606108b582612923565b90506060825167ffffffffffffffff811180156108d157600080fd5b506040519080825280602002602001820160405280156108fb578160200160208202803683370190505b5060025460405163095ea7b360e01b81529192506001600160a01b03808f169263095ea7b3926109319216908d906004016132c9565b602060405180830381600087803b15801561094b57600080fd5b505af115801561095f573d6000803e3d6000fd5b505050506040513d601f19601f820116820180604052508101906109839190612f6b565b508c6001600160a01b031663095ea7b3600260009054906101000a90046001600160a01b03168d6040518363ffffffff1660e01b81526004016109c79291906132c9565b602060405180830381600087803b1580156109e157600080fd5b505af11580156109f5573d6000803e3d6000fd5b505050506040513d601f19601f82011682018060405250810190610a199190612f6b565b5060005b8351811015610ae0578d6001600160a01b0316848281518110610a3c57fe5b60200260200101516001600160a01b03161415610a71578b828281518110610a6057fe5b602002602001018181525050610ad8565b8c6001600160a01b0316848281518110610a8757fe5b60200260200101516001600160a01b03161415610aab5789828281518110610a6057fe5b610abf6001600160701b03620f4240612926565b828281518110610acb57fe5b6020026020010181815250505b600101610a1d565b50610ae9612bfe565b6040518060800160405280848152602001838152602001600084604051602001610b14929190613470565b60408051808303601f190181529181529082526000602090920191909152600254905163172b958560e31b81529192506001600160a01b03169063b95cac2890610b689088903090819087906004016133b8565b600060405180830381600087803b158015610b8257600080fd5b505af1158015610b96573d6000803e3d6000fd5b505050505050505050505050505050505050565b600f546000906001600160a01b03163314610bd75760405162461bcd60e51b81526004016102cc9061352a565b6001600160a01b0382166000908152600c6020526040902054610bfa8180612926565b6001600160a01b038085166000818152600c60205260409081902093909355600f54925163a9059cbb60e01b8152909263a9059cbb92610c419291169085906004016132c9565b602060405180830381600087803b158015610c5b57600080fd5b505af1158015610c6f573d6000803e3d6000fd5b505050506040513d601f19601f82011682018060405250810190610c939190612f6b565b50306001600160a01b03167feaad90c8664cdf61d60bd7ba6745a881fd1c38d9f4ff0b373b4365cdeeb0f9e88242604051610ccf92919061322e565b60405180910390a292915050565b60008181526009602052604080822054600e54915163e0a87de160e01b815233936001600160a01b03928316939092169063e0a87de190610d2290859060040161323c565b60206040518083038186803b158015610d3a57600080fd5b505afa158015610d4e573d6000803e3d6000fd5b505050506040513d601f19601f82011682018060405250810190610d729190612d7b565b9050826001600160a01b0316816001600160a01b031614610da55760405162461bcd60e51b81526004016102cc906134d2565b6000848152600860209081526040808320548151636945c1fd60e01b815291516001600160a01b0390911692636945c1fd9260048082019391829003018186803b158015610df257600080fd5b505afa158015610e06573d6000803e3d6000fd5b505050506040513d601f19601f82011682018060405250810190610e2a9190612d7b565b600254604051631f29a8cd60e31b81529192506060916001600160a01b039091169063f94d466890610e609089906004016133af565b60006040518083038186803b158015610e7857600080fd5b505afa158015610e8c573d6000803e3d6000fd5b505050506040513d6000823e601f3d908101601f19168201604052610eb49190810190612e9f565b505090506060610ec382612923565b90506060825167ffffffffffffffff81118015610edf57600080fd5b50604051908082528060200260200182016040528015610f09578160200160208202803683370190505b509050610f14612bfe565b60405180608001604052808481526020018381526020016001620f42406001600160701b0303604051602001610f4b929190613458565b60408051808303601f1901815291815290825260006020909201919091526002549051638bdb391360e01b81529192506001600160a01b031690638bdb391390610f9f908c903090819087906004016133b8565b600060405180830381600087803b158015610fb957600080fd5b505af1158015610fcd573d6000803e3d6000fd5b50505060008a815260096020526040908190205490518b92507f56eadf552f1d54f8f73fbbf801097c1c4d7bb3d77d5ac2bebfd0a8151642d55a9161101f916001600160a01b039091169042906132c9565b60405180910390a26000898152600a6020526040908190205490516370a0823160e01b81526001600160a01b038088169263a9059cbb9291169083906370a082319061106f90309060040161323c565b60206040518083038186803b15801561108757600080fd5b505afa15801561109b573d6000803e3d6000fd5b505050506040513d601f19601f820116820180604052508101906110bf9190612fa3565b6040518363ffffffff1660e01b81526004016110dc9291906132c9565b602060405180830381600087803b1580156110f657600080fd5b505af115801561110a573d6000803e3d6000fd5b505050506040513d601f19601f8201168201806040525081019061112e9190612f6b565b50600089815260096020818152604080842054600a8352938190205492909152516370a0823160e01b81526001600160a01b039283169263a9059cbb92169083906370a082319061118390309060040161323c565b60206040518083038186803b15801561119b57600080fd5b505afa1580156111af573d6000803e3d6000fd5b505050506040513d601f19601f820116820180604052508101906111d39190612fa3565b6040518363ffffffff1660e01b81526004016111f09291906132c9565b602060405180830381600087803b15801561120a57600080fd5b505af115801561121e573d6000803e3d6000fd5b505050506040513d601f19601f820116820180604052508101906112429190612f6b565b50505050505050505050565b61126c3361125a611b52565b6001600160a01b0316146101aa612941565b600080546040516001600160a01b03909116907f8be0079c531659141344cd1fd0a4f28419497f9722a3daafe3b4186f6b6457e0908390a3600080546001600160a01b0319169055565b336000908152600760205260409020546112e25760405162461bcd60e51b81526004016102cc90613609565b6112ea612c28565b6020830151604051632bbc239560e11b81526001600160a01b03841691635778472a9161131a91906004016133af565b60a06040518083038186803b15801561133257600080fd5b505afa158015611346573d6000803e3d6000fd5b505050506040513d601f19601f8201168201806040525081019061136a9190612fdc565b9050611374612c28565b6040808501519051632bbc239560e11b81526001600160a01b03851691635778472a916113a491906004016133af565b60a06040518083038186803b1580156113bc57600080fd5b505afa1580156113d0573d6000803e3d6000fd5b505050506040513d601f19601f820116820180604052508101906113f49190612fdc565b90506000836001600160a01b0316632541897f6040518163ffffffff1660e01b815260040160206040518083038186803b15801561143157600080fd5b505afa158015611445573d6000803e3d6000fd5b505050506040513d601f19601f820116820180604052508101906114699190612d7b565b90506000846001600160a01b0316636945c1fd6040518163ffffffff1660e01b815260040160206040518083038186803b1580156114a657600080fd5b505afa1580156114ba573d6000803e3d6000fd5b505050506040513d601f19601f820116820180604052508101906114de9190612d7b565b90506000826001600160a01b031685602001516001600160a01b031614611506578351611509565b84515b90506000826001600160a01b031685602001516001600160a01b031614611531578551611534565b84515b6080890151909150600061154786612953565b9050600061156e6115648c60a0015161155f89612a5f565b612afa565b8c60800151612b06565b9050611578612c57565b604051806101a001604052808c6001600160a01b03168152602001876001600160a01b03168152602001866001600160a01b03168152602001896001600160a01b03168152602001886001600160a01b031681526020016650656e64696e6760c81b81526020018481526020018381526020018581526020016116028e60a0015161155f8b612a5f565b81526020018d606001518152602001896001600160a01b03168c602001516001600160a01b031614611638578d6040015161163e565b8d602001515b8152602001886001600160a01b03168b602001516001600160a01b03161461166a578d60200151611670565b8d604001515b815250905060008c602001518d6040015160405160200161169292919061322e565b60408051601f198184030181529181528151602092830120600081815260059093529120600101549091506001600160a01b0316611a6857600081815260056020818152604092839020855181546001600160a01b03199081166001600160a01b03928316178355928701516001830180548516918316919091179055938601516002820180548416918616919091179055606086015160038201805484169186169190911790556080860151600482018054909316941693909317905560a08401519082015560c0830151600682015560e0830151600782015561010083015160088201556101208301516009820155610140830151600a820155610160830151600b820155610180830151600c909101556117ad612cc3565b6040518060a00160405280886001600160a01b031681526020018b6001600160a01b031681526020018a6001600160a01b0316815260200187815260200185815250905060008d6001600160a01b03166338fff2d06040518163ffffffff1660e01b815260040160206040518083038186803b15801561182c57600080fd5b505afa158015611840573d6000803e3d6000fd5b505050506040513d601f19601f820116820180604052508101906118649190612fa3565b9050600b600082815260200190815260200160002082908060018154018082558091505060019003906000526020600020906005020160009091909190915060008201518160000160006101000a8154816001600160a01b0302191690836001600160a01b0316021790555060208201518160010160006101000a8154816001600160a01b0302191690836001600160a01b0316021790555060408201518160020160006101000a8154816001600160a01b0302191690836001600160a01b03160217905550606082015181600301556080820151816004015550508a6001600160a01b03167f0dd4a121adafd4537e046c792647be3f3978f362ad83b50586e249ae8641de2f828b8b8e8c88608001518a8c60c0015142604051611991999897969594939291906133f4565b60405180910390a260c084015160009081526006602090815260408083208054600181018255908452918320909101859055600e54905163e0a87de160e01b81526001600160a01b039091169063e0a87de1906119f2908f9060040161323c565b60206040518083038186803b158015611a0a57600080fd5b505afa158015611a1e573d6000803e3d6000fd5b505050506040513d601f19601f82011682018060405250810190611a429190612d7b565b6001600160a01b03161415611a6557611a658366436f6e6669726d60c81b611fd9565b50505b50505050505050505050505050565b611a7f612c57565b81611a9c5760405162461bcd60e51b81526004016102cc906134ff565b5060009081526005602081815260409283902083516101a08101855281546001600160a01b03908116825260018301548116938201939093526002820154831694810194909452600381015482166060850152600481015490911660808401529081015460a0830152600681015460c0830152600781015460e083015260088101546101008301526009810154610120830152600a810154610140830152600b810154610160830152600c015461018082015290565b6000546001600160a01b031690565b611b6d3361125a611b52565b600180546001600160a01b03199081166001600160a01b0398891617909155600395909555600d805486169487169490941790935560028054851692861692909217909155600e8054841692851692909217909155600f80549092169216919091179055565b600e5460405163e0a87de160e01b8152339185916000916001600160a01b03169063e0a87de190611c0890859060040161323c565b60206040518083038186803b158015611c2057600080fd5b505afa158015611c34573d6000803e3d6000fd5b505050506040513d601f19601f82011682018060405250810190611c589190612d7b565b9050826001600160a01b0316816001600160a01b031614611c8b5760405162461bcd60e51b81526004016102cc906134d2565b5050506001600160a01b0392831660009081526004602090815260408083209490951682529290925291902055565b60008181526009602052604080822054600e54915163e0a87de160e01b815260609333936001600160a01b0393841693919291169063e0a87de190611d0390859060040161323c565b60206040518083038186803b158015611d1b57600080fd5b505afa158015611d2f573d6000803e3d6000fd5b505050506040513d601f19601f82011682018060405250810190611d539190612d7b565b9050826001600160a01b0316816001600160a01b031614611d865760405162461bcd60e51b81526004016102cc906134d2565b6000858152600b6020908152604080832080548251818502810185019093528083529193909284015b82821015611e1d5760008481526020908190206040805160a0810182526005860290920180546001600160a01b039081168452600180830154821685870152600283015490911692840192909252600381015460608401526004015460808301529083529092019101611daf565b505050509350505050919050565b60008181526009602052604080822054600e54915163e0a87de160e01b815260609333936001600160a01b0393841693919291169063e0a87de190611e7490859060040161323c565b60206040518083038186803b158015611e8c57600080fd5b505afa158015611ea0573d6000803e3d6000fd5b505050506040513d601f19601f82011682018060405250810190611ec49190612d7b565b9050826001600160a01b0316816001600160a01b031614611ef75760405162461bcd60e51b81526004016102cc906134d2565b60008681526006602090815260409182902080548351818402810184019094528084529091830182828015611f4b57602002820191906000526020600020905b815481526020019060010190808311611f37575b5050505050935050505092915050565b611f673361125a611b52565b611f7e6001600160a01b03821615156101ab612941565b600080546040516001600160a01b03808516939216917f8be0079c531659141344cd1fd0a4f28419497f9722a3daafe3b4186f6b6457e091a3600080546001600160a01b0319166001600160a01b0392909216919091179055565b6000828152600560205260408120600601549066436f6e6669726d60c81b83148061200c5750826514995a9958dd60d21b145b6120285760405162461bcd60e51b81526004016102cc9061349b565b600084815260056020908152604080832060038101546001600160a01b0390811685526004808552838620920154168452909152902054156120af576000848152600560209081526040808320600981015460038201546001600160a01b03908116865260048086528487209301541685529252909120546120aa9190612b57565b6120ce565b6000848152600560205260409020600901546003546120ce9190612b57565b60038190556000858152600560205260408120600401549091612102916120fd906001600160a01b0316612a5f565b612b06565b90508366436f6e6669726d60c81b14801561213957506000858152600560208190526040909120015466436f6e6669726d60c81b14155b801561215e5750600085815260056020819052604090912001546311985a5b60e21b14155b1561268a576000858152600560209081526040808320600401546001600160a01b03168352600c9091529020546121959082612b8d565b6000868152600560208181526040808420600480820180546001600160a01b039081168852600c865284882098909855958c905293909252925460019091015492516323b872dd60e01b8152908416936323b872dd936121fc939116913091879101613250565b602060405180830381600087803b15801561221657600080fd5b505af115801561222a573d6000803e3d6000fd5b505050506040513d601f19601f8201168201806040525081019061224e9190612f6b565b156123e357600085815260056020526040908190208054600b820154600c830154600a9093015493516381b5da1d60e01b81526001600160a01b03909216936381b5da1d936122a293909190600401613442565b600060405180830381600087803b1580156122bc57600080fd5b505af11580156122d0573d6000803e3d6000fd5b5050505060005b6000848152600660205260409020548110156123ba57600084815260066020526040902080548791908390811061230a57fe5b906000526020600020015414156123b2576000848152600660205260409020546000190181141561235f57600084815260066020526040902080548290811061234f57fe5b60009182526020822001556123b2565b600084815260066020526040902080546001830190811061237c57fe5b90600052602060002001546006600086815260200190815260200160002082815481106123a557fe5b6000918252602090912001555b6001016122d7565b50600085815260056020819052604090912066436f6e6669726d60c81b91015560019150612685565b600085815260056020526040812060098101546004909101546124189190612413906001600160a01b0316612a5f565b612b9f565b600087815260056020526040908190208054600b820154600883015460079093015493516307ef938960e41b81529495506001600160a01b0390911693637ef93890936124689391600401613442565b600060405180830381600087803b15801561248257600080fd5b505af1158015612496573d6000803e3d6000fd5b505050600087815260056020526040908190208054600c82015460079092015492516307ef938960e41b81526001600160a01b039091169350637ef93890926124e59291869190600401613442565b600060405180830381600087803b1580156124ff57600080fd5b505af1158015612513573d6000803e3d6000fd5b50505060008781526005602052604090819020600480820154600183015460029093015493516323b872dd60e01b81526001600160a01b0391821695506323b872dd9461256894831693921691879101613250565b602060405180830381600087803b15801561258257600080fd5b505af1158015612596573d6000803e3d6000fd5b505050506040513d601f19601f820116820180604052508101906125ba9190612f6b565b506000868152600560205260409081902060038101546002820154600183015460089093015493516323b872dd60e01b81526001600160a01b03928316946323b872dd9461261094938416931691600401613250565b602060405180830381600087803b15801561262a57600080fd5b505af115801561263e573d6000803e3d6000fd5b505050506040513d601f19601f820116820180604052508101906126629190612f6b565b505060008581526005602081905260409091206311985a5b60e21b910155600191505b612760565b836514995a9958dd60d21b1480156126bd5750600085815260056020819052604090912001546514995a9958dd60d21b14155b1561276057600085815260056020526040812060098101546004909101546126f29190612413906001600160a01b0316612a5f565b600087815260056020526040908190206008015490519192507f86b2375ca14c16d147ae2672ef1d4cc943fb5834cc6fc1dcae25d6242881c7049161273891849161322e565b60405180910390a15060008581526005602081905260409091206514995a9958dd60d21b9101555b81156102df57600085815260056020908152604080832054815163038fff2d60e41b815291516001600160a01b03909116926338fff2d09260048082019391829003018186803b1580156127b357600080fd5b505afa1580156127c7573d6000803e3d6000fd5b505050506040513d601f19601f820116820180604052508101906127eb9190612fa3565b9050807f20bc58ab7015bb746413e8ea58a156a1b772a58e47523f8e2e54195b80a7beef6005600089815260200190815260200160002060010160009054906101000a90046001600160a01b0316600560008a815260200190815260200160002060020160009054906101000a90046001600160a01b0316600560008b815260200190815260200160002060080154600560008c815260200190815260200160002060030160009054906101000a90046001600160a01b0316600560008d815260200190815260200160002060070154600560008e815260200190815260200160002060040160009054906101000a90046001600160a01b0316600560008f8152602001908152602001600020600501548e8b60405161291399989796959493929190613274565b60405180910390a2505050505050565b90565b6000612936838311156001612941565b508082035b92915050565b8161294f5761294f81612bab565b5050565b600e5460405163e0a87de160e01b815260009182916001600160a01b039091169063e0a87de19061298890869060040161323c565b60206040518083038186803b1580156129a057600080fd5b505afa1580156129b4573d6000803e3d6000fd5b505050506040513d601f19601f820116820180604052508101906129d89190612d7b565b600d5460405162157d5560e61b81529192506001600160a01b03169063055f554090612a0890849060040161323c565b60206040518083038186803b158015612a2057600080fd5b505afa158015612a34573d6000803e3d6000fd5b505050506040513d601f19601f82011682018060405250810190612a589190612fa3565b9392505050565b600080826001600160a01b031663313ce5676040518163ffffffff1660e01b815260040160206040518083038186803b158015612a9b57600080fd5b505afa158015612aaf573d6000803e3d6000fd5b505050506040513d601f19601f82011682018060405250810190612ad391906130df565b60ff1690506000612ae5601283612926565b600a0a670de0b6b3a764000002949350505050565b6000612a588383612b57565b6000612b158215156004612941565b82612b225750600061293b565b670de0b6b3a764000083810290612b4590858381612b3c57fe5b04146005612941565b828181612b4e57fe5b0491505061293b565b6000828202612b7b841580612b74575083858381612b7157fe5b04145b6003612941565b670de0b6b3a764000090049392505050565b6000828201612a588482101583612941565b6000612a588383612b06565b62461bcd60e51b6000908152602060045260076024526642414c23000030600a808404818106603090810160081b95839006959095019082900491820690940160101b939093010160c81b604452606490fd5b60405180608001604052806060815260200160608152602001606081526020016000151581525090565b6040805160a0810182526000808252602082018190529091820190815260200160008152602001600081525090565b604080516101a081018252600080825260208201819052918101829052606081018290526080810182905260a0810182905260c0810182905260e08101829052610100810182905261012081018290526101408101829052610160810182905261018081019190915290565b6040805160a08101825260008082526020820181905291810182905260608101829052608081019190915290565b600082601f830112612d01578081fd5b8151612d14612d0f8261371a565b6136f3565b818152915060208083019084810181840286018201871015612d3557600080fd5b60005b84811015612d5457815184529282019290820190600101612d38565b505050505092915050565b600060208284031215612d70578081fd5b8135612a588161373a565b600060208284031215612d8c578081fd5b8151612a588161373a565b600080600060608486031215612dab578182fd5b8335612db68161373a565b92506020840135612dc68161373a565b929592945050506040919091013590565b600080600080600060a08688031215612dee578081fd5b8535612df98161373a565b94506020860135612e098161373a565b94979496505050506040830135926060810135926080909101359150565b60008060008060008060c08789031215612e3f578081fd5b8635612e4a8161373a565b9550602087013594506040870135612e618161373a565b93506060870135612e718161373a565b92506080870135612e818161373a565b915060a0870135612e918161373a565b809150509295509295509295565b600080600060608486031215612eb3578283fd5b835167ffffffffffffffff80821115612eca578485fd5b818601915086601f830112612edd578485fd5b8151612eeb612d0f8261371a565b80828252602080830192508086018b828387028901011115612f0b57898afd5b8996505b84871015612f36578051612f228161373a565b845260019690960195928101928101612f0f565b508901519097509350505080821115612f4d578384fd5b50612f5a86828701612cf1565b925050604084015190509250925092565b600060208284031215612f7c578081fd5b81518015158114612a58578182fd5b600060208284031215612f9c578081fd5b5035919050565b600060208284031215612fb4578081fd5b5051919050565b60008060408385031215612fcd578182fd5b50508035926020909101359150565b600060a08284031215612fed578081fd5b612ff760a06136f3565b82516130028161373a565b815260208301516130128161373a565b6020820152604083015160038110613028578283fd5b604082015260608301516005811061303e578283fd5b60608201526080928301519281019290925250919050565b60008082840360e0811215613069578283fd5b60c0811215613076578283fd5b5061308160c06136f3565b833561308c8161373a565b808252506020840135602082015260408401356040820152606084013560608201526080840135608082015260a084013560a08201528092505060c08301356130d48161373a565b809150509250929050565b6000602082840312156130f0578081fd5b815160ff81168114612a58578182fd5b6001600160a01b03169052565b6000815180845260208085019450808401835b8381101561313c57815187529582019590820190600101613120565b509495945050505050565b15159052565b60008151808452815b8181101561317257602081850181015186830182015201613156565b818111156131835782602083870101525b50601f01601f19169290920160200192915050565b8051608080845281519084018190526000916020919082019060a0860190845b818110156131dd5783516001600160a01b0316835292840192918401916001016131b8565b5050828501519150858103838701526131f6818361310d565b9250505060408301518482036040860152613211828261314d565b91505060608301516132266060860182613147565b509392505050565b918252602082015260400190565b6001600160a01b0391909116815260200190565b6001600160a01b039384168152919092166020820152604081019190915260600190565b6001600160a01b03998a168152978916602089015260408801969096529387166060870152608086019290925290941660a084015260c083019390935260e08201929092526101008101919091526101200190565b6001600160a01b03929092168252602082015260400190565b6020808252825182820181905260009190848201906040850190845b8181101561331a578351835292840192918401916001016132fe565b50909695505050505050565b602080825282518282018190526000919060409081850190868401855b828110156133a257815180516001600160a01b031685528681015161336a88870182613100565b508581015161337b87870182613100565b50606081810151908601526080908101519085015260a09093019290850190600101613343565b5091979650505050505050565b90815260200190565b8481526001600160a01b038481166020830152831660408201526080606082018190526000906133ea90830184613198565b9695505050505050565b9889526001600160a01b0397881660208a01529587166040890152939095166060870152608086019190915260a085015260c084019290925260e08301919091526101008201526101200190565b9283526020830191909152604082015260600190565b604081016002841061346657fe5b9281526020015290565b60006004841061347c57fe5b83825260406020830152613493604083018461310d565b949350505050565b60208082526019908201527f536574746c656d656e742073746174757320696e76616c696400000000000000604082015260600190565b6020808252601390820152724f6e6c79206973737565206d616e616765727360681b604082015260600190565b602080825260119082015270496e76616c6964207265666572656e636560781b604082015260600190565b6020808252601f908201527f556e617574686f72697a656420636f6c6c656374696f6e207265717565737400604082015260600190565b60208082526019908201527f4e6f2062616c616e636520746f2063726561746520706f6f6c00000000000000604082015260600190565b60c0808252601390820152722b32b934b334b2b2102837b7b6102a37b5b2b760691b60e0820152610100602082018190526003908201526215941560ea1b6101208201526001600160a01b039485166040820152929093166060830152608082015260a08101919091526101400190565b602080825260149082015273125b9d985b1a59081c1bdbdb081c995c5d595cdd60621b604082015260600190565b60006101a08201905061364b828451613100565b602083015161365d6020840182613100565b5060408301516136706040840182613100565b5060608301516136836060840182613100565b5060808301516136966080840182613100565b5060a0838101519083015260c0808401519083015260e08084015190830152610100808401519083015261012080840151908301526101408084015190830152610160808401519083015261018092830151929091019190915290565b60405181810167ffffffffffffffff8111828210171561371257600080fd5b604052919050565b600067ffffffffffffffff821115613730578081fd5b5060209081020190565b6001600160a01b038116811461374f57600080fd5b5056fea2646970667358221220b378bc06adde2481edfaf59e632d0710f4af1c8010586b5af5a77de411ae95b464736f6c63430007010033",
  "immutableReferences": {},
  "source": "// External interface for settlement of trades\n// (c) Kallol Borah, 2022\n// \"SPDX-License-Identifier: BUSL1.1\"\n\npragma solidity 0.7.1;\npragma experimental ABIEncoderV2;\n\nimport \"./interfaces/ISettlor.sol\";\nimport \"./interfaces/IOrder.sol\";\nimport \"./interfaces/ITrade.sol\";\nimport \"./interfaces/IFactory.sol\";\nimport \"./interfaces/ISecurity.sol\";\nimport \"./interfaces/VerifiedClient.sol\";\nimport \"./interfaces/ISecondaryIssuePool.sol\";\nimport \"./interfaces/ISecondaryIssuePoolFactory.sol\";\n\nimport \"@balancer-labs/v2-solidity-utils/contracts/math/Math.sol\";\nimport \"@balancer-labs/v2-solidity-utils/contracts/math/FixedPoint.sol\";\nimport \"@balancer-labs/v2-solidity-utils/contracts/openzeppelin/ERC20.sol\";\nimport \"@balancer-labs/v2-solidity-utils/contracts/openzeppelin/IERC20.sol\";\nimport \"@balancer-labs/v2-solidity-utils/contracts/openzeppelin/Ownable.sol\";\n \ncontract SecondaryIssueManager is ISettlor, Ownable {\n\n    using Math for uint256;\n    using FixedPoint for uint256;\n\n    // balancer variables\n    address private factory;    \n\n    address private vault;\n\n    // standard fee\n    uint256 private fee;\n\n    // mapping security to currency to fee set for it by DP\n    mapping(address => mapping(address => uint256)) private customFee;\n\n    // mapping settlement ref to trade execution data\n    mapping(bytes32 => ISettlor.settlement) settlements;\n\n    //mapping depository participants to trades they are part of\n    mapping(bytes32 => bytes32[]) private trades;\n\n    //mapping pool address to pool id\n    mapping(address => bytes32) private pools;\n\n    //mapping pool id to pool address\n    mapping(bytes32 => address) private poolAddress;\n\n    //mapping pool id to security token traded\n    mapping(bytes32 => address) private poolSecurity;\n\n    //mapping pool id to issuer\n    mapping(bytes32 => address) private issuer;\n\n    //mapping pool id to investors\n    mapping(bytes32 => subscriptions[]) internal investors; \n\n    // mapping token address to issuing fee collected\n    mapping(address => uint256) private fees;\n\n    // reference to the Verified Client contract\n    VerifiedClient private client;\n\n    // reference to the Verified factory contract that this asset manager checks security token issues with\n    IFactory private products;\n\n    address private distribution;\n\n    uint256 private constant _INITIAL_BPT_SUPPLY = 2**(112) - 1;\n    uint256 private constant _DEFAULT_MINIMUM_BPT = 1e6;\n\n    event tradeSettled( \n        bytes32 indexed poolid,\n        address transferor,\n        address transferee,\n        uint256 unitsToTransfer,\n        address security,\n        uint256 price,\n        address currency,\n        bytes32 settlementStatus,\n        bytes32 tradeRef,\n        uint256 fee\n    );\n\n    event subscribers(bytes32 poolId, address seller, address investor, \n                        address indexed securityTraded, address currencySettled, uint256 amount, uint256 price,\n                        bytes32 tradeRef, bytes32 DPID, uint256 timestamp);\n\n    event closures(bytes32 indexed poolId, address security, uint256 timestamp);\n    event feecollection(address indexed platform, uint256 collection, uint256 timestamp);\n\n    modifier onlyIssueManager(address sender, address security){\n        address DP = products.getDP(security);\n        require(DP==sender, \"Only issue managers\");\n        _;\n    }\n\n    /**\n        Initializes this asset management contract\n        @param  _factory            reference to the secondary issue pool factory contract\n        @param  _issueFeePercentage  percentage of trading fee to be charged by the asset manager\n        @param  _client             address of Verified client contract\n        @param  _vault              address of balancer vault\n     */\n    function initialize(address _factory, uint256 _issueFeePercentage, address _client, address _vault, address _distribution, address _products) public onlyOwner {\n        factory = _factory;\n        fee = _issueFeePercentage;\n        client = VerifiedClient(_client);\n        vault = _vault;\n        products = IFactory(_products);\n        distribution = _distribution;\n    }\n\n    /**\n        Joins existing (secondary) tokenized assets into pool by primary issue token holders\n        @param  security            reference to asset issued\n        @param  currency            reference to cash (settlement) token\n        @param  securityAmount      amount of security to issue\n        @param  minSecurityOrder    minimum order size of securities issued in pool\n        @param  cashAmount          amount of currency issued in pool\n     */\n    function issueSecondary(address security, address currency, uint256 securityAmount, uint256 minSecurityOrder, uint256 cashAmount) override external onlyIssueManager(msg.sender, security){\n        require(IERC20(security).balanceOf(msg.sender)>=securityAmount && securityAmount>=minSecurityOrder\n                && IERC20(currency).balanceOf(msg.sender)>=cashAmount\n                , \"No balance to create pool\");\n        ERC20(currency).transferFrom(msg.sender, address(this), cashAmount);\n        ERC20(security).transferFrom(msg.sender, address(this), securityAmount);  \n        ISecurity(security).whiteList(vault, securityAmount);      \n        address pool = ISecondaryIssuePoolFactory(factory).create(\n            \"Verified Pool Token\",\n            \"VPT\",\n            security,\n            currency,\n            minSecurityOrder,\n            fee\n        ); \n        bytes32 poolId = ISecondaryIssuePool(pool).getPoolId();  \n        poolSecurity[poolId] = security; \n        issuer[poolId] = msg.sender;\n        pools[pool] = poolId;\n        poolAddress[poolId] = pool;\n        // join the pool here                \n        (IERC20[] memory tokens, , ) = IVault(vault).getPoolTokens(poolId);\n        IAsset[] memory assets = _convertERC20sToAssets(tokens);\n        uint256[] memory maxAmountsIn = new uint256[](tokens.length);\n        ERC20(currency).approve(vault, cashAmount);\n        ERC20(security).approve(vault, securityAmount);\n        for(uint256 t; t < tokens.length; t++) {\n            if(tokens[t]==IERC20(security))\n                maxAmountsIn[t] = securityAmount;\n            else if(tokens[t]==IERC20(currency))\n                maxAmountsIn[t] = cashAmount;\n            else \n                maxAmountsIn[t] = Math.sub(_INITIAL_BPT_SUPPLY, _DEFAULT_MINIMUM_BPT);\n        }\n        IVault.JoinPoolRequest memory request = IVault.JoinPoolRequest({\n            assets: assets,\n            maxAmountsIn: maxAmountsIn,\n            userData: abi.encode(JoinKind.INIT, maxAmountsIn),\n            fromInternalBalance: false\n        });         \n        IVault(vault).joinPool(poolId, address(this), address(this), request);\n    }\n\n    function setIssuingFee(address security, address currency, uint256 swapfee) override external onlyIssueManager(msg.sender, security) {\n        customFee[security][currency] = swapfee;\n    }\n    \n    /**\n        Used by Secondary pools to request settlement for trades\n        @param  tradeToReport     data structure holding order matching data\n     */\n    function requestSettlement(ITrade.trade memory tradeToReport, IOrder orderbook) override external {\n        require(pools[msg.sender]!=\"\", \"Invalid pool request\");\n        IOrder.order memory orderByParty = orderbook.getOrder(tradeToReport.partyRef);\n        IOrder.order memory orderByCounterparty = orderbook.getOrder(tradeToReport.counterpartyRef);\n        address securityTraded = orderbook.getSecurity(); \n        address currencySettled = orderbook.getCurrency();\n        address party = orderByParty.tokenIn==securityTraded ? orderByParty.party : orderByCounterparty.party;\n        address counterparty = orderByCounterparty.tokenIn==currencySettled ? orderByCounterparty.party : orderByParty.party;\n        uint256 amount = tradeToReport.securityTraded; \n        bytes32 _DPID = getTransferAgent(securityTraded);\n        uint256 price = FixedPoint.divDown(_upscale(tradeToReport.currencyTraded, _computeScalingFactor(IERC20(currencySettled))), tradeToReport.securityTraded);\n        ISettlor.settlement memory tradeToSettle = ISettlor.settlement({\n            transferor: party, //sells securities\n            transferee: counterparty, //buys securities\n            security: securityTraded,\n            status: \"Pending\",\n            currency: currencySettled,\n            price: price,\n            unitsToTransfer: amount,\n            consideration: _upscale(tradeToReport.currencyTraded, _computeScalingFactor(IERC20(currencySettled))),\n            executionDate: tradeToReport.dt,\n            partyRef: orderByParty.tokenIn==securityTraded ? tradeToReport.partyRef : tradeToReport.counterpartyRef,\n            counterpartyRef: orderByCounterparty.tokenIn==currencySettled ? tradeToReport.counterpartyRef : tradeToReport.partyRef,\n            DPID: _DPID,\n            orderPool: orderbook\n        });\n        bytes32 ref = keccak256(abi.encodePacked(tradeToReport.partyRef, tradeToReport.counterpartyRef));\n        if(settlements[ref].transferor==address(0x0)){\n            settlements[ref] = tradeToSettle;\n            ISettlor.subscriptions memory subscription = ISettlor.subscriptions({\n                investor: counterparty, //buyer of securities\n                asset: securityTraded,\n                currency: currencySettled, \n                amount: amount,   \n                price: price \n            });\n            bytes32 poolId = orderbook.getPoolId();\n            investors[poolId].push(subscription);\n            emit subscribers(poolId, party, counterparty, securityTraded, currencySettled, amount, subscription.price, ref, tradeToSettle.DPID, block.timestamp);\n            trades[tradeToSettle.DPID].push(ref);\n            if(products.getDP(securityTraded)==address(0x0)) //if the issue is not managed\n                setSettlement(ref, \"Confirm\");\n        }\n    }\n    \n    /**\n        Fetches trade settlement requests for depository participant\n        @param  dpid         identifier of depository participant (eg, transfer agent) that is authorized to settle the asset \n     */\n    function getSettlementRequests(bytes32 dpid, bytes32 poolId) override external view onlyIssueManager(msg.sender, poolSecurity[poolId]) returns(bytes32[] memory){\n        /*if(poolId!=\"\"){\n            bytes32[] memory refs = new bytes32[](trades[dpid].length);\n            uint j=0;\n            for(uint256 i=0; i<trades[dpid].length; i++){\n                 IOrder ob = settlements[trades[dpid][i]].orderPool;\n                 bytes32 poolid = ob.getPoolId();\n                 if(poolid==poolId){\n                     refs[j] == trades[dpid][i];\n                     j++;\n                 }\n            }\n            return refs;\n        }\n        else{*/\n            return trades[dpid];\n        //}\n    }\n\n    /**\n        Fetches a specific trade settlement request        \n        @param  ref         reference to the trade\n     */\n    function getSettlementRequest(bytes32 ref) override external view returns(settlement memory){\n        require(ref!=\"\", \"Invalid reference\"); \n        return settlements[ref];\n    }\n    \n    function close(bytes32 poolId) override external onlyIssueManager(msg.sender, poolSecurity[poolId]) {\n        address currency = ISecondaryIssuePool(poolAddress[poolId]).getCurrency(); \n        // exit the pool here   \n        (IERC20[] memory tokens, , ) = IVault(vault).getPoolTokens(poolId);\n        IAsset[] memory assets = _convertERC20sToAssets(tokens);\n        uint256[] memory amountsOut = new uint256[](tokens.length);\n        IVault.ExitPoolRequest memory request = IVault.ExitPoolRequest({\n            assets: assets,\n            minAmountsOut: amountsOut,\n            userData: abi.encode(ExitKind.EXACT_BPT_IN_FOR_TOKENS_OUT, _INITIAL_BPT_SUPPLY - _DEFAULT_MINIMUM_BPT),\n            toInternalBalance: false\n        });         \n        IVault(vault).exitPool(poolId, address(this), payable(address(this)), request);\n        emit closures(poolId, poolSecurity[poolId], block.timestamp);\n        IERC20(currency).transfer(issuer[poolId], IERC20(currency).balanceOf(address(this)));\n        IERC20(poolSecurity[poolId]).transfer(issuer[poolId], IERC20(poolSecurity[poolId]).balanceOf(address(this)));\n    }\n    \n    /**\n        Sets settlement status for trades executed\n        @param  ref         reference to the trade executed\n        @param  status      settlement status\n     */\n    function setSettlementStatus(bytes32 ref, bytes32 status) override external onlyIssueManager(msg.sender, settlements[ref].security){\n        setSettlement(ref, status);\n    }\n    event reject(uint256 consideration, uint256 unitsTransferred);\n    function setSettlement(bytes32 ref, bytes32 status) private {\n        bytes32 DPID = settlements[ref].DPID;\n        bool settled = false;\n        require(status==\"Confirm\" || status==\"Reject\", \"Settlement status invalid\");\n        fee = customFee[settlements[ref].security][settlements[ref].currency]==0 ? FixedPoint.mulDown(settlements[ref].consideration, fee)\n                    : FixedPoint.mulDown(settlements[ref].consideration, customFee[settlements[ref].security][settlements[ref].currency]);\n        uint256 pay = FixedPoint.divDown(fee, _computeScalingFactor(IERC20(settlements[ref].currency)));\n        if(status==\"Confirm\" && settlements[ref].status!=\"Confirm\" && settlements[ref].status!=\"Fail\"){            \n            fees[settlements[ref].currency] = Math.add(fees[settlements[ref].currency], pay);\n            if(IERC20(settlements[ref].currency).transferFrom(settlements[ref].transferor, address(this), pay)){  //seller pays the fee after getting paid from pool          \n                settlements[ref].orderPool.orderFilled(settlements[ref].partyRef, settlements[ref].counterpartyRef, settlements[ref].executionDate);\n                for(uint i=0; i<trades[DPID].length; i++){\n                    if(trades[DPID][i]==ref){\n                        if(i==trades[DPID].length-1)\n                            delete trades[DPID][i];\n                        else\n                            trades[DPID][i] = trades[DPID][i+1];\n                    }\n                }\n                settlements[ref].status = \"Confirm\";    \n                settled = true;            \n            }\n            else{\n                uint256 consideration = _downscaleDown(settlements[ref].consideration, _computeScalingFactor(IERC20(settlements[ref].currency)));\n                settlements[ref].orderPool.revertTrade(settlements[ref].partyRef, settlements[ref].unitsToTransfer, settlements[ref].price);\n                settlements[ref].orderPool.revertTrade(settlements[ref].counterpartyRef, consideration, settlements[ref].price);\n                IERC20(settlements[ref].currency).transferFrom(settlements[ref].transferor, settlements[ref].transferee, consideration);\n                IERC20(settlements[ref].security).transferFrom(settlements[ref].transferee, settlements[ref].transferor, settlements[ref].unitsToTransfer);\n                settlements[ref].status = \"Fail\";\n                settled = true;\n            }\n        }\n        else if(status==\"Reject\" && settlements[ref].status!=\"Reject\"){\n            uint256 consideration = _downscaleDown(settlements[ref].consideration, _computeScalingFactor(IERC20(settlements[ref].currency)));\n            //IERC20(settlements[ref].currency).transferFrom(settlements[ref].transferor, settlements[ref].transferee, consideration);\n            //IERC20(settlements[ref].security).transferFrom(settlements[ref].transferee, settlements[ref].transferor, settlements[ref].unitsToTransfer);\n            emit reject(consideration, settlements[ref].unitsToTransfer);\n            settlements[ref].status = \"Reject\";\n            settled == true;\n        }\n        if(settled){\n            bytes32 poolId = settlements[ref].orderPool.getPoolId();\n            emit tradeSettled(\n                            poolId,\n                            settlements[ref].transferor, \n                            settlements[ref].transferee, \n                            settlements[ref].unitsToTransfer,\n                            settlements[ref].security,\n                            settlements[ref].price,\n                            settlements[ref].currency,\n                            settlements[ref].status,\n                            ref,\n                            pay\n                        );  \n        }          \n    }\n\n    /**\n        Retrieve investors in secondary pools\n        @param  poolId  pool identity\n     */\n    function getSubscribers(bytes32 poolId) override external view onlyIssueManager(msg.sender, poolSecurity[poolId]) returns(ISettlor.subscriptions[] memory){\n        return investors[poolId];\n    }\n\n    /**\n        Gets transfer agent for the security in the trade\n        @param  security  address of security traded\n     */\n    function getTransferAgent(address security) private view returns(bytes32){\n        address dp = products.getDP(security);\n        return(client.getTransferAgent(dp));\n    } \n\n    /**\n        Fetch trading fee collected in Balancer vault\n        @param  _token  address of token in which fee is collected\n     */\n    function getTradingFeeCollected(address _token) override external returns(uint256){\n        require(msg.sender==distribution, \"Unauthorized collection request\");\n        uint256 feeCollected = fees[_token];\n        fees[_token] = Math.sub(fees[_token], feeCollected);\n        IERC20(_token).transfer(distribution, feeCollected);\n        emit feecollection(address(this), feeCollected, block.timestamp);\n        return feeCollected;\n    }   \n\n    /**\n     * @dev This helper function is a fast and cheap way to convert between IERC20[] and IAsset[] types\n     */\n    function _convertERC20sToAssets(IERC20[] memory tokens) internal pure returns (IAsset[] memory assets) {\n        // solhint-disable-next-line no-inline-assembly\n        assembly {\n            assets := tokens\n        }\n    }\n\n    /**\n     * @dev Returns a scaling factor that, when multiplied to a token amount for `token`, normalizes its balance as if\n     * it had 18 decimals.\n     */\n    function _computeScalingFactor(IERC20 token) internal view returns (uint256) {\n        // Tokens that don't implement the `decimals` method are not supported.\n        uint256 tokenDecimals = ERC20(address(token)).decimals();\n\n        // Tokens with more than 18 decimals are not supported.\n        uint256 decimalsDifference = Math.sub(18, tokenDecimals);\n        return FixedPoint.ONE * 10**decimalsDifference;\n    }\n\n    /**\n     * @dev Reverses the `scalingFactor` applied to `amount`, resulting in a smaller or equal value depending on\n     * whether it needed scaling or not. The result is rounded down.\n     */\n    function _downscaleDown(uint256 amount, uint256 scalingFactor) internal pure returns (uint256) {\n        return FixedPoint.divDown(amount, scalingFactor);\n    }\n\n    /**\n     * @dev Applies `scalingFactor` to `amount`, resulting in a larger or equal value depending on whether it needed\n     * scaling or not.\n     */\n    function _upscale(uint256 amount, uint256 scalingFactor) internal pure returns (uint256) {\n        // Upscale rounding wouldn't necessarily always go in the same direction: in a swap for example the balance of\n        // token in should be rounded up, and that of token out rounded down. This is the only place where we round in\n        // the same direction for all amounts, as the impact of this rounding is expected to be minimal (and there's no\n        // rounding error unless `_scalingFactor()` is overriden).\n        return FixedPoint.mulDown(amount, scalingFactor);\n    }\n\n}",
  "sourcePath": "D:\\Code\\verified-balancer\\contracts\\SecondaryIssueManager.sol",
  "compiler": {
    "name": "solc",
    "version": "0.7.1+commit.f4a555be.Emscripten.clang"
  },
  "schemaVersion": "3.4.3",
  "updatedAt": "2023-05-01T16:32:52.643Z",
  "devdoc": {
    "kind": "dev",
    "methods": {
      "getSettlementRequest(bytes32)": {
        "params": {
          "ref": "reference to the trade"
        }
      },
      "getSettlementRequests(bytes32,bytes32)": {
        "params": {
          "dpid": "identifier of depository participant (eg, transfer agent) that is authorized to settle the asset "
        }
      },
      "getSubscribers(bytes32)": {
        "params": {
          "poolId": "pool identity"
        }
      },
      "getTradingFeeCollected(address)": {
        "params": {
          "_token": "address of token in which fee is collected"
        }
      },
      "initialize(address,uint256,address,address,address,address)": {
        "params": {
          "_client": "address of Verified client contract",
          "_factory": "reference to the secondary issue pool factory contract",
          "_issueFeePercentage": "percentage of trading fee to be charged by the asset manager",
          "_vault": "address of balancer vault"
        }
      },
      "issueSecondary(address,address,uint256,uint256,uint256)": {
        "params": {
          "cashAmount": "amount of currency issued in pool",
          "currency": "reference to cash (settlement) token",
          "minSecurityOrder": "minimum order size of securities issued in pool",
          "security": "reference to asset issued",
          "securityAmount": "amount of security to issue"
        }
      },
      "owner()": {
        "details": "Returns the address of the current owner."
      },
      "renounceOwnership()": {
        "details": "Leaves the contract without owner. It will not be possible to call `onlyOwner` functions anymore. Can only be called by the current owner. NOTE: Renouncing ownership will leave the contract without an owner, thereby removing any functionality that is only available to the owner."
      },
      "requestSettlement((address,bytes32,bytes32,uint256,uint256,uint256),address)": {
        "params": {
          "tradeToReport": "data structure holding order matching data"
        }
      },
      "setSettlementStatus(bytes32,bytes32)": {
        "params": {
          "ref": "reference to the trade executed",
          "status": "settlement status"
        }
      },
      "transferOwnership(address)": {
        "details": "Transfers ownership of the contract to a new account (`newOwner`). Can only be called by the current owner."
      }
    },
    "version": 1
  },
  "userdoc": {
    "kind": "user",
    "methods": {
      "getSettlementRequest(bytes32)": {
        "notice": "Fetches a specific trade settlement request        "
      },
      "getSettlementRequests(bytes32,bytes32)": {
        "notice": "Fetches trade settlement requests for depository participant"
      },
      "getSubscribers(bytes32)": {
        "notice": "Retrieve investors in secondary pools"
      },
      "getTradingFeeCollected(address)": {
        "notice": "Fetch trading fee collected in Balancer vault"
      },
      "initialize(address,uint256,address,address,address,address)": {
        "notice": "Initializes this asset management contract"
      },
      "issueSecondary(address,address,uint256,uint256,uint256)": {
        "notice": "Joins existing (secondary) tokenized assets into pool by primary issue token holders"
      },
      "requestSettlement((address,bytes32,bytes32,uint256,uint256,uint256),address)": {
        "notice": "Used by Secondary pools to request settlement for trades"
      },
      "setSettlementStatus(bytes32,bytes32)": {
        "notice": "Sets settlement status for trades executed"
      }
    },
    "version": 1
  }
}