{
  "contractName": "SecondaryIssueManager",
  "abi": [
    {
      "anonymous": false,
      "inputs": [
        {
          "indexed": true,
          "internalType": "address",
          "name": "previousOwner",
          "type": "address"
        },
        {
          "indexed": true,
          "internalType": "address",
          "name": "newOwner",
          "type": "address"
        }
      ],
      "name": "OwnershipTransferred",
      "type": "event"
    },
    {
      "anonymous": false,
      "inputs": [
        {
          "indexed": false,
          "internalType": "uint256",
          "name": "consideration",
          "type": "uint256"
        },
        {
          "indexed": false,
          "internalType": "uint256",
          "name": "fee",
          "type": "uint256"
        },
        {
          "indexed": false,
          "internalType": "uint256",
          "name": "toPay",
          "type": "uint256"
        }
      ],
      "name": "payFees",
      "type": "event"
    },
    {
      "anonymous": false,
      "inputs": [
        {
          "indexed": false,
          "internalType": "address",
          "name": "platform",
          "type": "address"
        },
        {
          "indexed": false,
          "internalType": "bytes32",
          "name": "poolId",
          "type": "bytes32"
        },
        {
          "indexed": false,
          "internalType": "address",
          "name": "party",
          "type": "address"
        },
        {
          "indexed": false,
          "internalType": "address",
          "name": "counterparty",
          "type": "address"
        },
        {
          "indexed": true,
          "internalType": "address",
          "name": "securityTraded",
          "type": "address"
        },
        {
          "indexed": false,
          "internalType": "address",
          "name": "currencySettled",
          "type": "address"
        },
        {
          "indexed": false,
          "internalType": "uint256",
          "name": "amount",
          "type": "uint256"
        },
        {
          "indexed": false,
          "internalType": "uint256",
          "name": "price",
          "type": "uint256"
        },
        {
          "indexed": false,
          "internalType": "bytes32",
          "name": "tradeRef",
          "type": "bytes32"
        },
        {
          "indexed": false,
          "internalType": "bytes32",
          "name": "transferorDPID",
          "type": "bytes32"
        },
        {
          "indexed": false,
          "internalType": "bytes32",
          "name": "transfereeDPID",
          "type": "bytes32"
        }
      ],
      "name": "subscribers",
      "type": "event"
    },
    {
      "anonymous": false,
      "inputs": [
        {
          "indexed": false,
          "internalType": "address",
          "name": "transferor",
          "type": "address"
        },
        {
          "indexed": false,
          "internalType": "address",
          "name": "transferee",
          "type": "address"
        },
        {
          "indexed": false,
          "internalType": "uint256",
          "name": "unitsToTransfer",
          "type": "uint256"
        },
        {
          "indexed": true,
          "internalType": "address",
          "name": "security",
          "type": "address"
        },
        {
          "indexed": false,
          "internalType": "uint256",
          "name": "price",
          "type": "uint256"
        },
        {
          "indexed": false,
          "internalType": "address",
          "name": "currency",
          "type": "address"
        }
      ],
      "name": "tradeSettled",
      "type": "event"
    },
    {
      "inputs": [],
      "name": "owner",
      "outputs": [
        {
          "internalType": "address",
          "name": "",
          "type": "address"
        }
      ],
      "stateMutability": "view",
      "type": "function"
    },
    {
      "inputs": [],
      "name": "renounceOwnership",
      "outputs": [],
      "stateMutability": "nonpayable",
      "type": "function"
    },
    {
      "inputs": [
        {
          "internalType": "address",
          "name": "newOwner",
          "type": "address"
        }
      ],
      "name": "transferOwnership",
      "outputs": [],
      "stateMutability": "nonpayable",
      "type": "function"
    },
    {
      "inputs": [
        {
          "internalType": "address",
          "name": "_factory",
          "type": "address"
        },
        {
          "internalType": "uint256",
          "name": "_issueFeePercentage",
          "type": "uint256"
        },
        {
          "internalType": "address",
          "name": "_client",
          "type": "address"
        },
        {
          "internalType": "address",
          "name": "_vault",
          "type": "address"
        },
        {
          "internalType": "address",
          "name": "_distribution",
          "type": "address"
        },
        {
          "internalType": "address",
          "name": "_products",
          "type": "address"
        }
      ],
      "name": "initialize",
      "outputs": [],
      "stateMutability": "nonpayable",
      "type": "function"
    },
    {
      "inputs": [
        {
          "internalType": "address",
          "name": "_signer",
          "type": "address"
        }
      ],
      "name": "setSigner",
      "outputs": [],
      "stateMutability": "nonpayable",
      "type": "function"
    },
    {
      "inputs": [
        {
          "internalType": "address",
          "name": "security",
          "type": "address"
        },
        {
          "internalType": "address",
          "name": "currency",
          "type": "address"
        },
        {
          "internalType": "uint256",
          "name": "securityAmount",
          "type": "uint256"
        },
        {
          "internalType": "uint256",
          "name": "minSecurityOrder",
          "type": "uint256"
        },
        {
          "internalType": "uint256",
          "name": "cashAmount",
          "type": "uint256"
        }
      ],
      "name": "issueSecondary",
      "outputs": [],
      "stateMutability": "nonpayable",
      "type": "function"
    },
    {
      "inputs": [
        {
          "components": [
            {
              "internalType": "bytes32",
              "name": "partyRef",
              "type": "bytes32"
            },
            {
              "internalType": "address",
              "name": "partyAddress",
              "type": "address"
            },
            {
              "internalType": "bytes32",
              "name": "counterpartyRef",
              "type": "bytes32"
            },
            {
              "internalType": "uint256",
              "name": "price",
              "type": "uint256"
            },
            {
              "internalType": "uint256",
              "name": "dt",
              "type": "uint256"
            },
            {
              "internalType": "uint256",
              "name": "securityTraded",
              "type": "uint256"
            },
            {
              "internalType": "uint256",
              "name": "currencyTraded",
              "type": "uint256"
            }
          ],
          "internalType": "struct ITrade.trade",
          "name": "tradeToReport",
          "type": "tuple"
        },
        {
          "internalType": "contract IOrder",
          "name": "orderbook",
          "type": "address"
        }
      ],
      "name": "requestSettlement",
      "outputs": [],
      "stateMutability": "nonpayable",
      "type": "function"
    },
    {
      "inputs": [
        {
          "internalType": "bytes32",
          "name": "dpid",
          "type": "bytes32"
        },
        {
          "internalType": "bytes32",
          "name": "poolId",
          "type": "bytes32"
        }
      ],
      "name": "getSettlementRequests",
      "outputs": [
        {
          "internalType": "bytes32[]",
          "name": "",
          "type": "bytes32[]"
        }
      ],
      "stateMutability": "view",
      "type": "function"
    },
    {
      "inputs": [
        {
          "internalType": "bytes32",
          "name": "ref",
          "type": "bytes32"
        }
      ],
      "name": "getSettlementRequest",
      "outputs": [
        {
          "components": [
            {
              "internalType": "address",
              "name": "transferor",
              "type": "address"
            },
            {
              "internalType": "address",
              "name": "transferee",
              "type": "address"
            },
            {
              "internalType": "address",
              "name": "security",
              "type": "address"
            },
            {
              "internalType": "bytes32",
              "name": "status",
              "type": "bytes32"
            },
            {
              "internalType": "bytes32",
              "name": "transferorDPID",
              "type": "bytes32"
            },
            {
              "internalType": "bytes32",
              "name": "transfereeDPID",
              "type": "bytes32"
            },
            {
              "internalType": "address",
              "name": "currency",
              "type": "address"
            },
            {
              "internalType": "uint256",
              "name": "price",
              "type": "uint256"
            },
            {
              "internalType": "uint256",
              "name": "askprice",
              "type": "uint256"
            },
            {
              "internalType": "uint256",
              "name": "unitsToTransfer",
              "type": "uint256"
            },
            {
              "internalType": "uint256",
              "name": "consideration",
              "type": "uint256"
            },
            {
              "internalType": "uint256",
              "name": "executionDate",
              "type": "uint256"
            },
            {
              "internalType": "contract IOrder",
              "name": "orderPool",
              "type": "address"
            },
            {
              "internalType": "bytes32",
              "name": "partyRef",
              "type": "bytes32"
            },
            {
              "internalType": "bytes32",
              "name": "counterpartyRef",
              "type": "bytes32"
            }
          ],
          "internalType": "struct ISettlor.settlement",
          "name": "",
          "type": "tuple"
        }
      ],
      "stateMutability": "view",
      "type": "function"
    },
    {
      "inputs": [
        {
          "internalType": "bytes32",
          "name": "ref",
          "type": "bytes32"
        },
        {
          "internalType": "bytes32",
          "name": "status",
          "type": "bytes32"
        }
      ],
      "name": "setSettlementStatus",
      "outputs": [],
      "stateMutability": "nonpayable",
      "type": "function"
    },
    {
      "inputs": [
        {
          "internalType": "bytes32",
          "name": "poolId",
          "type": "bytes32"
        }
      ],
      "name": "getSubscribers",
      "outputs": [
        {
          "components": [
            {
              "internalType": "address",
              "name": "investor",
              "type": "address"
            },
            {
              "internalType": "address",
              "name": "asset",
              "type": "address"
            },
            {
              "internalType": "address",
              "name": "currency",
              "type": "address"
            },
            {
              "internalType": "uint256",
              "name": "amount",
              "type": "uint256"
            },
            {
              "internalType": "uint256",
              "name": "price",
              "type": "uint256"
            }
          ],
          "internalType": "struct ISettlor.subscriptions[]",
          "name": "",
          "type": "tuple[]"
        }
      ],
      "stateMutability": "view",
      "type": "function"
    },
    {
      "inputs": [
        {
          "internalType": "bytes32",
          "name": "ref",
          "type": "bytes32"
        }
      ],
      "name": "getTrade",
      "outputs": [
        {
          "internalType": "uint256",
          "name": "",
          "type": "uint256"
        },
        {
          "internalType": "uint256",
          "name": "",
          "type": "uint256"
        }
      ],
      "stateMutability": "view",
      "type": "function"
    },
    {
      "inputs": [
        {
          "internalType": "address",
          "name": "_token",
          "type": "address"
        }
      ],
      "name": "getTradingFeeCollected",
      "outputs": [
        {
          "internalType": "uint256",
          "name": "",
          "type": "uint256"
        }
      ],
      "stateMutability": "nonpayable",
      "type": "function"
    }
  ],
  "bytecode": "0x608060405234801561001057600080fd5b50600080546001600160a01b0319163390811782556040519091907f8be0079c531659141344cd1fd0a4f28419497f9722a3daafe3b4186f6b6457e0908290a36131328061005f6000396000f3fe608060405234801561001057600080fd5b50600436106100cf5760003560e01c806379a7dc0e1161008c578063a3b1379911610066578063a3b137991461019b578063bfa0caa7146101bc578063c9fca3c7146101dc578063f2fde38b146101fc576100cf565b806379a7dc0e146101535780638da5cb5b14610173578063a2dc2ab714610188576100cf565b806304967159146100d457806304aec4f9146100e957806306d53a93146100fc5780632d9167461461010f5780636c19e78314610138578063715018a61461014b575b600080fd5b6100e76100e236600461273f565b61020f565b005b6100e76100f73660046128d8565b61091e565b6100e761010a36600461255b565b611134565b61012261011d366004612523565b6119a0565b60405161012f9190612b8b565b60405180910390f35b6100e7610146366004612523565b611aa7565b6100e7611ae7565b61016661016136600461270f565b611b3d565b60405161012f9190612f78565b61017b611c2c565b60405161012f9190612a11565b6100e76101963660046125ab565b611c3b565b6101ae6101a936600461270f565b611cad565b60405161012f929190612a03565b6101cf6101ca36600461270f565b611cca565b60405161012f9190612b02565b6101ef6101ea36600461273f565b611ed2565b60405161012f9190612abe565b6100e761020a366004612523565b611fe3565b600a54604051634427673360e01b815260009182916001600160a01b0390911690634427673390610244903390600401612a11565b60606040518083038186803b15801561025c57600080fd5b505afa158015610270573d6000803e3d6000fd5b505050506040513d601f19601f820116820180604052508101906102949190612760565b50915091508161044560f41b146102c65760405162461bcd60e51b81526004016102bd90612df7565b60405180910390fd5b600084815260046020819052604090912090810154600590910154828214806102ee57508083145b61030a5760405162461bcd60e51b81526004016102bd90612d06565b8466436f6e6669726d60c81b148061032a5750846514995a9958dd60d21b145b6103465760405162461bcd60e51b81526004016102bd90612d57565b6000868152600460205260408120600a8101546006909101546103b49161038b91610383919061037e906001600160a01b0316612061565b6120fc565b60035461210f565b6000898152600460205260409020600601546103af906001600160a01b0316612061565b612133565b90508566436f6e6669726d60c81b1480156103ea575060008781526004602052604090206003015466436f6e6669726d60c81b14155b801561040e57506000878152600460205260409020600301546311985a5b60e21b14155b15610551576000878152600460209081526040808320600601546001600160a01b031683526009909152902054610445908261213f565b600088815260046020818152604080842060068101546001600160a01b031685526009835281852095909555928b905252600a9091015460035491517f2c12bee2b721b184f53454a63a5d1e0435e8ecd2429bbd55093350dc18819ef3926104af9291859061304b565b60405180910390a160008781526004602081905260409182902060060154915163095ea7b360e01b81526001600160a01b039092169163095ea7b3916104f9913091869101612aa5565b602060405180830381600087803b15801561051357600080fd5b505af1158015610527573d6000803e3d6000fd5b505050506040513d601f19601f8201168201806040525081019061054b91906126ef565b50610915565b856514995a9958dd60d21b141561091557600087815260046020819052604091829020600c810154600d8201546009830154600b9093015494516315e319fb60e31b81526001600160a01b039092169463af18cfd8946105b79492936001929101612c65565b600060405180830381600087803b1580156105d157600080fd5b505af11580156105e5573d6000803e3d6000fd5b5050506000888152600460208190526040808320600c810154600e820154600a830154600b9093015493516315e319fb60e31b81526001600160a01b03909216965063af18cfd89561063d9591949092909101612c65565b600060405180830381600087803b15801561065757600080fd5b505af115801561066b573d6000803e3d6000fd5b5050506000888152600460208190526040918290206006810154600a90910154925163095ea7b360e01b81526001600160a01b03909116935063095ea7b3926106b692309201612aa5565b602060405180830381600087803b1580156106d057600080fd5b505af11580156106e4573d6000803e3d6000fd5b505050506040513d601f19601f8201168201806040525081019061070891906126ef565b506000878152600460208190526040918290206002810154600990910154925163095ea7b360e01b81526001600160a01b039091169263095ea7b3926107519230929101612aa5565b602060405180830381600087803b15801561076b57600080fd5b505af115801561077f573d6000803e3d6000fd5b505050506040513d601f19601f820116820180604052508101906107a391906126ef565b50600087815260046020819052604091829020600681015481546001830154600a9093015494516323b872dd60e01b81526001600160a01b03928316956323b872dd956107fa959385169490931692909101612a25565b602060405180830381600087803b15801561081457600080fd5b505af1158015610828573d6000803e3d6000fd5b505050506040513d601f19601f8201168201806040525081019061084c91906126ef565b5060008781526004602081905260409182902060028101546001820154825460099093015494516323b872dd60e01b81526001600160a01b03928316956323b872dd956108a3959385169490931692909101612a25565b602060405180830381600087803b1580156108bd57600080fd5b505af11580156108d1573d6000803e3d6000fd5b505050506040513d601f19601f820116820180604052508101906108f591906126ef565b5060008781526004602052604090206514995a9958dd60d21b6003909101555b50505050505050565b3360009081526006602052604090205461094a5760405162461bcd60e51b81526004016102bd90612e92565b610952612347565b8251604051632bbc239560e11b81526001600160a01b03841691635778472a9161097f9190600401612b8b565b6101406040518083038186803b15801561099857600080fd5b505afa1580156109ac573d6000803e3d6000fd5b505050506040513d601f19601f820116820180604052508101906109d09190612819565b90506109da612347565b6040808501519051632bbc239560e11b81526001600160a01b03851691635778472a91610a0a9190600401612b8b565b6101406040518083038186803b158015610a2357600080fd5b505afa158015610a37573d6000803e3d6000fd5b505050506040513d601f19601f82011682018060405250810190610a5b9190612819565b90506000836001600160a01b0316632541897f6040518163ffffffff1660e01b815260040160206040518083038186803b158015610a9857600080fd5b505afa158015610aac573d6000803e3d6000fd5b505050506040513d601f19601f82011682018060405250810190610ad0919061253f565b90506000846001600160a01b0316636945c1fd6040518163ffffffff1660e01b815260040160206040518083038186803b158015610b0d57600080fd5b505afa158015610b21573d6000803e3d6000fd5b505050506040513d601f19601f82011682018060405250810190610b45919061253f565b90506000826001600160a01b031685602001516001600160a01b03161480610b825750816001600160a01b031685604001516001600160a01b0316145b610b90578360e00151610b96565b8460e001515b90506000826001600160a01b031685602001516001600160a01b03161480610bd35750836001600160a01b031685604001516001600160a01b0316145b610be1578560e00151610be7565b8460e001515b60a08901519091506000610bfa84612151565b90506000610c0784612151565b9050610c1161239e565b604051806101e00160405280876001600160a01b03168152602001866001600160a01b03168152602001896001600160a01b031681526020016650656e64696e6760c81b8152602001838152602001848152602001886001600160a01b031681526020018d606001518152602001610cb7896001600160a01b03168d602001516001600160a01b031614610ca9578e60a00151610caf565b8e60c001515b8760006121d1565b81526020018581526020018d60c0015181526020018d6080015181526020018c6001600160a01b03168152602001896001600160a01b03168c602001516001600160a01b03161480610d1e5750886001600160a01b03168c604001516001600160a01b0316145b610d2c578d60400151610d2f565b8d515b8152602001886001600160a01b03168b602001516001600160a01b03161480610d6d5750896001600160a01b03168b604001516001600160a01b0316145b610d78578d51610d7e565b8d604001515b815250905060008c600001518d60400151604051602001610da0929190612a03565b60408051601f198184030181529181528151602092830120600081815260049093529120549091506001600160a01b031661112557600081815260046020818152604092839020855181546001600160a01b03199081166001600160a01b039283161783559287015160018301805485169183169190911790559386015160028201805484169186169190911790556060860151600382015560808601519281019290925560a0850151600583015560c0850151600683018054831691851691909117905560e0850151600783015561010085015160088301556101208501516009830155610140850151600a830155610160850151600b830155610180850151600c830180549092169316929092179091556101a0830151600d8201556101c0830151600e90910155610ed261241a565b6040518060a00160405280886001600160a01b031681526020018b6001600160a01b031681526020018a6001600160a01b031681526020018781526020018f60600151815250905060008d6001600160a01b03166338fff2d06040518163ffffffff1660e01b815260040160206040518083038186803b158015610f5557600080fd5b505afa158015610f69573d6000803e3d6000fd5b505050506040513d601f19601f82011682018060405250810190610f8d9190612727565b90506008600082815260200190815260200160002082908060018154018082558091505060019003906000526020600020906005020160009091909190915060008201518160000160006101000a8154816001600160a01b0302191690836001600160a01b0316021790555060208201518160010160006101000a8154816001600160a01b0302191690836001600160a01b0316021790555060408201518160020160006101000a8154816001600160a01b0302191690836001600160a01b03160217905550606082015181600301556080820151816004015550508a6001600160a01b03167fbc9eb1cb09b666542f20e5a0ff81567b379b2f46229dba2d27b879279395c94d30838c8c8f8d89608001518b8d608001518e60a001516040516110c09a99989796959493929190612a49565b60405180910390a260808401805160009081526005602090815260408220805460018101825590835291200184905560a08501519051146111225760a08401516000908152600560209081526040822080546001810182559083529120018390555b50505b50505050505050505050505050565b600a54604051634427673360e01b81526000916001600160a01b031690634427673390611165903390600401612a11565b60606040518083038186803b15801561117d57600080fd5b505afa158015611191573d6000803e3d6000fd5b505050506040513d601f19601f820116820180604052508101906111b59190612760565b5050905083866001600160a01b03166370a08231336040518263ffffffff1660e01b81526004016111e69190612a11565b60206040518083038186803b1580156111fe57600080fd5b505afa158015611212573d6000803e3d6000fd5b505050506040513d601f19601f820116820180604052508101906112369190612727565b101580156112445750828410155b80156112cc57506040516370a0823160e01b815282906001600160a01b038716906370a0823190611279903390600401612a11565b60206040518083038186803b15801561129157600080fd5b505afa1580156112a5573d6000803e3d6000fd5b505050506040513d601f19601f820116820180604052508101906112c99190612727565b10155b80156112ed57508061044560f41b14806112ed5750806420b236b4b760d91b145b6113095760405162461bcd60e51b81526004016102bd90612e44565b6040516323b872dd60e01b81526001600160a01b038616906323b872dd9061133990339030908790600401612a25565b602060405180830381600087803b15801561135357600080fd5b505af1158015611367573d6000803e3d6000fd5b505050506040513d601f19601f8201168201806040525081019061138b91906126ef565b506040516323b872dd60e01b81526001600160a01b038716906323b872dd906113bc90339030908990600401612a25565b602060405180830381600087803b1580156113d657600080fd5b505af11580156113ea573d6000803e3d6000fd5b505050506040513d601f19601f8201168201806040525081019061140e91906126ef565b506000600160009054906101000a90046001600160a01b03166001600160a01b03166374dcc7a4886001600160a01b03166306fdde036040518163ffffffff1660e01b815260040160006040518083038186803b15801561146e57600080fd5b505afa158015611482573d6000803e3d6000fd5b505050506040513d6000823e601f3d908101601f191682016040526114aa919081019061278d565b896001600160a01b03166395d89b416040518163ffffffff1660e01b815260040160006040518083038186803b1580156114e357600080fd5b505afa1580156114f7573d6000803e3d6000fd5b505050506040513d6000823e601f3d908101601f1916820160405261151f919081019061278d565b8a8a896003546040518763ffffffff1660e01b815260040161154696959493929190612cb2565b602060405180830381600087803b15801561156057600080fd5b505af1158015611574573d6000803e3d6000fd5b505050506040513d601f19601f82011682018060405250810190611598919061253f565b90506000816001600160a01b03166338fff2d06040518163ffffffff1660e01b815260040160206040518083038186803b1580156115d557600080fd5b505afa1580156115e9573d6000803e3d6000fd5b505050506040513d601f19601f8201168201806040525081019061160d9190612727565b600081815260076020908152604080832080546001600160a01b0319166001600160a01b038e81169190911790915586811684526006909252918290208390556002549151631f29a8cd60e31b815292935060609291169063f94d466890611679908590600401612b8b565b60006040518083038186803b15801561169157600080fd5b505afa1580156116a5573d6000803e3d6000fd5b505050506040513d6000823e601f3d908101601f191682016040526116cd9190810190612623565b5050905060606116dc826121f9565b90506060825167ffffffffffffffff811180156116f857600080fd5b50604051908082528060200260200182016040528015611722578160200160208202803683370190505b5060025460405163095ea7b360e01b81529192506001600160a01b03808d169263095ea7b3926117589216908b90600401612aa5565b602060405180830381600087803b15801561177257600080fd5b505af1158015611786573d6000803e3d6000fd5b505050506040513d601f19601f820116820180604052508101906117aa91906126ef565b5060025460405163095ea7b360e01b81526001600160a01b038d81169263095ea7b3926117df92909116908d90600401612aa5565b602060405180830381600087803b1580156117f957600080fd5b505af115801561180d573d6000803e3d6000fd5b505050506040513d601f19601f8201168201806040525081019061183191906126ef565b5060005b83518110156118d8578b6001600160a01b031684828151811061185457fe5b60200260200101516001600160a01b03161415611889578982828151811061187857fe5b6020026020010181815250506118d0565b8a6001600160a01b031684828151811061189f57fe5b60200260200101516001600160a01b031614156118d057878282815181106118c357fe5b6020026020010181815250505b600101611835565b506118e1612448565b604051806080016040528084815260200183815260200160008460405160200161190c929190612c8f565b60408051808303601f190181529181529082526000602090920191909152600254905163172b958560e31b81529192506001600160a01b03169063b95cac2890611960908890309081908790600401612b94565b600060405180830381600087803b15801561197a57600080fd5b505af115801561198e573d6000803e3d6000fd5b50505050505050505050505050505050565b600d546000906001600160a01b031633146119cd5760405162461bcd60e51b81526004016102bd90612f35565b6001600160a01b038083166000818152600960205260409081902054600d54915163a9059cbb60e01b8152909363a9059cbb92611a11929116908590600401612aa5565b602060405180830381600087803b158015611a2b57600080fd5b505af1158015611a3f573d6000803e3d6000fd5b505050506040513d601f19601f82011682018060405250810190611a6391906126ef565b506001600160a01b038316600090815260096020526040902054611a8790826121fc565b6001600160a01b0384166000908152600960205260409020559050919050565b611ac533611ab3611c2c565b6001600160a01b0316146101aa612212565b600c80546001600160a01b0319166001600160a01b0392909216919091179055565b611af333611ab3611c2c565b600080546040516001600160a01b03909116907f8be0079c531659141344cd1fd0a4f28419497f9722a3daafe3b4186f6b6457e0908390a3600080546001600160a01b0319169055565b611b4561239e565b81611b625760405162461bcd60e51b81526004016102bd90612d8e565b5060009081526004602081815260409283902083516101e08101855281546001600160a01b0390811682526001830154811693820193909352600282015483169481019490945260038101546060850152918201546080840152600582015460a08401526006820154811660c0840152600782015460e084015260088201546101008401526009820154610120840152600a820154610140840152600b820154610160840152600c82015416610180830152600d8101546101a0830152600e01546101c082015290565b6000546001600160a01b031690565b611c4733611ab3611c2c565b600180546001600160a01b03199081166001600160a01b0398891617909155600395909555600a805486169487169490941790935560028054851692861692909217909155600b8054841692851692909217909155600d80549092169216919091179055565b600090815260046020526040902060078101546008909101549091565b600a54604051634427673360e01b81526060916000916001600160a01b0390911690634427673390611d00903390600401612a11565b60606040518083038186803b158015611d1857600080fd5b505afa158015611d2c573d6000803e3d6000fd5b505050506040513d601f19601f82011682018060405250810190611d509190612760565b505090508061044560f41b1480611d6e5750806420b236b4b760d91b145b80611e135750600b546000848152600760205260409081902054905163335d71f560e21b815233926001600160a01b039081169263cd75c7d492611db89290911690600401612a11565b60206040518083038186803b158015611dd057600080fd5b505afa158015611de4573d6000803e3d6000fd5b505050506040513d601f19601f82011682018060405250810190611e08919061253f565b6001600160a01b0316145b611e2f5760405162461bcd60e51b81526004016102bd90612ed8565b600083815260086020908152604080832080548251818502810185019093528083529193909284015b82821015611ec65760008481526020908190206040805160a0810182526005860290920180546001600160a01b039081168452600180830154821685870152600283015490911692840192909252600381015460608401526004015460808301529083529092019101611e58565b50505050915050919050565b600a54604051634427673360e01b81526060916000916001600160a01b0390911690634427673390611f08903390600401612a11565b60606040518083038186803b158015611f2057600080fd5b505afa158015611f34573d6000803e3d6000fd5b505050506040513d601f19601f82011682018060405250810190611f589190612760565b505090508061044560f41b14611f805760405162461bcd60e51b81526004016102bd90612d8e565b60008481526005602090815260409182902080548351818402810184019094528084529091830182828015611fd457602002820191906000526020600020905b815481526020019060010190808311611fc0575b50505050509150505b92915050565b611fef33611ab3611c2c565b6120066001600160a01b03821615156101ab612212565b600080546040516001600160a01b03808516939216917f8be0079c531659141344cd1fd0a4f28419497f9722a3daafe3b4186f6b6457e091a3600080546001600160a01b0319166001600160a01b0392909216919091179055565b600080826001600160a01b031663313ce5676040518163ffffffff1660e01b815260040160206040518083038186803b15801561209d57600080fd5b505afa1580156120b1573d6000803e3d6000fd5b505050506040513d601f19601f820116820180604052508101906120d59190612969565b60ff16905060006120e76012836121fc565b600a0a670de0b6b3a764000002949350505050565b60006121088383612224565b9392505050565b600082820261210884158061212c57508385838161212957fe5b04145b6003612212565b60006121088383612250565b60008282016121088482101583612212565b600a5460405162157d5560e61b81526000916001600160a01b03169063055f554090612181908590600401612a11565b60206040518083038186803b15801561219957600080fd5b505afa1580156121ad573d6000803e3d6000fd5b505050506040513d601f19601f82011682018060405250810190611fdd9190612727565b6000816121e7576121e284846122a1565b6121f1565b6121f184846122c1565b949350505050565b90565b600061220c838311156001612212565b50900390565b8161222057612220816122f4565b5050565b600082820261223e84158061212c57508385838161212957fe5b670de0b6b3a764000090049392505050565b600061225f8215156004612212565b8261226c57506000611fdd565b670de0b6b3a76400008381029061228f9085838161228657fe5b04146005612212565b82818161229857fe5b04915050611fdd565b60006122b08215156004612212565b8183816122b957fe5b049392505050565b60006122d08215156004612212565b826122dd57506000611fdd565b8160018403816122e957fe5b046001019050611fdd565b62461bcd60e51b6000908152602060045260076024526642414c23000030600a808404818106603090810160081b95839006959095019082900491820690940160101b939093010160c81b604452606490fd5b60408051610140810190915280600081526000602082018190526040820181905260609091019081526020016000815260200160008152600060208201819052604082018190526060820181905260809091015290565b604080516101e081018252600080825260208201819052918101829052606081018290526080810182905260a0810182905260c0810182905260e08101829052610100810182905261012081018290526101408101829052610160810182905261018081018290526101a081018290526101c081019190915290565b6040805160a08101825260008082526020820181905291810182905260608101829052608081019190915290565b60405180608001604052806060815260200160608152602001606081526020016000151581525090565b8051611fdd816130e4565b600082601f83011261248d578081fd5b81516124a061249b82613088565b613061565b8181529150602080830190848101818402860182018710156124c157600080fd5b60005b848110156124e0578151845292820192908201906001016124c4565b505050505092915050565b8035611fdd816130e4565b805160058110611fdd57600080fd5b805160038110611fdd57600080fd5b805160028110611fdd57600080fd5b600060208284031215612534578081fd5b8135612108816130e4565b600060208284031215612550578081fd5b8151612108816130e4565b600080600080600060a08688031215612572578081fd5b853561257d816130e4565b9450602086013561258d816130e4565b94979496505050506040830135926060810135926080909101359150565b60008060008060008060c087890312156125c3578081fd5b86356125ce816130e4565b95506020870135945060408701356125e5816130e4565b935060608701356125f5816130e4565b92506080870135612605816130e4565b915060a0870135612615816130e4565b809150509295509295509295565b600080600060608486031215612637578081fd5b835167ffffffffffffffff8082111561264e578283fd5b818601915086601f830112612661578283fd5b815161266f61249b82613088565b80828252602080830192508086018b82838702890101111561268f578788fd5b8796505b848710156126ba5780516126a6816130e4565b845260019690960195928101928101612693565b5089015190975093505050808211156126d1578283fd5b506126de8682870161247d565b925050604084015190509250925092565b600060208284031215612700578081fd5b81518015158114612108578182fd5b600060208284031215612720578081fd5b5035919050565b600060208284031215612738578081fd5b5051919050565b60008060408385031215612751578182fd5b50508035926020909101359150565b600080600060608486031215612774578081fd5b8351925060208401519150604084015190509250925092565b60006020828403121561279e578081fd5b815167ffffffffffffffff808211156127b5578283fd5b818401915084601f8301126127c8578283fd5b8151818111156127d6578384fd5b6127e9601f8201601f1916602001613061565b91508082528560208285010111156127ff578384fd5b6128108160208401602086016130b4565b50949350505050565b600061014080838503121561282c578182fd5b61283581613061565b90506128418484612514565b81526128508460208501612472565b60208201526128628460408501612472565b60408201526128748460608501612505565b60608201526128868460808501612514565b60808201526128988460a085016124f6565b60a082015260c083015160c08201526128b48460e08501612472565b60e08201526101008381015190820152610120928301519281019290925250919050565b6000808284036101008112156128ec578283fd5b60e08112156128f9578283fd5b5061290460e0613061565b833581526020840135612916816130e4565b8060208301525060408401356040820152606084013560608201526080840135608082015260a084013560a082015260c084013560c0820152809250506129608460e085016124eb565b90509250929050565b60006020828403121561297a578081fd5b815160ff81168114612108578182fd5b6001600160a01b03169052565b6000815180845260208085019450808401835b838110156129c6578151875295820195908201906001016129aa565b509495945050505050565b15159052565b600081518084526129ef8160208601602086016130b4565b601f01601f19169290920160200192915050565b918252602082015260400190565b6001600160a01b0391909116815260200190565b6001600160a01b039384168152919092166020820152604081019190915260600190565b6001600160a01b039a8b16815260208101999099529689166040890152948816606088015292909616608086015260a085015260c084019490945260e08301939093526101008201929092526101208101919091526101400190565b6001600160a01b03929092168252602082015260400190565b6020808252825182820181905260009190848201906040850190845b81811015612af657835183529284019291840191600101612ada565b50909695505050505050565b602080825282518282018190526000919060409081850190868401855b82811015612b7e57815180516001600160a01b0316855286810151612b468887018261298a565b5085810151612b578787018261298a565b50606081810151908601526080908101519085015260a09093019290850190600101612b1f565b5091979650505050505050565b90815260200190565b8481526001600160a01b038481166020808401919091529084166040830152608060608301819052835181840191909152805161010084018190526000929182019083906101208601905b80831015612c0757612bf184516130a8565b8252928401926001929092019190840190612bdf565b50838701519350607f199250828682030160a0870152612c278185612997565b935050506040850151818584030160c0860152612c4483826129d7565b925050506060840151612c5a60e08501826129d1565b509695505050505050565b848152602081018490526080810160028410612c7d57fe5b60408201939093526060015292915050565b600060048410612c9b57fe5b838252604060208301526121f16040830184612997565b600060c08252612cc560c08301896129d7565b8281036020840152612cd781896129d7565b6001600160a01b03978816604085015295909616606083015250608081019290925260a0909101529392505050565b60208082526031908201527f536574746c656d656e7420646f6e6520627920696e76616c6964206465706f736040820152701a5d185c9e481c185c9d1a58da5c185b9d607a1b606082015260800190565b60208082526019908201527f536574746c656d656e742073746174757320696e76616c696400000000000000604082015260600190565b60208082526043908201527f536574746c656d656e742072657175657374732063616e206f6e6c792062652060408201527f666574636865642062792061206465706f736974617279207061727469636970606082015262185b9d60ea1b608082015260a00190565b6020808252602d908201527f536574746c656d656e74206e6f7420646f6e65206279206465706f736974617260408201526c1e481c185c9d1a58da5c185b9d609a1b606082015260800190565b6020808252602e908201527f556e617574686f72697a65642061636365737320746f207365636f6e6461727960408201526d1034b9b9bab29036b0b730b3b2b960911b606082015260800190565b60208082526026908201527f536574746c656d656e74207265717565737465642066726f6d20696e76616c6960408201526519081c1bdbdb60d21b606082015260800190565b6020808252603a908201527f556e617574686f72697a6564206163636573732076696577696e67207375627360408201527f6372696265727320696e207365636f6e6461727920706f6f6c2e000000000000606082015260800190565b60208082526023908201527f556e617574686f72697a65642066656520636f6c6c656374696f6e2072657175604082015262195cdd60ea1b606082015260800190565b60006101e082019050612f8c82845161298a565b6020830151612f9e602084018261298a565b506040830151612fb1604084018261298a565b50606083015160608301526080830151608083015260a083015160a083015260c0830151612fe260c084018261298a565b5060e0838101519083015261010080840151908301526101208084015190830152610140808401519083015261016080840151908301526101808084015161302c8285018261298a565b50506101a083810151908301526101c092830151929091019190915290565b9283526020830191909152604082015260600190565b60405181810167ffffffffffffffff8111828210171561308057600080fd5b604052919050565b600067ffffffffffffffff82111561309e578081fd5b5060209081020190565b6001600160a01b031690565b60005b838110156130cf5781810151838201526020016130b7565b838111156130de576000848401525b50505050565b6001600160a01b03811681146130f957600080fd5b5056fea26469706673582212202afbc682513a5803e3258575fce53cbcb156f9bfd5e78cf643161fb9b10c7f6d64736f6c63430007010033",
  "immutableReferences": {},
  "source": "// External interface for settlement of trades\n// (c) Kallol Borah, 2022\n// \"SPDX-License-Identifier: BUSL1.1\"\n\npragma solidity 0.7.1;\npragma experimental ABIEncoderV2;\n\nimport \"./interfaces/ISettlor.sol\";\nimport \"./interfaces/IOrder.sol\";\nimport \"./interfaces/ITrade.sol\";\nimport './interfaces/IFactory.sol';\nimport './interfaces/VerifiedClient.sol';\nimport \"./interfaces/ISecondaryIssuePool.sol\";\nimport \"./interfaces/ISecondaryIssuePoolFactory.sol\";\n\nimport \"@balancer-labs/v2-solidity-utils/contracts/math/Math.sol\";\nimport \"@balancer-labs/v2-solidity-utils/contracts/math/FixedPoint.sol\";\nimport \"@balancer-labs/v2-solidity-utils/contracts/openzeppelin/ERC20.sol\";\nimport \"@balancer-labs/v2-solidity-utils/contracts/openzeppelin/IERC20.sol\";\nimport \"@balancer-labs/v2-solidity-utils/contracts/openzeppelin/Ownable.sol\";\n \ncontract SecondaryIssueManager is ISettlor, Ownable {\n\n    using Math for uint256;\n    using FixedPoint for uint256;\n\n    // balancer variables\n    address private factory;    \n\n    address private vault;\n\n    //fee\n    uint256 private fee;\n\n    // mapping settlement ref to trade execution data\n    mapping(bytes32 => ISettlor.settlement) settlements;\n\n    //mapping depository participants to trades they are part of\n    mapping(bytes32 => bytes32[]) private trades;\n\n    //mapping pool address to pool id\n    mapping(address => bytes32) private pools;\n\n    //mapping pool id to security token traded\n    mapping(bytes32 => address) private poolSecurity;\n\n    //mapping pool id to investors\n    mapping(bytes32 => subscriptions[]) internal investors; \n\n    // mapping token address to issuing fee collected\n    mapping(address => uint256) private fees;\n\n    // reference to the Verified Client contract\n    VerifiedClient private client;\n\n    // reference to the Verified factory contract that this asset manager checks security token issues with\n    IFactory private products;\n\n    address private bridge;\n\n    address private distribution;\n\n    event tradeSettled(address transferor,\n                        address transferee,\n                        uint256 unitsToTransfer,\n                        address indexed security,\n                        uint256 price,\n                        address currency\n                    );\n\n    event subscribers(address platform, bytes32 poolId, address party, address counterparty, \n                        address indexed securityTraded, address currencySettled, uint256 amount, uint256 price,\n                        bytes32 tradeRef, bytes32 transferorDPID, bytes32 transfereeDPID);\n\n    /**\n        Initializes this asset management contract\n        @param  _factory            reference to the secondary issue pool factory contract\n        @param  _issueFeePercentage  percentage of trading fee to be charged by the asset manager\n        @param  _client             address of Verified client contract\n        @param  _vault              address of balancer vault\n     */\n    function initialize(address _factory, uint256 _issueFeePercentage, address _client, address _vault, address _distribution, address _products) onlyOwner public {\n        factory = _factory;\n        fee = _issueFeePercentage;\n        client = VerifiedClient(_client);\n        vault = _vault;\n        products = IFactory(_products);\n        distribution = _distribution;\n    }\n\n    function setSigner(address _signer) onlyOwner external{\n        bridge = _signer;\n    }\n\n    /**\n        Joins existing (secondary) tokenized assets into pool by primary issue token holders\n        @param  security            reference to asset issued\n        @param  currency            reference to cash (settlement) token\n        @param  securityAmount      amount of security to issue\n        @param  minSecurityOrder    minimum order size of securities issued in pool\n        @param  cashAmount          amount of currency issued in pool\n     */\n    function issueSecondary(address security, address currency, uint256 securityAmount, uint256 minSecurityOrder, uint256 cashAmount) override external {\n        (bytes32 role, , ) = client.getRole(msg.sender);\n        require((IERC20(security).balanceOf(msg.sender)>=securityAmount && securityAmount>=minSecurityOrder\n                && IERC20(currency).balanceOf(msg.sender)>=cashAmount && (role=='DP' || role=='Admin')), \"Unauthorized access to secondary issue manager\");\n        ERC20(currency).transferFrom(msg.sender, address(this), cashAmount);\n        ERC20(security).transferFrom(msg.sender, address(this), securityAmount);        \n        address pool = ISecondaryIssuePoolFactory(factory).create(\n            ERC20(security).name(),\n            ERC20(security).symbol(),\n            security,\n            currency,\n            minSecurityOrder,\n            fee\n        );                \n        bytes32 poolId = ISecondaryIssuePool(pool).getPoolId();  \n        poolSecurity[poolId] = security; \n        pools[pool] = poolId;\n        // join the pool here                \n        (IERC20[] memory tokens, , ) = IVault(vault).getPoolTokens(poolId);\n        IAsset[] memory assets = _convertERC20sToAssets(tokens);\n        uint256[] memory maxAmountsIn = new uint256[](tokens.length);\n        ERC20(currency).approve(vault, cashAmount);\n        ERC20(security).approve(vault, securityAmount);\n        for (uint256 t; t < tokens.length; t++) {\n            if(tokens[t]==IERC20(security))\n                maxAmountsIn[t] = securityAmount;\n            else if(tokens[t]==IERC20(currency))\n                maxAmountsIn[t] = cashAmount;\n        }\n        IVault.JoinPoolRequest memory request = IVault.JoinPoolRequest({\n            assets: assets,\n            maxAmountsIn: maxAmountsIn,\n            userData: abi.encode(JoinKind.INIT, maxAmountsIn),\n            fromInternalBalance: false\n        });         \n        IVault(vault).joinPool(poolId, address(this), address(this), request);\n    }\n    \n    /**\n        Used by Secondary pools to request settlement for trades\n        @param  tradeToReport     data structure holding order matching data\n     */\n    function requestSettlement(ITrade.trade memory tradeToReport, IOrder orderbook) override external {\n        require(pools[msg.sender]!=\"\", \"Settlement requested from invalid pool\");\n        IOrder.order memory orderByParty = orderbook.getOrder(tradeToReport.partyRef);\n        IOrder.order memory orderByCounterparty = orderbook.getOrder(tradeToReport.counterpartyRef);\n        address securityTraded = orderbook.getSecurity(); \n        address currencySettled = orderbook.getCurrency();\n        address party = orderByParty.tokenIn==securityTraded || orderByParty.tokenOut==currencySettled ? orderByParty.party : orderByCounterparty.party;\n        address counterparty = orderByCounterparty.tokenIn==currencySettled || orderByCounterparty.tokenOut==securityTraded ? orderByCounterparty.party : orderByParty.party;\n        uint256 amount = tradeToReport.securityTraded; //orderByParty.tokenIn==securityTraded ? tradeToReport.securityTraded : tradeToReport.currencyTraded;\n        bytes32 _transfereeDPID = getTransferAgent(party);\n        bytes32 _transferorDPID = getTransferAgent(counterparty);\n        ISettlor.settlement memory tradeToSettle = ISettlor.settlement({\n            transferor: party,\n            transferee: counterparty,\n            security: securityTraded,\n            status: \"Pending\",\n            currency: currencySettled,\n            price: tradeToReport.price,\n            askprice: Math.div(orderByParty.tokenIn==currencySettled ? tradeToReport.currencyTraded : tradeToReport.securityTraded, amount, false),\n            unitsToTransfer: amount,\n            consideration: tradeToReport.currencyTraded,//_downscaleDown(tradeToReport.currencyTraded, _computeScalingFactor(IERC20(currencySettled))), //Math.mul(tradeToReport.price, amount),\n            executionDate: tradeToReport.dt,\n            partyRef: orderByParty.tokenIn==securityTraded || orderByParty.tokenOut==currencySettled ? tradeToReport.partyRef : tradeToReport.counterpartyRef,\n            counterpartyRef: orderByCounterparty.tokenIn==currencySettled || orderByCounterparty.tokenOut==securityTraded ? tradeToReport.counterpartyRef : tradeToReport.partyRef,\n            transferorDPID: _transferorDPID,\n            transfereeDPID: _transfereeDPID,\n            orderPool: orderbook\n        });\n        bytes32 ref = keccak256(abi.encodePacked(tradeToReport.partyRef, tradeToReport.counterpartyRef));\n        if(settlements[ref].transferor==address(0x0)){\n            settlements[ref] = tradeToSettle;\n            ISettlor.subscriptions memory subscription = ISettlor.subscriptions({\n                investor: counterparty,\n                asset: securityTraded,\n                currency: currencySettled, \n                amount: amount,   \n                price: tradeToReport.price\n            });\n            bytes32 poolId = orderbook.getPoolId();\n            //investors[orderbook.getPoolId()].push(ISettlor.subscriptions(counterparty, securityTraded, currencySettled, amount, tradeToReport.price));\n            investors[poolId].push(subscription);\n            emit subscribers(address(this), poolId, party, counterparty, securityTraded, currencySettled, amount, subscription.price, ref, tradeToSettle.transferorDPID, tradeToSettle.transfereeDPID);\n            trades[tradeToSettle.transferorDPID].push(ref);\n            if(tradeToSettle.transferorDPID != tradeToSettle.transfereeDPID)\n                trades[tradeToSettle.transfereeDPID].push(ref);\n        }\n    }\n    \n    /**\n        Fetches trade settlement requests for depository participant\n        @param  dpid         identifier of depository participant (eg, transfer agent) that is authorized to settle the asset \n     */\n    function getSettlementRequests(bytes32 dpid, bytes32 poolId) override external view returns(bytes32[] memory){\n        (bytes32 role, , ) = client.getRole(msg.sender);\n        require(role=='DP', \"Settlement requests can only be fetched by a depositary participant\");\n        /*if(poolId!=\"\"){\n            bytes32[] memory refs = new bytes32[](trades[dpid].length);\n            uint j=0;\n            for(uint256 i=0; i<trades[dpid].length; i++){\n                 IOrder ob = settlements[trades[dpid][i]].orderPool;\n                 bytes32 poolid = ob.getPoolId();\n                 if(poolid==poolId){\n                     refs[j] == trades[dpid][i];\n                     j++;\n                 }\n            }\n            return refs;\n        }\n        else{*/\n            return trades[dpid];\n        //}\n    }\n\n    /**\n        Fetches a specific trade settlement request        \n        @param  ref         reference to the trade\n     */\n    function getSettlementRequest(bytes32 ref) override external view returns(settlement memory){\n        require(ref!=\"\", \"Settlement requests can only be fetched by a depositary participant\"); \n        return settlements[ref];\n    }\n    event payFees(uint256 consideration, uint256 fee, uint256 toPay);\n    /**\n        Sets settlement status for trades executed\n        @param  ref         reference to the trade executed\n        @param  status      settlement status\n     */\n    function setSettlementStatus(bytes32 ref, bytes32 status) override external{\n        (bytes32 role, bytes32 id, ) = client.getRole(msg.sender);\n        require(role=='DP', \"Settlement not done by depositary participant\");\n        bytes32 transferorDPID = settlements[ref].transferorDPID;\n        bytes32 transfereeDPID = settlements[ref].transfereeDPID;\n        require(id==transferorDPID || id==transfereeDPID, \"Settlement done by invalid depositary participant\");\n        require(status==\"Confirm\" || status==\"Reject\", \"Settlement status invalid\");\n        uint256 pay = _downscaleDown(Math.mul(_upscale(settlements[ref].consideration, _computeScalingFactor(IERC20(settlements[ref].currency))), fee), _computeScalingFactor(IERC20(settlements[ref].currency)));\n        if(status==\"Confirm\" && settlements[ref].status!=\"Confirm\" && settlements[ref].status!=\"Fail\"){            \n            fees[settlements[ref].currency] = Math.add(fees[settlements[ref].currency], pay);\n            emit payFees(settlements[ref].consideration, fee, pay);\n            IERC20(settlements[ref].currency).approve(address(this), pay);\n            /*if(IERC20(settlements[ref].currency).transferFrom(settlements[ref].transferor, address(this), pay)){                \n                settlements[ref].orderPool.orderFilled(settlements[ref].partyRef, settlements[ref].counterpartyRef, settlements[ref].executionDate);\n                emit tradeSettled(settlements[ref].transferor, \n                                    settlements[ref].transferee, \n                                    settlements[ref].unitsToTransfer,\n                                    settlements[ref].security,\n                                    settlements[ref].price,\n                                    settlements[ref].currency\n                                );\n                for(uint i=0; i<trades[transferorDPID].length; i++){\n                    if(trades[transferorDPID][i]==ref){\n                        if(i==trades[transferorDPID].length-1)\n                            delete trades[transferorDPID][i];\n                        else\n                            trades[transferorDPID][i] = trades[transferorDPID][i+1];\n                    }\n                }\n                for(uint i=0; i<trades[transfereeDPID].length; i++){\n                    if(trades[transfereeDPID][i]==ref){\n                        if(i==trades[transfereeDPID].length-1)\n                            delete trades[transfereeDPID][i];\n                        else\n                            trades[transfereeDPID][i] = trades[transfereeDPID][i+1];\n                    }\n                }\n                settlements[ref].status = \"Confirm\";                \n            }\n            else{\n                settlements[ref].orderPool.revertTrade(settlements[ref].partyRef, settlements[ref].unitsToTransfer, IOrder.Order.Sell, settlements[ref].executionDate);\n                settlements[ref].orderPool.revertTrade(settlements[ref].counterpartyRef, settlements[ref].consideration, IOrder.Order.Buy, settlements[ref].executionDate);\n                IERC20(settlements[ref].currency).approve(address(this), settlements[ref].consideration);\n                IERC20(settlements[ref].security).approve(address(this), settlements[ref].unitsToTransfer);\n                IERC20(settlements[ref].currency).transferFrom(settlements[ref].transferor, settlements[ref].transferee, settlements[ref].consideration);\n                IERC20(settlements[ref].security).transferFrom(settlements[ref].transferee, settlements[ref].transferor, settlements[ref].unitsToTransfer);\n                settlements[ref].status = \"Fail\";\n            }*/\n        }\n        else if(status==\"Reject\"){\n            settlements[ref].orderPool.revertTrade(settlements[ref].partyRef, settlements[ref].unitsToTransfer, IOrder.Order.Sell, settlements[ref].executionDate);\n            settlements[ref].orderPool.revertTrade(settlements[ref].counterpartyRef, settlements[ref].consideration, IOrder.Order.Buy, settlements[ref].executionDate);\n            IERC20(settlements[ref].currency).approve(address(this), settlements[ref].consideration);\n            IERC20(settlements[ref].security).approve(address(this), settlements[ref].unitsToTransfer);\n            IERC20(settlements[ref].currency).transferFrom(settlements[ref].transferor, settlements[ref].transferee, settlements[ref].consideration);\n            IERC20(settlements[ref].security).transferFrom(settlements[ref].transferee, settlements[ref].transferor, settlements[ref].unitsToTransfer);\n            settlements[ref].status = \"Reject\";\n        }            \n    }\n\n    /**\n        Retrieve investors in secondary pools\n        @param  poolId  pool identity\n     */\n    function getSubscribers(bytes32 poolId) override external view returns(ISettlor.subscriptions[] memory){\n        (bytes32 role, , ) = client.getRole(msg.sender);\n        require(role=='DP' || role=='Admin' || products.getHolder(poolSecurity[poolId])==msg.sender, \"Unauthorized access viewing subscribers in secondary pool.\");\n        return investors[poolId];\n    }\n\n    /**\n        Retrieve trade settlement\n        @param  ref settlement reference\n     */\n    function getTrade(bytes32 ref) external view override returns (uint256, uint256) {\n        return (settlements[ref].price, settlements[ref].askprice);\n    }\n\n    /**\n        Gets transfer agent for any of the parties in the trade\n        @param  party         reference to the party or counterparty in a trade\n     */\n    function getTransferAgent(address party) private view returns(bytes32){\n        return(client.getTransferAgent(party));\n    } \n\n    /**\n        Fetch trading fee collected in Balancer vault\n        @param  _token  address of token in which fee is collected\n     */\n    function getTradingFeeCollected(address _token) override external returns(uint256){\n        require(msg.sender==distribution, \"Unauthorized fee collection request\");\n        /*IERC20[] memory tokens = new IERC20[](1);\n        tokens[0] = IERC20(_token);\n        uint256[] memory amounts = IVault(vault).getProtocolFeesCollector().getCollectedFeeAmounts(tokens);\n        IVault(vault).getProtocolFeesCollector().withdrawCollectedFees(tokens, amounts, distribution);\n        return amounts[0];*/\n        uint256 feeCollected = fees[_token];\n        IERC20(_token).transfer(distribution, feeCollected);\n        fees[_token] = Math.sub(fees[_token], feeCollected);\n        return feeCollected;\n    }   \n\n    /**\n     * @dev This helper function is a fast and cheap way to convert between IERC20[] and IAsset[] types\n     */\n    function _convertERC20sToAssets(IERC20[] memory tokens) internal pure returns (IAsset[] memory assets) {\n        // solhint-disable-next-line no-inline-assembly\n        assembly {\n            assets := tokens\n        }\n    }\n\n    /**\n     * @dev Returns a scaling factor that, when multiplied to a token amount for `token`, normalizes its balance as if\n     * it had 18 decimals.\n     */\n    function _computeScalingFactor(IERC20 token) internal view returns (uint256) {\n        // Tokens that don't implement the `decimals` method are not supported.\n        uint256 tokenDecimals = ERC20(address(token)).decimals();\n\n        // Tokens with more than 18 decimals are not supported.\n        uint256 decimalsDifference = Math.sub(18, tokenDecimals);\n        return FixedPoint.ONE * 10**decimalsDifference;\n    }\n\n    /**\n     * @dev Reverses the `scalingFactor` applied to `amount`, resulting in a smaller or equal value depending on\n     * whether it needed scaling or not. The result is rounded down.\n     */\n    function _downscaleDown(uint256 amount, uint256 scalingFactor) internal pure returns (uint256) {\n        return FixedPoint.divDown(amount, scalingFactor);\n    }\n\n    /**\n     * @dev Applies `scalingFactor` to `amount`, resulting in a larger or equal value depending on whether it needed\n     * scaling or not.\n     */\n    function _upscale(uint256 amount, uint256 scalingFactor) internal pure returns (uint256) {\n        // Upscale rounding wouldn't necessarily always go in the same direction: in a swap for example the balance of\n        // token in should be rounded up, and that of token out rounded down. This is the only place where we round in\n        // the same direction for all amounts, as the impact of this rounding is expected to be minimal (and there's no\n        // rounding error unless `_scalingFactor()` is overriden).\n        return FixedPoint.mulDown(amount, scalingFactor);\n    }\n\n}",
  "sourcePath": "D:\\Code\\verified-balancer\\contracts\\SecondaryIssueManager.sol",
  "compiler": {
    "name": "solc",
    "version": "0.7.1+commit.f4a555be.Emscripten.clang"
  },
  "schemaVersion": "3.4.3",
  "updatedAt": "2023-02-11T14:31:40.680Z",
  "devdoc": {
    "kind": "dev",
    "methods": {
      "getSettlementRequest(bytes32)": {
        "params": {
          "ref": "reference to the trade"
        }
      },
      "getSettlementRequests(bytes32,bytes32)": {
        "params": {
          "dpid": "identifier of depository participant (eg, transfer agent) that is authorized to settle the asset "
        }
      },
      "getSubscribers(bytes32)": {
        "params": {
          "poolId": "pool identity"
        }
      },
      "getTrade(bytes32)": {
        "params": {
          "ref": "settlement reference"
        }
      },
      "getTradingFeeCollected(address)": {
        "params": {
          "_token": "address of token in which fee is collected"
        }
      },
      "initialize(address,uint256,address,address,address,address)": {
        "params": {
          "_client": "address of Verified client contract",
          "_factory": "reference to the secondary issue pool factory contract",
          "_issueFeePercentage": "percentage of trading fee to be charged by the asset manager",
          "_vault": "address of balancer vault"
        }
      },
      "issueSecondary(address,address,uint256,uint256,uint256)": {
        "params": {
          "cashAmount": "amount of currency issued in pool",
          "currency": "reference to cash (settlement) token",
          "minSecurityOrder": "minimum order size of securities issued in pool",
          "security": "reference to asset issued",
          "securityAmount": "amount of security to issue"
        }
      },
      "owner()": {
        "details": "Returns the address of the current owner."
      },
      "renounceOwnership()": {
        "details": "Leaves the contract without owner. It will not be possible to call `onlyOwner` functions anymore. Can only be called by the current owner. NOTE: Renouncing ownership will leave the contract without an owner, thereby removing any functionality that is only available to the owner."
      },
      "requestSettlement((bytes32,address,bytes32,uint256,uint256,uint256,uint256),address)": {
        "params": {
          "tradeToReport": "data structure holding order matching data"
        }
      },
      "setSettlementStatus(bytes32,bytes32)": {
        "params": {
          "ref": "reference to the trade executed",
          "status": "settlement status"
        }
      },
      "transferOwnership(address)": {
        "details": "Transfers ownership of the contract to a new account (`newOwner`). Can only be called by the current owner."
      }
    },
    "version": 1
  },
  "userdoc": {
    "kind": "user",
    "methods": {
      "getSettlementRequest(bytes32)": {
        "notice": "Fetches a specific trade settlement request        "
      },
      "getSettlementRequests(bytes32,bytes32)": {
        "notice": "Fetches trade settlement requests for depository participant"
      },
      "getSubscribers(bytes32)": {
        "notice": "Retrieve investors in secondary pools"
      },
      "getTrade(bytes32)": {
        "notice": "Retrieve trade settlement"
      },
      "getTradingFeeCollected(address)": {
        "notice": "Fetch trading fee collected in Balancer vault"
      },
      "initialize(address,uint256,address,address,address,address)": {
        "notice": "Initializes this asset management contract"
      },
      "issueSecondary(address,address,uint256,uint256,uint256)": {
        "notice": "Joins existing (secondary) tokenized assets into pool by primary issue token holders"
      },
      "requestSettlement((bytes32,address,bytes32,uint256,uint256,uint256,uint256),address)": {
        "notice": "Used by Secondary pools to request settlement for trades"
      },
      "setSettlementStatus(bytes32,bytes32)": {
        "notice": "Sets settlement status for trades executed"
      }
    },
    "version": 1
  }
}