{
  "contractName": "Snapshot",
  "abi": [
    {
      "constant": false,
      "inputs": [
        {
          "name": "spender",
          "type": "address"
        },
        {
          "name": "amount",
          "type": "uint256"
        }
      ],
      "name": "approve",
      "outputs": [
        {
          "name": "",
          "type": "bool"
        }
      ],
      "payable": false,
      "stateMutability": "nonpayable",
      "type": "function"
    },
    {
      "constant": true,
      "inputs": [],
      "name": "totalSupply",
      "outputs": [
        {
          "name": "",
          "type": "uint256"
        }
      ],
      "payable": false,
      "stateMutability": "view",
      "type": "function"
    },
    {
      "constant": false,
      "inputs": [
        {
          "name": "sender",
          "type": "address"
        },
        {
          "name": "recipient",
          "type": "address"
        },
        {
          "name": "amount",
          "type": "uint256"
        }
      ],
      "name": "transferFrom",
      "outputs": [
        {
          "name": "",
          "type": "bool"
        }
      ],
      "payable": false,
      "stateMutability": "nonpayable",
      "type": "function"
    },
    {
      "constant": false,
      "inputs": [
        {
          "name": "spender",
          "type": "address"
        },
        {
          "name": "addedValue",
          "type": "uint256"
        }
      ],
      "name": "increaseAllowance",
      "outputs": [
        {
          "name": "",
          "type": "bool"
        }
      ],
      "payable": false,
      "stateMutability": "nonpayable",
      "type": "function"
    },
    {
      "constant": true,
      "inputs": [
        {
          "name": "account",
          "type": "address"
        }
      ],
      "name": "balanceOf",
      "outputs": [
        {
          "name": "",
          "type": "uint256"
        }
      ],
      "payable": false,
      "stateMutability": "view",
      "type": "function"
    },
    {
      "constant": false,
      "inputs": [
        {
          "name": "spender",
          "type": "address"
        },
        {
          "name": "subtractedValue",
          "type": "uint256"
        }
      ],
      "name": "decreaseAllowance",
      "outputs": [
        {
          "name": "",
          "type": "bool"
        }
      ],
      "payable": false,
      "stateMutability": "nonpayable",
      "type": "function"
    },
    {
      "constant": false,
      "inputs": [
        {
          "name": "recipient",
          "type": "address"
        },
        {
          "name": "amount",
          "type": "uint256"
        }
      ],
      "name": "transfer",
      "outputs": [
        {
          "name": "",
          "type": "bool"
        }
      ],
      "payable": false,
      "stateMutability": "nonpayable",
      "type": "function"
    },
    {
      "constant": true,
      "inputs": [
        {
          "name": "owner",
          "type": "address"
        },
        {
          "name": "spender",
          "type": "address"
        }
      ],
      "name": "allowance",
      "outputs": [
        {
          "name": "",
          "type": "uint256"
        }
      ],
      "payable": false,
      "stateMutability": "view",
      "type": "function"
    },
    {
      "anonymous": false,
      "inputs": [
        {
          "indexed": true,
          "name": "security",
          "type": "address"
        },
        {
          "indexed": false,
          "name": "oldTime",
          "type": "uint256"
        },
        {
          "indexed": false,
          "name": "newTime",
          "type": "uint256"
        }
      ],
      "name": "SnapshotSchedule",
      "type": "event"
    },
    {
      "anonymous": false,
      "inputs": [
        {
          "indexed": true,
          "name": "security",
          "type": "address"
        },
        {
          "indexed": false,
          "name": "time",
          "type": "uint256"
        }
      ],
      "name": "SnapshotUnschedule",
      "type": "event"
    },
    {
      "anonymous": false,
      "inputs": [
        {
          "indexed": true,
          "name": "from",
          "type": "address"
        },
        {
          "indexed": true,
          "name": "to",
          "type": "address"
        },
        {
          "indexed": false,
          "name": "value",
          "type": "uint256"
        }
      ],
      "name": "Transfer",
      "type": "event"
    },
    {
      "anonymous": false,
      "inputs": [
        {
          "indexed": true,
          "name": "owner",
          "type": "address"
        },
        {
          "indexed": true,
          "name": "spender",
          "type": "address"
        },
        {
          "indexed": false,
          "name": "value",
          "type": "uint256"
        }
      ],
      "name": "Approval",
      "type": "event"
    },
    {
      "constant": true,
      "inputs": [],
      "name": "getNextSnapshots",
      "outputs": [
        {
          "name": "",
          "type": "uint256[]"
        }
      ],
      "payable": false,
      "stateMutability": "view",
      "type": "function"
    },
    {
      "constant": true,
      "inputs": [
        {
          "name": "time",
          "type": "uint256"
        },
        {
          "name": "owner",
          "type": "address"
        }
      ],
      "name": "snapshotBalanceOf",
      "outputs": [
        {
          "name": "",
          "type": "uint256"
        }
      ],
      "payable": false,
      "stateMutability": "view",
      "type": "function"
    },
    {
      "constant": true,
      "inputs": [
        {
          "name": "time",
          "type": "uint256"
        }
      ],
      "name": "snapshotTotalSupply",
      "outputs": [
        {
          "name": "",
          "type": "uint256"
        }
      ],
      "payable": false,
      "stateMutability": "view",
      "type": "function"
    }
  ],
  "bytecode": "0x6080604052610af6806100136000396000f3fe608060405234801561001057600080fd5b50600436106100a95760003560e01c8063634daf7611610071578063634daf761461018757806370a08231146101b3578063a457c2d7146101d9578063a9059cbb14610205578063dd62ed3e14610231578063fb78ed401461025f576100a9565b8063095ea7b3146100ae57806318160ddd146100ee57806323b872dd14610108578063395093511461013e5780635ee7a9421461016a575b600080fd5b6100da600480360360408110156100c457600080fd5b506001600160a01b0381351690602001356102b7565b604080519115158252519081900360200190f35b6100f66102d5565b60408051918252519081900360200190f35b6100da6004803603606081101561011e57600080fd5b506001600160a01b038135811691602081013590911690604001356102db565b6100da6004803603604081101561015457600080fd5b506001600160a01b038135169060200135610368565b6100f66004803603602081101561018057600080fd5b50356103bc565b6100f66004803603604081101561019d57600080fd5b50803590602001356001600160a01b03166103ec565b6100f6600480360360208110156101c957600080fd5b50356001600160a01b0316610435565b6100da600480360360408110156101ef57600080fd5b506001600160a01b038135169060200135610450565b6100da6004803603604081101561021b57600080fd5b506001600160a01b0381351690602001356104be565b6100f66004803603604081101561024757600080fd5b506001600160a01b03813581169160200135166104d2565b6102676104fd565b60408051602080825283518183015283519192839290830191858101910280838360005b838110156102a357818101518382015260200161028b565b505050509050019250505060405180910390f35b60006102cb6102c4610555565b8484610559565b5060015b92915050565b60355490565b60006102e884848461064b565b61035e846102f4610555565b61035985604051806060016040528060288152602001610a35602891396001600160a01b038a16600090815260346020526040812090610332610555565b6001600160a01b03168152602081019190915260400160002054919063ffffffff6107af16565b610559565b5060019392505050565b60006102cb610375610555565b846103598560346000610386610555565b6001600160a01b03908116825260208083019390935260409182016000908120918c16815292529020549063ffffffff61084916565b60008060006103cc8460696108ad565b91509150816103e2576103dd6102d5565b6103e4565b805b949350505050565b6001600160a01b0381166000908152606860205260408120819081906104139086906108ad565b915091508161042a5761042584610435565b61042c565b805b95945050505050565b6001600160a01b031660009081526033602052604090205490565b60006102cb61045d610555565b8461035985604051806060016040528060258152602001610aa66025913960346000610487610555565b6001600160a01b03908116825260208083019390935260409182016000908120918d1681529252902054919063ffffffff6107af16565b60006102cb6104cb610555565b848461064b565b6001600160a01b03918216600090815260346020908152604080832093909416825291909152205490565b6060606c80548060200260200160405190810160405280929190818152602001828054801561054b57602002820191906000526020600020905b815481526020019060010190808311610537575b5050505050905090565b3390565b6001600160a01b0383166105a157604051600160e51b62461bcd028152600401808060200182810382526024815260200180610a826024913960400191505060405180910390fd5b6001600160a01b0382166105e957604051600160e51b62461bcd0281526004018080602001828103825260228152602001806109ed6022913960400191505060405180910390fd5b6001600160a01b03808416600081815260346020908152604080832094871680845294825291829020859055815185815291517f8c5be1e5ebec7d5bd14f71427d1e84f3dd0314c0f7b2291e5b200ac8c7c3b9259281900390910190a3505050565b6001600160a01b03831661069357604051600160e51b62461bcd028152600401808060200182810382526025815260200180610a5d6025913960400191505060405180910390fd5b6001600160a01b0382166106db57604051600160e51b62461bcd0281526004018080602001828103825260238152602001806109ca6023913960400191505060405180910390fd5b61071e81604051806060016040528060268152602001610a0f602691396001600160a01b038616600090815260336020526040902054919063ffffffff6107af16565b6001600160a01b038085166000908152603360205260408082209390935590841681522054610753908263ffffffff61084916565b6001600160a01b0380841660008181526033602090815260409182902094909455805185815290519193928716927fddf252ad1be2c89b69c2b068fc378daa952ba7f163c4a11628f55a4df523b3ef92918290030190a3505050565b6000818484111561084157604051600160e51b62461bcd0281526004018080602001828103825283818151815260200191508051906020019080838360005b838110156108065781810151838201526020016107ee565b50505050905090810190601f1680156108335780820380516001836020036101000a031916815260200191505b509250505060405180910390fd5b505050900390565b6000828201838110156108a65760408051600160e51b62461bcd02815260206004820152601b60248201527f536166654d6174683a206164646974696f6e206f766572666c6f770000000000604482015290519081900360640190fd5b9392505050565b600080806108c1848663ffffffff61090316565b84549091508114156108da5750600091508190506108fc565b60018460010182815481106108eb57fe5b906000526020600020015492509250505b9250929050565b8154600090610914575060006102cf565b82546000905b8082101561096357600061092e83836109a4565b90508486828154811061093d57fe5b906000526020600020015411156109565780915061095d565b8060010192505b5061091a565b60008211801561098b57508385600184038154811061097e57fe5b9060005260206000200154145b1561099c57506000190190506102cf565b5090506102cf565b600060028083066002850601816109b757fe5b0460028304600285040101939250505056fe45524332303a207472616e7366657220746f20746865207a65726f206164647265737345524332303a20617070726f766520746f20746865207a65726f206164647265737345524332303a207472616e7366657220616d6f756e7420657863656564732062616c616e636545524332303a207472616e7366657220616d6f756e74206578636565647320616c6c6f77616e636545524332303a207472616e736665722066726f6d20746865207a65726f206164647265737345524332303a20617070726f76652066726f6d20746865207a65726f206164647265737345524332303a2064656372656173656420616c6c6f77616e63652062656c6f77207a65726fa165627a7a72305820a37cc6fe7482664c47ac57f20061fc993ce36f1ff25e9435ded729c2bc93c8d40029",
  "source": "//SPDX-License-Identifier: MPL-2.0\r\n//Used from CMTA implementation which is inspired by OpenZeppelin's ERC20Snapshot\r\n\r\npragma solidity 0.5.7;\r\n\r\nimport \"@openzeppelin/contracts-ethereum-package/contracts/utils/Arrays.sol\";\r\nimport \"@openzeppelin/contracts-ethereum-package/contracts/token/ERC20/ERC20.sol\";\r\n\r\n/**\r\n * @dev Snapshot module.\r\n *\r\n * Useful to take a snapshot of token holder balance and total supply at a specific time\r\n */\r\n\r\ncontract Snapshot is ERC20\r\n{\r\n    using Arrays for uint256[];\r\n\r\n    event SnapshotSchedule(address indexed security, uint256 oldTime, uint256 newTime);\r\n    event SnapshotUnschedule(address indexed security, uint256 time);\r\n\r\n    struct Snapshots {\r\n        uint256[] ids;\r\n        uint256[] values;\r\n    }\r\n\r\n    mapping(address => Snapshots) private _accountBalanceSnapshots;\r\n    Snapshots private _totalSupplySnapshots;\r\n\r\n    uint256 private _currentSnapshot;\r\n\r\n    uint256[] private _scheduledSnapshots;\r\n\r\n    function _scheduleSnapshot(uint256 time) internal {\r\n        require(block.timestamp < time, \"Snapshot in the past\");\r\n        (bool found, ) = _findScheduledSnapshotIndex(time);\r\n        require(!found, \"Snapshot exists for this time\");\r\n        _scheduledSnapshots.push(time);\r\n        emit SnapshotSchedule(address(this), 0, time);\r\n    }\r\n\r\n    function _rescheduleSnapshot(uint256 oldTime, uint256 newTime)\r\n        internal\r\n    {\r\n        require(block.timestamp < oldTime, \"Snapshot already done\");\r\n        require(block.timestamp < newTime, \"Snapshot in the past\");\r\n\r\n        (bool foundNew, ) = _findScheduledSnapshotIndex(newTime);\r\n        require(!foundNew, \"Snapshot exists for this time\");\r\n\r\n        (bool foundOld, uint256 index) = _findScheduledSnapshotIndex(oldTime);\r\n        require(foundOld, \"Snapshot not found\");\r\n\r\n        _scheduledSnapshots[index] = newTime;\r\n\r\n        emit SnapshotSchedule(address(this), oldTime, newTime);\r\n    }\r\n\r\n    function _unscheduleSnapshot(uint256 time) internal {\r\n        require(block.timestamp < time, \"Snapshot already done\");\r\n        (bool found, uint256 index) = _findScheduledSnapshotIndex(time);\r\n        require(found, \"Snapshot not found\");\r\n\r\n        _removeScheduledItem(index);\r\n\r\n        emit SnapshotUnschedule(address(this), time);\r\n    }\r\n\r\n    function getNextSnapshots() public view returns (uint256[] memory) {\r\n        return _scheduledSnapshots;\r\n    }\r\n\r\n    function snapshotBalanceOf(uint256 time, address owner)\r\n        public\r\n        view\r\n        returns (uint256)\r\n    {\r\n        (bool snapshotted, uint256 value) = _valueAt(\r\n            time,\r\n            _accountBalanceSnapshots[owner]\r\n        );\r\n\r\n        return snapshotted ? value : balanceOf(owner);\r\n    }\r\n\r\n    function snapshotTotalSupply(uint256 time) public view returns (uint256) {\r\n        (bool snapshotted, uint256 value) = _valueAt(\r\n            time,\r\n            _totalSupplySnapshots\r\n        );\r\n\r\n        return snapshotted ? value : totalSupply();\r\n    }\r\n\r\n    // Update balance and/or total supply snapshots before the values are modified. This is implemented\r\n    // in the _beforeTokenTransfer hook, which is executed for _mint, _burn, and _transfer operations.\r\n    function _beforeTokenTransfer(\r\n        address from,\r\n        address to,\r\n        uint256 amount\r\n    ) internal {\r\n        //super._beforeTokenTransfer(from, to, amount);\r\n\r\n        _setCurrentSnapshot();\r\n        if (from != address(0)) {\r\n            // for both burn and transfer\r\n            _updateAccountSnapshot(from);\r\n            if (to != address(0)) {\r\n                // transfer\r\n                _updateAccountSnapshot(to);\r\n            } else {\r\n                // burn\r\n                _updateTotalSupplySnapshot();\r\n            }\r\n        } else {\r\n            // mint\r\n            _updateAccountSnapshot(to);\r\n            _updateTotalSupplySnapshot();\r\n        }\r\n    }\r\n\r\n    function _valueAt(uint256 time, Snapshots storage snapshots)\r\n        private\r\n        view\r\n        returns (bool, uint256)\r\n    {\r\n        // When a valid snapshot is queried, there are three possibilities:\r\n        //  a) The queried value was not modified after the snapshot was taken. Therefore, a snapshot entry was never\r\n        //  created for this id, and all stored snapshot ids are smaller than the requested one. The value that corresponds\r\n        //  to this id is the current one.\r\n        //  b) The queried value was modified after the snapshot was taken. Therefore, there will be an entry with the\r\n        //  requested id, and its value is the one to return.\r\n        //  c) More snapshots were created after the requested one, and the queried value was later modified. There will be\r\n        //  no entry for the requested id: the value that corresponds to it is that of the smallest snapshot id that is\r\n        //  larger than the requested one.\r\n        //\r\n        // In summary, we need to find an element in an array, returning the index of the smallest value that is larger if\r\n        // it is not found, unless said value doesn't exist (e.g. when all values are smaller). Arrays.findUpperBound does\r\n        // exactly this.\r\n\r\n        uint256 index = snapshots.ids.findUpperBound(time);\r\n\r\n        if (index == snapshots.ids.length) {\r\n            return (false, 0);\r\n        } else {\r\n            return (true, snapshots.values[index]);\r\n        }\r\n    }\r\n\r\n    function _updateAccountSnapshot(address account) private {\r\n        _updateSnapshot(_accountBalanceSnapshots[account], balanceOf(account));\r\n    }\r\n\r\n    function _updateTotalSupplySnapshot() private {\r\n        _updateSnapshot(_totalSupplySnapshots, totalSupply());\r\n    }\r\n\r\n    function _updateSnapshot(Snapshots storage snapshots, uint256 currentValue)\r\n        private\r\n    {\r\n        uint256 current = _getCurrentSnapshot();\r\n        if (_lastSnapshot(snapshots.ids) < current) {\r\n            snapshots.ids.push(current);\r\n            snapshots.values.push(currentValue);\r\n        }\r\n    }\r\n\r\n    function _setCurrentSnapshot() internal {\r\n        uint256 time = _findScheduledMostRecentPastSnapshot();\r\n        if (time > 0) {\r\n            _currentSnapshot = time;\r\n            _clearPastScheduled();\r\n        }\r\n    }\r\n\r\n    function _getCurrentSnapshot() internal view returns (uint256) {\r\n        return _currentSnapshot;\r\n    }\r\n\r\n    function _lastSnapshot(uint256[] storage ids)\r\n        private\r\n        view\r\n        returns (uint256)\r\n    {\r\n        if (ids.length == 0) {\r\n            return 0;\r\n        } else {\r\n            return ids[ids.length - 1];\r\n        }\r\n    }\r\n\r\n    function _findScheduledSnapshotIndex(uint256 time)\r\n        private\r\n        view\r\n        returns (bool, uint256)\r\n    {\r\n        for (uint256 i = 0; i < _scheduledSnapshots.length; i++) {\r\n            if (_scheduledSnapshots[i] == time) {\r\n                return (true, i);\r\n            }\r\n        }\r\n        return (false, 0);\r\n    }\r\n\r\n    function _findScheduledMostRecentPastSnapshot()\r\n        private\r\n        view\r\n        returns (uint256)\r\n    {\r\n        if (_scheduledSnapshots.length == 0) return 0;\r\n        uint256 mostRecent = 0;\r\n        for (uint256 i = 0; i < _scheduledSnapshots.length; i++) {\r\n            if (\r\n                _scheduledSnapshots[i] <= block.timestamp &&\r\n                _scheduledSnapshots[i] > mostRecent\r\n            ) {\r\n                mostRecent = _scheduledSnapshots[i];\r\n            }\r\n        }\r\n        return mostRecent;\r\n    }\r\n\r\n    function _clearPastScheduled() private {\r\n        uint256 i = 0;\r\n        while (i < _scheduledSnapshots.length) {\r\n            if (_scheduledSnapshots[i] <= block.timestamp) {\r\n                _removeScheduledItem(i);\r\n            } else {\r\n                i += 1;\r\n            }\r\n        }\r\n    }\r\n\r\n    function _removeScheduledItem(uint256 index) private {\r\n        _scheduledSnapshots[index] = _scheduledSnapshots[\r\n            _scheduledSnapshots.length - 1\r\n        ];\r\n        _scheduledSnapshots.pop();\r\n    }\r\n\r\n    //function scheduleSnapshot(uint256 time) public;\r\n\r\n    //function rescheduleSnapshot(uint256 oldTime, uint256 newTime) public;\r\n\r\n    //function unscheduleSnapshot(uint256 time) public;\r\n\r\n}\r\n",
  "sourcePath": "D:\\Code\\verified-securities\\contracts\\Snapshot.sol",
  "compiler": {
    "name": "solc",
    "version": "0.5.7+commit.6da8b019.Emscripten.clang"
  },
  "schemaVersion": "3.4.3",
  "updatedAt": "2023-05-04T14:22:58.474Z",
  "devdoc": {
    "details": "Snapshot module.\r  * Useful to take a snapshot of token holder balance and total supply at a specific time\r",
    "methods": {
      "allowance(address,address)": {
        "details": "See {IERC20-allowance}."
      },
      "approve(address,uint256)": {
        "details": "See {IERC20-approve}.     * Requirements:     * - `spender` cannot be the zero address."
      },
      "balanceOf(address)": {
        "details": "See {IERC20-balanceOf}."
      },
      "decreaseAllowance(address,uint256)": {
        "details": "Atomically decreases the allowance granted to `spender` by the caller.     * This is an alternative to {approve} that can be used as a mitigation for problems described in {IERC20-approve}.     * Emits an {Approval} event indicating the updated allowance.     * Requirements:     * - `spender` cannot be the zero address. - `spender` must have allowance for the caller of at least `subtractedValue`."
      },
      "increaseAllowance(address,uint256)": {
        "details": "Atomically increases the allowance granted to `spender` by the caller.     * This is an alternative to {approve} that can be used as a mitigation for problems described in {IERC20-approve}.     * Emits an {Approval} event indicating the updated allowance.     * Requirements:     * - `spender` cannot be the zero address."
      },
      "totalSupply()": {
        "details": "See {IERC20-totalSupply}."
      },
      "transfer(address,uint256)": {
        "details": "See {IERC20-transfer}.     * Requirements:     * - `recipient` cannot be the zero address. - the caller must have a balance of at least `amount`."
      },
      "transferFrom(address,address,uint256)": {
        "details": "See {IERC20-transferFrom}.     * Emits an {Approval} event indicating the updated allowance. This is not required by the EIP. See the note at the beginning of {ERC20};     * Requirements: - `sender` and `recipient` cannot be the zero address. - `sender` must have a balance of at least `amount`. - the caller must have allowance for `sender`'s tokens of at least `amount`."
      }
    }
  },
  "userdoc": {
    "methods": {}
  }
}