{
  "abi": [
    {
      "inputs": [
        {
          "internalType": "contract Comet",
          "name": "comet_",
          "type": "address"
        }
      ],
      "stateMutability": "payable",
      "type": "constructor"
    },
    {
      "anonymous": false,
      "inputs": [
        {
          "indexed": true,
          "internalType": "address",
          "name": "borrower",
          "type": "address"
        },
        {
          "indexed": true,
          "internalType": "address",
          "name": "base",
          "type": "address"
        },
        {
          "indexed": false,
          "internalType": "uint256",
          "name": "amount",
          "type": "uint256"
        }
      ],
      "name": "Borrowed",
      "type": "event"
    },
    {
      "anonymous": false,
      "inputs": [
        {
          "indexed": true,
          "internalType": "address",
          "name": "issuer",
          "type": "address"
        },
        {
          "indexed": true,
          "internalType": "address",
          "name": "asset",
          "type": "address"
        },
        {
          "indexed": false,
          "internalType": "address",
          "name": "bond",
          "type": "address"
        },
        {
          "indexed": false,
          "internalType": "uint256",
          "name": "apy",
          "type": "uint256"
        },
        {
          "indexed": false,
          "internalType": "string",
          "name": "issuingDocs",
          "type": "string"
        },
        {
          "indexed": false,
          "internalType": "uint256",
          "name": "faceValue",
          "type": "uint256"
        }
      ],
      "name": "NewRWA",
      "type": "event"
    },
    {
      "anonymous": false,
      "inputs": [
        {
          "indexed": true,
          "internalType": "address",
          "name": "issuer",
          "type": "address"
        },
        {
          "indexed": true,
          "internalType": "address",
          "name": "asset",
          "type": "address"
        },
        {
          "indexed": false,
          "internalType": "address",
          "name": "collateral",
          "type": "address"
        },
        {
          "indexed": false,
          "internalType": "uint256",
          "name": "amount",
          "type": "uint256"
        }
      ],
      "name": "PostedCollateral",
      "type": "event"
    },
    {
      "anonymous": false,
      "inputs": [
        {
          "indexed": true,
          "internalType": "address",
          "name": "borrower",
          "type": "address"
        },
        {
          "indexed": true,
          "internalType": "address",
          "name": "base",
          "type": "address"
        },
        {
          "indexed": false,
          "internalType": "uint256",
          "name": "amount",
          "type": "uint256"
        }
      ],
      "name": "Repaid",
      "type": "event"
    },
    {
      "inputs": [
        {
          "internalType": "address",
          "name": "base",
          "type": "address"
        },
        {
          "internalType": "uint256",
          "name": "amount",
          "type": "uint256"
        }
      ],
      "name": "borrowBase",
      "outputs": [],
      "stateMutability": "nonpayable",
      "type": "function"
    },
    {
      "inputs": [],
      "name": "comet",
      "outputs": [
        {
          "internalType": "contract Comet",
          "name": "",
          "type": "address"
        }
      ],
      "stateMutability": "view",
      "type": "function"
    },
    {
      "inputs": [
        {
          "internalType": "address",
          "name": "asset",
          "type": "address"
        },
        {
          "internalType": "address",
          "name": "collateral",
          "type": "address"
        },
        {
          "internalType": "uint256",
          "name": "amount",
          "type": "uint256"
        }
      ],
      "name": "postCollateral",
      "outputs": [],
      "stateMutability": "nonpayable",
      "type": "function"
    },
    {
      "inputs": [
        {
          "internalType": "address",
          "name": "base",
          "type": "address"
        },
        {
          "internalType": "uint256",
          "name": "amount",
          "type": "uint256"
        }
      ],
      "name": "repayBase",
      "outputs": [],
      "stateMutability": "nonpayable",
      "type": "function"
    },
    {
      "inputs": [
        {
          "internalType": "address",
          "name": "asset",
          "type": "address"
        },
        {
          "internalType": "address",
          "name": "bond",
          "type": "address"
        },
        {
          "internalType": "uint256",
          "name": "apy",
          "type": "uint256"
        },
        {
          "internalType": "string",
          "name": "issuingDocs",
          "type": "string"
        },
        {
          "internalType": "uint256",
          "name": "faceValue",
          "type": "uint256"
        }
      ],
      "name": "submitNewRWA",
      "outputs": [],
      "stateMutability": "nonpayable",
      "type": "function"
    },
    {
      "inputs": [
        {
          "internalType": "address",
          "name": "asset",
          "type": "address"
        },
        {
          "internalType": "bool",
          "name": "ballot",
          "type": "bool"
        }
      ],
      "name": "voteOnRWA",
      "outputs": [],
      "stateMutability": "nonpayable",
      "type": "function"
    }
  ],
  "bytecode": {
    "object": "0x60a060405260405161104938038061104983398101604081905261002291610033565b6001600160a01b0316608052610063565b60006020828403121561004557600080fd5b81516001600160a01b038116811461005c57600080fd5b9392505050565b608051610fa26100a76000396000818160ba0152818161043a015281816104ba0152818161058c015281816106440152818161073f015261092b0152610fa26000f3fe608060405234801561001057600080fd5b50600436106100625760003560e01c8063100bf6eb146100675780632511e8a01461007c57806359a8ab581461008f578063a4bcec59146100a2578063ba3e9c12146100b5578063cc3916a1146100f8575b600080fd5b61007a610075366004610abc565b61010a565b005b61007a61008a366004610b88565b610331565b61007a61009d366004610b88565b61062f565b61007a6100b0366004610bb4565b6107fe565b6100dc7f000000000000000000000000000000000000000000000000000000000000000081565b6040516001600160a01b03909116815260200160405180910390f35b61007a610106366004610c03565b5050565b6001600160a01b0385161580159061012a57506001600160a01b03841615155b80156101365750600083115b80156101425750600081115b6101935760405162461bcd60e51b815260206004820181905260248201527f525741207375626d697373696f6e203a20496e76616c6964207265717565737460448201526064015b60405180910390fd5b336001600160a01b0316846001600160a01b031663525564216040518163ffffffff1660e01b8152600401602060405180830381865afa1580156101db573d6000803e3d6000fd5b505050506040513d601f19601f820116820180604052508101906101ff9190610c4c565b6001600160a01b0316146102555760405162461bcd60e51b815260206004820152601f60248201527f525741207375626d697373696f6e203a20496e76616c69642069737375657200604482015260640161018a565b604080516080810182526001600160a01b0386811682526020808301878152838501878152606085018790523360009081528084528681208c8616825290935294909120835181546001600160a01b031916931692909217825551600182015591519091829160028201906102ca9082610cf9565b5060608201518160030155905050856001600160a01b0316336001600160a01b03167f7c0346ec0308e754879b9eb61355f12e6d4469883179fb5774ad1c3d9a7313d0878787876040516103219493929190610db9565b60405180910390a3505050505050565b6001600160a01b038216158015906103495750600181115b6103955760405162461bcd60e51b815260206004820152601760248201527f5265706179696e672062617365203a20496e76616c6964000000000000000000604482015260640161018a565b60405163095ea7b360e01b8152336004820152602481018290526001600160a01b0383169063095ea7b3906044016020604051808303816000875af11580156103e2573d6000803e3d6000fd5b505050506040513d601f19601f820116820180604052508101906104069190610e25565b50604051639032317760e01b81523360048201526001600160a01b03838116602483018190526044830152606482018390527f00000000000000000000000000000000000000000000000000000000000000001690639032317790608401600060405180830381600087803b15801561047e57600080fd5b505af1158015610492573d6000803e3d6000fd5b5050604051631d9df61760e11b81526001600160a01b038581166004830152600093508492507f00000000000000000000000000000000000000000000000000000000000000001690633b3bec2e9060240161010060405180830381865afa158015610502573d6000803e3d6000fd5b505050506040513d601f19601f820116820180604052508101906105269190610e7a565b6080015167ffffffffffffffff1661053e9190610f26565b3360008181526001602090815260408083206001600160a01b0389811685529252918290205491516361d9ad3f60e11b815260048101939093529081166024830152604482018390529192507f00000000000000000000000000000000000000000000000000000000000000009091169063c3b35a7e90606401600060405180830381600087803b1580156105d257600080fd5b505af11580156105e6573d6000803e3d6000fd5b50506040518481526001600160a01b03861692503391507f0a3fbbea70e93f2daafa3102f5c9a1b8315e6d7a1e43e4bc020bc1162327470a9060200160405180910390a3505050565b6001600160a01b038216158015906106c757507f00000000000000000000000000000000000000000000000000000000000000006001600160a01b031663300e6beb6040518163ffffffff1660e01b8152600401602060405180830381865afa1580156106a0573d6000803e3d6000fd5b505050506040513d601f19601f820116820180604052508101906106c49190610f53565b81115b6107135760405162461bcd60e51b815260206004820152601860248201527f426f72726f77696e672062617365203a20496e76616c69640000000000000000604482015260640161018a565b6040516361d9ad3f60e11b81523360048201526001600160a01b038381166024830152604482018390527f0000000000000000000000000000000000000000000000000000000000000000169063c3b35a7e90606401600060405180830381600087803b15801561078357600080fd5b505af1158015610797573d6000803e3d6000fd5b50503360008181526001602090815260408083206001600160a01b03891680855290835292819020600201879055518681529194509192507f3fc499aeb0bb1cb58b6de8b02b3f86f4e7394e9690bef0110e32ced8a5631045910160405180910390a35050565b6001600160a01b0383161580159061081e57506001600160a01b03821615155b801561082a5750600081115b6108855760405162461bcd60e51b815260206004820152602660248201527f436f6d657420436f6c6c61746572616c2070726f766973696f6e696e673a20496044820152651b9d985b1a5960d21b606482015260840161018a565b60405163095ea7b360e01b8152336004820152602481018290526001600160a01b0384169063095ea7b3906044016020604051808303816000875af11580156108d2573d6000803e3d6000fd5b505050506040513d601f19601f820116820180604052508101906108f69190610e25565b50604051639032317760e01b81523360048201526001600160a01b0384811660248301528381166044830152606482018390527f00000000000000000000000000000000000000000000000000000000000000001690639032317790608401600060405180830381600087803b15801561096f57600080fd5b505af1158015610983573d6000803e3d6000fd5b5050604080516060810182526001600160a01b03868116808352602080840188815260008587018181523380835260018086528984208f8916808652908752938a9020895181546001600160a01b031916991698909817885593519387019390935551600290950194909455855192835290820188905292955090935090917f6d9c01d2a1bfe391d97dad0c8485ad9eb8603cf2404ea70f733fe47b186a0f51910160405180910390a350505050565b6001600160a01b0381168114610a4857600080fd5b50565b634e487b7160e01b600052604160045260246000fd5b604051610100810167ffffffffffffffff81118282101715610a8557610a85610a4b565b60405290565b604051601f8201601f1916810167ffffffffffffffff81118282101715610ab457610ab4610a4b565b604052919050565b600080600080600060a08688031215610ad457600080fd5b8535610adf81610a33565b9450602086810135610af081610a33565b945060408701359350606087013567ffffffffffffffff80821115610b1457600080fd5b818901915089601f830112610b2857600080fd5b813581811115610b3a57610b3a610a4b565b610b4c601f8201601f19168501610a8b565b91508082528a84828501011115610b6257600080fd5b808484018584013760009082019093019290925250949793965091946080013592915050565b60008060408385031215610b9b57600080fd5b8235610ba681610a33565b946020939093013593505050565b600080600060608486031215610bc957600080fd5b8335610bd481610a33565b92506020840135610be481610a33565b929592945050506040919091013590565b8015158114610a4857600080fd5b60008060408385031215610c1657600080fd5b8235610c2181610a33565b91506020830135610c3181610bf5565b809150509250929050565b8051610c4781610a33565b919050565b600060208284031215610c5e57600080fd5b8151610c6981610a33565b9392505050565b600181811c90821680610c8457607f821691505b602082108103610ca457634e487b7160e01b600052602260045260246000fd5b50919050565b601f821115610cf457600081815260208120601f850160051c81016020861015610cd15750805b601f850160051c820191505b81811015610cf057828155600101610cdd565b5050505b505050565b815167ffffffffffffffff811115610d1357610d13610a4b565b610d2781610d218454610c70565b84610caa565b602080601f831160018114610d5c5760008415610d445750858301515b600019600386901b1c1916600185901b178555610cf0565b600085815260208120601f198616915b82811015610d8b57888601518255948401946001909101908401610d6c565b5085821015610da95787850151600019600388901b60f8161c191681555b5050505050600190811b01905550565b60018060a01b038516815260006020858184015260806040840152845180608085015260005b81811015610dfb5786810183015185820160a001528201610ddf565b50600060a0828601015260a0601f19601f8301168501019250505082606083015295945050505050565b600060208284031215610e3757600080fd5b8151610c6981610bf5565b805167ffffffffffffffff81168114610c4757600080fd5b80516fffffffffffffffffffffffffffffffff81168114610c4757600080fd5b60006101008284031215610e8d57600080fd5b610e95610a61565b825160ff81168114610ea657600080fd5b8152610eb460208401610c3c565b6020820152610ec560408401610c3c565b6040820152610ed660608401610e42565b6060820152610ee760808401610e42565b6080820152610ef860a08401610e42565b60a0820152610f0960c08401610e42565b60c0820152610f1a60e08401610e5a565b60e08201529392505050565b6000816000190483118215151615610f4e57634e487b7160e01b600052601160045260246000fd5b500290565b600060208284031215610f6557600080fd5b505191905056fea2646970667358221220f3e20b845e849d5a3c8aae91f0f7f59135963fdb807c9a93277e10b88c02bc8364736f6c63430008100033",
    "linkReferences": {}
  },
  "methodIdentifiers": {
    "borrowBase(address,uint256)": "59a8ab58",
    "comet()": "ba3e9c12",
    "postCollateral(address,address,uint256)": "a4bcec59",
    "repayBase(address,uint256)": "2511e8a0",
    "submitNewRWA(address,address,uint256,string,uint256)": "100bf6eb",
    "voteOnRWA(address,bool)": "cc3916a1"
  },
  "id": 8
}